{"abi":[{"type":"constructor","inputs":[{"name":"_strategyManager","type":"address","internalType":"contract IStrategyManager"}],"stateMutability":"nonpayable"},{"type":"function","name":"deposit","inputs":[{"name":"token","type":"address","internalType":"contract IERC20"},{"name":"amount","type":"uint256","internalType":"uint256"}],"outputs":[{"name":"newShares","type":"uint256","internalType":"uint256"}],"stateMutability":"nonpayable"},{"type":"function","name":"explanation","inputs":[],"outputs":[{"name":"","type":"string","internalType":"string"}],"stateMutability":"pure"},{"type":"function","name":"initialize","inputs":[{"name":"_underlyingToken","type":"address","internalType":"contract IERC20"},{"name":"_pauserRegistry","type":"address","internalType":"contract IPauserRegistry"}],"outputs":[],"stateMutability":"nonpayable"},{"type":"function","name":"pause","inputs":[{"name":"newPausedStatus","type":"uint256","internalType":"uint256"}],"outputs":[],"stateMutability":"nonpayable"},{"type":"function","name":"pauseAll","inputs":[],"outputs":[],"stateMutability":"nonpayable"},{"type":"function","name":"paused","inputs":[{"name":"index","type":"uint8","internalType":"uint8"}],"outputs":[{"name":"","type":"bool","internalType":"bool"}],"stateMutability":"view"},{"type":"function","name":"paused","inputs":[],"outputs":[{"name":"","type":"uint256","internalType":"uint256"}],"stateMutability":"view"},{"type":"function","name":"pauserRegistry","inputs":[],"outputs":[{"name":"","type":"address","internalType":"contract IPauserRegistry"}],"stateMutability":"view"},{"type":"function","name":"setPauserRegistry","inputs":[{"name":"newPauserRegistry","type":"address","internalType":"contract IPauserRegistry"}],"outputs":[],"stateMutability":"nonpayable"},{"type":"function","name":"shares","inputs":[{"name":"user","type":"address","internalType":"address"}],"outputs":[{"name":"","type":"uint256","internalType":"uint256"}],"stateMutability":"view"},{"type":"function","name":"sharesToUnderlying","inputs":[{"name":"amountShares","type":"uint256","internalType":"uint256"}],"outputs":[{"name":"","type":"uint256","internalType":"uint256"}],"stateMutability":"view"},{"type":"function","name":"sharesToUnderlyingView","inputs":[{"name":"amountShares","type":"uint256","internalType":"uint256"}],"outputs":[{"name":"","type":"uint256","internalType":"uint256"}],"stateMutability":"view"},{"type":"function","name":"strategyManager","inputs":[],"outputs":[{"name":"","type":"address","internalType":"contract IStrategyManager"}],"stateMutability":"view"},{"type":"function","name":"totalShares","inputs":[],"outputs":[{"name":"","type":"uint256","internalType":"uint256"}],"stateMutability":"view"},{"type":"function","name":"underlyingToShares","inputs":[{"name":"amountUnderlying","type":"uint256","internalType":"uint256"}],"outputs":[{"name":"","type":"uint256","internalType":"uint256"}],"stateMutability":"view"},{"type":"function","name":"underlyingToSharesView","inputs":[{"name":"amountUnderlying","type":"uint256","internalType":"uint256"}],"outputs":[{"name":"","type":"uint256","internalType":"uint256"}],"stateMutability":"view"},{"type":"function","name":"underlyingToken","inputs":[],"outputs":[{"name":"","type":"address","internalType":"contract IERC20"}],"stateMutability":"view"},{"type":"function","name":"unpause","inputs":[{"name":"newPausedStatus","type":"uint256","internalType":"uint256"}],"outputs":[],"stateMutability":"nonpayable"},{"type":"function","name":"userUnderlying","inputs":[{"name":"user","type":"address","internalType":"address"}],"outputs":[{"name":"","type":"uint256","internalType":"uint256"}],"stateMutability":"nonpayable"},{"type":"function","name":"userUnderlyingView","inputs":[{"name":"user","type":"address","internalType":"address"}],"outputs":[{"name":"","type":"uint256","internalType":"uint256"}],"stateMutability":"view"},{"type":"function","name":"withdraw","inputs":[{"name":"recipient","type":"address","internalType":"address"},{"name":"token","type":"address","internalType":"contract IERC20"},{"name":"amountShares","type":"uint256","internalType":"uint256"}],"outputs":[],"stateMutability":"nonpayable"},{"type":"event","name":"ExchangeRateEmitted","inputs":[{"name":"rate","type":"uint256","indexed":false,"internalType":"uint256"}],"anonymous":false},{"type":"event","name":"Initialized","inputs":[{"name":"version","type":"uint8","indexed":false,"internalType":"uint8"}],"anonymous":false},{"type":"event","name":"Paused","inputs":[{"name":"account","type":"address","indexed":true,"internalType":"address"},{"name":"newPausedStatus","type":"uint256","indexed":false,"internalType":"uint256"}],"anonymous":false},{"type":"event","name":"PauserRegistrySet","inputs":[{"name":"pauserRegistry","type":"address","indexed":false,"internalType":"contract IPauserRegistry"},{"name":"newPauserRegistry","type":"address","indexed":false,"internalType":"contract IPauserRegistry"}],"anonymous":false},{"type":"event","name":"StrategyTokenSet","inputs":[{"name":"token","type":"address","indexed":false,"internalType":"contract IERC20"},{"name":"decimals","type":"uint8","indexed":false,"internalType":"uint8"}],"anonymous":false},{"type":"event","name":"Unpaused","inputs":[{"name":"account","type":"address","indexed":true,"internalType":"address"},{"name":"newPausedStatus","type":"uint256","indexed":false,"internalType":"uint256"}],"anonymous":false}],"bytecode":{"object":"0x60a03461012857601f61167b38819003918201601f19168301916001600160401b0383118484101761012d5780849260209460405283398101031261012857516001600160a01b03811681036101285760805260005460ff8160081c166100d35760ff80821610610098575b604051611537908161014482396080518181816102ce01528181610bc801528181610dea01526112ae0152f35b60ff90811916176000557f7f26b83ff96e1f2b6a682f133852f6798a09c465da95921460cefb3847402498602060405160ff8152a13861006b565b60405162461bcd60e51b815260206004820152602760248201527f496e697469616c697a61626c653a20636f6e747261637420697320696e697469604482015266616c697a696e6760c81b6064820152608490fd5b600080fd5b634e487b7160e01b600052604160045260246000fdfe608080604052600436101561001357600080fd5b60003560e01c90816310d67a2f14610f5f57508063136439dd14610e425780632495a59914610e1957806339b70e3814610dd45780633a98ef3914610db657806347e7ef2414610b95578063485cc95514610841578063553ca5f8146106e0578063595c6a67146107845780635ac86ab7146107515780635c975abb146107335780637a8b26371461024e578063886f1195146107065780638c871019146102745780638f6a6240146106e0578063ab5921e114610648578063ce7c2ac214610625578063d9caed1214610292578063e3dae51c14610274578063f3e738751461024e5763fabc1cbc1461010657600080fd5b346102495760203660031901126102495760005460405163755b36bd60e11b815260048035926020918391829060101c6001600160a01b03165afa801561023d576101649160009161020e575b506001600160a01b031633146110a0565b6001541981198116036101a357806001556040519081527f3582d1828e26bf56bd801502bc021ac0bc8afb57c826e4986b45593c8fad389c60203392a2005b60405162461bcd60e51b815260206004820152603860248201527f5061757361626c652e756e70617573653a20696e76616c696420617474656d7060448201527f7420746f2070617573652066756e6374696f6e616c69747900000000000000006064820152608490fd5b610230915060203d602011610236575b610228818361105f565b810190611081565b38610153565b503d61021e565b6040513d6000823e3d90fd5b600080fd5b3461024957602036600319011261024957602061026c60043561124b565b604051908152f35b3461024957602036600319011261024957602061026c600435611311565b34610249576060366003190112610249576102ab610fea565b6102b3611000565b604435906102c8600280600154161415611174565b6102fc337f00000000000000000000000000000000000000000000000000000000000000006001600160a01b0316146111c0565b6032546001600160a01b03918216911681036105ba57603354808311610539576103e8810180821161052357610330611434565b916103e883018093116105235761035e610356610368936103518887611218565b61122b565b95869261120b565b928360335561120b565b906103e881018091116105235761037e91611472565b60405163a9059cbb60e01b602082019081526001600160a01b0390941660248201526044808201939093529182526103b760648361105f565b6040928351926103c7858561105f565b602084527f5361666545524332303a206c6f772d6c6576656c2063616c6c206661696c65646020850152823b156104df575160009283929083905af1903d156104d3573d67ffffffffffffffff81116104bd578351610445939091610436601f8201601f19166020018461105f565b82523d6000602084013e6114c5565b8051908161044f57005b6020806104609383010191016110ff565b1561046757005b5162461bcd60e51b815260206004820152602a60248201527f5361666545524332303a204552433230206f7065726174696f6e20646964206e6044820152691bdd081cdd58d8d9595960b21b6064820152608490fd5b634e487b7160e01b600052604160045260246000fd5b610445916060906114c5565b845162461bcd60e51b815260206004820152601d60248201527f416464726573733a2063616c6c20746f206e6f6e2d636f6e74726163740000006044820152606490fd5b634e487b7160e01b600052601160045260246000fd5b60405162461bcd60e51b815260206004820152604d60248201527f5374726174656779426173652e77697468647261773a20616d6f756e7453686160448201527f726573206d757374206265206c657373207468616e206f7220657175616c207460648201526c6f20746f74616c53686172657360981b608482015260a490fd5b60405162461bcd60e51b815260206004820152603b60248201527f5374726174656779426173652e77697468647261773a2043616e206f6e6c792060448201527f77697468647261772074686520737472617465677920746f6b656e00000000006064820152608490fd5b3461024957602036600319011261024957602061026c610643610fea565b61127e565b34610249576000366003190112610249576106dc60405161066a60808261105f565b604d81527f4261736520537472617465677920696d706c656d656e746174696f6e20746f2060208201527f696e68657269742066726f6d20666f72206d6f726520636f6d706c657820696d60408201526c706c656d656e746174696f6e7360981b606082015260405191829182611016565b0390f35b3461024957602036600319011261024957602061026c610701610643610fea565b61124b565b346102495760003660031901126102495760005460405160109190911c6001600160a01b03168152602090f35b34610249576000366003190112610249576020600154604051908152f35b346102495760203660031901126102495760043560ff81168091036102495760016020911b806001541614604051908152f35b346102495760003660031901126102495760005460405163237dfb4760e11b8152336004820152906020908290602490829060101c6001600160a01b03165afa801561023d576107dc91600091610812575b50611117565b60001960015560405160001981527fab40a374bc51de372200a8bc981af8c9ecdc08dfdaef0bb6e09f88f3c616ef3d60203392a2005b610834915060203d60201161083a575b61082c818361105f565b8101906110ff565b826107d6565b503d610822565b346102495760403660031901126102495761085a610fea565b610862611000565b906000549160ff8360081c161592838094610b88575b8015610b71575b15610b155760ff19811660011760005583610b03575b506000549160ff8360081c1615610aaa57603280546001600160a01b0319166001600160a01b039283169081179091559260101c161580610a98575b15610a1d57610911906000600155604051600081527fab40a374bc51de372200a8bc981af8c9ecdc08dfdaef0bb6e09f88f3c616ef3d60203392a2611343565b60325460405163313ce56760e01b81526001600160a01b0390911691602090829060049082905afa90811561023d576000916109ba575b507f1c540707b00eb5427b6b774fc799d756516a54aee108b64b327acc55af5575079160ff6040928351928352166020820152a161098257005b61ff0019600054166000557f7f26b83ff96e1f2b6a682f133852f6798a09c465da95921460cefb3847402498602060405160018152a1005b6020813d602011610a15575b816109d36020938361105f565b81010312610a1157519060ff82168203610a0e57507f1c540707b00eb5427b6b774fc799d756516a54aee108b64b327acc55af557507610948565b80fd5b5080fd5b3d91506109c6565b60405162461bcd60e51b815260206004820152604760248201527f5061757361626c652e5f696e697469616c697a655061757365723a205f696e6960448201527f7469616c697a6550617573657228292063616e206f6e6c792062652063616c6c6064820152666564206f6e636560c81b608482015260a490fd5b506001600160a01b03811615156108d1565b60405162461bcd60e51b815260206004820152602b60248201527f496e697469616c697a61626c653a20636f6e7472616374206973206e6f74206960448201526a6e697469616c697a696e6760a81b6064820152608490fd5b61ffff19166101011760005583610895565b60405162461bcd60e51b815260206004820152602e60248201527f496e697469616c697a61626c653a20636f6e747261637420697320616c72656160448201526d191e481a5b9a5d1a585b1a5e995960921b6064820152608490fd5b50303b15801561087f5750600160ff82161461087f565b50600160ff821610610878565b3461024957604036600319011261024957610bae610fea565b60243590610bc26001808054161415611174565b610bf6337f00000000000000000000000000000000000000000000000000000000000000006001600160a01b0316146111c0565b6032546001600160a01b03908116911603610d5257603354906103e8820180831161052357610c23611434565b916103e8830180931161052357610351610c4792610c41838661120b565b92611218565b908115610cf65781830180931161052357826033556f4b3b4ca85a86c47a098a223fffffffff8311610c8b576103e883018093116105235760209261026c91611472565b60405162461bcd60e51b815260206004820152603c60248201527f5374726174656779426173652e6465706f7369743a20746f74616c536861726560448201527f73206578636565647320604d41585f544f54414c5f53484152455360000000006064820152608490fd5b60405162461bcd60e51b815260206004820152602e60248201527f5374726174656779426173652e6465706f7369743a206e65775368617265732060448201526d63616e6e6f74206265207a65726f60901b6064820152608490fd5b60405162461bcd60e51b815260206004820152603660248201527f5374726174656779426173652e6465706f7369743a2043616e206f6e6c79206460448201527532b837b9b4ba103ab73232b9363cb4b733aa37b5b2b760511b6064820152608490fd5b34610249576000366003190112610249576020603354604051908152f35b34610249576000366003190112610249576040517f00000000000000000000000000000000000000000000000000000000000000006001600160a01b03168152602090f35b34610249576000366003190112610249576032546040516001600160a01b039091168152602090f35b34610249576020366003190112610249576004356024602060018060a01b0360005460101c166040519283809263237dfb4760e11b82523360048301525afa801561023d57610e9891600091610f405750611117565b60015481811603610ed557806001556040519081527fab40a374bc51de372200a8bc981af8c9ecdc08dfdaef0bb6e09f88f3c616ef3d60203392a2005b60405162461bcd60e51b815260206004820152603860248201527f5061757361626c652e70617573653a20696e76616c696420617474656d70742060448201527f746f20756e70617573652066756e6374696f6e616c69747900000000000000006064820152608490fd5b610f59915060203d60201161083a5761082c818361105f565b836107d6565b3461024957602036600319011261024957610f78610fea565b60005463755b36bd60e11b83526020908390600490829060101c6001600160a01b03165afa91821561023d57610fc992610fc491600091610fcb57506001600160a01b031633146110a0565b611343565b005b610fe4915060203d60201161023657610228818361105f565b84610153565b600435906001600160a01b038216820361024957565b602435906001600160a01b038216820361024957565b91909160208152825180602083015260005b818110611049575060409293506000838284010152601f8019910116010190565b8060208092870101516040828601015201611028565b90601f8019910116810190811067ffffffffffffffff8211176104bd57604052565b9081602091031261024957516001600160a01b03811681036102495790565b156110a757565b60405162461bcd60e51b815260206004820152602a60248201527f6d73672e73656e646572206973206e6f74207065726d697373696f6e6564206160448201526939903ab73830bab9b2b960b11b6064820152608490fd5b90816020910312610249575180151581036102495790565b1561111e57565b60405162461bcd60e51b815260206004820152602860248201527f6d73672e73656e646572206973206e6f74207065726d697373696f6e6564206160448201526739903830bab9b2b960c11b6064820152608490fd5b1561117b57565b60405162461bcd60e51b815260206004820152601960248201527f5061757361626c653a20696e64657820697320706175736564000000000000006044820152606490fd5b156111c757565b606460405162461bcd60e51b815260206004820152602060248201527f5374726174656779426173652e6f6e6c7953747261746567794d616e616765726044820152fd5b9190820391821161052357565b8181029291811591840414171561052357565b8115611235570490565b634e487b7160e01b600052601260045260246000fd5b6033546103e8810180911161052357611262611434565b6103e881018091116105235761127b9261035191611218565b90565b604051633d3f06c960e11b81526001600160a01b03918216600482015230602482015290602090829060449082907f0000000000000000000000000000000000000000000000000000000000000000165afa90811561023d576000916112e2575090565b90506020813d602011611309575b816112fd6020938361105f565b81010312610249575190565b3d91506112f0565b603354906103e8820180921161052357611329611434565b906103e882018092116105235761127b9261035191611218565b6001600160a01b0381169081156113b7577f6e9fcd539896fca60e8b0f01dd580233e48a6b0f7df013b89ba7f565869acdb660406000549381519060018060a01b038660101c1682526020820152a162010000600160b01b031990911660109190911b62010000600160b01b031617600055565b60405162461bcd60e51b815260206004820152604960248201527f5061757361626c652e5f73657450617573657252656769737472793a206e657760448201527f50617573657252656769737472792063616e6e6f7420626520746865207a65726064820152686f206164647265737360b81b608482015260a490fd5b6032546040516370a0823160e01b815230600482015290602090829060249082906001600160a01b03165afa90811561023d576000916112e2575090565b9081670de0b6b3a76400000291670de0b6b3a7640000830403610523576114bc6020917fd2494f3479e5da49d386657c292c610b5b01df313d07c62eb0cfa49924a31be89361122b565b604051908152a1565b909190156114d1575090565b8151156114e15750805190602001fd5b60405162461bcd60e51b81529081906114fd9060048301611016565b0390fdfea2646970667358221220d7007ef08604a6ee266ce7a39d91b99d12611d9b9091b38967cbb4bb58c4b4b764736f6c634300081a0033","linkReferences":{}},"methodIdentifiers":{"deposit(address,uint256)":"47e7ef24","explanation()":"ab5921e1","initialize(address,address)":"485cc955","pause(uint256)":"136439dd","pauseAll()":"595c6a67","paused()":"5c975abb","paused(uint8)":"5ac86ab7","pauserRegistry()":"886f1195","setPauserRegistry(address)":"10d67a2f","shares(address)":"ce7c2ac2","sharesToUnderlying(uint256)":"f3e73875","sharesToUnderlyingView(uint256)":"7a8b2637","strategyManager()":"39b70e38","totalShares()":"3a98ef39","underlyingToShares(uint256)":"8c871019","underlyingToSharesView(uint256)":"e3dae51c","underlyingToken()":"2495a599","unpause(uint256)":"fabc1cbc","userUnderlying(address)":"8f6a6240","userUnderlyingView(address)":"553ca5f8","withdraw(address,address,uint256)":"d9caed12"},"id":69}