{"abi":[{"type":"constructor","inputs":[{"name":"_serviceManager","type":"address","internalType":"contract IServiceManager"},{"name":"_stakeRegistry","type":"address","internalType":"contract IStakeRegistry"},{"name":"_blsApkRegistry","type":"address","internalType":"contract IBLSApkRegistry"},{"name":"_indexRegistry","type":"address","internalType":"contract IIndexRegistry"}],"stateMutability":"nonpayable"},{"type":"function","name":"OPERATOR_CHURN_APPROVAL_TYPEHASH","inputs":[],"outputs":[{"name":"","type":"bytes32","internalType":"bytes32"}],"stateMutability":"view"},{"type":"function","name":"PUBKEY_REGISTRATION_TYPEHASH","inputs":[],"outputs":[{"name":"","type":"bytes32","internalType":"bytes32"}],"stateMutability":"view"},{"type":"function","name":"blsApkRegistry","inputs":[],"outputs":[{"name":"","type":"address","internalType":"contract IBLSApkRegistry"}],"stateMutability":"view"},{"type":"function","name":"calculateOperatorChurnApprovalDigestHash","inputs":[{"name":"registeringOperator","type":"address","internalType":"address"},{"name":"registeringOperatorId","type":"bytes32","internalType":"bytes32"},{"name":"operatorKickParams","type":"tuple[]","internalType":"struct IRegistryCoordinator.OperatorKickParam[]","components":[{"name":"quorumNumber","type":"uint8","internalType":"uint8"},{"name":"operator","type":"address","internalType":"address"}]},{"name":"salt","type":"bytes32","internalType":"bytes32"},{"name":"expiry","type":"uint256","internalType":"uint256"}],"outputs":[{"name":"","type":"bytes32","internalType":"bytes32"}],"stateMutability":"view"},{"type":"function","name":"churnApprover","inputs":[],"outputs":[{"name":"","type":"address","internalType":"address"}],"stateMutability":"view"},{"type":"function","name":"createQuorum","inputs":[{"name":"operatorSetParams","type":"tuple","internalType":"struct IRegistryCoordinator.OperatorSetParam","components":[{"name":"maxOperatorCount","type":"uint32","internalType":"uint32"},{"name":"kickBIPsOfOperatorStake","type":"uint16","internalType":"uint16"},{"name":"kickBIPsOfTotalStake","type":"uint16","internalType":"uint16"}]},{"name":"minimumStake","type":"uint96","internalType":"uint96"},{"name":"strategyParams","type":"tuple[]","internalType":"struct IStakeRegistry.StrategyParams[]","components":[{"name":"strategy","type":"address","internalType":"contract IStrategy"},{"name":"multiplier","type":"uint96","internalType":"uint96"}]}],"outputs":[],"stateMutability":"nonpayable"},{"type":"function","name":"deregisterOperator","inputs":[{"name":"quorumNumbers","type":"bytes","internalType":"bytes"}],"outputs":[],"stateMutability":"nonpayable"},{"type":"function","name":"ejectOperator","inputs":[{"name":"operator","type":"address","internalType":"address"},{"name":"quorumNumbers","type":"bytes","internalType":"bytes"}],"outputs":[],"stateMutability":"nonpayable"},{"type":"function","name":"ejectionCooldown","inputs":[],"outputs":[{"name":"","type":"uint256","internalType":"uint256"}],"stateMutability":"view"},{"type":"function","name":"ejector","inputs":[],"outputs":[{"name":"","type":"address","internalType":"address"}],"stateMutability":"view"},{"type":"function","name":"getCurrentQuorumBitmap","inputs":[{"name":"operatorId","type":"bytes32","internalType":"bytes32"}],"outputs":[{"name":"","type":"uint192","internalType":"uint192"}],"stateMutability":"view"},{"type":"function","name":"getOperator","inputs":[{"name":"operator","type":"address","internalType":"address"}],"outputs":[{"name":"","type":"tuple","internalType":"struct IRegistryCoordinator.OperatorInfo","components":[{"name":"operatorId","type":"bytes32","internalType":"bytes32"},{"name":"status","type":"uint8","internalType":"enum IRegistryCoordinator.OperatorStatus"}]}],"stateMutability":"view"},{"type":"function","name":"getOperatorFromId","inputs":[{"name":"operatorId","type":"bytes32","internalType":"bytes32"}],"outputs":[{"name":"","type":"address","internalType":"address"}],"stateMutability":"view"},{"type":"function","name":"getOperatorId","inputs":[{"name":"operator","type":"address","internalType":"address"}],"outputs":[{"name":"","type":"bytes32","internalType":"bytes32"}],"stateMutability":"view"},{"type":"function","name":"getOperatorSetParams","inputs":[{"name":"quorumNumber","type":"uint8","internalType":"uint8"}],"outputs":[{"name":"","type":"tuple","internalType":"struct IRegistryCoordinator.OperatorSetParam","components":[{"name":"maxOperatorCount","type":"uint32","internalType":"uint32"},{"name":"kickBIPsOfOperatorStake","type":"uint16","internalType":"uint16"},{"name":"kickBIPsOfTotalStake","type":"uint16","internalType":"uint16"}]}],"stateMutability":"view"},{"type":"function","name":"getOperatorStatus","inputs":[{"name":"operator","type":"address","internalType":"address"}],"outputs":[{"name":"","type":"uint8","internalType":"enum IRegistryCoordinator.OperatorStatus"}],"stateMutability":"view"},{"type":"function","name":"getQuorumBitmapAtBlockNumberByIndex","inputs":[{"name":"operatorId","type":"bytes32","internalType":"bytes32"},{"name":"blockNumber","type":"uint32","internalType":"uint32"},{"name":"index","type":"uint256","internalType":"uint256"}],"outputs":[{"name":"","type":"uint192","internalType":"uint192"}],"stateMutability":"view"},{"type":"function","name":"getQuorumBitmapHistoryLength","inputs":[{"name":"operatorId","type":"bytes32","internalType":"bytes32"}],"outputs":[{"name":"","type":"uint256","internalType":"uint256"}],"stateMutability":"view"},{"type":"function","name":"getQuorumBitmapIndicesAtBlockNumber","inputs":[{"name":"blockNumber","type":"uint32","internalType":"uint32"},{"name":"operatorIds","type":"bytes32[]","internalType":"bytes32[]"}],"outputs":[{"name":"","type":"uint32[]","internalType":"uint32[]"}],"stateMutability":"view"},{"type":"function","name":"getQuorumBitmapUpdateByIndex","inputs":[{"name":"operatorId","type":"bytes32","internalType":"bytes32"},{"name":"index","type":"uint256","internalType":"uint256"}],"outputs":[{"name":"","type":"tuple","internalType":"struct IRegistryCoordinator.QuorumBitmapUpdate","components":[{"name":"updateBlockNumber","type":"uint32","internalType":"uint32"},{"name":"nextUpdateBlockNumber","type":"uint32","internalType":"uint32"},{"name":"quorumBitmap","type":"uint192","internalType":"uint192"}]}],"stateMutability":"view"},{"type":"function","name":"indexRegistry","inputs":[],"outputs":[{"name":"","type":"address","internalType":"contract IIndexRegistry"}],"stateMutability":"view"},{"type":"function","name":"initialize","inputs":[{"name":"_initialOwner","type":"address","internalType":"address"},{"name":"_churnApprover","type":"address","internalType":"address"},{"name":"_ejector","type":"address","internalType":"address"},{"name":"_pauserRegistry","type":"address","internalType":"contract IPauserRegistry"},{"name":"_initialPausedStatus","type":"uint256","internalType":"uint256"},{"name":"_operatorSetParams","type":"tuple[]","internalType":"struct IRegistryCoordinator.OperatorSetParam[]","components":[{"name":"maxOperatorCount","type":"uint32","internalType":"uint32"},{"name":"kickBIPsOfOperatorStake","type":"uint16","internalType":"uint16"},{"name":"kickBIPsOfTotalStake","type":"uint16","internalType":"uint16"}]},{"name":"_minimumStakes","type":"uint96[]","internalType":"uint96[]"},{"name":"_strategyParams","type":"tuple[][]","internalType":"struct IStakeRegistry.StrategyParams[][]","components":[{"name":"strategy","type":"address","internalType":"contract IStrategy"},{"name":"multiplier","type":"uint96","internalType":"uint96"}]}],"outputs":[],"stateMutability":"nonpayable"},{"type":"function","name":"isChurnApproverSaltUsed","inputs":[{"name":"","type":"bytes32","internalType":"bytes32"}],"outputs":[{"name":"","type":"bool","internalType":"bool"}],"stateMutability":"view"},{"type":"function","name":"lastEjectionTimestamp","inputs":[{"name":"","type":"address","internalType":"address"}],"outputs":[{"name":"","type":"uint256","internalType":"uint256"}],"stateMutability":"view"},{"type":"function","name":"numRegistries","inputs":[],"outputs":[{"name":"","type":"uint256","internalType":"uint256"}],"stateMutability":"view"},{"type":"function","name":"owner","inputs":[],"outputs":[{"name":"","type":"address","internalType":"address"}],"stateMutability":"view"},{"type":"function","name":"pause","inputs":[{"name":"newPausedStatus","type":"uint256","internalType":"uint256"}],"outputs":[],"stateMutability":"nonpayable"},{"type":"function","name":"pauseAll","inputs":[],"outputs":[],"stateMutability":"nonpayable"},{"type":"function","name":"paused","inputs":[{"name":"index","type":"uint8","internalType":"uint8"}],"outputs":[{"name":"","type":"bool","internalType":"bool"}],"stateMutability":"view"},{"type":"function","name":"paused","inputs":[],"outputs":[{"name":"","type":"uint256","internalType":"uint256"}],"stateMutability":"view"},{"type":"function","name":"pauserRegistry","inputs":[],"outputs":[{"name":"","type":"address","internalType":"contract IPauserRegistry"}],"stateMutability":"view"},{"type":"function","name":"pubkeyRegistrationMessageHash","inputs":[{"name":"operator","type":"address","internalType":"address"}],"outputs":[{"name":"","type":"tuple","internalType":"struct BN254.G1Point","components":[{"name":"X","type":"uint256","internalType":"uint256"},{"name":"Y","type":"uint256","internalType":"uint256"}]}],"stateMutability":"view"},{"type":"function","name":"quorumCount","inputs":[],"outputs":[{"name":"","type":"uint8","internalType":"uint8"}],"stateMutability":"view"},{"type":"function","name":"quorumUpdateBlockNumber","inputs":[{"name":"","type":"uint8","internalType":"uint8"}],"outputs":[{"name":"","type":"uint256","internalType":"uint256"}],"stateMutability":"view"},{"type":"function","name":"registerOperator","inputs":[{"name":"quorumNumbers","type":"bytes","internalType":"bytes"},{"name":"socket","type":"string","internalType":"string"},{"name":"params","type":"tuple","internalType":"struct IBLSApkRegistry.PubkeyRegistrationParams","components":[{"name":"pubkeyRegistrationSignature","type":"tuple","internalType":"struct BN254.G1Point","components":[{"name":"X","type":"uint256","internalType":"uint256"},{"name":"Y","type":"uint256","internalType":"uint256"}]},{"name":"pubkeyG1","type":"tuple","internalType":"struct BN254.G1Point","components":[{"name":"X","type":"uint256","internalType":"uint256"},{"name":"Y","type":"uint256","internalType":"uint256"}]},{"name":"pubkeyG2","type":"tuple","internalType":"struct BN254.G2Point","components":[{"name":"X","type":"uint256[2]","internalType":"uint256[2]"},{"name":"Y","type":"uint256[2]","internalType":"uint256[2]"}]}]},{"name":"operatorSignature","type":"tuple","internalType":"struct ISignatureUtils.SignatureWithSaltAndExpiry","components":[{"name":"signature","type":"bytes","internalType":"bytes"},{"name":"salt","type":"bytes32","internalType":"bytes32"},{"name":"expiry","type":"uint256","internalType":"uint256"}]}],"outputs":[],"stateMutability":"nonpayable"},{"type":"function","name":"registerOperatorWithChurn","inputs":[{"name":"quorumNumbers","type":"bytes","internalType":"bytes"},{"name":"socket","type":"string","internalType":"string"},{"name":"params","type":"tuple","internalType":"struct IBLSApkRegistry.PubkeyRegistrationParams","components":[{"name":"pubkeyRegistrationSignature","type":"tuple","internalType":"struct BN254.G1Point","components":[{"name":"X","type":"uint256","internalType":"uint256"},{"name":"Y","type":"uint256","internalType":"uint256"}]},{"name":"pubkeyG1","type":"tuple","internalType":"struct BN254.G1Point","components":[{"name":"X","type":"uint256","internalType":"uint256"},{"name":"Y","type":"uint256","internalType":"uint256"}]},{"name":"pubkeyG2","type":"tuple","internalType":"struct BN254.G2Point","components":[{"name":"X","type":"uint256[2]","internalType":"uint256[2]"},{"name":"Y","type":"uint256[2]","internalType":"uint256[2]"}]}]},{"name":"operatorKickParams","type":"tuple[]","internalType":"struct IRegistryCoordinator.OperatorKickParam[]","components":[{"name":"quorumNumber","type":"uint8","internalType":"uint8"},{"name":"operator","type":"address","internalType":"address"}]},{"name":"churnApproverSignature","type":"tuple","internalType":"struct ISignatureUtils.SignatureWithSaltAndExpiry","components":[{"name":"signature","type":"bytes","internalType":"bytes"},{"name":"salt","type":"bytes32","internalType":"bytes32"},{"name":"expiry","type":"uint256","internalType":"uint256"}]},{"name":"operatorSignature","type":"tuple","internalType":"struct ISignatureUtils.SignatureWithSaltAndExpiry","components":[{"name":"signature","type":"bytes","internalType":"bytes"},{"name":"salt","type":"bytes32","internalType":"bytes32"},{"name":"expiry","type":"uint256","internalType":"uint256"}]}],"outputs":[],"stateMutability":"nonpayable"},{"type":"function","name":"registries","inputs":[{"name":"","type":"uint256","internalType":"uint256"}],"outputs":[{"name":"","type":"address","internalType":"address"}],"stateMutability":"view"},{"type":"function","name":"renounceOwnership","inputs":[],"outputs":[],"stateMutability":"nonpayable"},{"type":"function","name":"serviceManager","inputs":[],"outputs":[{"name":"","type":"address","internalType":"contract IServiceManager"}],"stateMutability":"view"},{"type":"function","name":"setChurnApprover","inputs":[{"name":"_churnApprover","type":"address","internalType":"address"}],"outputs":[],"stateMutability":"nonpayable"},{"type":"function","name":"setEjectionCooldown","inputs":[{"name":"_ejectionCooldown","type":"uint256","internalType":"uint256"}],"outputs":[],"stateMutability":"nonpayable"},{"type":"function","name":"setEjector","inputs":[{"name":"_ejector","type":"address","internalType":"address"}],"outputs":[],"stateMutability":"nonpayable"},{"type":"function","name":"setOperatorSetParams","inputs":[{"name":"quorumNumber","type":"uint8","internalType":"uint8"},{"name":"operatorSetParams","type":"tuple","internalType":"struct IRegistryCoordinator.OperatorSetParam","components":[{"name":"maxOperatorCount","type":"uint32","internalType":"uint32"},{"name":"kickBIPsOfOperatorStake","type":"uint16","internalType":"uint16"},{"name":"kickBIPsOfTotalStake","type":"uint16","internalType":"uint16"}]}],"outputs":[],"stateMutability":"nonpayable"},{"type":"function","name":"setPauserRegistry","inputs":[{"name":"newPauserRegistry","type":"address","internalType":"contract IPauserRegistry"}],"outputs":[],"stateMutability":"nonpayable"},{"type":"function","name":"stakeRegistry","inputs":[],"outputs":[{"name":"","type":"address","internalType":"contract IStakeRegistry"}],"stateMutability":"view"},{"type":"function","name":"transferOwnership","inputs":[{"name":"newOwner","type":"address","internalType":"address"}],"outputs":[],"stateMutability":"nonpayable"},{"type":"function","name":"unpause","inputs":[{"name":"newPausedStatus","type":"uint256","internalType":"uint256"}],"outputs":[],"stateMutability":"nonpayable"},{"type":"function","name":"updateOperators","inputs":[{"name":"operators","type":"address[]","internalType":"address[]"}],"outputs":[],"stateMutability":"nonpayable"},{"type":"function","name":"updateOperatorsForQuorum","inputs":[{"name":"operatorsPerQuorum","type":"address[][]","internalType":"address[][]"},{"name":"quorumNumbers","type":"bytes","internalType":"bytes"}],"outputs":[],"stateMutability":"nonpayable"},{"type":"function","name":"updateSocket","inputs":[{"name":"socket","type":"string","internalType":"string"}],"outputs":[],"stateMutability":"nonpayable"},{"type":"event","name":"ChurnApproverUpdated","inputs":[{"name":"prevChurnApprover","type":"address","indexed":false,"internalType":"address"},{"name":"newChurnApprover","type":"address","indexed":false,"internalType":"address"}],"anonymous":false},{"type":"event","name":"EjectorUpdated","inputs":[{"name":"prevEjector","type":"address","indexed":false,"internalType":"address"},{"name":"newEjector","type":"address","indexed":false,"internalType":"address"}],"anonymous":false},{"type":"event","name":"Initialized","inputs":[{"name":"version","type":"uint8","indexed":false,"internalType":"uint8"}],"anonymous":false},{"type":"event","name":"OperatorDeregistered","inputs":[{"name":"operator","type":"address","indexed":true,"internalType":"address"},{"name":"operatorId","type":"bytes32","indexed":true,"internalType":"bytes32"}],"anonymous":false},{"type":"event","name":"OperatorRegistered","inputs":[{"name":"operator","type":"address","indexed":true,"internalType":"address"},{"name":"operatorId","type":"bytes32","indexed":true,"internalType":"bytes32"}],"anonymous":false},{"type":"event","name":"OperatorSetParamsUpdated","inputs":[{"name":"quorumNumber","type":"uint8","indexed":true,"internalType":"uint8"},{"name":"operatorSetParams","type":"tuple","indexed":false,"internalType":"struct IRegistryCoordinator.OperatorSetParam","components":[{"name":"maxOperatorCount","type":"uint32","internalType":"uint32"},{"name":"kickBIPsOfOperatorStake","type":"uint16","internalType":"uint16"},{"name":"kickBIPsOfTotalStake","type":"uint16","internalType":"uint16"}]}],"anonymous":false},{"type":"event","name":"OperatorSocketUpdate","inputs":[{"name":"operatorId","type":"bytes32","indexed":true,"internalType":"bytes32"},{"name":"socket","type":"string","indexed":false,"internalType":"string"}],"anonymous":false},{"type":"event","name":"OwnershipTransferred","inputs":[{"name":"previousOwner","type":"address","indexed":true,"internalType":"address"},{"name":"newOwner","type":"address","indexed":true,"internalType":"address"}],"anonymous":false},{"type":"event","name":"Paused","inputs":[{"name":"account","type":"address","indexed":true,"internalType":"address"},{"name":"newPausedStatus","type":"uint256","indexed":false,"internalType":"uint256"}],"anonymous":false},{"type":"event","name":"PauserRegistrySet","inputs":[{"name":"pauserRegistry","type":"address","indexed":false,"internalType":"contract IPauserRegistry"},{"name":"newPauserRegistry","type":"address","indexed":false,"internalType":"contract IPauserRegistry"}],"anonymous":false},{"type":"event","name":"QuorumBlockNumberUpdated","inputs":[{"name":"quorumNumber","type":"uint8","indexed":true,"internalType":"uint8"},{"name":"blocknumber","type":"uint256","indexed":false,"internalType":"uint256"}],"anonymous":false},{"type":"event","name":"Unpaused","inputs":[{"name":"account","type":"address","indexed":true,"internalType":"address"},{"name":"newPausedStatus","type":"uint256","indexed":false,"internalType":"uint256"}],"anonymous":false}],"bytecode":{"object":"0x6101c080604052346102f857608081615abd803803809161002082856102fd565b8339810103126102f8578051906001600160a01b03821682036102f85760208101516001600160a01b03811681036102f8576040820151916001600160a01b03831683036102f85760600151926001600160a01b03841684036102f85760405161008b6040826102fd565b6016815260208101907f4156535265676973747279436f6f7264696e61746f72000000000000000000008252604051916100c66040846102fd565b6006835260208301916576302e302e3160d01b8352519020915190208160e05280610100524660a052604051906020820192600080516020615a9d8339815191528452604083015260608201524660808201523060a082015260a0815261012e60c0826102fd565b5190206080523060c052600080516020615a9d833981519152610120526101405261018052610160526101a05260005460ff8160081c166102a35760ff80821610610268575b6040516157669081610337823960805181614d95015260a05181614e4c015260c05181614d5f015260e05181614de401526101005181614e0a01526101205181614dc1015261014051818181610cf801528181613a4001526144ea015261016051818181610c1a015281816112b101528181612e51015281816138c601528181613bd6015281816143250152614bf301526101805181818161138401528181612e1f015281816130ed0152818161392c015281816143b20152818161480a0152614b2a01526101a051818181610e25015281816118d301528181612e830152818161398f0152818161441c0152614b910152f35b60ff90811916176000557f7f26b83ff96e1f2b6a682f133852f6798a09c465da95921460cefb3847402498602060405160ff8152a138610174565b60405162461bcd60e51b815260206004820152602760248201527f496e697469616c697a61626c653a20636f6e747261637420697320696e697469604482015266616c697a696e6760c81b6064820152608490fd5b600080fd5b601f909101601f19168101906001600160401b0382119082101761032057604052565b634e487b7160e01b600052604160045260246000fdfe6080604052600436101561001257600080fd5b60003560e01c8062cf2ab51461033657806303fd34921461033157806304ec63511461032c578063054310e6146103275780630cf4b767146103225780630d3f21341461031d57806310d67a2f14610318578063125e05841461031357806313542a4e1461030e578063136439dd146103095780631478851f146103045780631eb812da146102ff578063249a0c42146102fa57806328f61b31146102f5578063296bb064146102f057806329d1e0c3146102eb5780632cdd1e86146102e65780633998fdd3146102e15780633c2a7f4c146102dc5780635140a548146102d75780635865c60c146102d2578063595c6a67146102cd5780635ac86ab7146102c85780635b0b829f146102c35780635c975abb146102be5780635df45946146102b95780636347c900146102b457806368304835146102af5780636e3b17db146102aa578063715018a6146102a557806384ca5213146102a0578063871ef0491461029b578063886f1195146102965780638da5cb5b146102915780639aa1653d1461028c5780639b5d177b146102875780639e9923c2146102825780639feab8591461027d578063a50857bf14610278578063a96f783e14610273578063c391425e1461026e578063ca0de88214610269578063ca4f2d9714610264578063d72d8dd61461025f578063d75b4c881461025a578063dd8283f314610255578063e65797ad14610250578063f2fde38b1461024b578063fabc1cbc146102465763fd39105a1461024157600080fd5b6121fc565b6120e8565b612057565b611fc1565b611f22565b611cfe565b611c3d565b611bf0565b611bb5565b611b11565b611ab3565b61193d565b611902565b6118bd565b6117f4565b611730565b611707565b6116da565b6116aa565b611634565b61152b565b6113b3565b61136e565b611313565b61129b565b61127d565b6111cf565b611141565b6110b4565b611046565b610d93565b610d27565b610ce2565b610cb5565b610c88565b610be4565b610bbb565b610b87565b610b0b565b610ada565b6109a1565b610964565b610927565b610858565b610819565b6106fb565b6105ee565b61047e565b610444565b610370565b9181601f8401121561036b578235916001600160401b03831161036b576020808501948460051b01011161036b57565b600080fd5b3461036b57602036600319011261036b576004356001600160401b03811161036b576103a090369060040161033b565b906103b86103b2600480600154161490565b15612244565b60005b8281106103c457005b8061043e6103d56001938686612290565b356103df8161083a565b838060a01b0381166000526099602052604060002061041760ff86604051936104078561062d565b80548552015416602083016122ad565b6104386104336104278351612f12565b6001600160c01b031690565b612fbc565b916130a2565b016103bb565b3461036b57602036600319011261036b5760043560005260986020526020604060002054604051908152f35b63ffffffff81160361036b57565b3461036b57606036600319011261036b576024356104c06104ba6004356104a484610470565b60443590600052609860205260406000206112f6565b506122df565b63ffffffff80825116921691821061054457604081610508610530946104f0602061051696015163ffffffff1690565b9063ffffffff821615918215610534575b5050612310565b01516001600160c01b031690565b6040516001600160c01b0390911681529081906020820190565b0390f35b63ffffffff161190503880610501565b60405162461bcd60e51b815260206004820152606560248201527f5265676973747279436f6f7264696e61746f722e67657451756f72756d42697460448201527f6d61704174426c6f636b4e756d6265724279496e6465783a2071756f72756d4260648201527f69746d61705570646174652069732066726f6d20616674657220626c6f636b4e6084820152643ab6b132b960d91b60a482015260c490fd5b600091031261036b57565b3461036b57600036600319011261036b57609d546040516001600160a01b039091168152602090f35b634e487b7160e01b600052604160045260246000fd5b604081019081106001600160401b0382111761064857604052565b610617565b606081019081106001600160401b0382111761064857604052565b90601f801991011681019081106001600160401b0382111761064857604052565b60405190610698604083610668565b565b60405190610698606083610668565b6001600160401b03811161064857601f01601f191660200190565b9291926106d0826106a9565b916106de6040519384610668565b82948184528183011161036b578281602093846000960137010152565b3461036b57602036600319011261036b576004356001600160401b03811161036b573660238201121561036b5761073c9036906024816004013591016106c4565b33600052609960205260ff600160406000200154166003811015610814576001036107a9573360009081526099602052604090207fec2963ab21c1e50e1e582aa542af2e4bf7bf38e6e1403c27b42e1c5d6e621eaa906107a4905492604051918291826123f8565b0390a2005b60405162461bcd60e51b815260206004820152603c60248201527f5265676973747279436f6f7264696e61746f722e757064617465536f636b657460448201527f3a206f70657261746f72206973206e6f742072656769737465726564000000006064820152608490fd5b611019565b3461036b57602036600319011261036b5760043561083561317a565b60a055005b6001600160a01b0381160361036b57565b606435906106988261083a565b3461036b57602036600319011261036b57600480356108768161083a565b60005460405163755b36bd60e11b815292602091849190829060101c6001600160a01b03165afa9182156108fb576108ca926108c5916000916108cc575b506001600160a01b0316331461242a565b6131d2565b005b6108ee915060203d6020116108f4575b6108e68183610668565b810190612409565b386108b4565b503d6108dc565b61241e565b600435906106988261083a565b602435906106988261083a565b604435906106988261083a565b3461036b57602036600319011261036b576004356109448161083a565b60018060a01b0316600052609f6020526020604060002054604051908152f35b3461036b57602036600319011261036b576004356109818161083a565b60018060a01b031660005260996020526020604060002054604051908152f35b3461036b57602036600319011261036b5760043560005460405163237dfb4760e11b8152336004820152906020908290602490829060101c6001600160a01b03165afa80156108fb576109fc91600091610aab575b506124a1565b60015481811603610a4057806001557fab40a374bc51de372200a8bc981af8c9ecdc08dfdaef0bb6e09f88f3c616ef3d604051806107a43394829190602083019252565b60405162461bcd60e51b815260206004820152603860248201527f5061757361626c652e70617573653a20696e76616c696420617474656d70742060448201527f746f20756e70617573652066756e6374696f6e616c69747900000000000000006064820152608490fd5b610acd915060203d602011610ad3575b610ac58183610668565b810190612489565b386109f6565b503d610abb565b3461036b57602036600319011261036b57600435600052609a602052602060ff604060002054166040519015158152f35b3461036b57604036600319011261036b576060610b456104ba602435600435610b326124fe565b50600052609860205260406000206112f6565b6040519063ffffffff815116825263ffffffff6020820151166020830152604060018060c01b03910151166040820152f35b6004359060ff8216820361036b57565b3461036b57602036600319011261036b5760ff610ba2610b77565b16600052609b6020526020604060002054604051908152f35b3461036b57600036600319011261036b57609e546040516001600160a01b039091168152602090f35b3461036b57602036600319011261036b576040516308f6629d60e31b815260048035908201526020816024816001600160a01b037f0000000000000000000000000000000000000000000000000000000000000000165afa80156108fb5761053091600091610c69575b506040516001600160a01b0390911681529081906020820190565b610c82915060203d6020116108f4576108e68183610668565b38610c4e565b3461036b57602036600319011261036b576108ca600435610ca88161083a565b610cb061317a565b6132cb565b3461036b57602036600319011261036b576108ca600435610cd58161083a565b610cdd61317a565b613329565b3461036b57600036600319011261036b576040517f00000000000000000000000000000000000000000000000000000000000000006001600160a01b03168152602090f35b3461036b57602036600319011261036b576040610d4e600435610d498161083a565b612536565b610d648251809260208091805184520151910152565bf35b9181601f8401121561036b578235916001600160401b03831161036b576020838186019501011161036b57565b3461036b57604036600319011261036b576004356001600160401b03811161036b57610dc390369060040161033b565b906024356001600160401b03811161036b57610de483913690600401610d66565b610df86103b2949294600480600154161490565b610e17610e0760965460ff1690565b610e123684886106c4565b6134ff565b50610e2381841461259c565b7f00000000000000000000000000000000000000000000000000000000000000006001600160a01b03169360005b828110610e5a57005b610e7f610e79610e6b838686612608565b356001600160f81b03191690565b60f81c90565b610e8a828787612614565b6040516379a0849160e11b815260ff841660048201526020816024818d5afa9081156108fb57610ecb9163ffffffff91600091610feb575b5016821461266d565b600090815b8688838510610f3e575050505050509060019143610efb8260ff16600052609b602052604060002090565b557f46077d55330763f16269fd75e5761663f4192d2791747c0189b16ad31db07db460ff60405192169180610f3543829190602083019252565b0390a201610e51565b86610fdc610fd5600195948b610fe395610fc6610f65610f608d8f8e90612290565b6122a0565b98610fb1610fac610f90610f8b8d60018060a01b03166000526099602052604060002090565b6122b9565b99610f9e6104278c51612f12565b60ff600192161c1660011490565b612701565b8a8060a01b03168a8060a01b038a161161276d565b610fcf82612819565b92612839565b36916106c4565b90836130a2565b920191610ed0565b61100c915060203d8111611012575b6110048183610668565b810190612658565b8c610ec2565b503d610ffa565b634e487b7160e01b600052602160045260246000fd5b6003111561081457565b9060038210156108145752565b3461036b57602036600319011261036b576004356110638161083a565b61106b61251d565b5060018060a01b03166000526099602052604060002061109560ff6001604051936104078561062d565b6040518091610530602060408401928051855201516020840190611039565b3461036b57600036600319011261036b5760005460405163237dfb4760e11b8152336004820152906020908290602490829060101c6001600160a01b03165afa80156108fb5761110b91600091610aab57506124a1565b60001960015560405160001981527fab40a374bc51de372200a8bc981af8c9ecdc08dfdaef0bb6e09f88f3c616ef3d60203392a2005b3461036b57602036600319011261036b576020600160ff611160610b77565b161b806001541614604051908152f35b359061ffff8216820361036b57565b606090602319011261036b57604051906111988261064d565b816024356111a581610470565b815260443561ffff8116810361036b5760208201526064359061ffff8216820361036b5760400152565b3461036b57608036600319011261036b576111e8610b77565b6111f13661117f565b6111f961317a565b60ff6096541660ff83161015611212576108ca91613586565b60405162461bcd60e51b815260206004820152603760248201527f5265676973747279436f6f7264696e61746f722e71756f72756d45786973747360448201527f3a2071756f72756d20646f6573206e6f742065786973740000000000000000006064820152608490fd5b3461036b57600036600319011261036b576020600154604051908152f35b3461036b57600036600319011261036b576040517f00000000000000000000000000000000000000000000000000000000000000006001600160a01b03168152602090f35b634e487b7160e01b600052603260045260246000fd5b805482101561130e5760005260206000200190600090565b6112e0565b3461036b57602036600319011261036b57600435609c5481101561036b57609c6000527faf85b9071dfafeac1409d3f1d19bafc9bc7c37974cde8df0ee6168f0086e539c01546040516001600160a01b039091168152602090f35b3461036b57600036600319011261036b576040517f00000000000000000000000000000000000000000000000000000000000000006001600160a01b03168152602090f35b3461036b57604036600319011261036b576004356113d08161083a565b6024356001600160401b03811161036b576113ef903690600401610d66565b609e549192916001600160a01b031633036114c0576001600160a01b0382166000908152609f6020908152604080832042905560999091529020805460016114608161145761145161042761144660965460ff1690565b610e12368b8e6106c4565b94612f12565b94015460ff1690565b6114698161102f565b1491826114ad575b82611494575b505061147f57005b6108ca9261148e9136916106c4565b9061380c565b81166001600160c01b0390811691161490503880611477565b6001600160c01b03821615159250611471565b60405162461bcd60e51b815260206004820152603a60248201527f5265676973747279436f6f7264696e61746f722e6f6e6c79456a6563746f723a60448201527f2063616c6c6572206973206e6f742074686520656a6563746f720000000000006064820152608490fd5b3461036b57600036600319011261036b5761154461317a565b606480546001600160a01b031981169091556000906001600160a01b03167f8be0079c531659141344cd1fd0a4f28419497f9722a3daafe3b4186f6b6457e08280a3005b6001600160401b0381116106485760051b60200190565b919082604091031261036b576040516115b78161062d565b8092803560ff8116810361036b578252602090810135916115d78361083a565b0152565b909291926115e881611588565b936115f66040519586610668565b602085838152019160061b83019281841161036b57915b83831061161a5750505050565b6020604091611629848661159f565b81520192019161160d565b3461036b5760a036600319011261036b576004356116518161083a565b60243590604435906001600160401b03821161036b573660238301121561036b576105309261168d61169a9336906024816004013591016115db565b6064359160843593612851565b6040519081529081906020820190565b3461036b57602036600319011261036b5760206116c8600435612f12565b6040516001600160c01b039091168152f35b3461036b57600036600319011261036b5760005460405160109190911c6001600160a01b03168152602090f35b3461036b57600036600319011261036b576064546040516001600160a01b039091168152602090f35b3461036b57600036600319011261036b57602060ff60965416604051908152f35b61010090604319011261036b57604490565b9181601f8401121561036b578235916001600160401b03831161036b576020808501948460061b01011161036b57565b91909160608184031261036b57604051906117ad8261064d565b819381356001600160401b03811161036b5782019181601f8401121561036b576117e16040939283602086953591016106c4565b8452602081013560208501520135910152565b3461036b576101a036600319011261036b576004356001600160401b03811161036b57611825903690600401610d66565b906024356001600160401b03811161036b57611845903690600401610d66565b61184e36611751565b90610144356001600160401b03811161036b5761186f903690600401611763565b929091610164356001600160401b03811161036b57611892903690600401611793565b9461018435976001600160401b03891161036b576118b76108ca993690600401611793565b9761290d565b3461036b57600036600319011261036b576040517f00000000000000000000000000000000000000000000000000000000000000006001600160a01b03168152602090f35b3461036b57600036600319011261036b5760206040517f2bd82124057f0913bc3b772ce7b83e8057c1ad1f3510fc83778be20f10ec5de68152f35b3461036b5761016036600319011261036b576004356001600160401b03811161036b5761196e903690600401610d66565b906024356001600160401b03811161036b5761198e903690600401610d66565b61199736611751565b90610144356001600160401b03811161036b57846119e36119ea956119db6119c48a953690600401611793565b966119d56103b26001808054161490565b33613bb4565b9436916106c4565b9233614214565b519060005b8381106119f857005b611a03818584612608565b3560f81c63ffffffff611a168386612b33565b511690600052609760205263ffffffff80604060002054161610611a3c576001016119ef565b60a460405162461bcd60e51b815260206004820152604460248201527f5265676973747279436f6f7264696e61746f722e72656769737465724f70657260448201527f61746f723a206f70657261746f7220636f756e742065786365656473206d6178606482015263696d756d60e01b6084820152fd5b3461036b57600036600319011261036b57602060a054604051908152f35b602060408183019282815284518094520192019060005b818110611af55750505090565b825163ffffffff16845260209384019390920191600101611ae8565b3461036b57604036600319011261036b57600435611b2e81610470565b602435906001600160401b03821161036b573660238301121561036b57816004013591611b5a83611588565b92611b686040519485610668565b8084526024602085019160051b8301019136831161036b57602401905b828210611ba557610530611b998686612b62565b60405191829182611ad1565b8135815260209182019101611b85565b3461036b57600036600319011261036b5760206040517f4d404e3276e7ac2163d8ee476afa6a41d1f68fb71f2d8b6546b24e55ce01b72a8152f35b3461036b57602036600319011261036b576004356001600160401b03811161036b57611c37611c266108ca923690600401610d66565b610fd5600280600154161415612244565b3361380c565b3461036b57600036600319011261036b576020609c54604051908152f35b6001600160601b0381160361036b57565b81601f8201121561036b57803590611c8382611588565b92611c916040519485610668565b82845260208085019360061b8301019181831161036b57602001925b828410611cbb575050505090565b60408483031261036b5760206040918251611cd58161062d565b8635611ce08161083a565b815282870135611cef81611c5b565b83820152815201930192611cad565b3461036b57366003190160a0811261036b5760601361036b57604051611d238161064d565b600435611d2f81610470565b815260243561ffff8116810361036b57602082015260443561ffff8116810361036b57604082015260643590611d6482611c5b565b608435916001600160401b03831161036b57611d876108ca933690600401611c6c565b91611d9061317a565b614ae5565b81601f8201121561036b57803590611dac82611588565b92611dba6040519485610668565b8284526020606081860194028301019181831161036b57602001925b828410611de4575050505090565b6000606085840312611e3a57506020606091604051611e028161064d565b8635611e0d81610470565b8152611e1a838801611170565b83820152611e2a60408801611170565b6040820152815201930192611dd6565b80fd5b9080601f8301121561036b578135611e5481611588565b92611e626040519485610668565b81845260208085019260051b82010192831161036b57602001905b828210611e8a5750505090565b602080918335611e9981611c5b565b815201910190611e7d565b9080601f8301121561036b578135611ebb81611588565b92611ec96040519485610668565b81845260208085019260051b8201019183831161036b5760208201905b838210611ef557505050505090565b81356001600160401b03811161036b57602091611f1787848094880101611c6c565b815201910190611ee6565b3461036b5761010036600319011261036b57611f3c610900565b611f4461090d565b90611f4d61091a565b611f5561084b565b60843560a4356001600160401b03811161036b57611f77903690600401611d95565b9160c4356001600160401b03811161036b57611f97903690600401611e3d565b9360e435966001600160401b03881161036b57611fbb6108ca983690600401611ea4565b96612c3a565b3461036b57602036600319011261036b5760ff611fdc610b77565b611fe46124fe565b50166000526097602052610530604060002061ffff604051916120068361064d565b5463ffffffff81168352818160201c16602084015260301c16604082015260405191829182919091604061ffff81606084019563ffffffff8151168552826020820151166020860152015116910152565b3461036b57602036600319011261036b576004356120748161083a565b61207c61317a565b6001600160a01b03811615612094576108ca90613af1565b60405162461bcd60e51b815260206004820152602660248201527f4f776e61626c653a206e6577206f776e657220697320746865207a65726f206160448201526564647265737360d01b6064820152608490fd5b3461036b57602036600319011261036b5760043560005460405163755b36bd60e11b8152906020908290600490829060101c6001600160a01b03165afa80156108fb57612147916000916108cc57506001600160a01b0316331461242a565b6001541981198116036121915761215d81600155565b60405190815233907f3582d1828e26bf56bd801502bc021ac0bc8afb57c826e4986b45593c8fad389c9080602081016107a4565b60405162461bcd60e51b815260206004820152603860248201527f5061757361626c652e756e70617573653a20696e76616c696420617474656d7060448201527f7420746f2070617573652066756e6374696f6e616c69747900000000000000006064820152608490fd5b3461036b57602036600319011261036b576004356122198161083a565b60018060a01b03166000526099602052602060ff60016040600020015416610d646040518092611039565b1561224b57565b60405162461bcd60e51b815260206004820152601960248201527f5061757361626c653a20696e64657820697320706175736564000000000000006044820152606490fd5b919081101561130e5760051b0190565b356122aa8161083a565b90565b60038210156108145752565b906106986040516122c98161062d565b602060ff600183968054855201541691016122ad565b906040516122ec8161064d565b604081935463ffffffff8116835263ffffffff8160201c166020840152811c910152565b1561231757565b60405162461bcd60e51b815260206004820152606660248201527f5265676973747279436f6f7264696e61746f722e67657451756f72756d42697460448201527f6d61704174426c6f636b4e756d6265724279496e6465783a2071756f72756d4260648201527f69746d61705570646174652069732066726f6d206265666f726520626c6f636b608482015265273ab6b132b960d11b60a482015260c490fd5b919082519283825260005b8481106123e3575050826000602080949584010152601f8019910116010190565b806020809284010151828286010152016123c2565b9060206122aa9281815201906123b7565b9081602091031261036b57516122aa8161083a565b6040513d6000823e3d90fd5b1561243157565b60405162461bcd60e51b815260206004820152602a60248201527f6d73672e73656e646572206973206e6f74207065726d697373696f6e6564206160448201526939903ab73830bab9b2b960b11b6064820152608490fd5b9081602091031261036b5751801515810361036b5790565b156124a857565b60405162461bcd60e51b815260206004820152602860248201527f6d73672e73656e646572206973206e6f74207065726d697373696f6e6564206160448201526739903830bab9b2b960c11b6064820152608490fd5b6040519061250b8261064d565b60006040838281528260208201520152565b6040519061252a8261062d565b60006020838281520152565b6125976122aa9161254561251d565b50604080517f2bd82124057f0913bc3b772ce7b83e8057c1ad1f3510fc83778be20f10ec5de6602082019081526001600160a01b039093168183015290815261258f606082610668565b519020613387565b6133d6565b156125a357565b60405162461bcd60e51b815260206004820152604360248201526000805160206156d183398151915260448201527f6f7273466f7251756f72756d3a20696e707574206c656e677468206d69736d616064820152620e8c6d60eb1b608482015260a490fd5b9082101561130e570190565b919081101561130e5760051b81013590601e198136030182121561036b5701908135916001600160401b03831161036b576020018260051b3603811361036b579190565b9081602091031261036b57516122aa81610470565b1561267457565b60405162461bcd60e51b815260206004820152606560248201526000805160206156d183398151915260448201527f6f7273466f7251756f72756d3a206e756d626572206f6620757064617465642060648201527f6f70657261746f727320646f6573206e6f74206d617463682071756f72756d206084820152641d1bdd185b60da1b60a482015260c490fd5b1561270857565b60a460405162461bcd60e51b815260206004820152604460248201526000805160206156d183398151915260448201527f6f7273466f7251756f72756d3a206f70657261746f72206e6f7420696e2071756064820152636f72756d60e01b6084820152fd5b1561277457565b60405162461bcd60e51b815260206004820152606760248201526000805160206156d183398151915260448201527f6f7273466f7251756f72756d3a206f70657261746f7273206172726179206d7560648201527f737420626520736f7274656420696e20617363656e64696e6720616464726573608482015266399037b93232b960c91b60a482015260c490fd5b634e487b7160e01b600052601160045260246000fd5b906001820180921161282757565b612803565b9190820180921161282757565b9093929384831161036b57841161036b578101920390565b919493909260405192602084019460e08501917f4d404e3276e7ac2163d8ee476afa6a41d1f68fb71f2d8b6546b24e55ce01b72a875260018060a01b03166040860152606085015260c0608085015286518091526020610100850197019060005b8181106128df575050506122aa949561258f92849260a084015260c083015203601f198101835282610668565b8251805160ff168a526020908101516001600160a01b0316818b0152604090990198909201916001016128b2565b6119e38297969893829a95610fd561293d612950996129326103b26001808054161490565b6119d5888d14612a83565b96612949368c8f6115db565b8833613d46565b9060005b83811061296357505050505050565b808061299661299161297e610e79610e6b6001978b8e612608565b60ff166000526097602052604060002090565b612b01565b858886898c6129b36129a9888751612b33565b5163ffffffff1690565b63ffffffff6129d26129c9895163ffffffff1690565b63ffffffff1690565b9116116129e7575b5050505050505001612954565b868593612a34612a1f836020612a2c612a1f83612a479f612a17610e79610e6b604093612a3f9f612a3a9f612608565b9c0151612b33565b516001600160601b031690565b9a0151612b33565b95612b47565b612b57565b92339161477d565b612a77612a606020612a5a84878b612b47565b016122a0565b61148e610fd5612a6f85612819565b858a8d612839565b8038858886898c6129da565b15612a8a57565b60a460405162461bcd60e51b815260206004820152604460248201527f5265676973747279436f6f7264696e61746f722e72656769737465724f70657260448201527f61746f7257697468436875726e3a20696e707574206c656e677468206d69736d6064820152630c2e8c6d60e31b6084820152fd5b90604051612b0e8161064d565b604061ffff82945463ffffffff81168452818160201c16602085015260301c16910152565b805182101561130e5760209160051b010190565b919081101561130e5760061b0190565b6122aa90369061159f565b9190805190612b7082611588565b91612b7e6040519384610668565b808352612b8d601f1991611588565b0136602084013760005b8151811015612bd05780612bb7612bb060019385612b33565b51876148d5565b63ffffffff612bc68387612b33565b9116905201612b97565b5090925050565b15612bde57565b60405162461bcd60e51b815260206004820152602e60248201527f496e697469616c697a61626c653a20636f6e747261637420697320616c72656160448201526d191e481a5b9a5d1a585b1a5e995960921b6064820152608490fd5b9694929091612c8796949260005498612c6b60ff8b60081c16151515809b81612d05575b8115612ce5575b50612bd7565b89612c7e600160ff196000541617600055565b612ccc57612de4565b612c8d57565b612c9d61ff001960005416600055565b604051600181527f7f26b83ff96e1f2b6a682f133852f6798a09c465da95921460cefb384740249890602090a1565b612ce061010061ff00196000541617600055565b612de4565b303b15915081612cf7575b5038612c65565b60ff16600114905038612cf0565b600160ff8216109150612c5e565b15612d1a57565b60405162461bcd60e51b815260206004820152603560248201527f5265676973747279436f6f7264696e61746f722e696e697469616c697a653a206044820152740d2dce0eae840d8cadccee8d040dad2e6dac2e8c6d605b1b6064820152608490fd5b609c54600160401b8110156106485760018101609c556000609c5482101561130e57609c90527faf85b9071dfafeac1409d3f1d19bafc9bc7c37974cde8df0ee6168f0086e539c0180546001600160a01b0319166001600160a01b03909216919091179055565b612e1a94610cdd9394612e15610cb0939b9a999b612e108d8b5190518091149081612ef8575b50612d13565b613af1565b614c74565b612e4c7f00000000000000000000000000000000000000000000000000000000000000006001600160a01b0316612d7d565b612e7e7f00000000000000000000000000000000000000000000000000000000000000006001600160a01b0316612d7d565b612eb07f00000000000000000000000000000000000000000000000000000000000000006001600160a01b0316612d7d565b60005b8151811015612ef15780612eeb612ecc60019385612b33565b51612eda612a1f848a612b33565b612ee48488612b33565b5191614ae5565b01612eb3565b5050509050565b90508c511438612e0a565b60001981019190821161282757565b806000526098602052604060002054908115600014612f32575050600090565b6000526098602052604060002090600019810190811161282757612f55916112f6565b505460401c90565b90612f67826106a9565b612f746040519182610668565b8281528092612f85601f19916106a9565b0190602036910137565b60001981146128275760010190565b80511561130e5760200190565b90815181101561130e570160200190565b600081805b6130395750612fd39061ffff16612f5d565b6000805b825182108061302e575b15613027576001811b8416612fff575b612ffa90612f8f565b612fd7565b906001612ffa9160ff60f81b8460f81b1660001a61301d8287612fab565b5301919050612ff1565b5050905090565b506101008110612fe1565b60001981018181116128275761ffff9116911661ffff8114612827576001019080612fc1565b9081602091031261036b57516001600160c01b038116810361036b5790565b6122aa939260609260018060a01b03168252602082015281604082015201906123b7565b9190600160208201516130b48161102f565b6130bd8161102f565b0361317557516040516333567f7f60e11b815291602091839182916130e79190876004850161307e565b038160007f00000000000000000000000000000000000000000000000000000000000000006001600160a01b03165af19081156108fb57600091613146575b506001600160c01b0316908161313a575050565b61148e61069892612fbc565b613168915060203d60201161316e575b6131608183610668565b81019061305f565b38613126565b503d613156565b505050565b6064546001600160a01b0316330361318e57565b606460405162461bcd60e51b815260206004820152602060248201527f4f776e61626c653a2063616c6c6572206973206e6f7420746865206f776e65726044820152fd5b6001600160a01b0381161561324e57600054604080516001600160a01b0360109390931c8316815291831660208301527f6e9fcd539896fca60e8b0f01dd580233e48a6b0f7df013b89ba7f565869acdb691a16000805462010000600160b01b03191660109290921b62010000600160b01b0316919091179055565b60405162461bcd60e51b815260206004820152604960248201527f5061757361626c652e5f73657450617573657252656769737472793a206e657760448201527f50617573657252656769737472792063616e6e6f7420626520746865207a65726064820152686f206164647265737360b81b608482015260a490fd5b609d54604080516001600160a01b038084168252841660208201529192917f315457d8a8fe60f04af17c16e2f5a5e1db612b31648e58030360759ef8f3528c9190a16001600160a01b03166001600160a01b03199190911617609d55565b609e54604080516001600160a01b038084168252841660208201529192917f8f30ab09f43a6c157d7fce7e0a13c003042c1c95e8a72e7a146a21c0caa24dc99190a16001600160a01b03166001600160a01b03199190911617609e55565b61338f614d5c565b9060405190602082019261190160f01b845260228301526042820152604281526133ba606282610668565b51902090565b634e487b7160e01b600052601260045260246000fd5b600080516020615711833981519152906133ee61251d565b5006906000908192602060c0945b6134f857600093600080516020615711833981519152600381858181800909086040516134298482610668565b8336823783818960405161343d8282610668565b813682378381528360208201528360408201528560608201527f0c19139cb84c680a6e14116da060561765e05aa45a1c72a34f082305b61f3f52608082015260008051602061571183398151915260a082015260056107cf195a01fa80156134fd576134a8906153c5565b51916134f857600080516020615711833981519152828009146134e15750600080516020615711833981519152600185930891936133fc565b9294509092506134ef610689565b92835282015290565b6133c0565bfe5b90600161350d60ff93614ef4565b928392161b111561351b5790565b60405162461bcd60e51b815260206004820152603f60248201527f4269746d61705574696c732e6f72646572656442797465734172726179546f4260448201527f69746d61703a206269746d61702065786365656473206d61782076616c7565006064820152608490fd5b61364660ff7f3ee6fe8d54610244c3e9d3c066ae4aee997884aa28f10616ae821925401318ac92169283600052609760205260406000206135de63ffffffff835116829063ffffffff1663ffffffff19825416179055565b6020820151815465ffff0000000067ffff000000000000604086015160301b169260201b169067ffffffff0000000019161717905560405191829182919091604061ffff81606084019563ffffffff8151168552826020820151166020860152015116910152565b0390a2565b1561365257565b60405162461bcd60e51b815260206004820152604360248201527f5265676973747279436f6f7264696e61746f722e5f646572656769737465724f60448201527f70657261746f723a206f70657261746f72206973206e6f7420726567697374656064820152621c995960ea1b608482015260a490fd5b156136d057565b60405162461bcd60e51b815260206004820152603b60248201527f5265676973747279436f6f7264696e61746f722e5f646572656769737465724f60448201527f70657261746f723a206269746d61702063616e6e6f74206265203000000000006064820152608490fd5b1561374257565b60405162461bcd60e51b815260206004820152605960248201527f5265676973747279436f6f7264696e61746f722e5f646572656769737465724f60448201527f70657261746f723a206f70657261746f72206973206e6f74207265676973746560648201527f72656420666f72207370656369666965642071756f72756d7300000000000000608482015260a490fd5b6001600160a01b0390911681526040602082018190526122aa929101906123b7565b6040906122aa9392815281602082015201906123b7565b6001600160a01b03811660009081526099602052604090209060018254920161384a600161383b835460ff1690565b6138448161102f565b1461364b565b6138aa61386561042761385f60965460ff1690565b876134ff565b61386e85612f12565b6001600160c01b03909116906138858215156136c9565b61389b8282166001600160c01b0316831461373b565b9019166001600160c01b031690565b6138b4818561505b565b6001600160c01b031615613a33575b507f00000000000000000000000000000000000000000000000000000000000000006001600160a01b0316803b1561036b578360009161391a938360405180968195829463f4e24fe560e01b8452600484016137d3565b03925af180156108fb57613a1e575b507f00000000000000000000000000000000000000000000000000000000000000006001600160a01b0316803b1561036b576000604051809263bd29b8cd60e01b825281838161397d8989600484016137f5565b03925af180156108fb57613a09575b507f00000000000000000000000000000000000000000000000000000000000000006001600160a01b031691823b1561036b576139e3926000928360405180968195829463bd29b8cd60e01b8452600484016137f5565b03925af180156108fb576139f45750565b80613a03600061069893610668565b806105e3565b80613a036000613a1893610668565b3861398c565b80613a036000613a2d93610668565b38613929565b805460ff191660021790557f00000000000000000000000000000000000000000000000000000000000000006001600160a01b0316803b1561036b576040516351b27a6d60e11b81526001600160a01b0383166004820152906000908290602490829084905af180156108fb57613adc575b50816001600160a01b0382167f396fdcb180cb0fea26928113fb0fd1c3549863f9cd563e6a184f1d578116c8e4600080a3386138c3565b80613a036000613aeb93610668565b38613aa5565b606480546001600160a01b039283166001600160a01b0319821681179092559091167f8be0079c531659141344cd1fd0a4f28419497f9722a3daafe3b4186f6b6457e0600080a3565b9081602091031261036b575190565b61012090604060c0610698959796949761016084019860018060a01b03168452613b80602085018260208091803584520135910152565b80830180356060860152602001356080850152826080820160a08601370160e0830137019060208091805184520151910152565b6040516309aa152760e11b81526001600160a01b0382811660048301529091907f000000000000000000000000000000000000000000000000000000000000000016602083602481845afa9283156108fb57600093613c98575b508215613c1c575050905090565b60209250613c4d936000613c2f84612536565b6040516317ef39cb60e31b8152968795869485939160048501613b49565b03925af19081156108fb57600091613c69575b50803880613027565b613c8b915060203d602011613c91575b613c838183610668565b810190613b3a565b38613c60565b503d613c79565b613cb291935060203d602011613c9157613c838183610668565b9138613c0e565b15613cc057565b60405162461bcd60e51b815260206004820152605260248201527f5265676973747279436f6f7264696e61746f722e5f766572696679436875726e60448201527f417070726f7665725369676e61747572653a20636875726e417070726f766572606482015271081cda59db985d1d5c9948195e1c1a5c995960721b608482015260a490fd5b9192909260208201928351600052609a60205260ff60406000205416613dc35761069894613dbb926040850191613d808351421115613cb9565b613da5613d988851600052609a602052604060002090565b805460ff19166001179055565b609d546001600160a01b03169651925193612851565b9051916152ae565b60405162461bcd60e51b815260206004820152605260248201527f5265676973747279436f6f7264696e61746f722e5f766572696679436875726e60448201527f417070726f7665725369676e61747572653a20636875726e417070726f766572606482015271081cd85b1d08185b1c9958591e481d5cd95960721b608482015260a490fd5b60405190613e568261064d565b60606040838281528260208201520152565b15613e6f57565b60405162461bcd60e51b815260206004820152603960248201527f5265676973747279436f6f7264696e61746f722e5f72656769737465724f706560448201527f7261746f723a206269746d61702063616e6e6f742062652030000000000000006064820152608490fd5b15613ee157565b60405162461bcd60e51b815260206004820152606860248201527f5265676973747279436f6f7264696e61746f722e5f72656769737465724f706560448201527f7261746f723a206f70657261746f7220616c726561647920726567697374657260648201527f656420666f7220736f6d652071756f72756d73206265696e672072656769737460848201526732b932b2103337b960c11b60a482015260c490fd5b15613f8a57565b60405162461bcd60e51b815260206004820152604560248201527f5265676973747279436f6f7264696e61746f722e5f72656769737465724f706560448201527f7261746f723a206f70657261746f722063616e6e6f74207265726567697374656064820152641c881e595d60da1b608482015260a490fd5b6001602091835181550191015160038110156108145760ff80198354169116179055565b9060018060a01b031681526040602082015260806040614052845160608386015260a08501906123b7565b9360208101516060850152015191015290565b908060209392818452848401376000828201840152601f01601f1916010190565b6001600160a01b0390911681526040602082018190526122aa93910191614065565b9080601f8301121561036b5781516140bf81611588565b926140cd6040519485610668565b81845260208085019260051b82010192831161036b57602001905b8282106140f55750505090565b60208091835161410481611c5b565b8152019101906140e8565b91909160408184031261036b5780516001600160401b03811161036b57836141389183016140a8565b9260208201516001600160401b03811161036b576122aa92016140a8565b6122aa949260609260018060a01b0316825260208201528160408201520191614065565b60208183031261036b578051906001600160401b03821161036b57019080601f8301121561036b5781516141ad81611588565b926141bb6040519485610668565b81845260208085019260051b82010192831161036b57602001905b8282106141e35750505090565b6020809183516141f281610470565b8152019101906141d6565b6040906122aa949281528160208201520191614065565b91929394817fec2963ab21c1e50e1e582aa542af2e4bf7bf38e6e1403c27b42e1c5d6e621eaa6142e6614245613e49565b986142da6142686104278b610e128c61426060965460ff1690565b9236916106c4565b61427186612f12565b6001600160c01b0390911690614288821515613e68565b60018060c01b03166142a261429d8284161590565b613eda565b6001600160a01b038a166000908152609f602052604090206142d3906142cc905460a0549061282c565b4211613f83565b178561505b565b604051918291826123f8565b0390a260016143138161430b8660018060a01b03166000526099602052604060002090565b015460ff1690565b61431c8161102f565b036144b6575b507f00000000000000000000000000000000000000000000000000000000000000006001600160a01b0316803b1561036b5760006040518092631fd93ca960e11b82528183816143778b8b8b60048501614086565b03925af180156108fb57849360009284926144a2575b506143ad876040519788948594632550477760e01b865260048601614156565b0381837f00000000000000000000000000000000000000000000000000000000000000006001600160a01b03165af19283156108fb576000938491859161447e575b5060408701526020860152614417604051948593849362bff04d60e01b8552600485016141fd565b0381837f00000000000000000000000000000000000000000000000000000000000000006001600160a01b03165af19081156108fb5760009161445b575b50815290565b61447891503d806000833e6144708183610668565b81019061417a565b38614455565b905061449c91503d8086833e6144948183610668565b81019061410f565b386143ef565b80613a03856144b093610668565b3861438d565b6144e86144c1610689565b838152600160208201526001600160a01b0385166000908152609960205260409020614003565b7f00000000000000000000000000000000000000000000000000000000000000006001600160a01b0316803b1561036b57604051639926ee7d60e01b8152916000918391829084908290614540908a60048401614027565b03925af180156108fb57614586575b50806001600160a01b0383167fe8e68cef1c3a761ed7be7e8463a375f27f7bc335e51824223cacce636ec5c3fe600080a338614322565b80613a03600061459593610668565b3861454f565b156145a257565b60405162461bcd60e51b815260206004820152603560248201526000805160206156f183398151915260448201527439371d1031b0b73737ba1031b43ab9371039b2b63360591b6064820152608490fd5b156145fa57565b60405162461bcd60e51b815260206004820152604760248201526000805160206156f183398151915260448201527f726e3a2071756f72756d4e756d626572206e6f74207468652073616d65206173606482015266081cda59db995960ca1b608482015260a490fd5b9081602091031261036b57516122aa81611c5b565b1561467f57565b60405162461bcd60e51b815260206004820152605660248201526000805160206156f183398151915260448201527f726e3a20696e636f6d696e67206f70657261746f722068617320696e7375666660648201527534b1b4b2b73a1039ba30b5b2903337b91031b43ab93760511b608482015260a490fd5b156146fe57565b60405162461bcd60e51b815260206004820152605c60248201526000805160206156f183398151915260448201527f726e3a2063616e6e6f74206b69636b206f70657261746f722077697468206d6f60648201527f7265207468616e206b69636b424950734f66546f74616c5374616b6500000000608482015260a490fd5b602091926147db6147ce6148069896976147c76147a28783015160018060a01b031690565b6001600160a01b0390811660008181526099602052604090205496909116141561459b565b5160ff1690565b60ff8085169116146145f3565b604051635401ed2760e01b8152600481019190915260ff909116602482015294859081906044820190565b03817f00000000000000000000000000000000000000000000000000000000000000006001600160a01b03165afa9283156108fb576106989460009461488b575b50826148839261487e61486a936001600160601b0361487661486a82998b615384565b6001600160601b031690565b911611614678565b6153a7565b9116106146f7565b61486a919450926148839261487e6148c26001600160601b039660203d6020116148ce575b6148ba8183610668565b810190614663565b96935050925092614847565b503d6148b0565b8160005260986020526040600020549060005b8281106149955760405162461bcd60e51b815260206004820152606c60248201527f5265676973747279436f6f7264696e61746f722e67657451756f72756d42697460448201527f6d6170496e6465784174426c6f636b4e756d6265723a206e6f206269746d617060648201527f2075706461746520666f756e6420666f72206f70657261746f7249642061742060848201526b313637b1b590373ab6b132b960a11b60a482015260c490fd5b808303838111612827576129c96149ab91612f03565b6149d66149cb826149c6886000526098602052604060002090565b6112f6565b505463ffffffff1690565b63ffffffff808516911611156149ef57506001016148e8565b935050505090565b156149fe57565b60405162461bcd60e51b815260206004820152603560248201527f5265676973747279436f6f7264696e61746f722e63726561746551756f72756d6044820152740e881b585e081c5d5bdc9d5b5cc81c995858da1959605a1b6064820152608490fd5b60ff60019116019060ff821161282757565b6080906001600160601b036020939460ff606084019616835216838201526060604082015284518094520192019060005b818110614ab15750505090565b825180516001600160a01b031685526020908101516001600160601b03168186015260409094019390920191600101614aa4565b9190614b28614af660965460ff1690565b93614b0660c060ff8716106149f7565b614b22614b1286614a61565b60ff1660ff196096541617609655565b84613586565b7f00000000000000000000000000000000000000000000000000000000000000006001600160a01b031691823b1561036b57614b7f926000928360405180968195829463ff694a7760e01b84528a60048501614a73565b03925af180156108fb57614c5f575b507f00000000000000000000000000000000000000000000000000000000000000006001600160a01b0316803b1561036b5760405163136ca0f960e11b815260ff83166004820152906000908290602490829084905af180156108fb57614c4a575b507f00000000000000000000000000000000000000000000000000000000000000006001600160a01b0316803b1561036b5760405163136ca0f960e11b815260ff90921660048301526000908290818381602481016139e3565b80613a036000614c5993610668565b38614bf0565b80613a036000614c6e93610668565b38614b8e565b60005460101c6001600160a01b03161580614d4a575b15614ccf5781614c9c61069893600155565b60405190815233907fab40a374bc51de372200a8bc981af8c9ecdc08dfdaef0bb6e09f88f3c616ef3d90602090a26131d2565b60405162461bcd60e51b815260206004820152604760248201527f5061757361626c652e5f696e697469616c697a655061757365723a205f696e6960448201527f7469616c697a6550617573657228292063616e206f6e6c792062652063616c6c6064820152666564206f6e636560c81b608482015260a490fd5b506001600160a01b0381161515614c8a565b307f00000000000000000000000000000000000000000000000000000000000000006001600160a01b03161480614e49575b15614db7577f000000000000000000000000000000000000000000000000000000000000000090565b60405160208101907f000000000000000000000000000000000000000000000000000000000000000082527f000000000000000000000000000000000000000000000000000000000000000060408201527f000000000000000000000000000000000000000000000000000000000000000060608201524660808201523060a082015260a081526133ba60c082610668565b507f00000000000000000000000000000000000000000000000000000000000000004614614d8e565b15614e7957565b60405162461bcd60e51b815260206004820152604760248201527f4269746d61705574696c732e6f72646572656442797465734172726179546f4260448201527f69746d61703a206f72646572656442797465734172726179206973206e6f74206064820152661bdc99195c995960ca1b608482015260a490fd5b90610100825111614f7357815115614f6d57614f30614f26610e79614f1885612f9e565b516001600160f81b03191690565b60ff600191161b90565b6001905b8351821015614f6857600190614f53614f26610e79614f188689612fab565b90614f5f818311614e72565b17910190614f34565b925050565b60009150565b60a460405162461bcd60e51b815260206004820152604460248201527f4269746d61705574696c732e6f72646572656442797465734172726179546f4260448201527f69746d61703a206f7264657265644279746573417272617920697320746f6f206064820152636c6f6e6760e01b6084820152fd5b8054600160401b81101561064857615007916001820181556112f6565b61504557815160208084015160409485015163ffffffff909316911b67ffffffff00000000161767ffffffffffffffff199190931b16919091179055565b634e487b7160e01b600052600060045260246000fd5b90615070826000526098602052604060002090565b54806150c0575061508e610698926000526098602052604060002090565b6150bb61509961069a565b4363ffffffff168152925b600060208501526001600160c01b03166040840152565b614fea565b916150ed63ffffffff936150e76150e1846000526098602052604060002090565b91612f03565b906112f6565b50906150fd825463ffffffff1690565b4385169416840361512857506106989250906001600160401b0382549181199060401b169116179055565b815467ffffffff000000001916602085901b67ffffffff0000000016179091556106989291906150bb90615166906000526098602052604060002090565b916150a461517261069a565b63ffffffff9095168552565b1561518557565b60405162461bcd60e51b815260206004820152604760248201527f454950313237315369676e61747572655574696c732e636865636b5369676e6160448201527f747572655f454950313237313a207369676e6174757265206e6f742066726f6d6064820152661039b4b3b732b960c91b608482015260a490fd5b9081602091031261036b57516001600160e01b03198116810361036b5790565b1561522757565b60405162461bcd60e51b815260206004820152605360248201527f454950313237315369676e61747572655574696c732e636865636b5369676e6160448201527f747572655f454950313237313a2045524331323731207369676e6174757265206064820152721d995c9a599a58d85d1a5bdb8819985a5b1959606a1b608482015260a490fd5b90813b1561534157916020916152da93604051809581948293630b135d3f60e11b8452600484016137f5565b03916001600160a01b03165afa80156108fb5761069891600091615312575b506001600160e01b031916630b135d3f60e11b14615220565b615334915060203d60201161533a575b61532c8183610668565b810190615200565b386152f9565b503d615322565b6106989261534e91615411565b6001600160a01b0390811691161461517e565b906001600160601b03809116911602906001600160601b03821691820361282757565b6153a26001600160601b039161ffff60206127109501511690615361565b160490565b6153a26001600160601b039161ffff60406127109501511690615361565b156153cc57565b60405162461bcd60e51b815260206004820152601a60248201527f424e3235342e6578704d6f643a2063616c6c206661696c7572650000000000006044820152606490fd5b6122aa9161541e91615426565b9190916154a0565b81516041810361545357509061544f916020820151906060604084015193015160001a90615621565b9091565b60400361548c5760406020830151920151918260ff1c91601b83018093116128275761544f936001600160ff1b03169260ff1690615621565b5050600090600290565b6005111561081457565b6154a981615496565b806154b15750565b6154ba81615496565b600181036155075760405162461bcd60e51b815260206004820152601860248201527f45434453413a20696e76616c6964207369676e617475726500000000000000006044820152606490fd5b61551081615496565b6002810361555d5760405162461bcd60e51b815260206004820152601f60248201527f45434453413a20696e76616c6964207369676e6174757265206c656e677468006044820152606490fd5b61556681615496565b600381036155be5760405162461bcd60e51b815260206004820152602260248201527f45434453413a20696e76616c6964207369676e6174757265202773272076616c604482015261756560f01b6064820152608490fd5b806155ca600492615496565b146155d157565b60405162461bcd60e51b815260206004820152602260248201527f45434453413a20696e76616c6964207369676e6174757265202776272076616c604482015261756560f01b6064820152608490fd5b9291907f7fffffffffffffffffffffffffffffff5d576e7357a4501ddfe92f46681b20a083116156c45760ff16601b811415806156b9575b6156ad57602093600093604051938493608085019385528785015260408401526060830152838052039060015afa156108fb576000516001600160a01b038116156156a45790600090565b50600090600190565b50505050600090600490565b50601c811415615659565b5050505060009060039056fe5265676973747279436f6f7264696e61746f722e7570646174654f70657261745265676973747279436f6f7264696e61746f722e5f76616c696461746543687530644e72e131a029b85045b68181585d97816a916871ca8d3c208c16d87cfd47a2646970667358221220a6bf4df999816539a2306d9c6c3ed55edd5661a7095a5b1a4b8ff7ef5b4786cc64736f6c634300081a00338b73c3c69bb8fe3d512ecc4cf759cc79239f7b179b0ffacaa9a75d522b39400f","linkReferences":{}},"methodIdentifiers":{"OPERATOR_CHURN_APPROVAL_TYPEHASH()":"ca0de882","PUBKEY_REGISTRATION_TYPEHASH()":"9feab859","blsApkRegistry()":"5df45946","calculateOperatorChurnApprovalDigestHash(address,bytes32,(uint8,address)[],bytes32,uint256)":"84ca5213","churnApprover()":"054310e6","createQuorum((uint32,uint16,uint16),uint96,(address,uint96)[])":"d75b4c88","deregisterOperator(bytes)":"ca4f2d97","ejectOperator(address,bytes)":"6e3b17db","ejectionCooldown()":"a96f783e","ejector()":"28f61b31","getCurrentQuorumBitmap(bytes32)":"871ef049","getOperator(address)":"5865c60c","getOperatorFromId(bytes32)":"296bb064","getOperatorId(address)":"13542a4e","getOperatorSetParams(uint8)":"e65797ad","getOperatorStatus(address)":"fd39105a","getQuorumBitmapAtBlockNumberByIndex(bytes32,uint32,uint256)":"04ec6351","getQuorumBitmapHistoryLength(bytes32)":"03fd3492","getQuorumBitmapIndicesAtBlockNumber(uint32,bytes32[])":"c391425e","getQuorumBitmapUpdateByIndex(bytes32,uint256)":"1eb812da","indexRegistry()":"9e9923c2","initialize(address,address,address,address,uint256,(uint32,uint16,uint16)[],uint96[],(address,uint96)[][])":"dd8283f3","isChurnApproverSaltUsed(bytes32)":"1478851f","lastEjectionTimestamp(address)":"125e0584","numRegistries()":"d72d8dd6","owner()":"8da5cb5b","pause(uint256)":"136439dd","pauseAll()":"595c6a67","paused()":"5c975abb","paused(uint8)":"5ac86ab7","pauserRegistry()":"886f1195","pubkeyRegistrationMessageHash(address)":"3c2a7f4c","quorumCount()":"9aa1653d","quorumUpdateBlockNumber(uint8)":"249a0c42","registerOperator(bytes,string,((uint256,uint256),(uint256,uint256),(uint256[2],uint256[2])),(bytes,bytes32,uint256))":"a50857bf","registerOperatorWithChurn(bytes,string,((uint256,uint256),(uint256,uint256),(uint256[2],uint256[2])),(uint8,address)[],(bytes,bytes32,uint256),(bytes,bytes32,uint256))":"9b5d177b","registries(uint256)":"6347c900","renounceOwnership()":"715018a6","serviceManager()":"3998fdd3","setChurnApprover(address)":"29d1e0c3","setEjectionCooldown(uint256)":"0d3f2134","setEjector(address)":"2cdd1e86","setOperatorSetParams(uint8,(uint32,uint16,uint16))":"5b0b829f","setPauserRegistry(address)":"10d67a2f","stakeRegistry()":"68304835","transferOwnership(address)":"f2fde38b","unpause(uint256)":"fabc1cbc","updateOperators(address[])":"00cf2ab5","updateOperatorsForQuorum(address[][],bytes)":"5140a548","updateSocket(string)":"0cf4b767"},"id":81}