{"abi":[{"type":"constructor","inputs":[{"name":"_delegation","type":"address","internalType":"contract IDelegationManager"}],"stateMutability":"nonpayable"},{"type":"function","name":"DOMAIN_TYPEHASH","inputs":[],"outputs":[{"name":"","type":"bytes32","internalType":"bytes32"}],"stateMutability":"view"},{"type":"function","name":"OPERATOR_AVS_REGISTRATION_TYPEHASH","inputs":[],"outputs":[{"name":"","type":"bytes32","internalType":"bytes32"}],"stateMutability":"view"},{"type":"function","name":"avsOperatorStatus","inputs":[{"name":"","type":"address","internalType":"address"},{"name":"","type":"address","internalType":"address"}],"outputs":[{"name":"","type":"uint8","internalType":"enum IAVSDirectory.OperatorAVSRegistrationStatus"}],"stateMutability":"view"},{"type":"function","name":"calculateOperatorAVSRegistrationDigestHash","inputs":[{"name":"operator","type":"address","internalType":"address"},{"name":"avs","type":"address","internalType":"address"},{"name":"salt","type":"bytes32","internalType":"bytes32"},{"name":"expiry","type":"uint256","internalType":"uint256"}],"outputs":[{"name":"","type":"bytes32","internalType":"bytes32"}],"stateMutability":"view"},{"type":"function","name":"cancelSalt","inputs":[{"name":"salt","type":"bytes32","internalType":"bytes32"}],"outputs":[],"stateMutability":"nonpayable"},{"type":"function","name":"delegation","inputs":[],"outputs":[{"name":"","type":"address","internalType":"contract IDelegationManager"}],"stateMutability":"view"},{"type":"function","name":"deregisterOperatorFromAVS","inputs":[{"name":"operator","type":"address","internalType":"address"}],"outputs":[],"stateMutability":"nonpayable"},{"type":"function","name":"domainSeparator","inputs":[],"outputs":[{"name":"","type":"bytes32","internalType":"bytes32"}],"stateMutability":"view"},{"type":"function","name":"initialize","inputs":[{"name":"initialOwner","type":"address","internalType":"address"},{"name":"_pauserRegistry","type":"address","internalType":"contract IPauserRegistry"},{"name":"initialPausedStatus","type":"uint256","internalType":"uint256"}],"outputs":[],"stateMutability":"nonpayable"},{"type":"function","name":"operatorSaltIsSpent","inputs":[{"name":"","type":"address","internalType":"address"},{"name":"","type":"bytes32","internalType":"bytes32"}],"outputs":[{"name":"","type":"bool","internalType":"bool"}],"stateMutability":"view"},{"type":"function","name":"owner","inputs":[],"outputs":[{"name":"","type":"address","internalType":"address"}],"stateMutability":"view"},{"type":"function","name":"pause","inputs":[{"name":"newPausedStatus","type":"uint256","internalType":"uint256"}],"outputs":[],"stateMutability":"nonpayable"},{"type":"function","name":"pauseAll","inputs":[],"outputs":[],"stateMutability":"nonpayable"},{"type":"function","name":"paused","inputs":[{"name":"index","type":"uint8","internalType":"uint8"}],"outputs":[{"name":"","type":"bool","internalType":"bool"}],"stateMutability":"view"},{"type":"function","name":"paused","inputs":[],"outputs":[{"name":"","type":"uint256","internalType":"uint256"}],"stateMutability":"view"},{"type":"function","name":"pauserRegistry","inputs":[],"outputs":[{"name":"","type":"address","internalType":"contract IPauserRegistry"}],"stateMutability":"view"},{"type":"function","name":"registerOperatorToAVS","inputs":[{"name":"operator","type":"address","internalType":"address"},{"name":"operatorSignature","type":"tuple","internalType":"struct ISignatureUtils.SignatureWithSaltAndExpiry","components":[{"name":"signature","type":"bytes","internalType":"bytes"},{"name":"salt","type":"bytes32","internalType":"bytes32"},{"name":"expiry","type":"uint256","internalType":"uint256"}]}],"outputs":[],"stateMutability":"nonpayable"},{"type":"function","name":"renounceOwnership","inputs":[],"outputs":[],"stateMutability":"nonpayable"},{"type":"function","name":"setPauserRegistry","inputs":[{"name":"newPauserRegistry","type":"address","internalType":"contract IPauserRegistry"}],"outputs":[],"stateMutability":"nonpayable"},{"type":"function","name":"transferOwnership","inputs":[{"name":"newOwner","type":"address","internalType":"address"}],"outputs":[],"stateMutability":"nonpayable"},{"type":"function","name":"unpause","inputs":[{"name":"newPausedStatus","type":"uint256","internalType":"uint256"}],"outputs":[],"stateMutability":"nonpayable"},{"type":"function","name":"updateAVSMetadataURI","inputs":[{"name":"metadataURI","type":"string","internalType":"string"}],"outputs":[],"stateMutability":"nonpayable"},{"type":"event","name":"AVSMetadataURIUpdated","inputs":[{"name":"avs","type":"address","indexed":true,"internalType":"address"},{"name":"metadataURI","type":"string","indexed":false,"internalType":"string"}],"anonymous":false},{"type":"event","name":"Initialized","inputs":[{"name":"version","type":"uint8","indexed":false,"internalType":"uint8"}],"anonymous":false},{"type":"event","name":"OperatorAVSRegistrationStatusUpdated","inputs":[{"name":"operator","type":"address","indexed":true,"internalType":"address"},{"name":"avs","type":"address","indexed":true,"internalType":"address"},{"name":"status","type":"uint8","indexed":false,"internalType":"enum IAVSDirectory.OperatorAVSRegistrationStatus"}],"anonymous":false},{"type":"event","name":"OwnershipTransferred","inputs":[{"name":"previousOwner","type":"address","indexed":true,"internalType":"address"},{"name":"newOwner","type":"address","indexed":true,"internalType":"address"}],"anonymous":false},{"type":"event","name":"Paused","inputs":[{"name":"account","type":"address","indexed":true,"internalType":"address"},{"name":"newPausedStatus","type":"uint256","indexed":false,"internalType":"uint256"}],"anonymous":false},{"type":"event","name":"PauserRegistrySet","inputs":[{"name":"pauserRegistry","type":"address","indexed":false,"internalType":"contract IPauserRegistry"},{"name":"newPauserRegistry","type":"address","indexed":false,"internalType":"contract IPauserRegistry"}],"anonymous":false},{"type":"event","name":"Unpaused","inputs":[{"name":"account","type":"address","indexed":true,"internalType":"address"},{"name":"newPausedStatus","type":"uint256","indexed":false,"internalType":"uint256"}],"anonymous":false}],"bytecode":{"object":"0x60c03461012757601f611b2338819003918201601f19168301916001600160401b0383118484101761012c5780849260209460405283398101031261012757516001600160a01b03811681036101275760805260005460ff8160081c166100d25760ff80821610610097575b4660a0526040516119e0908161014382396080518181816103dd01526107d2015260a051816114d80152f35b60ff90811916176000557f7f26b83ff96e1f2b6a682f133852f6798a09c465da95921460cefb3847402498602060405160ff8152a13861006b565b60405162461bcd60e51b815260206004820152602760248201527f496e697469616c697a61626c653a20636f6e747261637420697320696e697469604482015266616c697a696e6760c81b6064820152608490fd5b600080fd5b634e487b7160e01b600052604160045260246000fdfe608080604052600436101561001357600080fd5b60003560e01c90816310d67a2f1461122457508063136439dd1461110a5780631794bb3c14610ef057806320606b7014610eb5578063374823b514610e6857806349075da314610e06578063595c6a6714610d5c5780635ac86ab714610d295780635c975abb14610d0b578063715018a614610cae578063886f119514610c855780638da5cb5b14610c5c5780639926ee7d1461065c578063a1060c8814610628578063a364f4da146104ec578063a98fb35514610447578063d79aceab1461040c578063df5cf723146103c7578063ec76f44214610308578063f2fde38b14610279578063f698da25146102565763fabc1cbc1461011157600080fd5b346102515760203660031901126102515760655460405163755b36bd60e11b81526004803592602091839182906001600160a01b03165afa80156102455761016c91600091610216575b506001600160a01b03163314611317565b6066541981198116036101ab57806066556040519081527f3582d1828e26bf56bd801502bc021ac0bc8afb57c826e4986b45593c8fad389c60203392a2005b60405162461bcd60e51b815260206004820152603860248201527f5061757361626c652e756e70617573653a20696e76616c696420617474656d7060448201527f7420746f2070617573652066756e6374696f6e616c69747900000000000000006064820152608490fd5b610238915060203d60201161023e575b61023081836112d6565b8101906112f8565b3861015b565b503d610226565b6040513d6000823e3d90fd5b600080fd5b346102515760003660031901126102515760206102716114d5565b604051908152f35b34610251576020366003190112610251576102926112aa565b61029a6116a0565b6001600160a01b038116156102b4576102b290611657565b005b60405162461bcd60e51b815260206004820152602660248201527f4f776e61626c653a206e6577206f776e657220697320746865207a65726f206160448201526564647265737360d01b6064820152608490fd5b346102515760203660031901126102515760043533600052609960205260406000208160005260205260ff60406000205416610368573360005260996020526040600020906000526020526040600020600160ff19825416179055600080f35b60405162461bcd60e51b815260206004820152603160248201527f4156534469726563746f72792e63616e63656c53616c743a2063616e6e6f742060448201527018d85b98d95b081cdc195b9d081cd85b1d607a1b6064820152608490fd5b34610251576000366003190112610251576040517f00000000000000000000000000000000000000000000000000000000000000006001600160a01b03168152602090f35b346102515760003660031901126102515760206040517fda2c89bafdd34776a2b8bb9c83c82f419e20cc8c67207f70edd58249b92661bd8152f35b346102515760203660031901126102515760043567ffffffffffffffff811161025157366023820112156102515780600401359067ffffffffffffffff8211610251573660248383010111610251577fa89c1dc243d8908a96dd84944bcc97d6bc6ac00dd78e20621576be6a3c9437139082602460405192602084528260208501520160408301376000604084830101526040813394601f80199101168101030190a2005b34610251576020366003190112610251576105056112aa565b6105166001806066541614156113eb565b336000526098602052604060002060018060a01b03821660005260205260ff604060002054166002811015610612576001036105a7573360008181526098602090815260408083206001600160a01b0395909516808452948252808320805460ff19169055519182529192917ff0952b1c65271d819d39983d2abb044b9cace59bcc4d4dd389f586ebdcb15b4191a3005b60405162461bcd60e51b815260206004820152603f60248201527f4156534469726563746f72792e646572656769737465724f70657261746f724660448201527f726f6d4156533a206f70657261746f72206e6f742072656769737465726564006064820152608490fd5b634e487b7160e01b600052602160045260246000fd5b346102515760803660031901126102515760206102716106466112aa565b61064e6112c0565b906064359160443591611437565b34610251576040366003190112610251576106756112aa565b6024359067ffffffffffffffff82116102515760606003198336030112610251576040516060810181811067ffffffffffffffff821117610c4657604052826004013567ffffffffffffffff81116102515783013660238201121561025157600481013567ffffffffffffffff8111610c465760405191610700601f8301601f1916602001846112d6565b8183523660248284010111610251578160009260246020930183860137830101528152602081019160248401358352604460408301940135845261074b6001806066541614156113eb565b83514211610bed57336000526098602052604060002060018060a01b03821660005260205260ff60406000205416600281101561061257600114610b945760018060a01b038116938460005260996020526040600020845160005260205260ff60406000205416610b42576040516336b87bd760e11b8152600481018690526020816024817f00000000000000000000000000000000000000000000000000000000000000006001600160a01b03165afa90811561024557600091610b13575b5015610aa457610822859185519051903385611437565b9251913b15610a05575060405191630b135d3f60e11b83526004830152604060248301528181519182604483015260005b8381106109ed5750506064818360008360209684010152601f80199101168101030181865afa908115610245576000916109a3575b506001600160e01b0319166374eca2c160e11b0161091c575b3360005260986020526040600020826000526020526040600020600160ff19825416179055816000526099602052604060002090516000526020526040600020600160ff1982541617905560405190600182527ff0952b1c65271d819d39983d2abb044b9cace59bcc4d4dd389f586ebdcb15b4160203393a3005b60405162461bcd60e51b815260206004820152605360248201527f454950313237315369676e61747572655574696c732e636865636b5369676e6160448201527f747572655f454950313237313a2045524331323731207369676e6174757265206064820152721d995c9a599a58d85d1a5bdb8819985a5b1959606a1b608482015260a490fd5b6020813d6020116109e5575b816109bc602093836112d6565b810103126109e15751906001600160e01b0319821682036109de575083610888565b80fd5b5080fd5b3d91506109af565b60208282018101516064878401015285935001610853565b91610a1b91610a13916116f8565b91909161177e565b6001600160a01b0316146108a15760405162461bcd60e51b815260206004820152604760248201527f454950313237315369676e61747572655574696c732e636865636b5369676e6160448201527f747572655f454950313237313a207369676e6174757265206e6f742066726f6d6064820152661039b4b3b732b960c91b608482015260a490fd5b60405162461bcd60e51b815260206004820152604d602482015260008051602061198b83398151915260448201527f56533a206f70657261746f72206e6f74207265676973746572656420746f204560648201526c1a59d95b93185e595c881e595d609a1b608482015260a490fd5b610b35915060203d602011610b3b575b610b2d81836112d6565b810190611376565b8661080b565b503d610b23565b60405162461bcd60e51b8152602060048201526036602482015260008051602061198b8339815191526044820152751594ce881cd85b1d08185b1c9958591e481cdc195b9d60521b6064820152608490fd5b60405162461bcd60e51b815260206004820152603f602482015260008051602061198b83398151915260448201527f56533a206f70657261746f7220616c72656164792072656769737465726564006064820152608490fd5b60405162461bcd60e51b815260206004820152603e602482015260008051602061198b83398151915260448201527f56533a206f70657261746f72207369676e6174757265206578706972656400006064820152608490fd5b634e487b7160e01b600052604160045260246000fd5b34610251576000366003190112610251576033546040516001600160a01b039091168152602090f35b34610251576000366003190112610251576065546040516001600160a01b039091168152602090f35b3461025157600036600319011261025157610cc76116a0565b603380546001600160a01b031981169091556000906001600160a01b03167f8be0079c531659141344cd1fd0a4f28419497f9722a3daafe3b4186f6b6457e08280a3005b34610251576000366003190112610251576020606654604051908152f35b346102515760203660031901126102515760043560ff81168091036102515760016020911b806066541614604051908152f35b346102515760003660031901126102515760655460405163237dfb4760e11b815233600482015290602090829060249082906001600160a01b03165afa801561024557610db191600091610de7575b5061138e565b60001960665560405160001981527fab40a374bc51de372200a8bc981af8c9ecdc08dfdaef0bb6e09f88f3c616ef3d60203392a2005b610e00915060203d602011610b3b57610b2d81836112d6565b82610dab565b3461025157604036600319011261025157610e1f6112aa565b610e276112c0565b9060018060a01b0316600052609860205260406000209060018060a01b031660005260205260ff604060002054166040516002821015610612576020918152f35b34610251576040366003190112610251576001600160a01b03610e896112aa565b1660005260996020526040600020602435600052602052602060ff604060002054166040519015158152f35b346102515760003660031901126102515760206040517f8cad95687ba82c2ce50e74f7b754645e5117c3a5bec8151c0726d5857980a8668152f35b3461025157606036600319011261025157610f096112aa565b610f116112c0565b604435916000549260ff8460081c1615938480956110fd575b80156110e6575b1561108a5760ff19811660011760005584611078575b506065546001600160a01b03161580611066575b15610feb57610fad9281610f9d926066556040519081527fab40a374bc51de372200a8bc981af8c9ecdc08dfdaef0bb6e09f88f3c616ef3d60203392a261150d565b610fa56115e7565b609755611657565b610fb357005b61ff0019600054166000557f7f26b83ff96e1f2b6a682f133852f6798a09c465da95921460cefb3847402498602060405160018152a1005b60405162461bcd60e51b815260206004820152604760248201527f5061757361626c652e5f696e697469616c697a655061757365723a205f696e6960448201527f7469616c697a6550617573657228292063616e206f6e6c792062652063616c6c6064820152666564206f6e636560c81b608482015260a490fd5b506001600160a01b0383161515610f5b565b61ffff19166101011760005584610f47565b60405162461bcd60e51b815260206004820152602e60248201527f496e697469616c697a61626c653a20636f6e747261637420697320616c72656160448201526d191e481a5b9a5d1a585b1a5e995960921b6064820152608490fd5b50303b158015610f315750600160ff821614610f31565b50600160ff821610610f2a565b34610251576020366003190112610251576004356024602060018060a01b03606554166040519283809263237dfb4760e11b82523360048301525afa80156102455761115d91600091611205575061138e565b6066548181160361119a57806066556040519081527fab40a374bc51de372200a8bc981af8c9ecdc08dfdaef0bb6e09f88f3c616ef3d60203392a2005b60405162461bcd60e51b815260206004820152603860248201527f5061757361626c652e70617573653a20696e76616c696420617474656d70742060448201527f746f20756e70617573652066756e6374696f6e616c69747900000000000000006064820152608490fd5b61121e915060203d602011610b3b57610b2d81836112d6565b83610dab565b346102515760203660031901126102515761123d6112aa565b60655463755b36bd60e11b8352602090839060049082906001600160a01b03165afa918215610245576102b2926112869160009161128b57506001600160a01b03163314611317565b61150d565b6112a4915060203d60201161023e5761023081836112d6565b8461015b565b600435906001600160a01b038216820361025157565b602435906001600160a01b038216820361025157565b90601f8019910116810190811067ffffffffffffffff821117610c4657604052565b9081602091031261025157516001600160a01b03811681036102515790565b1561131e57565b60405162461bcd60e51b815260206004820152602a60248201527f6d73672e73656e646572206973206e6f74207065726d697373696f6e6564206160448201526939903ab73830bab9b2b960b11b6064820152608490fd5b90816020910312610251575180151581036102515790565b1561139557565b60405162461bcd60e51b815260206004820152602860248201527f6d73672e73656e646572206973206e6f74207065726d697373696f6e6564206160448201526739903830bab9b2b960c11b6064820152608490fd5b156113f257565b60405162461bcd60e51b815260206004820152601960248201527f5061757361626c653a20696e64657820697320706175736564000000000000006044820152606490fd5b9290916040519260208401947fda2c89bafdd34776a2b8bb9c83c82f419e20cc8c67207f70edd58249b92661bd865260018060a01b0316604085015260018060a01b03166060840152608083015260a082015260a0815261149960c0826112d6565b5190206114a46114d5565b9060405190602082019261190160f01b845260228301526042820152604281526114cf6062826112d6565b51902090565b467f0000000000000000000000000000000000000000000000000000000000000000036115025760975490565b61150a6115e7565b90565b6001600160a01b0316801561156a57606554604080516001600160a01b0383168152602081018490527f6e9fcd539896fca60e8b0f01dd580233e48a6b0f7df013b89ba7f565869acdb69190a16001600160a01b03191617606555565b60405162461bcd60e51b815260206004820152604960248201527f5061757361626c652e5f73657450617573657252656769737472793a206e657760448201527f50617573657252656769737472792063616e6e6f7420626520746865207a65726064820152686f206164647265737360b81b608482015260a490fd5b6040600a602082516115f984826112d6565b828152016922b4b3b2b72630bcb2b960b11b81522081519060208201927f8cad95687ba82c2ce50e74f7b754645e5117c3a5bec8151c0726d5857980a8668452820152466060820152306080820152608081526114cf60a0826112d6565b603380546001600160a01b039283166001600160a01b0319821681179092559091167f8be0079c531659141344cd1fd0a4f28419497f9722a3daafe3b4186f6b6457e0600080a3565b6033546001600160a01b031633036116b457565b606460405162461bcd60e51b815260206004820152602060248201527f4f776e61626c653a2063616c6c6572206973206e6f7420746865206f776e65726044820152fd5b815160418103611725575090611721916020820151906060604084015193015160001a906118e2565b9091565b6040036117745760406020830151920151918260ff1c91601b830180931161175e57611721936001600160ff1b03169260ff16906118e2565b634e487b7160e01b600052601160045260246000fd5b5050600090600290565b6005811015610612578061178f5750565b6000600182036117de5760405162461bcd60e51b815260206004820152601860248201527f45434453413a20696e76616c6964207369676e617475726500000000000000006044820152606490fd5b506002810361182c5760405162461bcd60e51b815260206004820152601f60248201527f45434453413a20696e76616c6964207369676e6174757265206c656e677468006044820152606490fd5b600090600381036118875760405162461bcd60e51b815260206004820152602260248201527f45434453413a20696e76616c6964207369676e6174757265202773272076616c604482015261756560f01b6064820152608490fd5b600491501461189257565b60405162461bcd60e51b815260206004820152602260248201527f45434453413a20696e76616c6964207369676e6174757265202776272076616c604482015261756560f01b6064820152608490fd5b907f7fffffffffffffffffffffffffffffff5d576e7357a4501ddfe92f46681b20a0841161197e5760ff1690601b82141580611973575b61196757602093600093608093604051938452868401526040830152606082015282805260015afa15610245576000516001600160a01b0381161561195e5790600090565b50600090600190565b50505050600090600490565b50601c821415611919565b5050505060009060039056fe4156534469726563746f72792e72656769737465724f70657261746f72546f41a26469706673582212207768da3c13308c869aff7801739e42c0c80d1833cb0826cf98d1bf3b064445c064736f6c634300081a0033","linkReferences":{}},"methodIdentifiers":{"DOMAIN_TYPEHASH()":"20606b70","OPERATOR_AVS_REGISTRATION_TYPEHASH()":"d79aceab","avsOperatorStatus(address,address)":"49075da3","calculateOperatorAVSRegistrationDigestHash(address,address,bytes32,uint256)":"a1060c88","cancelSalt(bytes32)":"ec76f442","delegation()":"df5cf723","deregisterOperatorFromAVS(address)":"a364f4da","domainSeparator()":"f698da25","initialize(address,address,uint256)":"1794bb3c","operatorSaltIsSpent(address,bytes32)":"374823b5","owner()":"8da5cb5b","pause(uint256)":"136439dd","pauseAll()":"595c6a67","paused()":"5c975abb","paused(uint8)":"5ac86ab7","pauserRegistry()":"886f1195","registerOperatorToAVS(address,(bytes,bytes32,uint256))":"9926ee7d","renounceOwnership()":"715018a6","setPauserRegistry(address)":"10d67a2f","transferOwnership(address)":"f2fde38b","unpause(uint256)":"fabc1cbc","updateAVSMetadataURI(string)":"a98fb355"},"id":35}