{
  "_format": "hh-sol-artifact-1",
  "contractName": "Rupiah",
  "sourceName": "contracts/src/Rupiah.sol",
  "abi": [
    {
      "inputs": [],
      "stateMutability": "nonpayable",
      "type": "constructor"
    },
    {
      "inputs": [
        {
          "internalType": "address",
          "name": "spender",
          "type": "address"
        },
        {
          "internalType": "uint256",
          "name": "allowance",
          "type": "uint256"
        },
        {
          "internalType": "uint256",
          "name": "needed",
          "type": "uint256"
        }
      ],
      "name": "ERC20InsufficientAllowance",
      "type": "error"
    },
    {
      "inputs": [
        {
          "internalType": "address",
          "name": "sender",
          "type": "address"
        },
        {
          "internalType": "uint256",
          "name": "balance",
          "type": "uint256"
        },
        {
          "internalType": "uint256",
          "name": "needed",
          "type": "uint256"
        }
      ],
      "name": "ERC20InsufficientBalance",
      "type": "error"
    },
    {
      "inputs": [
        {
          "internalType": "address",
          "name": "approver",
          "type": "address"
        }
      ],
      "name": "ERC20InvalidApprover",
      "type": "error"
    },
    {
      "inputs": [
        {
          "internalType": "address",
          "name": "receiver",
          "type": "address"
        }
      ],
      "name": "ERC20InvalidReceiver",
      "type": "error"
    },
    {
      "inputs": [
        {
          "internalType": "address",
          "name": "sender",
          "type": "address"
        }
      ],
      "name": "ERC20InvalidSender",
      "type": "error"
    },
    {
      "inputs": [
        {
          "internalType": "address",
          "name": "spender",
          "type": "address"
        }
      ],
      "name": "ERC20InvalidSpender",
      "type": "error"
    },
    {
      "anonymous": false,
      "inputs": [
        {
          "indexed": true,
          "internalType": "address",
          "name": "owner",
          "type": "address"
        },
        {
          "indexed": true,
          "internalType": "address",
          "name": "spender",
          "type": "address"
        },
        {
          "indexed": false,
          "internalType": "uint256",
          "name": "value",
          "type": "uint256"
        }
      ],
      "name": "Approval",
      "type": "event"
    },
    {
      "anonymous": false,
      "inputs": [
        {
          "indexed": true,
          "internalType": "address",
          "name": "from",
          "type": "address"
        },
        {
          "indexed": true,
          "internalType": "address",
          "name": "to",
          "type": "address"
        },
        {
          "indexed": false,
          "internalType": "uint256",
          "name": "value",
          "type": "uint256"
        }
      ],
      "name": "Transfer",
      "type": "event"
    },
    {
      "inputs": [
        {
          "internalType": "address",
          "name": "owner",
          "type": "address"
        },
        {
          "internalType": "address",
          "name": "spender",
          "type": "address"
        }
      ],
      "name": "allowance",
      "outputs": [
        {
          "internalType": "uint256",
          "name": "",
          "type": "uint256"
        }
      ],
      "stateMutability": "view",
      "type": "function"
    },
    {
      "inputs": [
        {
          "internalType": "address",
          "name": "spender",
          "type": "address"
        },
        {
          "internalType": "uint256",
          "name": "value",
          "type": "uint256"
        }
      ],
      "name": "approve",
      "outputs": [
        {
          "internalType": "bool",
          "name": "",
          "type": "bool"
        }
      ],
      "stateMutability": "nonpayable",
      "type": "function"
    },
    {
      "inputs": [
        {
          "internalType": "address",
          "name": "account",
          "type": "address"
        }
      ],
      "name": "balanceOf",
      "outputs": [
        {
          "internalType": "uint256",
          "name": "",
          "type": "uint256"
        }
      ],
      "stateMutability": "view",
      "type": "function"
    },
    {
      "inputs": [],
      "name": "decimals",
      "outputs": [
        {
          "internalType": "uint8",
          "name": "",
          "type": "uint8"
        }
      ],
      "stateMutability": "view",
      "type": "function"
    },
    {
      "inputs": [],
      "name": "faucetAmount",
      "outputs": [
        {
          "internalType": "uint256",
          "name": "",
          "type": "uint256"
        }
      ],
      "stateMutability": "view",
      "type": "function"
    },
    {
      "inputs": [],
      "name": "faucetCooldown",
      "outputs": [
        {
          "internalType": "uint256",
          "name": "",
          "type": "uint256"
        }
      ],
      "stateMutability": "view",
      "type": "function"
    },
    {
      "inputs": [
        {
          "internalType": "address",
          "name": "",
          "type": "address"
        }
      ],
      "name": "lastRequestTime",
      "outputs": [
        {
          "internalType": "uint256",
          "name": "",
          "type": "uint256"
        }
      ],
      "stateMutability": "view",
      "type": "function"
    },
    {
      "inputs": [],
      "name": "name",
      "outputs": [
        {
          "internalType": "string",
          "name": "",
          "type": "string"
        }
      ],
      "stateMutability": "view",
      "type": "function"
    },
    {
      "inputs": [],
      "name": "requestTokens",
      "outputs": [],
      "stateMutability": "nonpayable",
      "type": "function"
    },
    {
      "inputs": [],
      "name": "symbol",
      "outputs": [
        {
          "internalType": "string",
          "name": "",
          "type": "string"
        }
      ],
      "stateMutability": "view",
      "type": "function"
    },
    {
      "inputs": [],
      "name": "totalSupply",
      "outputs": [
        {
          "internalType": "uint256",
          "name": "",
          "type": "uint256"
        }
      ],
      "stateMutability": "view",
      "type": "function"
    },
    {
      "inputs": [
        {
          "internalType": "address",
          "name": "to",
          "type": "address"
        },
        {
          "internalType": "uint256",
          "name": "value",
          "type": "uint256"
        }
      ],
      "name": "transfer",
      "outputs": [
        {
          "internalType": "bool",
          "name": "",
          "type": "bool"
        }
      ],
      "stateMutability": "nonpayable",
      "type": "function"
    },
    {
      "inputs": [
        {
          "internalType": "address",
          "name": "from",
          "type": "address"
        },
        {
          "internalType": "address",
          "name": "to",
          "type": "address"
        },
        {
          "internalType": "uint256",
          "name": "value",
          "type": "uint256"
        }
      ],
      "name": "transferFrom",
      "outputs": [
        {
          "internalType": "bool",
          "name": "",
          "type": "bool"
        }
      ],
      "stateMutability": "nonpayable",
      "type": "function"
    }
  ],
  "bytecode": "0x60806040526100106012600a61032c565b61001b906064610342565b600555610e1060065534801561003057600080fd5b50604051806040016040528060068152602001650a4eae0d2c2d60d31b8152506040518060400160405280600381526020016224a22960e91b815250816003908161007b91906103f8565b50600461008882826103f8565b5050506100ba3061009d6100bf60201b60201c565b6100a890600a61032c565b6100b590620f4240610342565b6100c4565b6104c9565b601290565b6001600160a01b0382166100f35760405163ec442f0560e01b8152600060048201526024015b60405180910390fd5b6100ff60008383610103565b5050565b6001600160a01b03831661012e57806002600082825461012391906104b6565b909155506101a09050565b6001600160a01b038316600090815260208190526040902054818110156101815760405163391434e360e21b81526001600160a01b038516600482015260248101829052604481018390526064016100ea565b6001600160a01b03841660009081526020819052604090209082900390555b6001600160a01b0382166101bc576002805482900390556101db565b6001600160a01b03821660009081526020819052604090208054820190555b816001600160a01b0316836001600160a01b03167fddf252ad1be2c89b69c2b068fc378daa952ba7f163c4a11628f55a4df523b3ef8360405161022091815260200190565b60405180910390a3505050565b634e487b7160e01b600052601160045260246000fd5b6001815b600184111561027e578085048111156102625761026261022d565b600184161561027057908102905b60019390931c928002610247565b935093915050565b60008261029557506001610326565b816102a257506000610326565b81600181146102b857600281146102c2576102de565b6001915050610326565b60ff8411156102d3576102d361022d565b50506001821b610326565b5060208310610133831016604e8410600b8410161715610301575081810a610326565b61030e6000198484610243565b80600019048211156103225761032261022d565b0290505b92915050565b600061033b60ff841683610286565b9392505050565b80820281158282048414176103265761032661022d565b634e487b7160e01b600052604160045260246000fd5b600181811c9082168061038357607f821691505b6020821081036103a357634e487b7160e01b600052602260045260246000fd5b50919050565b601f8211156103f357806000526020600020601f840160051c810160208510156103d05750805b601f840160051c820191505b818110156103f057600081556001016103dc565b50505b505050565b81516001600160401b0381111561041157610411610359565b6104258161041f845461036f565b846103a9565b6020601f82116001811461045957600083156104415750848201515b600019600385901b1c1916600184901b1784556103f0565b600084815260208120601f198516915b828110156104895787850151825560209485019460019092019101610469565b50848210156104a75786840151600019600387901b60f8161c191681555b50505050600190811b01905550565b808201808211156103265761032661022d565b610afa806104d86000396000f3fe608060405234801561001057600080fd5b50600436106100df5760003560e01c8063394f61811161008c57806395d89b411161006657806395d89b41146101c25780639c281430146101ca578063a9059cbb146101d3578063dd62ed3e146101e657600080fd5b8063394f61811461016357806370a08231146101835780637e36320b146101b957600080fd5b806323b872dd116100bd57806323b872dd14610137578063313ce5671461014a578063359cf2b71461015957600080fd5b806306fdde03146100e4578063095ea7b31461010257806318160ddd14610125575b600080fd5b6100ec61022c565b6040516100f991906108e6565b60405180910390f35b61011561011036600461097b565b6102be565b60405190151581526020016100f9565b6002545b6040519081526020016100f9565b6101156101453660046109a5565b6102d8565b604051601281526020016100f9565b6101616102fc565b005b6101296101713660046109e2565b60076020526000908152604090205481565b6101296101913660046109e2565b73ffffffffffffffffffffffffffffffffffffffff1660009081526020819052604090205490565b61012960065481565b6100ec61044a565b61012960055481565b6101156101e136600461097b565b610459565b6101296101f4366004610a04565b73ffffffffffffffffffffffffffffffffffffffff918216600090815260016020908152604080832093909416825291909152205490565b60606003805461023b90610a37565b80601f016020809104026020016040519081016040528092919081815260200182805461026790610a37565b80156102b45780601f10610289576101008083540402835291602001916102b4565b820191906000526020600020905b81548152906001019060200180831161029757829003601f168201915b5050505050905090565b6000336102cc818585610467565b60019150505b92915050565b6000336102e6858285610479565b6102f1858585610548565b506001949350505050565b600654336000908152600760205260409020546103199190610a8a565b4210156103ad576040517f08c379a000000000000000000000000000000000000000000000000000000000815260206004820152602b60248201527f506c656173652077616974206265666f72652072657175657374696e6720746f60448201527f6b656e7320616761696e2e00000000000000000000000000000000000000000060648201526084015b60405180910390fd5b600554306000908152602081905260409020541015610428576040517f08c379a000000000000000000000000000000000000000000000000000000000815260206004820181905260248201527f4e6f7420656e6f75676820746f6b656e7320696e20746865206661756365742e60448201526064016103a4565b336000818152600760205260409020429055600554610448913091610548565b565b60606004805461023b90610a37565b6000336102cc818585610548565b61047483838360016105f3565b505050565b73ffffffffffffffffffffffffffffffffffffffff8381166000908152600160209081526040808320938616835292905220547fffffffffffffffffffffffffffffffffffffffffffffffffffffffffffffffff81146105425781811015610533576040517ffb8f41b200000000000000000000000000000000000000000000000000000000815273ffffffffffffffffffffffffffffffffffffffff8416600482015260248101829052604481018390526064016103a4565b610542848484840360006105f3565b50505050565b73ffffffffffffffffffffffffffffffffffffffff8316610598576040517f96c6fd1e000000000000000000000000000000000000000000000000000000008152600060048201526024016103a4565b73ffffffffffffffffffffffffffffffffffffffff82166105e8576040517fec442f05000000000000000000000000000000000000000000000000000000008152600060048201526024016103a4565b61047483838361073b565b73ffffffffffffffffffffffffffffffffffffffff8416610643576040517fe602df05000000000000000000000000000000000000000000000000000000008152600060048201526024016103a4565b73ffffffffffffffffffffffffffffffffffffffff8316610693576040517f94280d62000000000000000000000000000000000000000000000000000000008152600060048201526024016103a4565b73ffffffffffffffffffffffffffffffffffffffff80851660009081526001602090815260408083209387168352929052208290558015610542578273ffffffffffffffffffffffffffffffffffffffff168473ffffffffffffffffffffffffffffffffffffffff167f8c5be1e5ebec7d5bd14f71427d1e84f3dd0314c0f7b2291e5b200ac8c7c3b9258460405161072d91815260200190565b60405180910390a350505050565b73ffffffffffffffffffffffffffffffffffffffff83166107735780600260008282546107689190610a8a565b909155506108259050565b73ffffffffffffffffffffffffffffffffffffffff8316600090815260208190526040902054818110156107f9576040517fe450d38c00000000000000000000000000000000000000000000000000000000815273ffffffffffffffffffffffffffffffffffffffff8516600482015260248101829052604481018390526064016103a4565b73ffffffffffffffffffffffffffffffffffffffff841660009081526020819052604090209082900390555b73ffffffffffffffffffffffffffffffffffffffff821661084e5760028054829003905561087a565b73ffffffffffffffffffffffffffffffffffffffff821660009081526020819052604090208054820190555b8173ffffffffffffffffffffffffffffffffffffffff168373ffffffffffffffffffffffffffffffffffffffff167fddf252ad1be2c89b69c2b068fc378daa952ba7f163c4a11628f55a4df523b3ef836040516108d991815260200190565b60405180910390a3505050565b602081526000825180602084015260005b8181101561091457602081860181015160408684010152016108f7565b5060006040828501015260407fffffffffffffffffffffffffffffffffffffffffffffffffffffffffffffffe0601f83011684010191505092915050565b803573ffffffffffffffffffffffffffffffffffffffff8116811461097657600080fd5b919050565b6000806040838503121561098e57600080fd5b61099783610952565b946020939093013593505050565b6000806000606084860312156109ba57600080fd5b6109c384610952565b92506109d160208501610952565b929592945050506040919091013590565b6000602082840312156109f457600080fd5b6109fd82610952565b9392505050565b60008060408385031215610a1757600080fd5b610a2083610952565b9150610a2e60208401610952565b90509250929050565b600181811c90821680610a4b57607f821691505b602082108103610a84577f4e487b7100000000000000000000000000000000000000000000000000000000600052602260045260246000fd5b50919050565b808201808211156102d2577f4e487b7100000000000000000000000000000000000000000000000000000000600052601160045260246000fdfea2646970667358221220b9c620737700a15e3c55b17e8544026a666dc34d76481a0930186c68420ac0e164736f6c634300081b0033",
  "linkReferences": {},
  "deployedLinkReferences": {}
}