{"abi":[{"type":"constructor","inputs":[{"name":"_pausers","type":"address[]","internalType":"address[]"},{"name":"_unpauser","type":"address","internalType":"address"}],"stateMutability":"nonpayable"},{"type":"function","name":"isPauser","inputs":[{"name":"","type":"address","internalType":"address"}],"outputs":[{"name":"","type":"bool","internalType":"bool"}],"stateMutability":"view"},{"type":"function","name":"setIsPauser","inputs":[{"name":"newPauser","type":"address","internalType":"address"},{"name":"canPause","type":"bool","internalType":"bool"}],"outputs":[],"stateMutability":"nonpayable"},{"type":"function","name":"setUnpauser","inputs":[{"name":"newUnpauser","type":"address","internalType":"address"}],"outputs":[],"stateMutability":"nonpayable"},{"type":"function","name":"unpauser","inputs":[],"outputs":[{"name":"","type":"address","internalType":"address"}],"stateMutability":"view"},{"type":"event","name":"PauserStatusChanged","inputs":[{"name":"pauser","type":"address","indexed":false,"internalType":"address"},{"name":"canPause","type":"bool","indexed":false,"internalType":"bool"}],"anonymous":false},{"type":"event","name":"UnpauserChanged","inputs":[{"name":"previousUnpauser","type":"address","indexed":false,"internalType":"address"},{"name":"newUnpauser","type":"address","indexed":false,"internalType":"address"}],"anonymous":false}],"bytecode":{"object":"0x608060405234610245576105cb8038038061001981610260565b9283398101906040818303126102455780516001600160401b0381116102455781019180601f84011215610245578251926001600160401b03841161024a578360051b9060208061006b818501610260565b80978152019282010192831161024557602001905b82821061022d578461009460208601610285565b60005b825181101561016557600581901b830160200151600091906001600160a01b0316801561010a5760408181857f65d3a1fd4c13f05cba164f80d03ce90fb4b5e21946bfc3ab7dbd434c2d0b9152946001975280602052208560ff198254161790558151908152846020820152a101610097565b60405162461bcd60e51b815260206004820152602d60248201527f50617573657252656769737472792e5f7365745061757365723a207a65726f2060448201526c1859191c995cdcc81a5b9c1d5d609a1b6064820152608490fd5b506001600160a01b031680156101d057600154604080516001600160a01b0383168152602081018490527f06b4167a2528887a1e97a366eefe8549bfbf1ea3e6ac81cb2564a934d20e88929190a16001600160a01b03191617600155604051610331908161029a8239f35b60405162461bcd60e51b815260206004820152602f60248201527f50617573657252656769737472792e5f736574556e7061757365723a207a657260448201526e1bc81859191c995cdcc81a5b9c1d5d608a1b6064820152608490fd5b6020809161023a84610285565b815201910190610080565b600080fd5b634e487b7160e01b600052604160045260246000fd5b6040519190601f01601f191682016001600160401b0381118382101761024a57604052565b51906001600160a01b03821682036102455756fe608080604052600436101561001357600080fd5b60003560e01c90816346fbf68e1461024b575080638568520614610158578063ce548428146100795763eab66d7a1461004b57600080fd5b34610074576000366003190112610074576001546040516001600160a01b039091168152602090f35b600080fd5b3461007457602036600319011261007457610092610286565b6001546001600160a01b038116916100ab33841461029c565b6001600160a01b03169182156100fb5760407f06b4167a2528887a1e97a366eefe8549bfbf1ea3e6ac81cb2564a934d20e8892918151908152846020820152a16001600160a01b03191617600155005b60405162461bcd60e51b815260206004820152602f60248201527f50617573657252656769737472792e5f736574556e7061757365723a207a657260448201526e1bc81859191c995cdcc81a5b9c1d5d608a1b6064820152608490fd5b3461007457604036600319011261007457610171610286565b602435908115158092036100745761019460018060a01b0360015416331461029c565b6001600160a01b03169081156101f057816040917f65d3a1fd4c13f05cba164f80d03ce90fb4b5e21946bfc3ab7dbd434c2d0b91529360005260006020528260002060ff1981541660ff831617905582519182526020820152a1005b60405162461bcd60e51b815260206004820152602d60248201527f50617573657252656769737472792e5f7365745061757365723a207a65726f2060448201526c1859191c995cdcc81a5b9c1d5d609a1b6064820152608490fd5b34610074576020366003190112610074576020906001600160a01b0361026f610286565b166000526000825260ff6040600020541615158152f35b600435906001600160a01b038216820361007457565b156102a357565b60405162461bcd60e51b815260206004820152602a60248201527f6d73672e73656e646572206973206e6f74207065726d697373696f6e6564206160448201526939903ab73830bab9b2b960b11b6064820152608490fdfea2646970667358221220cb4604d744f532ba50480a9c48e771c9e78e97fe6d942bb577ca1c966b72d49964736f6c634300081a0033","linkReferences":{}},"methodIdentifiers":{"isPauser(address)":"46fbf68e","setIsPauser(address,bool)":"85685206","setUnpauser(address)":"ce548428","unpauser()":"eab66d7a"},"id":63}