{"abi":[{"type":"constructor","inputs":[{"name":"_delegationManager","type":"address","internalType":"contract IDelegationManager"},{"name":"_strategyManager","type":"address","internalType":"contract IStrategyManager"},{"name":"_CALCULATION_INTERVAL_SECONDS","type":"uint32","internalType":"uint32"},{"name":"_MAX_REWARDS_DURATION","type":"uint32","internalType":"uint32"},{"name":"_MAX_RETROACTIVE_LENGTH","type":"uint32","internalType":"uint32"},{"name":"_MAX_FUTURE_LENGTH","type":"uint32","internalType":"uint32"},{"name":"__GENESIS_REWARDS_TIMESTAMP","type":"uint32","internalType":"uint32"}],"stateMutability":"nonpayable"},{"type":"function","name":"CALCULATION_INTERVAL_SECONDS","inputs":[],"outputs":[{"name":"","type":"uint32","internalType":"uint32"}],"stateMutability":"view"},{"type":"function","name":"GENESIS_REWARDS_TIMESTAMP","inputs":[],"outputs":[{"name":"","type":"uint32","internalType":"uint32"}],"stateMutability":"view"},{"type":"function","name":"MAX_FUTURE_LENGTH","inputs":[],"outputs":[{"name":"","type":"uint32","internalType":"uint32"}],"stateMutability":"view"},{"type":"function","name":"MAX_RETROACTIVE_LENGTH","inputs":[],"outputs":[{"name":"","type":"uint32","internalType":"uint32"}],"stateMutability":"view"},{"type":"function","name":"MAX_REWARDS_DURATION","inputs":[],"outputs":[{"name":"","type":"uint32","internalType":"uint32"}],"stateMutability":"view"},{"type":"function","name":"activationDelay","inputs":[],"outputs":[{"name":"","type":"uint32","internalType":"uint32"}],"stateMutability":"view"},{"type":"function","name":"beaconChainETHStrategy","inputs":[],"outputs":[{"name":"","type":"address","internalType":"contract IStrategy"}],"stateMutability":"view"},{"type":"function","name":"calculateEarnerLeafHash","inputs":[{"name":"leaf","type":"tuple","internalType":"struct IRewardsCoordinator.EarnerTreeMerkleLeaf","components":[{"name":"earner","type":"address","internalType":"address"},{"name":"earnerTokenRoot","type":"bytes32","internalType":"bytes32"}]}],"outputs":[{"name":"","type":"bytes32","internalType":"bytes32"}],"stateMutability":"pure"},{"type":"function","name":"calculateTokenLeafHash","inputs":[{"name":"leaf","type":"tuple","internalType":"struct IRewardsCoordinator.TokenTreeMerkleLeaf","components":[{"name":"token","type":"address","internalType":"contract IERC20"},{"name":"cumulativeEarnings","type":"uint256","internalType":"uint256"}]}],"outputs":[{"name":"","type":"bytes32","internalType":"bytes32"}],"stateMutability":"pure"},{"type":"function","name":"checkClaim","inputs":[{"name":"claim","type":"tuple","internalType":"struct IRewardsCoordinator.RewardsMerkleClaim","components":[{"name":"rootIndex","type":"uint32","internalType":"uint32"},{"name":"earnerIndex","type":"uint32","internalType":"uint32"},{"name":"earnerTreeProof","type":"bytes","internalType":"bytes"},{"name":"earnerLeaf","type":"tuple","internalType":"struct IRewardsCoordinator.EarnerTreeMerkleLeaf","components":[{"name":"earner","type":"address","internalType":"address"},{"name":"earnerTokenRoot","type":"bytes32","internalType":"bytes32"}]},{"name":"tokenIndices","type":"uint32[]","internalType":"uint32[]"},{"name":"tokenTreeProofs","type":"bytes[]","internalType":"bytes[]"},{"name":"tokenLeaves","type":"tuple[]","internalType":"struct IRewardsCoordinator.TokenTreeMerkleLeaf[]","components":[{"name":"token","type":"address","internalType":"contract IERC20"},{"name":"cumulativeEarnings","type":"uint256","internalType":"uint256"}]}]}],"outputs":[{"name":"","type":"bool","internalType":"bool"}],"stateMutability":"view"},{"type":"function","name":"claimerFor","inputs":[{"name":"","type":"address","internalType":"address"}],"outputs":[{"name":"","type":"address","internalType":"address"}],"stateMutability":"view"},{"type":"function","name":"createAVSRewardsSubmission","inputs":[{"name":"rewardsSubmissions","type":"tuple[]","internalType":"struct IRewardsCoordinator.RewardsSubmission[]","components":[{"name":"strategiesAndMultipliers","type":"tuple[]","internalType":"struct IRewardsCoordinator.StrategyAndMultiplier[]","components":[{"name":"strategy","type":"address","internalType":"contract IStrategy"},{"name":"multiplier","type":"uint96","internalType":"uint96"}]},{"name":"token","type":"address","internalType":"contract IERC20"},{"name":"amount","type":"uint256","internalType":"uint256"},{"name":"startTimestamp","type":"uint32","internalType":"uint32"},{"name":"duration","type":"uint32","internalType":"uint32"}]}],"outputs":[],"stateMutability":"nonpayable"},{"type":"function","name":"createRewardsForAllSubmission","inputs":[{"name":"rewardsSubmissions","type":"tuple[]","internalType":"struct IRewardsCoordinator.RewardsSubmission[]","components":[{"name":"strategiesAndMultipliers","type":"tuple[]","internalType":"struct IRewardsCoordinator.StrategyAndMultiplier[]","components":[{"name":"strategy","type":"address","internalType":"contract IStrategy"},{"name":"multiplier","type":"uint96","internalType":"uint96"}]},{"name":"token","type":"address","internalType":"contract IERC20"},{"name":"amount","type":"uint256","internalType":"uint256"},{"name":"startTimestamp","type":"uint32","internalType":"uint32"},{"name":"duration","type":"uint32","internalType":"uint32"}]}],"outputs":[],"stateMutability":"nonpayable"},{"type":"function","name":"cumulativeClaimed","inputs":[{"name":"","type":"address","internalType":"address"},{"name":"","type":"address","internalType":"contract IERC20"}],"outputs":[{"name":"","type":"uint256","internalType":"uint256"}],"stateMutability":"view"},{"type":"function","name":"currRewardsCalculationEndTimestamp","inputs":[],"outputs":[{"name":"","type":"uint32","internalType":"uint32"}],"stateMutability":"view"},{"type":"function","name":"delegationManager","inputs":[],"outputs":[{"name":"","type":"address","internalType":"contract IDelegationManager"}],"stateMutability":"view"},{"type":"function","name":"disableRoot","inputs":[{"name":"rootIndex","type":"uint32","internalType":"uint32"}],"outputs":[],"stateMutability":"nonpayable"},{"type":"function","name":"domainSeparator","inputs":[],"outputs":[{"name":"","type":"bytes32","internalType":"bytes32"}],"stateMutability":"view"},{"type":"function","name":"getCurrentClaimableDistributionRoot","inputs":[],"outputs":[{"name":"","type":"tuple","internalType":"struct IRewardsCoordinator.DistributionRoot","components":[{"name":"root","type":"bytes32","internalType":"bytes32"},{"name":"rewardsCalculationEndTimestamp","type":"uint32","internalType":"uint32"},{"name":"activatedAt","type":"uint32","internalType":"uint32"},{"name":"disabled","type":"bool","internalType":"bool"}]}],"stateMutability":"view"},{"type":"function","name":"getCurrentDistributionRoot","inputs":[],"outputs":[{"name":"","type":"tuple","internalType":"struct IRewardsCoordinator.DistributionRoot","components":[{"name":"root","type":"bytes32","internalType":"bytes32"},{"name":"rewardsCalculationEndTimestamp","type":"uint32","internalType":"uint32"},{"name":"activatedAt","type":"uint32","internalType":"uint32"},{"name":"disabled","type":"bool","internalType":"bool"}]}],"stateMutability":"view"},{"type":"function","name":"getDistributionRootAtIndex","inputs":[{"name":"index","type":"uint256","internalType":"uint256"}],"outputs":[{"name":"","type":"tuple","internalType":"struct IRewardsCoordinator.DistributionRoot","components":[{"name":"root","type":"bytes32","internalType":"bytes32"},{"name":"rewardsCalculationEndTimestamp","type":"uint32","internalType":"uint32"},{"name":"activatedAt","type":"uint32","internalType":"uint32"},{"name":"disabled","type":"bool","internalType":"bool"}]}],"stateMutability":"view"},{"type":"function","name":"getDistributionRootsLength","inputs":[],"outputs":[{"name":"","type":"uint256","internalType":"uint256"}],"stateMutability":"view"},{"type":"function","name":"getRootIndexFromHash","inputs":[{"name":"rootHash","type":"bytes32","internalType":"bytes32"}],"outputs":[{"name":"","type":"uint32","internalType":"uint32"}],"stateMutability":"view"},{"type":"function","name":"globalOperatorCommissionBips","inputs":[],"outputs":[{"name":"","type":"uint16","internalType":"uint16"}],"stateMutability":"view"},{"type":"function","name":"initialize","inputs":[{"name":"initialOwner","type":"address","internalType":"address"},{"name":"_pauserRegistry","type":"address","internalType":"contract IPauserRegistry"},{"name":"initialPausedStatus","type":"uint256","internalType":"uint256"},{"name":"_rewardsUpdater","type":"address","internalType":"address"},{"name":"_activationDelay","type":"uint32","internalType":"uint32"},{"name":"_globalCommissionBips","type":"uint16","internalType":"uint16"}],"outputs":[],"stateMutability":"nonpayable"},{"type":"function","name":"isAVSRewardsSubmissionHash","inputs":[{"name":"","type":"address","internalType":"address"},{"name":"","type":"bytes32","internalType":"bytes32"}],"outputs":[{"name":"","type":"bool","internalType":"bool"}],"stateMutability":"view"},{"type":"function","name":"isRewardsForAllSubmitter","inputs":[{"name":"","type":"address","internalType":"address"}],"outputs":[{"name":"","type":"bool","internalType":"bool"}],"stateMutability":"view"},{"type":"function","name":"isRewardsSubmissionForAllHash","inputs":[{"name":"","type":"address","internalType":"address"},{"name":"","type":"bytes32","internalType":"bytes32"}],"outputs":[{"name":"","type":"bool","internalType":"bool"}],"stateMutability":"view"},{"type":"function","name":"operatorCommissionBips","inputs":[{"name":"operator","type":"address","internalType":"address"},{"name":"avs","type":"address","internalType":"address"}],"outputs":[{"name":"","type":"uint16","internalType":"uint16"}],"stateMutability":"view"},{"type":"function","name":"owner","inputs":[],"outputs":[{"name":"","type":"address","internalType":"address"}],"stateMutability":"view"},{"type":"function","name":"pause","inputs":[{"name":"newPausedStatus","type":"uint256","internalType":"uint256"}],"outputs":[],"stateMutability":"nonpayable"},{"type":"function","name":"pauseAll","inputs":[],"outputs":[],"stateMutability":"nonpayable"},{"type":"function","name":"paused","inputs":[{"name":"index","type":"uint8","internalType":"uint8"}],"outputs":[{"name":"","type":"bool","internalType":"bool"}],"stateMutability":"view"},{"type":"function","name":"paused","inputs":[],"outputs":[{"name":"","type":"uint256","internalType":"uint256"}],"stateMutability":"view"},{"type":"function","name":"pauserRegistry","inputs":[],"outputs":[{"name":"","type":"address","internalType":"contract IPauserRegistry"}],"stateMutability":"view"},{"type":"function","name":"processClaim","inputs":[{"name":"claim","type":"tuple","internalType":"struct IRewardsCoordinator.RewardsMerkleClaim","components":[{"name":"rootIndex","type":"uint32","internalType":"uint32"},{"name":"earnerIndex","type":"uint32","internalType":"uint32"},{"name":"earnerTreeProof","type":"bytes","internalType":"bytes"},{"name":"earnerLeaf","type":"tuple","internalType":"struct IRewardsCoordinator.EarnerTreeMerkleLeaf","components":[{"name":"earner","type":"address","internalType":"address"},{"name":"earnerTokenRoot","type":"bytes32","internalType":"bytes32"}]},{"name":"tokenIndices","type":"uint32[]","internalType":"uint32[]"},{"name":"tokenTreeProofs","type":"bytes[]","internalType":"bytes[]"},{"name":"tokenLeaves","type":"tuple[]","internalType":"struct IRewardsCoordinator.TokenTreeMerkleLeaf[]","components":[{"name":"token","type":"address","internalType":"contract IERC20"},{"name":"cumulativeEarnings","type":"uint256","internalType":"uint256"}]}]},{"name":"recipient","type":"address","internalType":"address"}],"outputs":[],"stateMutability":"nonpayable"},{"type":"function","name":"renounceOwnership","inputs":[],"outputs":[],"stateMutability":"nonpayable"},{"type":"function","name":"rewardsUpdater","inputs":[],"outputs":[{"name":"","type":"address","internalType":"address"}],"stateMutability":"view"},{"type":"function","name":"setActivationDelay","inputs":[{"name":"_activationDelay","type":"uint32","internalType":"uint32"}],"outputs":[],"stateMutability":"nonpayable"},{"type":"function","name":"setClaimerFor","inputs":[{"name":"claimer","type":"address","internalType":"address"}],"outputs":[],"stateMutability":"nonpayable"},{"type":"function","name":"setGlobalOperatorCommission","inputs":[{"name":"_globalCommissionBips","type":"uint16","internalType":"uint16"}],"outputs":[],"stateMutability":"nonpayable"},{"type":"function","name":"setPauserRegistry","inputs":[{"name":"newPauserRegistry","type":"address","internalType":"contract IPauserRegistry"}],"outputs":[],"stateMutability":"nonpayable"},{"type":"function","name":"setRewardsForAllSubmitter","inputs":[{"name":"_submitter","type":"address","internalType":"address"},{"name":"_newValue","type":"bool","internalType":"bool"}],"outputs":[],"stateMutability":"nonpayable"},{"type":"function","name":"setRewardsUpdater","inputs":[{"name":"_rewardsUpdater","type":"address","internalType":"address"}],"outputs":[],"stateMutability":"nonpayable"},{"type":"function","name":"strategyManager","inputs":[],"outputs":[{"name":"","type":"address","internalType":"contract IStrategyManager"}],"stateMutability":"view"},{"type":"function","name":"submissionNonce","inputs":[{"name":"","type":"address","internalType":"address"}],"outputs":[{"name":"","type":"uint256","internalType":"uint256"}],"stateMutability":"view"},{"type":"function","name":"submitRoot","inputs":[{"name":"root","type":"bytes32","internalType":"bytes32"},{"name":"rewardsCalculationEndTimestamp","type":"uint32","internalType":"uint32"}],"outputs":[],"stateMutability":"nonpayable"},{"type":"function","name":"transferOwnership","inputs":[{"name":"newOwner","type":"address","internalType":"address"}],"outputs":[],"stateMutability":"nonpayable"},{"type":"function","name":"unpause","inputs":[{"name":"newPausedStatus","type":"uint256","internalType":"uint256"}],"outputs":[],"stateMutability":"nonpayable"},{"type":"event","name":"AVSRewardsSubmissionCreated","inputs":[{"name":"avs","type":"address","indexed":true,"internalType":"address"},{"name":"submissionNonce","type":"uint256","indexed":true,"internalType":"uint256"},{"name":"rewardsSubmissionHash","type":"bytes32","indexed":true,"internalType":"bytes32"},{"name":"rewardsSubmission","type":"tuple","indexed":false,"internalType":"struct IRewardsCoordinator.RewardsSubmission","components":[{"name":"strategiesAndMultipliers","type":"tuple[]","internalType":"struct IRewardsCoordinator.StrategyAndMultiplier[]","components":[{"name":"strategy","type":"address","internalType":"contract IStrategy"},{"name":"multiplier","type":"uint96","internalType":"uint96"}]},{"name":"token","type":"address","internalType":"contract IERC20"},{"name":"amount","type":"uint256","internalType":"uint256"},{"name":"startTimestamp","type":"uint32","internalType":"uint32"},{"name":"duration","type":"uint32","internalType":"uint32"}]}],"anonymous":false},{"type":"event","name":"ActivationDelaySet","inputs":[{"name":"oldActivationDelay","type":"uint32","indexed":false,"internalType":"uint32"},{"name":"newActivationDelay","type":"uint32","indexed":false,"internalType":"uint32"}],"anonymous":false},{"type":"event","name":"ClaimerForSet","inputs":[{"name":"earner","type":"address","indexed":true,"internalType":"address"},{"name":"oldClaimer","type":"address","indexed":true,"internalType":"address"},{"name":"claimer","type":"address","indexed":true,"internalType":"address"}],"anonymous":false},{"type":"event","name":"DistributionRootDisabled","inputs":[{"name":"rootIndex","type":"uint32","indexed":true,"internalType":"uint32"}],"anonymous":false},{"type":"event","name":"DistributionRootSubmitted","inputs":[{"name":"rootIndex","type":"uint32","indexed":true,"internalType":"uint32"},{"name":"root","type":"bytes32","indexed":true,"internalType":"bytes32"},{"name":"rewardsCalculationEndTimestamp","type":"uint32","indexed":true,"internalType":"uint32"},{"name":"activatedAt","type":"uint32","indexed":false,"internalType":"uint32"}],"anonymous":false},{"type":"event","name":"GlobalCommissionBipsSet","inputs":[{"name":"oldGlobalCommissionBips","type":"uint16","indexed":false,"internalType":"uint16"},{"name":"newGlobalCommissionBips","type":"uint16","indexed":false,"internalType":"uint16"}],"anonymous":false},{"type":"event","name":"Initialized","inputs":[{"name":"version","type":"uint8","indexed":false,"internalType":"uint8"}],"anonymous":false},{"type":"event","name":"OwnershipTransferred","inputs":[{"name":"previousOwner","type":"address","indexed":true,"internalType":"address"},{"name":"newOwner","type":"address","indexed":true,"internalType":"address"}],"anonymous":false},{"type":"event","name":"Paused","inputs":[{"name":"account","type":"address","indexed":true,"internalType":"address"},{"name":"newPausedStatus","type":"uint256","indexed":false,"internalType":"uint256"}],"anonymous":false},{"type":"event","name":"PauserRegistrySet","inputs":[{"name":"pauserRegistry","type":"address","indexed":false,"internalType":"contract IPauserRegistry"},{"name":"newPauserRegistry","type":"address","indexed":false,"internalType":"contract IPauserRegistry"}],"anonymous":false},{"type":"event","name":"RewardsClaimed","inputs":[{"name":"root","type":"bytes32","indexed":false,"internalType":"bytes32"},{"name":"earner","type":"address","indexed":true,"internalType":"address"},{"name":"claimer","type":"address","indexed":true,"internalType":"address"},{"name":"recipient","type":"address","indexed":true,"internalType":"address"},{"name":"token","type":"address","indexed":false,"internalType":"contract IERC20"},{"name":"claimedAmount","type":"uint256","indexed":false,"internalType":"uint256"}],"anonymous":false},{"type":"event","name":"RewardsForAllSubmitterSet","inputs":[{"name":"rewardsForAllSubmitter","type":"address","indexed":true,"internalType":"address"},{"name":"oldValue","type":"bool","indexed":true,"internalType":"bool"},{"name":"newValue","type":"bool","indexed":true,"internalType":"bool"}],"anonymous":false},{"type":"event","name":"RewardsSubmissionForAllCreated","inputs":[{"name":"submitter","type":"address","indexed":true,"internalType":"address"},{"name":"submissionNonce","type":"uint256","indexed":true,"internalType":"uint256"},{"name":"rewardsSubmissionHash","type":"bytes32","indexed":true,"internalType":"bytes32"},{"name":"rewardsSubmission","type":"tuple","indexed":false,"internalType":"struct IRewardsCoordinator.RewardsSubmission","components":[{"name":"strategiesAndMultipliers","type":"tuple[]","internalType":"struct IRewardsCoordinator.StrategyAndMultiplier[]","components":[{"name":"strategy","type":"address","internalType":"contract IStrategy"},{"name":"multiplier","type":"uint96","internalType":"uint96"}]},{"name":"token","type":"address","internalType":"contract IERC20"},{"name":"amount","type":"uint256","internalType":"uint256"},{"name":"startTimestamp","type":"uint32","internalType":"uint32"},{"name":"duration","type":"uint32","internalType":"uint32"}]}],"anonymous":false},{"type":"event","name":"RewardsUpdaterSet","inputs":[{"name":"oldRewardsUpdater","type":"address","indexed":true,"internalType":"address"},{"name":"newRewardsUpdater","type":"address","indexed":true,"internalType":"address"}],"anonymous":false},{"type":"event","name":"Unpaused","inputs":[{"name":"account","type":"address","indexed":true,"internalType":"address"},{"name":"newPausedStatus","type":"uint256","indexed":false,"internalType":"uint256"}],"anonymous":false}],"bytecode":{"object":"0x6101803461035557601f613df138819003918201601f19168301916001600160401b0383118484101761035a5780849260e094604052833981010312610355578051906001600160a01b03821682036103555760208101516001600160a01b03811681036103555761007360408301610370565b61007f60608401610370565b9061008c60808501610370565b926100a560c061009e60a08801610370565b9601610370565b9563ffffffff8316801561033f5763ffffffff81818a1606166102ae576201518063ffffffff91061661021d57610120526101405260805260a05260c05260e0526101005260005460ff8160081c166101c85760ff8082161061018d575b4661016052604051613a6f9081610382823960805181818161115e0152612d1b015260a0518181816112500152612ce0015260c0518181816109040152612d74015260e0518181816103a00152612dc50152610100518181816105ad0152612f1c0152610120518161149f01526101405181818161093e0152612df6015261016051816124dd0152f35b60ff90811916176000557f7f26b83ff96e1f2b6a682f133852f6798a09c465da95921460cefb3847402498602060405160ff8152a138610103565b60405162461bcd60e51b815260206004820152602760248201527f496e697469616c697a61626c653a20636f6e747261637420697320696e697469604482015266616c697a696e6760c81b6064820152608490fd5b60405162461bcd60e51b815260206004820152605760248201527f52657761726473436f6f7264696e61746f723a2043414c43554c4154494f4e5f60448201527f494e54455256414c5f5345434f4e4453206d7573742062652061206d756c746960648201527f706c65206f6620534e415053484f545f434144454e4345000000000000000000608482015260a490fd5b60405162461bcd60e51b815260206004820152606060248201527f52657761726473436f6f7264696e61746f723a2047454e455349535f5245574160448201527f5244535f54494d455354414d50206d7573742062652061206d756c7469706c6560648201527f206f662043414c43554c4154494f4e5f494e54455256414c5f5345434f4e4453608482015260a490fd5b634e487b7160e01b600052601260045260246000fd5b600080fd5b634e487b7160e01b600052604160045260246000fd5b519063ffffffff821682036103555756fe6080604052600436101561001257600080fd5b60003560e01c806218572c1461032657806304a0c50214610321578063092db0071461031c5780630e9a53cf146103175780630eb383451461031257806310d67a2f1461030d578063131433b414610308578063136439dd14610303578063149bc872146102fe57806322f19a64146102f95780632b9f64a4146102f457806336af41fa146102ef57806337838ed0146102ea57806339b70e38146102e55780633a8c0786146102e05780633ccc861d146102db5780633efe1db6146102d65780634d18cc35146102d157806358baaa3e146102cc578063595c6a67146102c75780635ac86ab7146102c25780635c975abb146102bd5780635e9d8348146102b85780636d21117e146102b3578063715018a6146102ae5780637b8f8b05146102a9578063863cb9a9146102a4578063865c69531461029f578063886f11951461029a5780638da5cb5b146102955780639104c319146102905780639be3d4e41461028b5780639d45c28114610286578063a0169ddd14610281578063bb7e451f1461027c578063bf21a8aa14610277578063c46db60614610272578063d4540a551461026d578063de02e50314610268578063e221b24514610263578063e810ce211461025e578063ea4d3c9b14610259578063f2fde38b14610254578063f698da251461024f578063f8cd84481461024a578063f96abf2e14610245578063fabc1cbc14610240578063fbf1e2c11461023b5763fce36c7d1461023657600080fd5b611815565b6117ec565b6116dd565b61159e565b61157a565b61155f565b6114ce565b611489565b61145d565b61142d565b611402565b6112d7565b611274565b611233565b6111f6565b611182565b611141565b611104565b6110d5565b6110ac565b611083565b611020565b610fe8565b610fca565b610f6d565b610f1b565b610ec5565b610ea7565b610e74565b610dea565b610dbd565b610d96565b610be8565b6109a3565b61096d565b610928565b6108e7565b61081d565b610784565b610749565b61071d565b6105d1565b610590565b6104eb565b610452565b6103e9565b6103c4565b610383565b610341565b6001600160a01b0381160361033c57565b600080fd5b3461033c57602036600319011261033c5760043561035e8161032b565b60018060a01b031660005260d1602052602060ff604060002054166040519015158152f35b3461033c57600036600319011261033c57602060405163ffffffff7f0000000000000000000000000000000000000000000000000000000000000000168152f35b3461033c57600036600319011261033c57602061ffff60cb5460e01c16604051908152f35b3461033c57600036600319011261033c57610444610405611a9c565b6040519182918291909160608060808301948051845263ffffffff602082015116602085015263ffffffff604082015116604085015201511515910152565b0390f35b8015150361033c57565b3461033c57604036600319011261033c5760043561046f8161032b565b6024359061047c82610448565b61048461262b565b60018060a01b03168060005260d160205260ff60406000205416151582151590827f4de6293e668df1398422e1def12118052c1539a03cbfedc145895d48d7685f1c600080a460005260d160205260406000209060ff801983541691151516179055600080f35b3461033c57602036600319011261033c57600480356105098161032b565b60655460405163755b36bd60e11b81529260209184919082906001600160a01b03165afa91821561058b5761055a926105559160009161055c575b506001600160a01b03163314611b3a565b612683565b005b61057e915060203d602011610584575b610576818361198c565b810190611b16565b38610544565b503d61056c565b611b2e565b3461033c57600036600319011261033c57602060405163ffffffff7f0000000000000000000000000000000000000000000000000000000000000000168152f35b3461033c57602036600319011261033c5760043560655460405163237dfb4760e11b815233600482015290602090829060249082906001600160a01b03165afa801561058b57610629916000916106dd575b50611bae565b6066548181160361067257806066557fab40a374bc51de372200a8bc981af8c9ecdc08dfdaef0bb6e09f88f3c616ef3d6040518061066d3394829190602083019252565b0390a2005b60405162461bcd60e51b815260206004820152603860248201527f5061757361626c652e70617573653a20696e76616c696420617474656d70742060448201527f746f20756e70617573652066756e6374696f6e616c69747900000000000000006064820152608490fd5b6106ff915060203d602011610705575b6106f7818361198c565b810190611b99565b38610623565b503d6106ed565b604090600319011261033c57600490565b3461033c57604036600319011261033c57602061074161073c3661070c565b611c15565b604051908152f35b3461033c57604036600319011261033c5761076560043561032b565b61077060243561032b565b602061ffff60cb5460e01c16604051908152f35b3461033c57602036600319011261033c576004356107a18161032b565b60018060a01b031660005260cc602052602060018060a01b0360406000205416604051908152f35b90602060031983011261033c5760043567ffffffffffffffff811161033c578260238201121561033c5780600401359267ffffffffffffffff841161033c5760248460051b8301011161033c576024019190565b3461033c5761082b366107c9565b61084261083c600280606654161490565b15611c5f565b3360005260d160205260ff60406000205416156108625761055a91611cf7565b60405162461bcd60e51b815260206004820152605160248201527f52657761726473436f6f7264696e61746f723a2063616c6c6572206973206e6f60448201527f7420612076616c69642063726561746552657761726473466f72416c6c53756260648201527036b4b9b9b4b7b71039bab136b4ba3a32b960791b608482015260a490fd5b3461033c57600036600319011261033c57602060405163ffffffff7f0000000000000000000000000000000000000000000000000000000000000000168152f35b3461033c57600036600319011261033c576040517f00000000000000000000000000000000000000000000000000000000000000006001600160a01b03168152602090f35b3461033c57600036600319011261033c57602063ffffffff60cb5460a01c16604051908152f35b908161010091031261033c5790565b3461033c57604036600319011261033c5760043567ffffffffffffffff811161033c576109d4903690600401610994565b6024356109e08161032b565b6109f161083c600480606654161490565b610a0060026097541415611cab565b6002609755610a1f610a19610a1484611f62565b611a1b565b50611a5b565b90610a2a8284613180565b610a3660608401611c0b565b6001600160a01b03818116600090815260cc6020526040902054168015610bc6575b9192916001600160a01b031690610a70338314611f6c565b60a08501936001600160a01b038181169490831692909160e088019160005b610a99898b611fde565b9050811015610bbc576001818989897f9543dbd55580842586a951f0386e24d68a5df99ae29e3b216588b45fd684ce318f89610bb1610b8a8e610b838f610af38f919e610a999f610aed90610b6b9a612014565b9061204a565b95610b32610b138360018060a01b031660005260cd602052604060002090565b610b1c89611c0b565b60018060a01b0316600052602052604060002090565b54610b74610b5060208a013592610b4a81851161205a565b836119f8565b998a9460018060a01b031660005260cd602052604060002090565b610b1c8a611c0b565b55610b7e87611c0b565b6132af565b5192611c0b565b604080519384526001600160a01b0390911660208401528201929092529081906060820190565b0390a4019050610a8f565b61055a6001609755565b5080610a58565b63ffffffff81160361033c57565b3590610be682610bcd565b565b3461033c57604036600319011261033c57602435600435610c0882610bcd565b610c1961083c600880606654161490565b60cb5491610c31336001600160a01b038516146120ea565b63ffffffff81169263ffffffff8160c01c16841115610d175763ffffffff7fecd866c3c158fa00bf34d803d5f6023000b57080bcb48af004c2b4b46b3afd0891610c7c428710612153565b610d01610ca9610ca1610c9460ca5463ffffffff1690565b9360a01c63ffffffff1690565b8442166121e3565b94610cdc610cb56119ae565b88815263ffffffff8316602082015263ffffffff88166040820152600060608201526121fd565b60cb805463ffffffff60c01b191660c09290921b63ffffffff60c01b16919091179055565b60405163ffffffff9490941684521691602090a4005b60405162461bcd60e51b815260206004820152604b60248201527f52657761726473436f6f7264696e61746f722e7375626d6974526f6f743a206e60448201527f657720726f6f74206d75737420626520666f72206e657765722063616c63756c60648201526a185d1959081c195c9a5bd960aa1b608482015260a490fd5b3461033c57600036600319011261033c57602063ffffffff60cb5460c01c16604051908152f35b3461033c57602036600319011261033c5761055a600435610ddd81610bcd565b610de561262b565b6132ea565b3461033c57600036600319011261033c5760655460405163237dfb4760e11b815233600482015290602090829060249082906001600160a01b03165afa801561058b57610e3e916000916106dd5750611bae565b60001960665560405160001981527fab40a374bc51de372200a8bc981af8c9ecdc08dfdaef0bb6e09f88f3c616ef3d60203392a2005b3461033c57602036600319011261033c5760043560ff811680910361033c5760016020911b806066541614604051908152f35b3461033c57600036600319011261033c576020606654604051908152f35b3461033c57602036600319011261033c5760043567ffffffffffffffff811161033c57610ef9610f10913690600401610994565b610f0a610a198235610a1481610bcd565b90613180565b602060405160018152f35b3461033c57604036600319011261033c57600435610f388161032b565b6024359060018060a01b031660005260cf602052604060002090600052602052602060ff604060002054166040519015158152f35b3461033c57600036600319011261033c57610f8661262b565b603380546001600160a01b031981169091556000906001600160a01b03167f8be0079c531659141344cd1fd0a4f28419497f9722a3daafe3b4186f6b6457e08280a3005b3461033c57600036600319011261033c57602060ca54604051908152f35b3461033c57602036600319011261033c5761055a6004356110088161032b565b61101061262b565b613396565b3590610be68261032b565b3461033c57604036600319011261033c57602061107a6004356110428161032b565b6024359061104f8261032b565b60018060a01b031660005260cd835260406000209060018060a01b0316600052602052604060002090565b54604051908152f35b3461033c57600036600319011261033c576065546040516001600160a01b039091168152602090f35b3461033c57600036600319011261033c576033546040516001600160a01b039091168152602090f35b3461033c57600036600319011261033c57602060405173beac0eeeeeeeeeeeeeeeeeeeeeeeeeeeeeebeac08152f35b3461033c57600036600319011261033c5761111d6119bd565b5060ca54600019810190811161113c57610405610a1961044492611a1b565b6119e2565b3461033c57600036600319011261033c57602060405163ffffffff7f0000000000000000000000000000000000000000000000000000000000000000168152f35b3461033c57602036600319011261033c5760043561119f8161032b565b33600081815260cc6020526040812080546001600160a01b039485166001600160a01b03198216811790925590931691907fbab947934d42e0ad206f25c9cab18b5bb6ae144acfb00f40b4e3aa59590ca3129080a4005b3461033c57602036600319011261033c576004356112138161032b565b60018060a01b031660005260ce6020526020604060002054604051908152f35b3461033c57600036600319011261033c57602060405163ffffffff7f0000000000000000000000000000000000000000000000000000000000000000168152f35b3461033c57604036600319011261033c576004356112918161032b565b6024359060018060a01b031660005260d0602052604060002090600052602052602060ff604060002054166040519015158152f35b60a4359061ffff8216820361033c57565b3461033c5760c036600319011261033c576004356112f48161032b565b6113766024356113038161032b565b6044356064356113128161032b565b6084359161131f83610bcd565b6113276112c6565b936000549661135a6113446113408a60ff9060081c1690565b1590565b8099819a6113f4575b81156113d4575b506122a2565b8761136d600160ff196000541617600055565b6113bb57612305565b61137c57005b61138c61ff001960005416600055565b604051600181527f7f26b83ff96e1f2b6a682f133852f6798a09c465da95921460cefb384740249890602090a1005b6113cf61010061ff00196000541617600055565b612305565b303b159150816113e6575b5038611354565b60ff166001149050386113df565b600160ff821610915061134d565b3461033c57602036600319011261033c57610444610405610a196004356114276119bd565b50611a1b565b3461033c57602036600319011261033c5760043561ffff8116810361033c5761055a9061145861262b565b61346a565b3461033c57602036600319011261033c57602061147b600435612427565b63ffffffff60405191168152f35b3461033c57600036600319011261033c576040517f00000000000000000000000000000000000000000000000000000000000000006001600160a01b03168152602090f35b3461033c57602036600319011261033c576004356114eb8161032b565b6114f361262b565b6001600160a01b0381161561150b5761055a9061334d565b60405162461bcd60e51b815260206004820152602660248201527f4f776e61626c653a206e6577206f776e657220697320746865207a65726f206160448201526564647265737360d01b6064820152608490fd5b3461033c57600036600319011261033c5760206107416124da565b3461033c57604036600319011261033c5760206107416115993661070c565b61250f565b3461033c57602036600319011261033c576004356115bb81610bcd565b6115cc61083c600880606654161490565b6115e160018060a01b0360cb541633146120ea565b60ca549063ffffffff81169182101561167e57600161160261165792611a1b565b500161164461163d61163483546116286116236113408360ff9060401c1690565b612556565b60201c63ffffffff1690565b63ffffffff1690565b42106125c0565b805460ff60401b1916600160401b179055565b7fd850e6e5dfa497b72661fa73df2923464eaed9dc2ff1d3cb82bccbfeabe5c41e600080a2005b60405162461bcd60e51b815260206004820152603160248201527f52657761726473436f6f7264696e61746f722e64697361626c65526f6f743a206044820152700d2dcecc2d8d2c840e4dedee892dcc8caf607b1b6064820152608490fd5b3461033c57602036600319011261033c5760655460405163755b36bd60e11b81526004803592602091839182906001600160a01b03165afa801561058b576117379160009161055c57506001600160a01b03163314611b3a565b6066541981198116036117815761174d81606655565b60405190815233907f3582d1828e26bf56bd801502bc021ac0bc8afb57c826e4986b45593c8fad389c90806020810161066d565b60405162461bcd60e51b815260206004820152603860248201527f5061757361626c652e756e70617573653a20696e76616c696420617474656d7060448201527f7420746f2070617573652066756e6374696f6e616c69747900000000000000006064820152608490fd5b3461033c57600036600319011261033c5760cb546040516001600160a01b039091168152602090f35b3461033c57611823366107c9565b9061183561083c600180606654161490565b61184460026097541415611cab565b600260975560005b82811061185d5761055a6001609755565b8061194f61186e6001938686611dd7565b33600090815260ce602052604090205460405160208101906118a48161189686863387611f04565b03601f19810183528261198c565b519020906118b183612c7e565b33600090815260cf602052604090206118e7906118da9084905b90600052602052604060002090565b805460ff19166001179055565b6118f081611f28565b33600090815260ce60205260409020556040517f450a367a380c4e339e5ae7340c8464ef27af7781ad9945cfe8abd828f89e62813391806119318782611f51565b0390a4604061194260208301611c0b565b9101359030903390612f45565b0161184c565b634e487b7160e01b600052604160045260246000fd5b6080810190811067ffffffffffffffff82111761198757604052565b611955565b90601f8019910116810190811067ffffffffffffffff82111761198757604052565b60405190610be660808361198c565b604051906119ca8261196b565b60006060838281528260208201528260408201520152565b634e487b7160e01b600052601160045260246000fd5b9190820391821161113c57565b634e487b7160e01b600052603260045260246000fd5b60ca54811015611a3a5760ca60005260206000209060011b0190600090565b611a05565b8054821015611a3a5760005260206000209060011b0190600090565b90604051611a688161196b565b606060ff6001839580548552015463ffffffff8116602085015263ffffffff8160201c16604085015260401c161515910152565b611aa46119bd565b9060ca54805b611ab15750565b600019810181811161113c57610a19611ac991611a1b565b611ad96113406060830151151590565b80611af9575b611af45750801561113c576000190180611aaa565b925050565b50611b0e611634604083015163ffffffff1690565b421015611adf565b9081602091031261033c5751611b2b8161032b565b90565b6040513d6000823e3d90fd5b15611b4157565b60405162461bcd60e51b815260206004820152602a60248201527f6d73672e73656e646572206973206e6f74207065726d697373696f6e6564206160448201526939903ab73830bab9b2b960b11b6064820152608490fd5b9081602091031261033c5751611b2b81610448565b15611bb557565b60405162461bcd60e51b815260206004820152602860248201527f6d73672e73656e646572206973206e6f74207065726d697373696f6e6564206160448201526739903830bab9b2b960c11b6064820152608490fd5b35611b2b8161032b565b6020813591611c238361032b565b0135604051906020820192600084526001600160601b03199060601b166021830152603582015260358152611c5960558261198c565b51902090565b15611c6657565b60405162461bcd60e51b815260206004820152601960248201527f5061757361626c653a20696e64657820697320706175736564000000000000006044820152606490fd5b15611cb257565b60405162461bcd60e51b815260206004820152601f60248201527f5265656e7472616e637947756172643a207265656e7472616e742063616c6c006044820152606490fd5b90611d0760026097541415611cab565b600260975560005b818110611d2357505050610be66001609755565b80611dd1611d346001938587611dd7565b33600090815260ce60205260409020546040516020810190611d5c8161189686863387611f04565b51902090611d6983612c7e565b33600090815260d060205260409020611d87906118da9084906118cb565b611d9081611f28565b33600090815260ce60205260409020556040517f51088b8c89628df3a8174002c2a034d0152fce6af8415d651b2a4734bf2704823391806119318782611f51565b01611d0f565b9190811015611a3a5760051b81013590609e198136030182121561033c570190565b916020908281520191906000905b808210611e145750505090565b9091928335611e228161032b565b6001600160a01b0316815260208401356001600160601b038116919082900361033c57604081600193602083940152019401920190611e07565b908135601e198336030181121561033c5782019060208235920167ffffffffffffffff831161033c578260061b3603811361033c57611ef96080611ead8193611b2b9660a0875260a0870191611df9565b95611ecd611ebd60208301611015565b6001600160a01b03166020870152565b60408101356040860152611ef3611ee660608301610bdb565b63ffffffff166060870152565b01610bdb565b63ffffffff16910152565b611b2b939260609260018060a01b0316825260208201528160408201520190611e5c565b906001820180921161113c57565b906020820180921161113c57565b9190820180921161113c57565b906020611b2b928181520190611e5c565b35611b2b81610bcd565b15611f7357565b60405162461bcd60e51b815260206004820152603c60248201527f52657761726473436f6f7264696e61746f722e70726f63657373436c61696d3a60448201527f2063616c6c6572206973206e6f742076616c696420636c61696d6572000000006064820152608490fd5b903590601e198136030182121561033c570180359067ffffffffffffffff821161033c57602001918160051b3603831361033c57565b903590601e198136030182121561033c570180359067ffffffffffffffff821161033c57602001918160061b3603831361033c57565b9190811015611a3a5760061b0190565b1561206157565b60405162461bcd60e51b815260206004820152605560248201527f52657761726473436f6f7264696e61746f722e70726f63657373436c61696d3a60448201527f2063756d756c61746976654561726e696e6773206d75737420626520677420746064820152741a185b8818dd5b5d5b185d1a5d9950db185a5b5959605a1b608482015260a490fd5b156120f157565b60405162461bcd60e51b815260206004820152603460248201527f52657761726473436f6f7264696e61746f723a2063616c6c6572206973206e6f6044820152733a103a3432903932bbb0b93239aab83230ba32b960611b6064820152608490fd5b1561215a57565b60405162461bcd60e51b815260206004820152605560248201527f52657761726473436f6f7264696e61746f722e7375626d6974526f6f743a207260448201527f65776172647343616c63756c6174696f6e456e6454696d657374616d702063616064820152746e6e6f7420626520696e207468652066757475726560581b608482015260a490fd5b9063ffffffff8091169116019063ffffffff821161113c57565b60ca54600160401b8110156119875780600161221e920160ca5560ca611a3f565b91909161228c5761226d60606001610be69484518155019263ffffffff60208201511684549067ffffffff00000000604084015160201b169167ffffffffffffffff1916171784550151151590565b815460ff60401b191690151560401b68ff000000000000000016179055565b634e487b7160e01b600052600060045260246000fd5b156122a957565b60405162461bcd60e51b815260206004820152602e60248201527f496e697469616c697a61626c653a20636f6e747261637420697320616c72656160448201526d191e481a5b9a5d1a585b1a5e995960921b6064820152608490fd5b9294939190946123136133fa565b60c9556065546001600160a01b031615806123fc575b15612381576110106114589461237c610be69885612349610de597606655565b60405190815233907fab40a374bc51de372200a8bc981af8c9ecdc08dfdaef0bb6e09f88f3c616ef3d90602090a2612683565b61334d565b60405162461bcd60e51b815260206004820152604760248201527f5061757361626c652e5f696e697469616c697a655061757365723a205f696e6960448201527f7469616c697a6550617573657228292063616e206f6e6c792062652063616c6c6064820152666564206f6e636560c81b608482015260a490fd5b506001600160a01b0386161515612329565b63ffffffff6000199116019063ffffffff821161113c57565b63ffffffff60ca54165b63ffffffff81166124a75760405162461bcd60e51b815260206004820152603760248201527f52657761726473436f6f7264696e61746f722e676574526f6f74496e6465784660448201527f726f6d486173683a20726f6f74206e6f7420666f756e640000000000000000006064820152608490fd5b816124b4610a148361240e565b5054146124d05763ffffffff16801561113c5760001901612431565b611b2b915061240e565b467f0000000000000000000000000000000000000000000000000000000000000000036125075760c95490565b611b2b6133fa565b602081359161251d8361032b565b0135604051906020820192600160f81b84526001600160601b03199060601b166021830152603582015260358152611c5960558261198c565b1561255d57565b60405162461bcd60e51b815260206004820152603560248201527f52657761726473436f6f7264696e61746f722e64697361626c65526f6f743a206044820152741c9bdbdd08185b1c9958591e48191a5cd8589b1959605a1b6064820152608490fd5b156125c757565b60405162461bcd60e51b815260206004820152603660248201527f52657761726473436f6f7264696e61746f722e64697361626c65526f6f743a206044820152751c9bdbdd08185b1c9958591e481858dd1a5d985d195960521b6064820152608490fd5b6033546001600160a01b0316330361263f57565b606460405162461bcd60e51b815260206004820152602060248201527f4f776e61626c653a2063616c6c6572206973206e6f7420746865206f776e65726044820152fd5b6001600160a01b038116156126f457606554604080516001600160a01b0392831681529183166020830152610be692917f6e9fcd539896fca60e8b0f01dd580233e48a6b0f7df013b89ba7f565869acdb69190a160018060a01b03166001600160601b0360a01b6065541617606555565b60405162461bcd60e51b815260206004820152604960248201527f5061757361626c652e5f73657450617573657252656769737472793a206e657760448201527f50617573657252656769737472792063616e6e6f7420626520746865207a65726064820152686f206164647265737360b81b608482015260a490fd5b1561277857565b608460405162461bcd60e51b81526020600482015260406024820152600080516020613a1a83398151915260448201527f7264735375626d697373696f6e3a206e6f2073747261746567696573207365746064820152fd5b156127d757565b60405162461bcd60e51b81526020600482015260416024820152600080516020613a1a83398151915260448201527f7264735375626d697373696f6e3a20616d6f756e742063616e6e6f74206265206064820152600360fc1b608482015260a490fd5b1561284157565b60405162461bcd60e51b815260206004820152603f6024820152600080516020613a1a83398151915260448201527f7264735375626d697373696f6e3a20616d6f756e7420746f6f206c61726765006064820152608490fd5b156128a157565b60405162461bcd60e51b81526020600482015260546024820152600080516020613a1a83398151915260448201527f7264735375626d697373696f6e3a206475726174696f6e20657863656564732060648201527326a0ac2fa922aba0a92229afa22aa920aa24a7a760611b608482015260a490fd5b9063ffffffff1690811561292f5763ffffffff160690565b634e487b7160e01b600052601260045260246000fd5b1561294c57565b60405162461bcd60e51b815260206004820152606a6024820152600080516020613a1a83398151915260448201527f7264735375626d697373696f6e3a206475726174696f6e206d7573742062652060648201527f61206d756c7469706c65206f662043414c43554c4154494f4e5f494e54455256608482015269414c5f5345434f4e445360b01b60a482015260c490fd5b156129e557565b60405162461bcd60e51b81526020600482015260706024820152600080516020613a1a83398151915260448201527f7264735375626d697373696f6e3a20737461727454696d657374616d70206d7560648201527f73742062652061206d756c7469706c65206f662043414c43554c4154494f4e5f60848201526f494e54455256414c5f5345434f4e445360801b60a482015260c490fd5b15612a8457565b60405162461bcd60e51b81526020600482015260516024820152600080516020613a1a83398151915260448201527f7264735375626d697373696f6e3a20737461727454696d657374616d7020746f6064820152701bc819985c881a5b881d1a19481c185cdd607a1b608482015260a490fd5b15612afe57565b60405162461bcd60e51b81526020600482015260536024820152600080516020613a1a83398151915260448201527f7264735375626d697373696f6e3a20737461727454696d657374616d7020746f6064820152726f2066617220696e207468652066757475726560681b608482015260a490fd5b15612b7a57565b60405162461bcd60e51b815260206004820152604a6024820152600080516020613a1a83398151915260448201527f7264735375626d697373696f6e3a20696e76616c69642073747261746567792060648201526918dbdb9cda59195c995960b21b608482015260a490fd5b15612bed57565b60405162461bcd60e51b81526020600482015260696024820152600080516020613a1a83398151915260448201527f7264735375626d697373696f6e3a2073747261746567696573206d757374206260648201527f6520696e20617363656e64696e67206f7264657220746f2068616e646c65206460848201526875706c69636174657360b81b60a482015260c490fd5b612c94612c8b8280612014565b90501515612771565b612cbf6f4b3b4ca85a86c47a098a223fffffffff6040830135612cb88115156127d0565b111561283a565b612df4612dba612d0e60808401612d09612cd882611f62565b63ffffffff807f0000000000000000000000000000000000000000000000000000000000000000169116111561289a565b611f62565b612d4863ffffffff612d417f00000000000000000000000000000000000000000000000000000000000000008094612917565b1615612945565b612d6a612d646116346060870193612d5f85611f62565b612917565b156129de565b612d9a63ffffffff7f000000000000000000000000000000000000000000000000000000000000000016426119f8565b612da661163483611f62565b101580612f05575b612d0990959495612a7d565b63ffffffff612deb817f00000000000000000000000000000000000000000000000000000000000000001642611f44565b91161115612af7565b7f00000000000000000000000000000000000000000000000000000000000000006001600160a01b031691600090815b612e2e8280612014565b9050831015612efe57612e4d612e4884610aed8580612014565b611c0b565b60405163198f077960e21b81526001600160a01b03821660048201529091906020816024818a5afa92831561058b57600193612eb292600091612ee0575b508015612eba575b612e9c90612b73565b838060a01b03168092848060a01b031610612be6565b920191612e24565b5060a084901b849003811673beac0eeeeeeeeeeeeeeeeeeeeeeeeeeeeeebeac014612e93565b612ef8915060203d8111610705576106f7818361198c565b38612e8b565b5050509050565b50612d09612f1561163483611f62565b63ffffffff7f00000000000000000000000000000000000000000000000000000000000000001611159050612dae565b6040516323b872dd60e01b60208201526001600160a01b039283166024820152929091166044830152606480830193909352918152610be691612f8960848361198c565b613524565b15612f9557565b60405162461bcd60e51b815260206004820152603060248201526000805160206139fa83398151915260448201526f1c9bdbdd081a5cc8191a5cd8589b195960821b6064820152608490fd5b15612fe857565b60405162461bcd60e51b815260206004820152603660248201526000805160206139fa8339815191526044820152751c9bdbdd081b9bdd081858dd1a5d985d1959081e595d60521b6064820152608490fd5b1561304157565b60405162461bcd60e51b815260206004820152604c60248201526000805160206139fa83398151915260448201527f746f6b656e496e646963657320616e6420746f6b656e50726f6f6673206c656e60648201526b0cee8d040dad2e6dac2e8c6d60a31b608482015260a490fd5b156130b657565b60405162461bcd60e51b815260206004820152604a60248201526000805160206139fa83398151915260448201527f746f6b656e5472656550726f6f667320616e64206c6561766573206c656e67746064820152690d040dad2e6dac2e8c6d60b31b608482015260a490fd5b903590601e198136030182121561033c570180359067ffffffffffffffff821161033c5760200191813603831361033c57565b9190811015611a3a5760051b0190565b90821015611a3a5761317c9160051b810190613122565b9091565b91909161319b6131966113406060860151151590565b612f8e565b6131ba6131b2611634604086015163ffffffff1690565b421015612fe1565b60a08101906131c98282611fde565b90506131e660c08301916131dd8385611fde565b9190501461303a565b6132366131f38284611fde565b96905061321160e08501976132088987612014565b919050146130af565b5161321e60208501611f62565b61322b6040860186613122565b916060870193613630565b60808201359260005b6132498285611fde565b90508110156132a657806132a085610aed8a613299856132908161328a8c8f612d0960019d8f61327e9061328494508d611fde565b90613155565b98611fde565b90613165565b9490938c612014565b928a613760565b0161323f565b50505050509050565b60405163a9059cbb60e01b60208201526001600160a01b039092166024830152604480830193909352918152610be691612f8960648361198c565b60cb54907faf557c6c02c208794817a705609cfa935f827312a1adfdd26494b6b95dd2b4b36040805163ffffffff8560a01c16815263ffffffff84166020820152a163ffffffff60a01b1990911660a09190911b63ffffffff60a01b161760cb55565b603380546001600160a01b039283166001600160a01b0319821681179092559091167f8be0079c531659141344cd1fd0a4f28419497f9722a3daafe3b4186f6b6457e0600080a3565b60cb546001600160a01b0391821691829082167f237b82f438d75fc568ebab484b75b01d9287b9e98b490b7c23221623b6705dbb600080a36001600160a01b0319161760cb55565b67ffffffffffffffff811161198757601f01601f191660200190565b6040600a6020825161340c848261198c565b828152016922b4b3b2b72630bcb2b960b11b81522081519060208201927f8cad95687ba82c2ce50e74f7b754645e5117c3a5bec8151c0726d5857980a866845282015246606082015230608082015260808152611c5960a08261198c565b60cb54907f8cdc428b0431b82d1619763f443a48197db344ba96905f3949643acd1c863a066040805161ffff8560e01c16815261ffff84166020820152a161ffff60e01b1990911660e09190911b61ffff60e01b161760cb55565b156134cc57565b60405162461bcd60e51b815260206004820152602a60248201527f5361666545524332303a204552433230206f7065726174696f6e20646964206e6044820152691bdd081cdd58d8d9595960b21b6064820152608490fd5b6040805192916001600160a01b03169061353e818561198c565b602084527f5361666545524332303a206c6f772d6c6576656c2063616c6c206661696c65646020850152813b156135b6575060008281928260206135919796519301915af161358b613952565b90613982565b80518061359c575050565b816020806135b193610be69501019101611b99565b6134c5565b5162461bcd60e51b815260206004820152601d60248201527f416464726573733a2063616c6c20746f206e6f6e2d636f6e74726163740000006044820152606490fd5b929192613605826133de565b91613613604051938461198c565b82948184528183011161033c578281602093846000960137010152565b9063ffffffff9094939294169260018360051c1b8410156136e9576136689461365b61366392611c15565b9336916135f9565b613868565b1561366f57565b60405162461bcd60e51b815260206004820152604660248201527f52657761726473436f6f7264696e61746f722e5f7665726966794561726e657260448201527f436c61696d50726f6f663a20696e76616c6964206561726e657220636c61696d60648201526510383937b7b360d11b608482015260a490fd5b60405162461bcd60e51b815260206004820152604360248201527f52657761726473436f6f7264696e61746f722e5f7665726966794561726e657260448201527f436c61696d50726f6f663a20696e76616c6964206561726e65724c656166496e6064820152620c8caf60eb1b608482015260a490fd5b9063ffffffff9094939294169260018360051c1b8410156137fd5761378b9461365b6136639261250f565b1561379257565b60405162461bcd60e51b815260206004820152603f60248201527f52657761726473436f6f7264696e61746f722e5f766572696679546f6b656e4360448201527f6c61696d3a20696e76616c696420746f6b656e20636c61696d2070726f6f66006064820152608490fd5b60405162461bcd60e51b815260206004820152603c60248201527f52657761726473436f6f7264696e61746f722e5f766572696679546f6b656e4360448201527f6c61696d3a20696e76616c696420746f6b656e4c656166496e646578000000006064820152608490fd5b93909291601f8551166138d35791906020925b855184116138ca57600183166138ae57600052828501516020526138a760406000209260011c93611f36565b929161387b565b838601516000526020526138a760406000209260011c93611f36565b92509350501490565b60405162461bcd60e51b815260206004820152604b60248201527f4d65726b6c652e70726f63657373496e636c7573696f6e50726f6f664b65636360448201527f616b3a2070726f6f66206c656e6774682073686f756c642062652061206d756c60648201526a3a34b836329037b310199960a91b608482015260a490fd5b3d1561397d573d90613963826133de565b91613971604051938461198c565b82523d6000602084013e565b606090565b9091901561398e575090565b81511561399e5750805190602001fd5b6040519062461bcd60e51b8252602060048301528181519182602483015260005b8381106139e15750508160006044809484010152601f80199101168101030190fd5b602082820181015160448784010152859350016139bf56fe52657761726473436f6f7264696e61746f722e5f636865636b436c61696d3a2052657761726473436f6f7264696e61746f722e5f76616c696461746552657761a2646970667358221220864263bdc058ad0578e8ba92ddd141fde20a7912fc592cd60083ef5b8e5a351c64736f6c634300081a0033","linkReferences":{}},"methodIdentifiers":{"CALCULATION_INTERVAL_SECONDS()":"9d45c281","GENESIS_REWARDS_TIMESTAMP()":"131433b4","MAX_FUTURE_LENGTH()":"04a0c502","MAX_RETROACTIVE_LENGTH()":"37838ed0","MAX_REWARDS_DURATION()":"bf21a8aa","activationDelay()":"3a8c0786","beaconChainETHStrategy()":"9104c319","calculateEarnerLeafHash((address,bytes32))":"149bc872","calculateTokenLeafHash((address,uint256))":"f8cd8448","checkClaim((uint32,uint32,bytes,(address,bytes32),uint32[],bytes[],(address,uint256)[]))":"5e9d8348","claimerFor(address)":"2b9f64a4","createAVSRewardsSubmission(((address,uint96)[],address,uint256,uint32,uint32)[])":"fce36c7d","createRewardsForAllSubmission(((address,uint96)[],address,uint256,uint32,uint32)[])":"36af41fa","cumulativeClaimed(address,address)":"865c6953","currRewardsCalculationEndTimestamp()":"4d18cc35","delegationManager()":"ea4d3c9b","disableRoot(uint32)":"f96abf2e","domainSeparator()":"f698da25","getCurrentClaimableDistributionRoot()":"0e9a53cf","getCurrentDistributionRoot()":"9be3d4e4","getDistributionRootAtIndex(uint256)":"de02e503","getDistributionRootsLength()":"7b8f8b05","getRootIndexFromHash(bytes32)":"e810ce21","globalOperatorCommissionBips()":"092db007","initialize(address,address,uint256,address,uint32,uint16)":"d4540a55","isAVSRewardsSubmissionHash(address,bytes32)":"6d21117e","isRewardsForAllSubmitter(address)":"0018572c","isRewardsSubmissionForAllHash(address,bytes32)":"c46db606","operatorCommissionBips(address,address)":"22f19a64","owner()":"8da5cb5b","pause(uint256)":"136439dd","pauseAll()":"595c6a67","paused()":"5c975abb","paused(uint8)":"5ac86ab7","pauserRegistry()":"886f1195","processClaim((uint32,uint32,bytes,(address,bytes32),uint32[],bytes[],(address,uint256)[]),address)":"3ccc861d","renounceOwnership()":"715018a6","rewardsUpdater()":"fbf1e2c1","setActivationDelay(uint32)":"58baaa3e","setClaimerFor(address)":"a0169ddd","setGlobalOperatorCommission(uint16)":"e221b245","setPauserRegistry(address)":"10d67a2f","setRewardsForAllSubmitter(address,bool)":"0eb38345","setRewardsUpdater(address)":"863cb9a9","strategyManager()":"39b70e38","submissionNonce(address)":"bb7e451f","submitRoot(bytes32,uint32)":"3efe1db6","transferOwnership(address)":"f2fde38b","unpause(uint256)":"fabc1cbc"},"id":39}