{"abi":[{"type":"constructor","inputs":[{"name":"_strategyManager","type":"address","internalType":"contract IStrategyManager"},{"name":"_slasher","type":"address","internalType":"contract ISlasher"},{"name":"_eigenPodManager","type":"address","internalType":"contract IEigenPodManager"}],"stateMutability":"nonpayable"},{"type":"function","name":"DELEGATION_APPROVAL_TYPEHASH","inputs":[],"outputs":[{"name":"","type":"bytes32","internalType":"bytes32"}],"stateMutability":"view"},{"type":"function","name":"DOMAIN_TYPEHASH","inputs":[],"outputs":[{"name":"","type":"bytes32","internalType":"bytes32"}],"stateMutability":"view"},{"type":"function","name":"MAX_STAKER_OPT_OUT_WINDOW_BLOCKS","inputs":[],"outputs":[{"name":"","type":"uint256","internalType":"uint256"}],"stateMutability":"view"},{"type":"function","name":"MAX_WITHDRAWAL_DELAY_BLOCKS","inputs":[],"outputs":[{"name":"","type":"uint256","internalType":"uint256"}],"stateMutability":"view"},{"type":"function","name":"STAKER_DELEGATION_TYPEHASH","inputs":[],"outputs":[{"name":"","type":"bytes32","internalType":"bytes32"}],"stateMutability":"view"},{"type":"function","name":"beaconChainETHStrategy","inputs":[],"outputs":[{"name":"","type":"address","internalType":"contract IStrategy"}],"stateMutability":"view"},{"type":"function","name":"calculateCurrentStakerDelegationDigestHash","inputs":[{"name":"staker","type":"address","internalType":"address"},{"name":"operator","type":"address","internalType":"address"},{"name":"expiry","type":"uint256","internalType":"uint256"}],"outputs":[{"name":"","type":"bytes32","internalType":"bytes32"}],"stateMutability":"view"},{"type":"function","name":"calculateDelegationApprovalDigestHash","inputs":[{"name":"staker","type":"address","internalType":"address"},{"name":"operator","type":"address","internalType":"address"},{"name":"_delegationApprover","type":"address","internalType":"address"},{"name":"approverSalt","type":"bytes32","internalType":"bytes32"},{"name":"expiry","type":"uint256","internalType":"uint256"}],"outputs":[{"name":"","type":"bytes32","internalType":"bytes32"}],"stateMutability":"view"},{"type":"function","name":"calculateStakerDelegationDigestHash","inputs":[{"name":"staker","type":"address","internalType":"address"},{"name":"_stakerNonce","type":"uint256","internalType":"uint256"},{"name":"operator","type":"address","internalType":"address"},{"name":"expiry","type":"uint256","internalType":"uint256"}],"outputs":[{"name":"","type":"bytes32","internalType":"bytes32"}],"stateMutability":"view"},{"type":"function","name":"calculateWithdrawalRoot","inputs":[{"name":"withdrawal","type":"tuple","internalType":"struct IDelegationManager.Withdrawal","components":[{"name":"staker","type":"address","internalType":"address"},{"name":"delegatedTo","type":"address","internalType":"address"},{"name":"withdrawer","type":"address","internalType":"address"},{"name":"nonce","type":"uint256","internalType":"uint256"},{"name":"startBlock","type":"uint32","internalType":"uint32"},{"name":"strategies","type":"address[]","internalType":"contract IStrategy[]"},{"name":"shares","type":"uint256[]","internalType":"uint256[]"}]}],"outputs":[{"name":"","type":"bytes32","internalType":"bytes32"}],"stateMutability":"pure"},{"type":"function","name":"completeQueuedWithdrawal","inputs":[{"name":"withdrawal","type":"tuple","internalType":"struct IDelegationManager.Withdrawal","components":[{"name":"staker","type":"address","internalType":"address"},{"name":"delegatedTo","type":"address","internalType":"address"},{"name":"withdrawer","type":"address","internalType":"address"},{"name":"nonce","type":"uint256","internalType":"uint256"},{"name":"startBlock","type":"uint32","internalType":"uint32"},{"name":"strategies","type":"address[]","internalType":"contract IStrategy[]"},{"name":"shares","type":"uint256[]","internalType":"uint256[]"}]},{"name":"tokens","type":"address[]","internalType":"contract IERC20[]"},{"name":"middlewareTimesIndex","type":"uint256","internalType":"uint256"},{"name":"receiveAsTokens","type":"bool","internalType":"bool"}],"outputs":[],"stateMutability":"nonpayable"},{"type":"function","name":"completeQueuedWithdrawals","inputs":[{"name":"withdrawals","type":"tuple[]","internalType":"struct IDelegationManager.Withdrawal[]","components":[{"name":"staker","type":"address","internalType":"address"},{"name":"delegatedTo","type":"address","internalType":"address"},{"name":"withdrawer","type":"address","internalType":"address"},{"name":"nonce","type":"uint256","internalType":"uint256"},{"name":"startBlock","type":"uint32","internalType":"uint32"},{"name":"strategies","type":"address[]","internalType":"contract IStrategy[]"},{"name":"shares","type":"uint256[]","internalType":"uint256[]"}]},{"name":"tokens","type":"address[][]","internalType":"contract IERC20[][]"},{"name":"middlewareTimesIndexes","type":"uint256[]","internalType":"uint256[]"},{"name":"receiveAsTokens","type":"bool[]","internalType":"bool[]"}],"outputs":[],"stateMutability":"nonpayable"},{"type":"function","name":"cumulativeWithdrawalsQueued","inputs":[{"name":"","type":"address","internalType":"address"}],"outputs":[{"name":"","type":"uint256","internalType":"uint256"}],"stateMutability":"view"},{"type":"function","name":"decreaseDelegatedShares","inputs":[{"name":"staker","type":"address","internalType":"address"},{"name":"strategy","type":"address","internalType":"contract IStrategy"},{"name":"shares","type":"uint256","internalType":"uint256"}],"outputs":[],"stateMutability":"nonpayable"},{"type":"function","name":"delegateTo","inputs":[{"name":"operator","type":"address","internalType":"address"},{"name":"approverSignatureAndExpiry","type":"tuple","internalType":"struct ISignatureUtils.SignatureWithExpiry","components":[{"name":"signature","type":"bytes","internalType":"bytes"},{"name":"expiry","type":"uint256","internalType":"uint256"}]},{"name":"approverSalt","type":"bytes32","internalType":"bytes32"}],"outputs":[],"stateMutability":"nonpayable"},{"type":"function","name":"delegateToBySignature","inputs":[{"name":"staker","type":"address","internalType":"address"},{"name":"operator","type":"address","internalType":"address"},{"name":"stakerSignatureAndExpiry","type":"tuple","internalType":"struct ISignatureUtils.SignatureWithExpiry","components":[{"name":"signature","type":"bytes","internalType":"bytes"},{"name":"expiry","type":"uint256","internalType":"uint256"}]},{"name":"approverSignatureAndExpiry","type":"tuple","internalType":"struct ISignatureUtils.SignatureWithExpiry","components":[{"name":"signature","type":"bytes","internalType":"bytes"},{"name":"expiry","type":"uint256","internalType":"uint256"}]},{"name":"approverSalt","type":"bytes32","internalType":"bytes32"}],"outputs":[],"stateMutability":"nonpayable"},{"type":"function","name":"delegatedTo","inputs":[{"name":"","type":"address","internalType":"address"}],"outputs":[{"name":"","type":"address","internalType":"address"}],"stateMutability":"view"},{"type":"function","name":"delegationApprover","inputs":[{"name":"operator","type":"address","internalType":"address"}],"outputs":[{"name":"","type":"address","internalType":"address"}],"stateMutability":"view"},{"type":"function","name":"delegationApproverSaltIsSpent","inputs":[{"name":"","type":"address","internalType":"address"},{"name":"","type":"bytes32","internalType":"bytes32"}],"outputs":[{"name":"","type":"bool","internalType":"bool"}],"stateMutability":"view"},{"type":"function","name":"domainSeparator","inputs":[],"outputs":[{"name":"","type":"bytes32","internalType":"bytes32"}],"stateMutability":"view"},{"type":"function","name":"eigenPodManager","inputs":[],"outputs":[{"name":"","type":"address","internalType":"contract IEigenPodManager"}],"stateMutability":"view"},{"type":"function","name":"getDelegatableShares","inputs":[{"name":"staker","type":"address","internalType":"address"}],"outputs":[{"name":"","type":"address[]","internalType":"contract IStrategy[]"},{"name":"","type":"uint256[]","internalType":"uint256[]"}],"stateMutability":"view"},{"type":"function","name":"getOperatorShares","inputs":[{"name":"operator","type":"address","internalType":"address"},{"name":"strategies","type":"address[]","internalType":"contract IStrategy[]"}],"outputs":[{"name":"","type":"uint256[]","internalType":"uint256[]"}],"stateMutability":"view"},{"type":"function","name":"getWithdrawalDelay","inputs":[{"name":"strategies","type":"address[]","internalType":"contract IStrategy[]"}],"outputs":[{"name":"","type":"uint256","internalType":"uint256"}],"stateMutability":"view"},{"type":"function","name":"increaseDelegatedShares","inputs":[{"name":"staker","type":"address","internalType":"address"},{"name":"strategy","type":"address","internalType":"contract IStrategy"},{"name":"shares","type":"uint256","internalType":"uint256"}],"outputs":[],"stateMutability":"nonpayable"},{"type":"function","name":"initialize","inputs":[{"name":"initialOwner","type":"address","internalType":"address"},{"name":"_pauserRegistry","type":"address","internalType":"contract IPauserRegistry"},{"name":"initialPausedStatus","type":"uint256","internalType":"uint256"},{"name":"_minWithdrawalDelayBlocks","type":"uint256","internalType":"uint256"},{"name":"_strategies","type":"address[]","internalType":"contract IStrategy[]"},{"name":"_withdrawalDelayBlocks","type":"uint256[]","internalType":"uint256[]"}],"outputs":[],"stateMutability":"nonpayable"},{"type":"function","name":"isDelegated","inputs":[{"name":"staker","type":"address","internalType":"address"}],"outputs":[{"name":"","type":"bool","internalType":"bool"}],"stateMutability":"view"},{"type":"function","name":"isOperator","inputs":[{"name":"operator","type":"address","internalType":"address"}],"outputs":[{"name":"","type":"bool","internalType":"bool"}],"stateMutability":"view"},{"type":"function","name":"minWithdrawalDelayBlocks","inputs":[],"outputs":[{"name":"","type":"uint256","internalType":"uint256"}],"stateMutability":"view"},{"type":"function","name":"modifyOperatorDetails","inputs":[{"name":"newOperatorDetails","type":"tuple","internalType":"struct IDelegationManager.OperatorDetails","components":[{"name":"__deprecated_earningsReceiver","type":"address","internalType":"address"},{"name":"delegationApprover","type":"address","internalType":"address"},{"name":"stakerOptOutWindowBlocks","type":"uint32","internalType":"uint32"}]}],"outputs":[],"stateMutability":"nonpayable"},{"type":"function","name":"operatorDetails","inputs":[{"name":"operator","type":"address","internalType":"address"}],"outputs":[{"name":"","type":"tuple","internalType":"struct IDelegationManager.OperatorDetails","components":[{"name":"__deprecated_earningsReceiver","type":"address","internalType":"address"},{"name":"delegationApprover","type":"address","internalType":"address"},{"name":"stakerOptOutWindowBlocks","type":"uint32","internalType":"uint32"}]}],"stateMutability":"view"},{"type":"function","name":"operatorShares","inputs":[{"name":"","type":"address","internalType":"address"},{"name":"","type":"address","internalType":"contract IStrategy"}],"outputs":[{"name":"","type":"uint256","internalType":"uint256"}],"stateMutability":"view"},{"type":"function","name":"owner","inputs":[],"outputs":[{"name":"","type":"address","internalType":"address"}],"stateMutability":"view"},{"type":"function","name":"pause","inputs":[{"name":"newPausedStatus","type":"uint256","internalType":"uint256"}],"outputs":[],"stateMutability":"nonpayable"},{"type":"function","name":"pauseAll","inputs":[],"outputs":[],"stateMutability":"nonpayable"},{"type":"function","name":"paused","inputs":[{"name":"index","type":"uint8","internalType":"uint8"}],"outputs":[{"name":"","type":"bool","internalType":"bool"}],"stateMutability":"view"},{"type":"function","name":"paused","inputs":[],"outputs":[{"name":"","type":"uint256","internalType":"uint256"}],"stateMutability":"view"},{"type":"function","name":"pauserRegistry","inputs":[],"outputs":[{"name":"","type":"address","internalType":"contract IPauserRegistry"}],"stateMutability":"view"},{"type":"function","name":"pendingWithdrawals","inputs":[{"name":"","type":"bytes32","internalType":"bytes32"}],"outputs":[{"name":"","type":"bool","internalType":"bool"}],"stateMutability":"view"},{"type":"function","name":"queueWithdrawals","inputs":[{"name":"queuedWithdrawalParams","type":"tuple[]","internalType":"struct IDelegationManager.QueuedWithdrawalParams[]","components":[{"name":"strategies","type":"address[]","internalType":"contract IStrategy[]"},{"name":"shares","type":"uint256[]","internalType":"uint256[]"},{"name":"withdrawer","type":"address","internalType":"address"}]}],"outputs":[{"name":"","type":"bytes32[]","internalType":"bytes32[]"}],"stateMutability":"nonpayable"},{"type":"function","name":"registerAsOperator","inputs":[{"name":"registeringOperatorDetails","type":"tuple","internalType":"struct IDelegationManager.OperatorDetails","components":[{"name":"__deprecated_earningsReceiver","type":"address","internalType":"address"},{"name":"delegationApprover","type":"address","internalType":"address"},{"name":"stakerOptOutWindowBlocks","type":"uint32","internalType":"uint32"}]},{"name":"metadataURI","type":"string","internalType":"string"}],"outputs":[],"stateMutability":"nonpayable"},{"type":"function","name":"renounceOwnership","inputs":[],"outputs":[],"stateMutability":"nonpayable"},{"type":"function","name":"setMinWithdrawalDelayBlocks","inputs":[{"name":"newMinWithdrawalDelayBlocks","type":"uint256","internalType":"uint256"}],"outputs":[],"stateMutability":"nonpayable"},{"type":"function","name":"setPauserRegistry","inputs":[{"name":"newPauserRegistry","type":"address","internalType":"contract IPauserRegistry"}],"outputs":[],"stateMutability":"nonpayable"},{"type":"function","name":"setStrategyWithdrawalDelayBlocks","inputs":[{"name":"strategies","type":"address[]","internalType":"contract IStrategy[]"},{"name":"withdrawalDelayBlocks","type":"uint256[]","internalType":"uint256[]"}],"outputs":[],"stateMutability":"nonpayable"},{"type":"function","name":"slasher","inputs":[],"outputs":[{"name":"","type":"address","internalType":"contract ISlasher"}],"stateMutability":"view"},{"type":"function","name":"stakerNonce","inputs":[{"name":"","type":"address","internalType":"address"}],"outputs":[{"name":"","type":"uint256","internalType":"uint256"}],"stateMutability":"view"},{"type":"function","name":"stakerOptOutWindowBlocks","inputs":[{"name":"operator","type":"address","internalType":"address"}],"outputs":[{"name":"","type":"uint256","internalType":"uint256"}],"stateMutability":"view"},{"type":"function","name":"strategyManager","inputs":[],"outputs":[{"name":"","type":"address","internalType":"contract IStrategyManager"}],"stateMutability":"view"},{"type":"function","name":"strategyWithdrawalDelayBlocks","inputs":[{"name":"","type":"address","internalType":"contract IStrategy"}],"outputs":[{"name":"","type":"uint256","internalType":"uint256"}],"stateMutability":"view"},{"type":"function","name":"transferOwnership","inputs":[{"name":"newOwner","type":"address","internalType":"address"}],"outputs":[],"stateMutability":"nonpayable"},{"type":"function","name":"undelegate","inputs":[{"name":"staker","type":"address","internalType":"address"}],"outputs":[{"name":"withdrawalRoots","type":"bytes32[]","internalType":"bytes32[]"}],"stateMutability":"nonpayable"},{"type":"function","name":"unpause","inputs":[{"name":"newPausedStatus","type":"uint256","internalType":"uint256"}],"outputs":[],"stateMutability":"nonpayable"},{"type":"function","name":"updateOperatorMetadataURI","inputs":[{"name":"metadataURI","type":"string","internalType":"string"}],"outputs":[],"stateMutability":"nonpayable"},{"type":"event","name":"Initialized","inputs":[{"name":"version","type":"uint8","indexed":false,"internalType":"uint8"}],"anonymous":false},{"type":"event","name":"MinWithdrawalDelayBlocksSet","inputs":[{"name":"previousValue","type":"uint256","indexed":false,"internalType":"uint256"},{"name":"newValue","type":"uint256","indexed":false,"internalType":"uint256"}],"anonymous":false},{"type":"event","name":"OperatorDetailsModified","inputs":[{"name":"operator","type":"address","indexed":true,"internalType":"address"},{"name":"newOperatorDetails","type":"tuple","indexed":false,"internalType":"struct IDelegationManager.OperatorDetails","components":[{"name":"__deprecated_earningsReceiver","type":"address","internalType":"address"},{"name":"delegationApprover","type":"address","internalType":"address"},{"name":"stakerOptOutWindowBlocks","type":"uint32","internalType":"uint32"}]}],"anonymous":false},{"type":"event","name":"OperatorMetadataURIUpdated","inputs":[{"name":"operator","type":"address","indexed":true,"internalType":"address"},{"name":"metadataURI","type":"string","indexed":false,"internalType":"string"}],"anonymous":false},{"type":"event","name":"OperatorRegistered","inputs":[{"name":"operator","type":"address","indexed":true,"internalType":"address"},{"name":"operatorDetails","type":"tuple","indexed":false,"internalType":"struct IDelegationManager.OperatorDetails","components":[{"name":"__deprecated_earningsReceiver","type":"address","internalType":"address"},{"name":"delegationApprover","type":"address","internalType":"address"},{"name":"stakerOptOutWindowBlocks","type":"uint32","internalType":"uint32"}]}],"anonymous":false},{"type":"event","name":"OperatorSharesDecreased","inputs":[{"name":"operator","type":"address","indexed":true,"internalType":"address"},{"name":"staker","type":"address","indexed":false,"internalType":"address"},{"name":"strategy","type":"address","indexed":false,"internalType":"contract IStrategy"},{"name":"shares","type":"uint256","indexed":false,"internalType":"uint256"}],"anonymous":false},{"type":"event","name":"OperatorSharesIncreased","inputs":[{"name":"operator","type":"address","indexed":true,"internalType":"address"},{"name":"staker","type":"address","indexed":false,"internalType":"address"},{"name":"strategy","type":"address","indexed":false,"internalType":"contract IStrategy"},{"name":"shares","type":"uint256","indexed":false,"internalType":"uint256"}],"anonymous":false},{"type":"event","name":"OwnershipTransferred","inputs":[{"name":"previousOwner","type":"address","indexed":true,"internalType":"address"},{"name":"newOwner","type":"address","indexed":true,"internalType":"address"}],"anonymous":false},{"type":"event","name":"Paused","inputs":[{"name":"account","type":"address","indexed":true,"internalType":"address"},{"name":"newPausedStatus","type":"uint256","indexed":false,"internalType":"uint256"}],"anonymous":false},{"type":"event","name":"PauserRegistrySet","inputs":[{"name":"pauserRegistry","type":"address","indexed":false,"internalType":"contract IPauserRegistry"},{"name":"newPauserRegistry","type":"address","indexed":false,"internalType":"contract IPauserRegistry"}],"anonymous":false},{"type":"event","name":"StakerDelegated","inputs":[{"name":"staker","type":"address","indexed":true,"internalType":"address"},{"name":"operator","type":"address","indexed":true,"internalType":"address"}],"anonymous":false},{"type":"event","name":"StakerForceUndelegated","inputs":[{"name":"staker","type":"address","indexed":true,"internalType":"address"},{"name":"operator","type":"address","indexed":true,"internalType":"address"}],"anonymous":false},{"type":"event","name":"StakerUndelegated","inputs":[{"name":"staker","type":"address","indexed":true,"internalType":"address"},{"name":"operator","type":"address","indexed":true,"internalType":"address"}],"anonymous":false},{"type":"event","name":"StrategyWithdrawalDelayBlocksSet","inputs":[{"name":"strategy","type":"address","indexed":false,"internalType":"contract IStrategy"},{"name":"previousValue","type":"uint256","indexed":false,"internalType":"uint256"},{"name":"newValue","type":"uint256","indexed":false,"internalType":"uint256"}],"anonymous":false},{"type":"event","name":"Unpaused","inputs":[{"name":"account","type":"address","indexed":true,"internalType":"address"},{"name":"newPausedStatus","type":"uint256","indexed":false,"internalType":"uint256"}],"anonymous":false},{"type":"event","name":"WithdrawalCompleted","inputs":[{"name":"withdrawalRoot","type":"bytes32","indexed":false,"internalType":"bytes32"}],"anonymous":false},{"type":"event","name":"WithdrawalQueued","inputs":[{"name":"withdrawalRoot","type":"bytes32","indexed":false,"internalType":"bytes32"},{"name":"withdrawal","type":"tuple","indexed":false,"internalType":"struct IDelegationManager.Withdrawal","components":[{"name":"staker","type":"address","internalType":"address"},{"name":"delegatedTo","type":"address","internalType":"address"},{"name":"withdrawer","type":"address","internalType":"address"},{"name":"nonce","type":"uint256","internalType":"uint256"},{"name":"startBlock","type":"uint32","internalType":"uint32"},{"name":"strategies","type":"address[]","internalType":"contract IStrategy[]"},{"name":"shares","type":"uint256[]","internalType":"uint256[]"}]}],"anonymous":false}],"bytecode":{"object":"0x610100346101e357601f61588c38819003918201601f19168301916001600160401b038311848410176101e8578084926060946040528339810103126101e35780516001600160a01b03811681036101e3576020820151916001600160a01b03831683036101e35760400151906001600160a01b03821682036101e35760805260c05260a05260005460ff8160081c1661018e5760ff80821610610153575b4660e05260405161568d90816101ff82396080518181816118e101528181611b52015281816120d80152818161249401528181612786015281816127f80152818161299601528181612f0a015281816140a2015281816144d9015261466d015260a05181610ecf015260c05181818161184c01528181611a7e01528181611fd5015281816123e90152818161267501528181612a1901528181612f8d015281816140530152614421015260e051816143870152f35b60ff90811916176000557f7f26b83ff96e1f2b6a682f133852f6798a09c465da95921460cefb3847402498602060405160ff8152a13861009e565b60405162461bcd60e51b815260206004820152602760248201527f496e697469616c697a61626c653a20636f6e747261637420697320696e697469604482015266616c697a696e6760c81b6064820152608490fd5b600080fd5b634e487b7160e01b600052604160045260246000fdfe610120604052600436101561001357600080fd5b60003560e01c80630449ca391461365857806304a4f9791461361d5780630b9f487a146135e15780630dd8dd02146133ce5780630f589e591461304557806310d67a2f14612fbb578063132d496714612ef8578063136439dd14612dde5780631522bf0214612d805780631692836514612d3a5780631bbce09114612cf357806320606b7014612cb857806322bf40e414612a4757806328a573ae1461298457806329c77d4f1461294a578063334043961461210757806339b70e38146120c25780633cdeb5e01461207d5780633e28391d1461203f57806343377382146120045780634665bcda14611fbf5780634fc40b6114611fa1578063595c6a6714611ee7578063597b36da14611eb25780635ac86ab714611e7f5780635c975abb14611e6157806360d7faed14611656578063635bbd101461163257806365da1264146115f05780636d70f7ae146115c3578063715018a614611566578063778e55f3146115155780637f54807114611163578063886f11951461113a5780638da5cb5b1461111157806390041347146110585780639104c3191461102957806399be81c814610f38578063a178848414610efe578063b134427114610eb9578063b7f06ebe14610e88578063bb45fef214610e3b578063c448feb814610e1d578063c488375a14610de3578063c5e480db14610d3d578063c94b511114610d0a578063ca661c0414610cec578063cf80873e14610c74578063da8be8641461089a578063eea9064b14610505578063f16172b014610466578063f2fde38b146103d7578063f698da25146103b45763fabc1cbc1461026f57600080fd5b346103af5760203660031901126103af5760655460405163755b36bd60e11b81526004803592602091839182906001600160a01b03165afa80156103a3576102ca91600091610374575b506001600160a01b03163314613cef565b60665419811981160361030957806066556040519081527f3582d1828e26bf56bd801502bc021ac0bc8afb57c826e4986b45593c8fad389c60203392a2005b60405162461bcd60e51b815260206004820152603860248201527f5061757361626c652e756e70617573653a20696e76616c696420617474656d7060448201527f7420746f2070617573652066756e6374696f6e616c69747900000000000000006064820152608490fd5b610396915060203d60201161039c575b61038e818361386e565b810190613cd0565b386102b9565b503d610384565b6040513d6000823e3d90fd5b600080fd5b346103af5760003660031901126103af5760206103cf614384565b604051908152f35b346103af5760203660031901126103af576103f0613710565b6103f8614c9b565b6001600160a01b038116156104125761041090614f36565b005b60405162461bcd60e51b815260206004820152602660248201527f4f776e61626c653a206e6577206f776e657220697320746865207a65726f206160448201526564647265737360d01b6064820152608490fd5b346103af5760603660031901126103af5761048033613f6e565b1561048e57610410336148de565b60405162461bcd60e51b815260206004820152604360248201527f44656c65676174696f6e4d616e616765722e6d6f646966794f70657261746f7260448201527f44657461696c733a2063616c6c6572206d75737420626520616e206f706572616064820152623a37b960e91b608482015260a490fd5b346103af5760603660031901126103af5761051e613710565b6024356001600160401b0381116103af5761053d903690600401613a33565b336000908152609a6020526040902054604435906001600160a01b03166108245761056783613f6e565b156107aa5761057d600180606654161415613bb2565b6001600160a01b038381166000818152609960205260409020600101549093911690811515806107a0575b80610796575b61064b575b50505033600052609a6020526040600020816bffffffffffffffffffffffff60a01b825416179055337fc3ee9f2e5fda98e8066a1f745b2df9285f416fe98cf2559cd21484b3d8743304600080a361060a33614026565b919060005b8151811015610410576001906106456001600160a01b036106308386613c94565b511661063c8388613c94565b5190338761506b565b0161060f565b602081018051421161072b5782600052609c60205260406000208460005260205260ff604060002054166106c0576106b8936106b09184600052609c6020526040600020826000526020526040600020600160ff198254161790555190848833613b2d565b905191615191565b8280806105b3565b60405162461bcd60e51b815260206004820152603760248201527f44656c65676174696f6e4d616e616765722e5f64656c65676174653a2061707060448201527f726f76657253616c7420616c7265616479207370656e740000000000000000006064820152608490fd5b60405162461bcd60e51b815260206004820152603760248201527f44656c65676174696f6e4d616e616765722e5f64656c65676174653a2061707060448201527f726f766572207369676e617475726520657870697265640000000000000000006064820152608490fd5b50833314156105ae565b50813314156105a8565b60405162461bcd60e51b815260206004820152604660248201527f44656c65676174696f6e4d616e616765722e64656c6567617465546f3a206f7060448201527f657261746f72206973206e6f74207265676973746572656420696e2045696765606482015265372630bcb2b960d11b608482015260a490fd5b60405162461bcd60e51b815260206004820152604260248201527f44656c65676174696f6e4d616e616765722e64656c6567617465546f3a20737460448201527f616b657220697320616c7265616479206163746976656c792064656c65676174606482015261195960f21b608482015260a490fd5b346103af5760203660031901126103af576108b3613710565b6108c4600280606654161415613bb2565b6001600160a01b038082166000908152609a602052604081205490911615610bfd576108ef82613f6e565b610b92576001600160a01b0382168015610b2757808252609a60205260408220546001600160a01b0316913382148015919082610b1e575b8015610afd575b15610a925760409061093f86614026565b949093610a67575b85817ffee30966a256b71e14bc0ebfc94315e28ef4a97a7131a9e2b7a310a73af446768480a38152609a6020522080546001600160a01b03191690558051806109ba5750505050506109b66040516109a060208261386e565b6000815260003681375b60405191829182613766565b0390f35b6109c690939193613bfe565b936040926020929060005b8651811015610a5757600190610a4687516109ec898261386e565b83815287366020830137885190610a038a8361386e565b84825288366020840137848060a01b03610a1d858d613c94565b5116610a2882613c87565b52610a338487613c94565b51610a3d83613c87565b528787816143b9565b610a50828b613c94565b52016109d1565b505050505050506109b6906109aa565b85817ff0eddf07e6ea14f388b47e1e94a0f464ecbd9eed4171130e0fc0e99fb4030a8a8480a3610947565b60405162461bcd60e51b815260206004820152603d60248201527f44656c65676174696f6e4d616e616765722e756e64656c65676174653a20636160448201527f6c6c65722063616e6e6f7420756e64656c6567617465207374616b65720000006064820152608490fd5b50838152609960205260408120600101546001600160a01b0316331461092e565b50833314610927565b60405162461bcd60e51b815260206004820152603c60248201527f44656c65676174696f6e4d616e616765722e756e64656c65676174653a20636160448201527f6e6e6f7420756e64656c6567617465207a65726f2061646472657373000000006064820152608490fd5b60405162461bcd60e51b815260206004820152603d60248201527f44656c65676174696f6e4d616e616765722e756e64656c65676174653a206f7060448201527f657261746f72732063616e6e6f7420626520756e64656c6567617465640000006064820152608490fd5b60a460405162461bcd60e51b815260206004820152604460248201527f44656c65676174696f6e4d616e616765722e756e64656c65676174653a20737460448201527f616b6572206d7573742062652064656c65676174656420746f20756e64656c656064820152636761746560e01b6084820152fd5b346103af5760203660031901126103af57610c95610c90613710565b614026565b604051906040820160408352835180915260206060840194019060005b818110610ccd5784806109b688878382036020850152613abf565b82516001600160a01b0316865260209586019590920191600101610cb2565b346103af5760003660031901126103af57602060405162034bc08152f35b346103af5760803660031901126103af5760206103cf610d28613710565b610d3061373c565b6064359160243590613fa2565b346103af5760203660031901126103af57610d56613710565b600060408051610d6581613838565b828152826020820152015260018060a01b031660005260996020526060604060002063ffffffff604051610d9881613838565b6001808060a01b0384541693848352015490826040602083019260018060a01b0385168452019260a01c16825260405193845260018060a01b03905116602084015251166040820152f35b346103af5760203660031901126103af576001600160a01b03610e04613710565b1660005260a16020526020604060002054604051908152f35b346103af5760003660031901126103af576020609d54604051908152f35b346103af5760403660031901126103af576001600160a01b03610e5c613710565b16600052609c6020526040600020602435600052602052602060ff604060002054166040519015158152f35b346103af5760203660031901126103af57600435600052609e602052602060ff604060002054166040519015158152f35b346103af5760003660031901126103af576040517f00000000000000000000000000000000000000000000000000000000000000006001600160a01b03168152602090f35b346103af5760203660031901126103af576001600160a01b03610f1f613710565b16600052609f6020526020604060002054604051908152f35b346103af5760203660031901126103af576004356001600160401b0381116103af57610f689036906004016137a0565b610f7133613f6e565b15610fae57610fa97f02a919ed0e2acad1dd90f17ef2fa4ae5462ee1339170034a8531cca4b670809091604051918291339583613ca8565b0390a2005b60405162461bcd60e51b815260206004820152604760248201527f44656c65676174696f6e4d616e616765722e7570646174654f70657261746f7260448201527f4d657461646174615552493a2063616c6c6572206d75737420626520616e206f6064820152663832b930ba37b960c91b608482015260a490fd5b346103af5760003660031901126103af57602060405173beac0eeeeeeeeeeeeeeeeeeeeeeeeeeeeeebeac08152f35b346103af5760403660031901126103af57611071613710565b6024356001600160401b0381116103af5761109090369060040161390b565b9061109b8251613bfe565b916001600160a01b039091169060005b81518110156110fb57600190836000526098602052604080600020838060a01b036110d68487613c94565b511690600091858060a01b0316825260205220546110f48287613c94565b52016110ab565b604051602080825281906109b690820187613abf565b346103af5760003660031901126103af576033546040516001600160a01b039091168152602090f35b346103af5760003660031901126103af576065546040516001600160a01b039091168152602090f35b346103af5760a03660031901126103af5761117c613710565b611184613726565b6044356001600160401b0381116103af576111a3903690600401613a33565b6064356001600160401b0381116103af576111c2903690600401613a33565b9060843560208201805142116114a0576001600160a01b038087166000908152609a60205260409020541661141f576111fa85613f6e565b1561139a576112449060018060a01b0387169384600052609b602052600161122b604060002054935189858c613fa2565b9286600052609b60205201604060002055519087615191565b611255600180606654161415613bb2565b6001600160a01b03848116600081815260996020526040902060010154909491169081151580611390575b80611386575b611319575b5050506000818152609a6020526040812080546001600160a01b031916841790557fc3ee9f2e5fda98e8066a1f745b2df9285f416fe98cf2559cd21484b3d87433049080a36112d982614026565b9160005b8251811015610410576001906113136001600160a01b036112fe8387613c94565b511661130a8388613c94565b5190888661506b565b016112dd565b602081014281511061072b5782600052609c60205260406000208460005260205260ff604060002054166106c05761137e936106b09184600052609c6020526040600020826000526020526040600020600160ff19825416179055519084898b613b2d565b84808061128b565b5084331415611286565b5081331415611280565b60405162461bcd60e51b815260206004820152605160248201527f44656c65676174696f6e4d616e616765722e64656c6567617465546f4279536960448201527f676e61747572653a206f70657261746f72206973206e6f7420726567697374656064820152703932b21034b71022b4b3b2b72630bcb2b960791b608482015260a490fd5b60405162461bcd60e51b815260206004820152604d60248201527f44656c65676174696f6e4d616e616765722e64656c6567617465546f4279536960448201527f676e61747572653a207374616b657220697320616c726561647920616374697660648201526c195b1e4819195b1959d85d1959609a1b608482015260a490fd5b60405162461bcd60e51b815260206004820152604160248201527f44656c65676174696f6e4d616e616765722e64656c6567617465546f4279536960448201527f676e61747572653a207374616b6572207369676e6174757265206578706972656064820152601960fa1b608482015260a490fd5b346103af5760403660031901126103af5761152e613710565b611536613726565b6001600160a01b039182166000908152609860209081526040808320949093168252928352819020549051908152f35b346103af5760003660031901126103af5761157f614c9b565b603380546001600160a01b031981169091556000906001600160a01b03167f8be0079c531659141344cd1fd0a4f28419497f9722a3daafe3b4186f6b6457e08280a3005b346103af5760203660031901126103af5760206115e66115e1613710565b613f6e565b6040519015158152f35b346103af5760203660031901126103af576001600160a01b03611611613710565b16600052609a602052602060018060a01b0360406000205416604051908152f35b346103af5760203660031901126103af5761164b614c9b565b610410600435614f7f565b346103af5760803660031901126103af576004356001600160401b0381116103af57806004019060e060031982360301126103af576024356001600160401b0381116103af576116aa9036906004016136e0565b9190926064359283151584036103af576116cb600480606654161415613bb2565b6116da600260c9541415613e35565b600260c9556116f16116ec3684613975565b613f51565b80600052609e60205260ff6040600020541615611dfc576084840194611728611719876148cd565b63ffffffff609d549116614003565b4310611d7d576001600160a01b0361174260448701613b19565b163303611d0b5780611c92575b6000828152609e60205260409020805460ff19169055156119a9579360a484019360c4019060005b6117818686613c52565b905081101561196e5787906117e4611798846148cd565b826117bd6117b86117a98c8c613c52565b6001600160a01b039491613af3565b613b19565b1660005260a16020526117dd439163ffffffff6040600020549116614003565b11156150f4565b86866118236117b8848961181c826118108c6118166117b8846118106118098d613b19565b9d8d613c52565b90613af3565b98613c52565b3597613af3565b906001600160a01b031673beac0eeeeeeeeeeeeeeeeeeeeeeeeeeeeeebeac081036118da5750507f00000000000000000000000000000000000000000000000000000000000000006001600160a01b031692833b156103af5760405162387b1360e81b81526001600160a01b0390921660048301523360248301526044820152916000908390606490829084905af19182156103a3576001926118c9575b505b01611777565b60006118d49161386e565b896118c1565b90939091507f00000000000000000000000000000000000000000000000000000000000000006001600160a01b0316803b156103af5760009283608492604051978895869463c608c7f360e01b86523360048701526024860152604485015260018060a01b031660648401525af19182156103a35760019261195d575b506118c3565b60006119689161386e565b89611957565b5050505050507fc97098c2f658800b4df29001527f7324bcdffcf6e8751a699ab920a1eced5b1d91506020905b604051908152a1600160c955005b9392919033600052609a60205260018060a01b03604060002054169060009460a48501955b6119d88786613c52565b9050811015611c60576119fe6119ed836148cd565b826117bd6117b86117a98c8b613c52565b73beac0eeeeeeeeeeeeeeeeeeeeeeeeeeeeeebeac081611a246117b86117a98b8a613c52565b1603611b5057611a78611a3686613b19565b6020611a498461181060c48c018b613c52565b6040516303a041cf60e21b81526001600160a01b03841660048201529035602482015292839081906044820190565b038160007f00000000000000000000000000000000000000000000000000000000000000006001600160a01b03165af19182156103a357600092611b19575b506001600160a01b038082166000908152609a602052604090205460019493849390929190911690898c83611af4575b5050505050505b016119ce565b611b0e956118106117b892611b0894613c52565b9161506b565b808b8080898c611ae7565b90916020823d8211611b48575b81611b336020938361386e565b81010312611b45575051906001611ab7565b80fd5b3d9150611b26565b7f00000000000000000000000000000000000000000000000000000000000000006001600160a01b031690611b896117b882868d613af3565b611b9a6117b8836118108c8b613c52565b9060c4890191611bae84611810858c613c52565b3594803b156103af5760405163c4623ea160e01b81523360048201526001600160a01b03938416602482015291909216604482015260648101949094526000908490608490829084905af19081156103a3576001938892611c4f575b50898388611c1c575b50505050611aee565b611810611c366117b883611810611c3d96611c4699613c52565b938b613c52565b3590338861506b565b858b8983611c13565b6000611c5a9161386e565b8c611c0a565b505050505050507fc97098c2f658800b4df29001527f7324bcdffcf6e8751a699ab920a1eced5b1d915060209061199b565b611c9f60a4860185613c52565b8414905061174f5760405162461bcd60e51b8152602060048201526042602482015260008051602061563883398151915260448201527f645769746864726177616c3a20696e707574206c656e677468206d69736d61746064820152610c6d60f31b608482015260a490fd5b60405162461bcd60e51b8152602060048201526050602482015260008051602061563883398151915260448201527f645769746864726177616c3a206f6e6c7920776974686472617765722063616e60648201526f1031b7b6b83632ba329030b1ba34b7b760811b608482015260a490fd5b60405162461bcd60e51b815260206004820152605f602482015260008051602061563883398151915260448201527f645769746864726177616c3a206d696e5769746864726177616c44656c61794260648201527f6c6f636b7320706572696f6420686173206e6f74207965742070617373656400608482015260a490fd5b60405162461bcd60e51b8152602060048201526043602482015260008051602061563883398151915260448201527f645769746864726177616c3a20616374696f6e206973206e6f7420696e20717560648201526265756560e81b608482015260a490fd5b346103af5760003660031901126103af576020606654604051908152f35b346103af5760203660031901126103af5760043560ff81168091036103af5760016020911b806066541614604051908152f35b346103af5760203660031901126103af576004356001600160401b0381116103af576103cf6116ec6020923690600401613975565b346103af5760003660031901126103af5760655460405163237dfb4760e11b815233600482015290602090829060249082906001600160a01b03165afa80156103a357611f3c91600091611f72575b50613dd8565b60001960665560405160001981527fab40a374bc51de372200a8bc981af8c9ecdc08dfdaef0bb6e09f88f3c616ef3d60203392a2005b611f94915060203d602011611f9a575b611f8c818361386e565b810190613dc0565b82611f36565b503d611f82565b346103af5760003660031901126103af5760206040516213c6808152f35b346103af5760003660031901126103af576040517f00000000000000000000000000000000000000000000000000000000000000006001600160a01b03168152602090f35b346103af5760003660031901126103af5760206040517f39111bc4a4d688e1f685123d7497d4615370152a8ee4a0593e647bd06ad8bb0b8152f35b346103af5760203660031901126103af5760206115e661205d613710565b6001600160a01b039081166000908152609a602052604090205416151590565b346103af5760203660031901126103af576001600160a01b0361209e613710565b166000526099602052602060018060a01b0360016040600020015416604051908152f35b346103af5760003660031901126103af576040517f00000000000000000000000000000000000000000000000000000000000000006001600160a01b03168152602090f35b346103af5760803660031901126103af576004356001600160401b0381116103af576121379036906004016136e0565b9060c0526024356001600160401b0381116103af5761215a9036906004016136e0565b91906044356001600160401b0381116103af5761217b9036906004016136e0565b9390916064356001600160401b0381116103af5792856121a186939536906004016136e0565b9390926121b5600480606654161415613bb2565b6121c4600260c9541415613e35565b600260c9556000955b828710156101005261010051612943576000610100528660051b8060c051013560a05260de1960c05136030160a051121561248857818810156129295761221690890189613c52565b989096612224898786613af3565b50612230898289613af3565b3580151581036124885761224d6116ec3660a05160c05101613975565b60e05260e0516101005152609e60205260ff60406101005120541615611dfc5761227f608060a05160c05101016148cd565b612293439163ffffffff609d549116614003565b11611d7d5760a05160c0516001600160a01b03916122b49101604001613b19565b163303611d0b57806128a5575b60e0516101005152609e6020526040610100512060ff19815416905560001461257357610100515b61230160a0805160c051010160a05160c05101613c52565b905081101561252a5761236261231f608060a05160c05101016148cd565b8261233e6117b86117a960a0805160c051010160a05160c05101613c52565b16610100515260a16020526117dd439163ffffffff60406101005120549116614003565b61237160a05160c05101613b19565b90898c6123be6117b88461239a6117b88261181060a0805160c051010160a05160c05101613c52565b936123b78261181060c060a0518151010160a05160c05101613c52565b3595613af3565b6001600160a01b039091169073beac0eeeeeeeeeeeeeeeeeeeeeeeeeeeeeebeac0820361248f5750507f00000000000000000000000000000000000000000000000000000000000000006001600160a01b031690813b156124885760405162387b1360e81b81526001600160a01b039094166004850152336024850152604484015261010051908390606490829084905af191821561247a57600192612467575b505b016122e9565b610100516124749161386e565b8c61245f565b6040513d61010051823e3d90fd5b6101005180fd5b9093507f00000000000000000000000000000000000000000000000000000000000000006001600160a01b031691823b156124885760405163c608c7f360e01b8152336004820152602481019590955260448501526001600160a01b0316606484015261010051908390608490829084905af191821561247a57600192612517575b50612461565b610100516125249161386e565b8c612511565b50939790949850600191959296505b7fc97098c2f658800b4df29001527f7324bcdffcf6e8751a699ab920a1eced5b1d602060405160e0518152a10195919490939692966121cd565b6101008051339052609a6020525160408120546001600160a01b03166080529899985b6125ae60a0805160c051010160a05160c05101613c52565b9050811015612893576125cc61231f608060a05160c05101016148cd565b73beac0eeeeeeeeeeeeeeeeeeeeeeeeeeeeeebeac0816126006117b86117a960a0805160c051010160a05160c05101613c52565b1603612738576126669061261960a05160c05101613b19565b60206126378361181060c060a0518151010160a05160c05101613c52565b6040516303a041cf60e21b81526001600160a01b03841660048201529035602482015293849081906044820190565b03816101005160018060a01b037f0000000000000000000000000000000000000000000000000000000000000000165af1801561247a576101005190612706575b61010080516001600160a01b03848116909152609a602052905160409020546001955016806126db575b5050505b01612596565b6126fe92611b086117b88661181060a0805160c051010160a05160c05101613c52565b8c80806126d1565b506020833d8211612730575b8161271f6020938361386e565b8101031261248857600192516126a7565b3d9150612712565b6127466117b8828c8c613af3565b906127666117b88261181060a0805160c051010160a05160c05101613c52565b6127828261181060c060a0518151010160a05160c05101613c52565b35907f00000000000000000000000000000000000000000000000000000000000000006001600160a01b03163b156124885760405163c4623ea160e01b81523360048201526001600160a01b039485166024820152908416604482015260648101919091526101005190928390608490829084907f0000000000000000000000000000000000000000000000000000000000000000165af191821561247a57600192612880575b50608051156126d55761287b6128546117b88361181060a0805160c051010160a05160c05101613c52565b6128708361181060c060a0518151010160a05160c05101613c52565b35903360805161506b565b6126d5565b6101005161288d9161386e565b8c612829565b50939750939760019195929650612539565b6128bd60a0805160c051010160a05160c05101613c52565b8c1490506122c15760405162461bcd60e51b8152602060048201526042602482015260008051602061563883398151915260448201527f645769746864726177616c3a20696e707574206c656e677468206d69736d61746064820152610c6d60f31b608482015260a490fd5b634e487b7160e01b61010051526032600452602461010051fd5b600160c955005b346103af5760203660031901126103af576001600160a01b0361296b613710565b16600052609b6020526020604060002054604051908152f35b346103af57612992366137cd565b90337f00000000000000000000000000000000000000000000000000000000000000006001600160a01b0316148015612a15575b6129cf90613d4e565b6001600160a01b038084166000908152609a6020526040902054166129f057005b6001600160a01b038084166000908152609a602052604090205461041094911661506b565b50337f00000000000000000000000000000000000000000000000000000000000000006001600160a01b0316146129c6565b346103af5760c03660031901126103af57612a60613710565b612a68613726565b604435906084356001600160401b0381116103af57612a8b9036906004016136e0565b60a4929192356001600160401b0381116103af57612aad9036906004016136e0565b9390926000549660ff8860081c161597888099612cab575b8015612c94575b15612c385760ff19811660011760005588612c26575b506065546001600160a01b03161580612c14575b15612b9957612b3b612b4b9288612b5b996066556040519081527fab40a374bc51de372200a8bc981af8c9ecdc08dfdaef0bb6e09f88f3c616ef3d60203392a2614b39565b612b43614ec6565b609755614f36565b612b56606435614f7f565b614cf3565b612b6157005b61ff0019600054166000557f7f26b83ff96e1f2b6a682f133852f6798a09c465da95921460cefb3847402498602060405160018152a1005b60405162461bcd60e51b815260206004820152604760248201527f5061757361626c652e5f696e697469616c697a655061757365723a205f696e6960448201527f7469616c697a6550617573657228292063616e206f6e6c792062652063616c6c6064820152666564206f6e636560c81b608482015260a490fd5b506001600160a01b0382161515612af6565b61ffff19166101011760005588612ae2565b60405162461bcd60e51b815260206004820152602e60248201527f496e697469616c697a61626c653a20636f6e747261637420697320616c72656160448201526d191e481a5b9a5d1a585b1a5e995960921b6064820152608490fd5b50303b158015612acc5750600160ff821614612acc565b50600160ff821610612ac5565b346103af5760003660031901126103af5760206040517f8cad95687ba82c2ce50e74f7b754645e5117c3a5bec8151c0726d5857980a8668152f35b346103af5760603660031901126103af5760206103cf612d11613710565b612d19613726565b6001600160a01b0382166000908152609b8552604090205460443592613fa2565b346103af5760203660031901126103af576001600160a01b03612d5b613710565b166000526099602052602063ffffffff60016040600020015460a01c16604051908152f35b346103af5760403660031901126103af576004356001600160401b0381116103af57612db09036906004016136e0565b602435916001600160401b0383116103af57612dd36104109336906004016136e0565b929091612b56614c9b565b346103af5760203660031901126103af576004356024602060018060a01b03606554166040519283809263237dfb4760e11b82523360048301525afa80156103a357612e3191600091612ed95750613dd8565b60665481811603612e6e57806066556040519081527fab40a374bc51de372200a8bc981af8c9ecdc08dfdaef0bb6e09f88f3c616ef3d60203392a2005b60405162461bcd60e51b815260206004820152603860248201527f5061757361626c652e70617573653a20696e76616c696420617474656d70742060448201527f746f20756e70617573652066756e6374696f6e616c69747900000000000000006064820152608490fd5b612ef2915060203d602011611f9a57611f8c818361386e565b83611f36565b346103af57612f06366137cd565b90337f00000000000000000000000000000000000000000000000000000000000000006001600160a01b0316148015612f89575b612f4390613d4e565b6001600160a01b038084166000908152609a602052604090205416612f6457005b6001600160a01b038084166000908152609a6020526040902054610410949116614c13565b50337f00000000000000000000000000000000000000000000000000000000000000006001600160a01b031614612f3a565b346103af5760203660031901126103af576004612fd6613710565b60655460405163755b36bd60e11b81529260209184919082906001600160a01b03165afa9182156103a357610410926130219160009161302657506001600160a01b03163314613cef565b614b39565b61303f915060203d60201161039c5761038e818361386e565b846102b9565b346103af573660031901608081126103af576060136103af576064356001600160401b0381116103af5761307d9036906004016137a0565b336000908152609a60205260409020546001600160a01b0316613350576130a3336148de565b6040516130af81613807565b606081526020810190600082526130cd600180606654161415613bb2565b336000908152609960205260409020600101546001600160a01b03169081151580613346575b8061333e575b613238575b5050336000818152609a6020526040812080546001600160a01b0319168317905590915081907fc3ee9f2e5fda98e8066a1f745b2df9285f416fe98cf2559cd21484b3d87433049080a361315133614026565b9260005b82518110156131915760019061318b6001600160a01b036131768387613c94565b51166131828389613c94565b5190333361506b565b01613155565b50604051836004356001600160a01b038116908190036103af5782526024356001600160a01b038116908190036103af5760208301526044359063ffffffff82168092036103af5782610fa99260407f02a919ed0e2acad1dd90f17ef2fa4ae5462ee1339170034a8531cca4b67080909501527f8e8485583a2310d41f7c82b9427d0bd49bad74bb9cff9d3402a29d8f9b28a0e260603392a2604051918291339583613ca8565b8251421161072b5781600052609c60205260406000206000805260205260ff604060002054166106c0576133369282600052609c6020526040600020600080526020526040600020600160ff198254161790555160405160208101917f14bde674c9f64b2ad00eaaee4a8bed1fabef35c7507e3c5b9cfc9436909a2dad8352846040830152336060830152336080830152600060a083015260c082015260c081526132e460e08261386e565b51902061331d61332b6132f5614384565b92604051928391602083019586909160429261190160f01b8352600283015260228201520190565b03601f19810183528261386e565b519020905191615191565b8280806130fe565b5060006130f9565b50813314156130f3565b60405162461bcd60e51b815260206004820152604a60248201527f44656c65676174696f6e4d616e616765722e726567697374657241734f70657260448201527f61746f723a2063616c6c657220697320616c7265616479206163746976656c796064820152690819195b1959d85d195960b21b608482015260a490fd5b346103af5760203660031901126103af576004356001600160401b0381116103af576133fe9036906004016136e0565b90613410600280606654161415613bb2565b61341982613bfe565b9033600052609a60205260018060a01b036040600020541660005b84811061344957604051806109b68682613766565b61345d613457828786613c30565b80613c52565b905061347761346d838887613c30565b6020810190613c52565b9190500361357657336001600160a01b0361349e6040613498858a89613c30565b01613b19565b160361350b576001906134fa84876134f2846134ea6134e061346d6134d761345785886134d1604061349884848f613c30565b9a613c30565b9490968d613c30565b94909236916138b7565b923691613929565b9186336143b9565b6135048287613c94565b5201613434565b60405162461bcd60e51b815260206004820152603c60248201527f44656c65676174696f6e4d616e616765722e717565756557697468647261776160448201527f6c3a2077697468647261776572206d757374206265207374616b6572000000006064820152608490fd5b60405162461bcd60e51b815260206004820152603860248201527f44656c65676174696f6e4d616e616765722e717565756557697468647261776160448201527f6c3a20696e707574206c656e677468206d69736d6174636800000000000000006064820152608490fd5b346103af5760a03660031901126103af5760206103cf6135ff613710565b613607613726565b9061361061373c565b6084359260643592613b2d565b346103af5760003660031901126103af5760206040517f14bde674c9f64b2ad00eaaee4a8bed1fabef35c7507e3c5b9cfc9436909a2dad8152f35b346103af5760203660031901126103af576004356001600160401b0381116103af576136889036906004016136e0565b609d549160005b8281106136a157602084604051908152f35b6001600160a01b036136b76117b8838686613af3565b1660005260a16020526040600020548481116136d7575b5060010161368f565b935060016136ce565b9181601f840112156103af578235916001600160401b0383116103af576020808501948460051b0101116103af57565b600435906001600160a01b03821682036103af57565b602435906001600160a01b03821682036103af57565b604435906001600160a01b03821682036103af57565b35906001600160a01b03821682036103af57565b602060408183019282815284518094520192019060005b81811061378a5750505090565b825184526020938401939092019160010161377d565b9181601f840112156103af578235916001600160401b0383116103af57602083818601950101116103af57565b60609060031901126103af576004356001600160a01b03811681036103af57906024356001600160a01b03811681036103af579060443590565b604081019081106001600160401b0382111761382257604052565b634e487b7160e01b600052604160045260246000fd5b606081019081106001600160401b0382111761382257604052565b60e081019081106001600160401b0382111761382257604052565b90601f801991011681019081106001600160401b0382111761382257604052565b359063ffffffff821682036103af57565b6001600160401b0381116138225760051b60200190565b9291906138c3816138a0565b936138d1604051958661386e565b602085838152019160051b81019283116103af57905b8282106138f357505050565b6020809161390084613752565b8152019101906138e7565b9080601f830112156103af57816020613926933591016138b7565b90565b929190613935816138a0565b93613943604051958661386e565b602085838152019160051b81019283116103af57905b82821061396557505050565b8135815260209182019101613959565b919060e0838203126103af576040519061398e82613853565b819361399981613752565b83526139a760208201613752565b60208401526139b860408201613752565b6040840152606081013560608401526139d36080820161388f565b608084015260a08101356001600160401b0381116103af57826139f791830161390b565b60a084015260c0810135906001600160401b0382116103af570181601f820112156103af5760c091816020613a2e93359101613929565b910152565b91906040838203126103af5760405190613a4c82613807565b819380356001600160401b0381116103af5781019082601f830112156103af578135926001600160401b0384116138225760405190613a95601f8601601f19166020018361386e565b848252602085850101116103af576000602085819682809701838601378301015284520135910152565b906020808351928381520192019060005b818110613add5750505090565b8251845260209384019390920191600101613ad0565b9190811015613b035760051b0190565b634e487b7160e01b600052603260045260246000fd5b356001600160a01b03811681036103af5790565b604080517f14bde674c9f64b2ad00eaaee4a8bed1fabef35c7507e3c5b9cfc9436909a2dad602082019081526001600160a01b0395861692820192909252918416606083015292909116608082015260a081019290925260c080830193909352918152613b9b60e08261386e565b51902061331d613bac6132f5614384565b51902090565b15613bb957565b60405162461bcd60e51b815260206004820152601960248201527f5061757361626c653a20696e64657820697320706175736564000000000000006044820152606490fd5b90613c08826138a0565b613c15604051918261386e565b8281528092613c26601f19916138a0565b0190602036910137565b9190811015613b035760051b81013590605e19813603018212156103af570190565b903590601e19813603018212156103af57018035906001600160401b0382116103af57602001918160051b360383136103af57565b805115613b035760200190565b8051821015613b035760209160051b010190565b90918060409360208452816020850152848401376000828201840152601f01601f1916010190565b908160209103126103af57516001600160a01b03811681036103af5790565b15613cf657565b60405162461bcd60e51b815260206004820152602a60248201527f6d73672e73656e646572206973206e6f74207065726d697373696f6e6564206160448201526939903ab73830bab9b2b960b11b6064820152608490fd5b15613d5557565b60405162461bcd60e51b815260206004820152603760248201527f44656c65676174696f6e4d616e616765723a206f6e6c7953747261746567794d60448201527f616e616765724f72456967656e506f644d616e616765720000000000000000006064820152608490fd5b908160209103126103af575180151581036103af5790565b15613ddf57565b60405162461bcd60e51b815260206004820152602860248201527f6d73672e73656e646572206973206e6f74207065726d697373696f6e6564206160448201526739903830bab9b2b960c11b6064820152608490fd5b15613e3c57565b60405162461bcd60e51b815260206004820152601f60248201527f5265656e7472616e637947756172643a207265656e7472616e742063616c6c006044820152606490fd5b80516001600160a01b039081168352602080830151821681850152604080840151909216918401919091526060808301519084015260808083015163ffffffff169084015260a08083015160e0918501829052805191850182905261010085019392019060005b818110613f325750505060c001519160c08183039101526020808351928381520192019060005b818110613f1c5750505090565b8251845260209384019390920191600101613f0f565b82516001600160a01b0316855260209485019490920191600101613ee8565b604051613bac8161331d6020820194602086526040830190613e81565b6001600160a01b03168015159081613f84575090565b6000818152609a60205260409020546001600160a01b031614919050565b92906040519260208401947f39111bc4a4d688e1f685123d7497d4615370152a8ee4a0593e647bd06ad8bb0b865260018060a01b0316604085015260018060a01b03166060840152608083015260a082015260a08152613b9b60c08261386e565b9190820180921161401057565b634e487b7160e01b600052601160045260246000fd5b6040516360f4062b60e01b81526001600160a01b03918216600482018190529091602090839060249082907f0000000000000000000000000000000000000000000000000000000000000000165afa9182156103a357600092614350575b506040516394f649dd60e01b815260048101919091526000816024817f00000000000000000000000000000000000000000000000000000000000000006001600160a01b03165afa9081156103a357600090819261422b575b50600083131561422557805160008161415a5750505050906040805192614104828561386e565b60018452614155601f198301928336602088013785936141268251928361386e565b6001825236602083013773beac0eeeeeeeeeeeeeeeeeeeeeeeeeeeeeebeac061414f8297613c87565b52613c87565b529190565b60018201809211614211575061416f90613bfe565b9061417a8251613bfe565b9460005b82518110156141c5576001906001600160a01b0361419c8286613c94565b51166141a88287613c94565b526141b38187613c94565b516141be828a613c94565b520161417e565b50939192505081516000198101908111614010576141f873beac0eeeeeeeeeeeeeeeeeeeeeeeeeeeeeebeac09184613c94565b5281516000198101908111614010576141559085613c94565b634e487b7160e01b81526011600452602490fd5b92909150565b9091503d8083833e61423d818361386e565b810160408282031261434c5781516001600160401b03811161431c5782019181601f8401121561431c578251614272816138a0565b93614280604051958661386e565b81855260208086019260051b8201019084821161434857602001915b818310614324575050506020810151906001600160401b038211614320570181601f8201121561431c578051906142d2826138a0565b946142e0604051968761386e565b82865260208087019360051b830101938411611b455750602001905b82821061430c57505050386140dd565b81518152602091820191016142fc565b8380fd5b8480fd5b82516001600160a01b03811681036143445781526020928301920161429c565b8780fd5b8680fd5b8280fd5b90916020823d60201161437c575b8161436b6020938361386e565b81010312611b455750519038614084565b3d915061435e565b467f0000000000000000000000000000000000000000000000000000000000000000036143b15760975490565b613926614ec6565b93949392916001600160a01b038416918215614849578351156147c85760005b84518110156146fa576001600160a01b0382166146cb575b73beac0eeeeeeeeeeeeeeeeeeeeeeeeeeeeeebeac06001600160a01b036144188388613c94565b5116036144b7577f00000000000000000000000000000000000000000000000000000000000000006001600160a01b031690614454818a613c94565b5191803b156103af5760405163beffbb8960e01b81526001600160a01b038916600482015260248101939093526000908390604490829084905af19182156103a3576001926144a6575b505b016143d9565b60006144b19161386e565b3861449e565b6001600160a01b0383168414801561463d575b1561457a576001600160a01b037f0000000000000000000000000000000000000000000000000000000000000000811691906145068288613c94565b5116614512828b613c94565b51833b156103af57604051638c80d4e560e01b81526001600160a01b038a811660048301529290921660248301526044820152916000908390606490829084905af19182156103a357600192614569575b506144a0565b60006145749161386e565b38614563565b60e460405162461bcd60e51b815260206004820152608460248201527f44656c65676174696f6e4d616e616765722e5f72656d6f76655368617265734160448201527f6e6451756575655769746864726177616c3a2077697468647261776572206d7560648201527f73742062652073616d652061646472657373206173207374616b65722069662060848201527f746869726450617274795472616e7366657273466f7262696464656e2061726560a482015263081cd95d60e21b60c4820152fd5b506001600160a01b036146508287613c94565b51604051639b4da03d60e01b8152911660048201526020816024817f00000000000000000000000000000000000000000000000000000000000000006001600160a01b03165afa9081156103a3576000916146ad575b50156144ca565b6146c5915060203d8111611f9a57611f8c818361386e565b386146a6565b6146f56001600160a01b036146e08388613c94565b51166146ec838b613c94565b51908885614c13565b6143f1565b506000838152609f602052604090208054969793969395508360001981146140105760010190556040519561472e87613853565b86526001600160a01b03908116602087015216604085015260608401524363ffffffff16608084015260a083015260c08201527f9009ab153e8014fbfb02f2217f5cde7aa7f9ad734ae85ca3ee3f4ca2fdd499f96147c261478e83613f51565b9283600052609e6020526040600020600160ff19825416179055604051918291858352604060208401526040830190613e81565b0390a190565b60405162461bcd60e51b815260206004820152604d60248201527f44656c65676174696f6e4d616e616765722e5f72656d6f76655368617265734160448201527f6e6451756575655769746864726177616c3a207374726174656769657320636160648201526c6e6e6f7420626520656d70747960981b608482015260a490fd5b60405162461bcd60e51b815260206004820152605060248201527f44656c65676174696f6e4d616e616765722e5f72656d6f76655368617265734160448201527f6e6451756575655769746864726177616c3a207374616b65722063616e6e6f7460648201526f206265207a65726f206164647265737360801b608482015260a490fd5b3563ffffffff811681036103af5790565b6044359063ffffffff8216908183036103af576213c6808211614a935760018060a01b03169081600052609960205263ffffffff60016040600020015460a01c1611614a0c576000908152609960205260409020600435906001600160a01b03821682036103af5780546001600160a01b0319166001600160a01b03928316178155600101919060243590811681036103af5782546001600160c01b0319166001600160a01b039182161760a09290921b63ffffffff60a01b169190911790915560405160608101917ffebe5cd24b2cbc7b065b9d0fdeb904461e4afcff57dd57acda1e7832031ba7ac91906149d46004613752565b1681526001600160a01b036149e96024613752565b16602082015263ffffffff6149fe604461388f565b1660408201528033930390a2565b60405162461bcd60e51b815260206004820152605360248201527f44656c65676174696f6e4d616e616765722e5f7365744f70657261746f72446560448201527f7461696c733a207374616b65724f70744f757457696e646f77426c6f636b732060648201527218d85b9b9bdd08189948191958dc99585cd959606a1b608482015260a490fd5b60405162461bcd60e51b815260206004820152606c60248201527f44656c65676174696f6e4d616e616765722e5f7365744f70657261746f72446560448201527f7461696c733a207374616b65724f70744f757457696e646f77426c6f636b732060648201527f63616e6e6f74206265203e204d41585f5354414b45525f4f50545f4f55545f5760848201526b494e444f575f424c4f434b5360a01b60a482015260c490fd5b6001600160a01b03168015614b9657606554604080516001600160a01b0383168152602081018490527f6e9fcd539896fca60e8b0f01dd580233e48a6b0f7df013b89ba7f565869acdb69190a16001600160a01b03191617606555565b60405162461bcd60e51b815260206004820152604960248201527f5061757361626c652e5f73657450617573657252656769737472793a206e657760448201527f50617573657252656769737472792063616e6e6f7420626520746865207a65726064820152686f206164647265737360b81b608482015260a490fd5b6001600160a01b03908116600081815260986020908152604080832094871683529390529190912080549194808303949392851161401057939055604080516001600160a01b0392831681529290911660208301528101919091527f6909600037b75d7b4733aedd815442b5ec018a827751c832aaff64eba5d6d2dd9080606081015b0390a2565b6033546001600160a01b03163303614caf57565b606460405162461bcd60e51b815260206004820152602060248201527f4f776e61626c653a2063616c6c6572206973206e6f7420746865206f776e65726044820152fd5b919091838303614e485760005b838110614d0e575050505050565b6001600160a01b03614d246117b8838786613af3565b16908160005260a1602052604060002054614d40828887613af3565b359062034bc08211614d9b57837f0e7efa738e8b0ce6376a0c1af471655540d2e9a81647d7b09ed823018426576d9260609260019660005260a16020528160406000205560405192835260208301526040820152a101614d00565b60405162461bcd60e51b815260206004820152607360248201527f44656c65676174696f6e4d616e616765722e5f7365745374726174656779576960448201527f746864726177616c44656c6179426c6f636b733a205f7769746864726177616c60648201527f44656c6179426c6f636b732063616e6e6f74206265203e204d41585f5749544860848201527244524157414c5f44454c41595f424c4f434b5360681b60a482015260c490fd5b60405162461bcd60e51b815260206004820152604a60248201527f44656c65676174696f6e4d616e616765722e5f7365745374726174656779576960448201527f746864726177616c44656c6179426c6f636b733a20696e707574206c656e67746064820152690d040dad2e6dac2e8c6d60b31b608482015260a490fd5b6040600a60208251614ed8848261386e565b828152016922b4b3b2b72630bcb2b960b11b81522081519060208201927f8cad95687ba82c2ce50e74f7b754645e5117c3a5bec8151c0726d5857980a866845282015246606082015230608082015260808152613bac60a08261386e565b603380546001600160a01b039283166001600160a01b0319821681179092559091167f8be0079c531659141344cd1fd0a4f28419497f9722a3daafe3b4186f6b6457e0600080a3565b62034bc08111614fc0577fafa003cd76f87ff9d62b35beea889920f33c0c42b8d45b74954d61d50f4b6b696040609d548151908152836020820152a1609d55565b60405162461bcd60e51b815260206004820152607160248201527f44656c65676174696f6e4d616e616765722e5f7365744d696e5769746864726160448201527f77616c44656c6179426c6f636b733a205f6d696e5769746864726177616c446560648201527f6c6179426c6f636b732063616e6e6f74206265203e204d41585f5749544844526084820152704157414c5f44454c41595f424c4f434b5360781b60a482015260c490fd5b90614c967f1ec042c965e2edd7107b51188ee0f383e22e76179041ab3a9d18ff151405166c939260018060a01b031694856000526098602052604060002060018060a01b03851660005260205260406000206150c8828254614003565b9055604080516001600160a01b0394851681529490931660208501529183019190915281906060820190565b156150fb57565b60405162461bcd60e51b815260206004820152606e602482015260008051602061563883398151915260448201527f645769746864726177616c3a207769746864726177616c44656c6179426c6f6360648201527f6b7320706572696f6420686173206e6f74207965742070617373656420666f7260848201526d207468697320737472617465677960901b60a482015260c490fd5b9091813b156153015760408051630b135d3f60e11b815260048101949094526024840152805160448401819052839160005b8281106152e957505091816064818560008360209884010152601f8019910116810103019160018060a01b03165afa9081156103a3576000916152a2575b506001600160e01b0319166374eca2c160e11b0161521b57565b60405162461bcd60e51b815260206004820152605360248201527f454950313237315369676e61747572655574696c732e636865636b5369676e6160448201527f747572655f454950313237313a2045524331323731207369676e6174757265206064820152721d995c9a599a58d85d1a5bdb8819985a5b1959606a1b608482015260a490fd5b6020813d6020116152e1575b816152bb6020938361386e565b810103126152dd5751906001600160e01b031982168203611b45575038615201565b5080fd5b3d91506152ae565b602082820181015160648884010152869450016151c3565b61530e90615316936153a5565b929092615415565b6001600160a01b0390811691160361532a57565b60405162461bcd60e51b815260206004820152604760248201527f454950313237315369676e61747572655574696c732e636865636b5369676e6160448201527f747572655f454950313237313a207369676e6174757265206e6f742066726f6d6064820152661039b4b3b732b960c91b608482015260a490fd5b8151604181036153d25750906153ce916020820151906060604084015193015160001a9061558f565b9091565b60400361540b5760406020830151920151918260ff1c91601b8301809311614010576153ce936001600160ff1b03169260ff169061558f565b5050600090600290565b600581101561557957806154265750565b6000600182036154755760405162461bcd60e51b815260206004820152601860248201527f45434453413a20696e76616c6964207369676e617475726500000000000000006044820152606490fd5b50600281036154c35760405162461bcd60e51b815260206004820152601f60248201527f45434453413a20696e76616c6964207369676e6174757265206c656e677468006044820152606490fd5b6000906003810361551e5760405162461bcd60e51b815260206004820152602260248201527f45434453413a20696e76616c6964207369676e6174757265202773272076616c604482015261756560f01b6064820152608490fd5b600491501461552957565b60405162461bcd60e51b815260206004820152602260248201527f45434453413a20696e76616c6964207369676e6174757265202776272076616c604482015261756560f01b6064820152608490fd5b634e487b7160e01b600052602160045260246000fd5b907f7fffffffffffffffffffffffffffffff5d576e7357a4501ddfe92f46681b20a0841161562b5760ff1690601b82141580615620575b61561457602093600093608093604051938452868401526040830152606082015282805260015afa156103a3576000516001600160a01b0381161561560b5790600090565b50600090600190565b50505050600090600490565b50601c8214156155c6565b5050505060009060039056fe44656c65676174696f6e4d616e616765722e5f636f6d706c6574655175657565a26469706673582212200a038fb896550a25722d6b4c44e80efedbeb7ab9b7a67801c1c6d6bfc45342a964736f6c634300081a0033","linkReferences":{}},"methodIdentifiers":{"DELEGATION_APPROVAL_TYPEHASH()":"04a4f979","DOMAIN_TYPEHASH()":"20606b70","MAX_STAKER_OPT_OUT_WINDOW_BLOCKS()":"4fc40b61","MAX_WITHDRAWAL_DELAY_BLOCKS()":"ca661c04","STAKER_DELEGATION_TYPEHASH()":"43377382","beaconChainETHStrategy()":"9104c319","calculateCurrentStakerDelegationDigestHash(address,address,uint256)":"1bbce091","calculateDelegationApprovalDigestHash(address,address,address,bytes32,uint256)":"0b9f487a","calculateStakerDelegationDigestHash(address,uint256,address,uint256)":"c94b5111","calculateWithdrawalRoot((address,address,address,uint256,uint32,address[],uint256[]))":"597b36da","completeQueuedWithdrawal((address,address,address,uint256,uint32,address[],uint256[]),address[],uint256,bool)":"60d7faed","completeQueuedWithdrawals((address,address,address,uint256,uint32,address[],uint256[])[],address[][],uint256[],bool[])":"33404396","cumulativeWithdrawalsQueued(address)":"a1788484","decreaseDelegatedShares(address,address,uint256)":"132d4967","delegateTo(address,(bytes,uint256),bytes32)":"eea9064b","delegateToBySignature(address,address,(bytes,uint256),(bytes,uint256),bytes32)":"7f548071","delegatedTo(address)":"65da1264","delegationApprover(address)":"3cdeb5e0","delegationApproverSaltIsSpent(address,bytes32)":"bb45fef2","domainSeparator()":"f698da25","eigenPodManager()":"4665bcda","getDelegatableShares(address)":"cf80873e","getOperatorShares(address,address[])":"90041347","getWithdrawalDelay(address[])":"0449ca39","increaseDelegatedShares(address,address,uint256)":"28a573ae","initialize(address,address,uint256,uint256,address[],uint256[])":"22bf40e4","isDelegated(address)":"3e28391d","isOperator(address)":"6d70f7ae","minWithdrawalDelayBlocks()":"c448feb8","modifyOperatorDetails((address,address,uint32))":"f16172b0","operatorDetails(address)":"c5e480db","operatorShares(address,address)":"778e55f3","owner()":"8da5cb5b","pause(uint256)":"136439dd","pauseAll()":"595c6a67","paused()":"5c975abb","paused(uint8)":"5ac86ab7","pauserRegistry()":"886f1195","pendingWithdrawals(bytes32)":"b7f06ebe","queueWithdrawals((address[],uint256[],address)[])":"0dd8dd02","registerAsOperator((address,address,uint32),string)":"0f589e59","renounceOwnership()":"715018a6","setMinWithdrawalDelayBlocks(uint256)":"635bbd10","setPauserRegistry(address)":"10d67a2f","setStrategyWithdrawalDelayBlocks(address[],uint256[])":"1522bf02","slasher()":"b1344271","stakerNonce(address)":"29c77d4f","stakerOptOutWindowBlocks(address)":"16928365","strategyManager()":"39b70e38","strategyWithdrawalDelayBlocks(address)":"c488375a","transferOwnership(address)":"f2fde38b","undelegate(address)":"da8be864","unpause(uint256)":"fabc1cbc","updateOperatorMetadataURI(string)":"99be81c8"},"id":37}