{"abi":[{"type":"constructor","inputs":[{"name":"_delegationManager","type":"address","internalType":"contract IDelegationManager"}],"stateMutability":"nonpayable"},{"type":"function","name":"deregisterOperator","inputs":[],"outputs":[],"stateMutability":"nonpayable"},{"type":"function","name":"getLastCheckpointOperatorWeight","inputs":[{"name":"_operator","type":"address","internalType":"address"}],"outputs":[{"name":"","type":"uint256","internalType":"uint256"}],"stateMutability":"view"},{"type":"function","name":"getLastCheckpointThresholdWeight","inputs":[],"outputs":[{"name":"","type":"uint256","internalType":"uint256"}],"stateMutability":"view"},{"type":"function","name":"getLastCheckpointThresholdWeightAtBlock","inputs":[{"name":"_blockNumber","type":"uint32","internalType":"uint32"}],"outputs":[{"name":"","type":"uint256","internalType":"uint256"}],"stateMutability":"view"},{"type":"function","name":"getLastCheckpointTotalWeight","inputs":[],"outputs":[{"name":"","type":"uint256","internalType":"uint256"}],"stateMutability":"view"},{"type":"function","name":"getLastCheckpointTotalWeightAtBlock","inputs":[{"name":"_blockNumber","type":"uint32","internalType":"uint32"}],"outputs":[{"name":"","type":"uint256","internalType":"uint256"}],"stateMutability":"view"},{"type":"function","name":"getLastestOperatorSigningKey","inputs":[{"name":"_operator","type":"address","internalType":"address"}],"outputs":[{"name":"","type":"address","internalType":"address"}],"stateMutability":"view"},{"type":"function","name":"getOperatorSigningKeyAtBlock","inputs":[{"name":"_operator","type":"address","internalType":"address"},{"name":"_blockNumber","type":"uint256","internalType":"uint256"}],"outputs":[{"name":"","type":"address","internalType":"address"}],"stateMutability":"view"},{"type":"function","name":"getOperatorWeight","inputs":[{"name":"_operator","type":"address","internalType":"address"}],"outputs":[{"name":"","type":"uint256","internalType":"uint256"}],"stateMutability":"view"},{"type":"function","name":"getOperatorWeightAtBlock","inputs":[{"name":"_operator","type":"address","internalType":"address"},{"name":"_blockNumber","type":"uint32","internalType":"uint32"}],"outputs":[{"name":"","type":"uint256","internalType":"uint256"}],"stateMutability":"view"},{"type":"function","name":"initialize","inputs":[{"name":"_serviceManager","type":"address","internalType":"address"},{"name":"_thresholdWeight","type":"uint256","internalType":"uint256"},{"name":"_quorum","type":"tuple","internalType":"struct Quorum","components":[{"name":"strategies","type":"tuple[]","internalType":"struct StrategyParams[]","components":[{"name":"strategy","type":"address","internalType":"contract IStrategy"},{"name":"multiplier","type":"uint96","internalType":"uint96"}]}]}],"outputs":[],"stateMutability":"nonpayable"},{"type":"function","name":"isValidSignature","inputs":[{"name":"_dataHash","type":"bytes32","internalType":"bytes32"},{"name":"_signatureData","type":"bytes","internalType":"bytes"}],"outputs":[{"name":"","type":"bytes4","internalType":"bytes4"}],"stateMutability":"view"},{"type":"function","name":"minimumWeight","inputs":[],"outputs":[{"name":"","type":"uint256","internalType":"uint256"}],"stateMutability":"view"},{"type":"function","name":"operatorRegistered","inputs":[{"name":"_operator","type":"address","internalType":"address"}],"outputs":[{"name":"","type":"bool","internalType":"bool"}],"stateMutability":"view"},{"type":"function","name":"owner","inputs":[],"outputs":[{"name":"","type":"address","internalType":"address"}],"stateMutability":"view"},{"type":"function","name":"quorum","inputs":[],"outputs":[{"name":"","type":"tuple","internalType":"struct Quorum","components":[{"name":"strategies","type":"tuple[]","internalType":"struct StrategyParams[]","components":[{"name":"strategy","type":"address","internalType":"contract IStrategy"},{"name":"multiplier","type":"uint96","internalType":"uint96"}]}]}],"stateMutability":"view"},{"type":"function","name":"registerOperatorWithSignature","inputs":[{"name":"_operatorSignature","type":"tuple","internalType":"struct ISignatureUtils.SignatureWithSaltAndExpiry","components":[{"name":"signature","type":"bytes","internalType":"bytes"},{"name":"salt","type":"bytes32","internalType":"bytes32"},{"name":"expiry","type":"uint256","internalType":"uint256"}]},{"name":"_signingKey","type":"address","internalType":"address"}],"outputs":[],"stateMutability":"nonpayable"},{"type":"function","name":"renounceOwnership","inputs":[],"outputs":[],"stateMutability":"nonpayable"},{"type":"function","name":"transferOwnership","inputs":[{"name":"newOwner","type":"address","internalType":"address"}],"outputs":[],"stateMutability":"nonpayable"},{"type":"function","name":"updateMinimumWeight","inputs":[{"name":"_newMinimumWeight","type":"uint256","internalType":"uint256"},{"name":"_operators","type":"address[]","internalType":"address[]"}],"outputs":[],"stateMutability":"nonpayable"},{"type":"function","name":"updateOperatorSigningKey","inputs":[{"name":"_newSigningKey","type":"address","internalType":"address"}],"outputs":[],"stateMutability":"nonpayable"},{"type":"function","name":"updateOperators","inputs":[{"name":"_operators","type":"address[]","internalType":"address[]"}],"outputs":[],"stateMutability":"nonpayable"},{"type":"function","name":"updateOperatorsForQuorum","inputs":[{"name":"operatorsPerQuorum","type":"address[][]","internalType":"address[][]"},{"name":"","type":"bytes","internalType":"bytes"}],"outputs":[],"stateMutability":"nonpayable"},{"type":"function","name":"updateQuorumConfig","inputs":[{"name":"_quorum","type":"tuple","internalType":"struct Quorum","components":[{"name":"strategies","type":"tuple[]","internalType":"struct StrategyParams[]","components":[{"name":"strategy","type":"address","internalType":"contract IStrategy"},{"name":"multiplier","type":"uint96","internalType":"uint96"}]}]},{"name":"_operators","type":"address[]","internalType":"address[]"}],"outputs":[],"stateMutability":"nonpayable"},{"type":"function","name":"updateStakeThreshold","inputs":[{"name":"_thresholdWeight","type":"uint256","internalType":"uint256"}],"outputs":[],"stateMutability":"nonpayable"},{"type":"event","name":"Initialized","inputs":[{"name":"version","type":"uint8","indexed":false,"internalType":"uint8"}],"anonymous":false},{"type":"event","name":"MinimumWeightUpdated","inputs":[{"name":"_old","type":"uint256","indexed":false,"internalType":"uint256"},{"name":"_new","type":"uint256","indexed":false,"internalType":"uint256"}],"anonymous":false},{"type":"event","name":"OperatorDeregistered","inputs":[{"name":"_operator","type":"address","indexed":true,"internalType":"address"},{"name":"_avs","type":"address","indexed":true,"internalType":"address"}],"anonymous":false},{"type":"event","name":"OperatorRegistered","inputs":[{"name":"_operator","type":"address","indexed":true,"internalType":"address"},{"name":"_avs","type":"address","indexed":true,"internalType":"address"}],"anonymous":false},{"type":"event","name":"OperatorWeightUpdated","inputs":[{"name":"_operator","type":"address","indexed":true,"internalType":"address"},{"name":"oldWeight","type":"uint256","indexed":false,"internalType":"uint256"},{"name":"newWeight","type":"uint256","indexed":false,"internalType":"uint256"}],"anonymous":false},{"type":"event","name":"OwnershipTransferred","inputs":[{"name":"previousOwner","type":"address","indexed":true,"internalType":"address"},{"name":"newOwner","type":"address","indexed":true,"internalType":"address"}],"anonymous":false},{"type":"event","name":"QuorumUpdated","inputs":[{"name":"_old","type":"tuple","indexed":false,"internalType":"struct Quorum","components":[{"name":"strategies","type":"tuple[]","internalType":"struct StrategyParams[]","components":[{"name":"strategy","type":"address","internalType":"contract IStrategy"},{"name":"multiplier","type":"uint96","internalType":"uint96"}]}]},{"name":"_new","type":"tuple","indexed":false,"internalType":"struct Quorum","components":[{"name":"strategies","type":"tuple[]","internalType":"struct StrategyParams[]","components":[{"name":"strategy","type":"address","internalType":"contract IStrategy"},{"name":"multiplier","type":"uint96","internalType":"uint96"}]}]}],"anonymous":false},{"type":"event","name":"SigningKeyUpdate","inputs":[{"name":"operator","type":"address","indexed":true,"internalType":"address"},{"name":"updateBlock","type":"uint256","indexed":true,"internalType":"uint256"},{"name":"newSigningKey","type":"address","indexed":true,"internalType":"address"},{"name":"oldSigningKey","type":"address","indexed":false,"internalType":"address"}],"anonymous":false},{"type":"event","name":"ThresholdWeightUpdated","inputs":[{"name":"_thresholdWeight","type":"uint256","indexed":false,"internalType":"uint256"}],"anonymous":false},{"type":"event","name":"TotalWeightUpdated","inputs":[{"name":"oldTotalWeight","type":"uint256","indexed":false,"internalType":"uint256"},{"name":"newTotalWeight","type":"uint256","indexed":false,"internalType":"uint256"}],"anonymous":false},{"type":"event","name":"UpdateMinimumWeight","inputs":[{"name":"oldMinimumWeight","type":"uint256","indexed":false,"internalType":"uint256"},{"name":"newMinimumWeight","type":"uint256","indexed":false,"internalType":"uint256"}],"anonymous":false},{"type":"error","name":"InsufficientSignedStake","inputs":[]},{"type":"error","name":"InsufficientWeight","inputs":[]},{"type":"error","name":"InvalidLength","inputs":[]},{"type":"error","name":"InvalidQuorum","inputs":[]},{"type":"error","name":"InvalidReferenceBlock","inputs":[]},{"type":"error","name":"InvalidSignature","inputs":[]},{"type":"error","name":"InvalidSignedWeight","inputs":[]},{"type":"error","name":"InvalidThreshold","inputs":[]},{"type":"error","name":"LengthMismatch","inputs":[]},{"type":"error","name":"MustUpdateAllOperators","inputs":[]},{"type":"error","name":"NotSorted","inputs":[]},{"type":"error","name":"OperatorAlreadyRegistered","inputs":[]},{"type":"error","name":"OperatorNotRegistered","inputs":[]}],"bytecode":{"object":"0x60a034606657601f61257a38819003918201601f19168301916001600160401b03831184841017606b57808492602094604052833981010312606657516001600160a01b03811681036066576080526040516124f890816100828239608051816113db0152f35b600080fd5b634e487b7160e01b600052604160045260246000fdfe6080604052600436101561001257600080fd5b6000803560e01c8062cf2ab514610f4d5780630dba339414610f235780631626ba7e14610be35780631703a01814610b925780631e4cd85e14610b68578063314f3a4914610b4d5780633b242e4a14610b145780633d5611f61461092957806340bf2fb71461090b5780635140a548146107ff5780635e1042e8146107b95780635ef5332914610794578063696255be14610719578063715018a6146106bc578063743c31f414610674578063857dc1901461055e5780638da5cb5b14610535578063955f2d90146104e857806398ec1ac9146104bc578063ab11899514610327578063b933fa74146102be578063cdcd358114610273578063dec5d1f614610201578063ec7fbb31146101c25763f2fde38b1461012f57600080fd5b346101bf5760203660031901126101bf57610148611005565b610150611827565b6001600160a01b0381161561016b5761016890611a56565b80f35b60405162461bcd60e51b815260206004820152602660248201527f4f776e61626c653a206e6577206f776e657220697320746865207a65726f206160448201526564647265737360d01b6064820152608490fd5b80fd5b50346101bf5760203660031901126101bf5760209060ff906040906001600160a01b036101ed611005565b168152606e84522054166040519015158152f35b50346101bf5760403660031901126101bf576004356001600160401b03811161026f5761023290369060040161115d565b602435906001600160401b03821161026b57610266610258610168933690600401611020565b91610261611827565b611b87565b611564565b8280fd5b5080fd5b50346101bf5760203660031901126101bf576020906001600160a01b03610298611005565b168152606a8252604090206001600160a01b03906102b5906117f3565b16604051908152f35b50346101bf57806003193601126101bf57606c5490816102f057602091505b6040516001600160e01b03919091168152f35b6000198201918211610313575061030a602091606c6115b4565b5054811c6102dd565b634e487b7160e01b81526011600452602490fd5b50346101bf5760603660031901126101bf57610341611005565b6044356001600160401b03811161026b5761036090369060040161115d565b82549060ff8260081c1615928380946104af575b8015610498575b1561043c5760ff19831660011785556103cb928461042b575b506103a560ff865460081c16611b27565b60018060a01b03166001600160601b0360a01b606854161760685561026160243561187f565b6103e460ff835460081c166103df81611b27565b611b27565b6103ed33611a56565b6103f45780f35b61ff001981541681557f7f26b83ff96e1f2b6a682f133852f6798a09c465da95921460cefb3847402498602060405160018152a180f35b61ffff191661010117855538610394565b60405162461bcd60e51b815260206004820152602e60248201527f496e697469616c697a61626c653a20636f6e747261637420697320616c72656160448201526d191e481a5b9a5d1a585b1a5e995960921b6064820152608490fd5b50303b15801561037b5750600160ff84161461037b565b50600160ff841610610374565b50346101bf5760203660031901126101bf5760206104e06104db611005565b611317565b604051908152f35b50346101bf5760403660031901126101bf57610502611005565b6024359063ffffffff821680920361026b576001600160a01b03168252606d602090815260409092206104e09190611750565b50346101bf57806003193601126101bf576033546040516001600160a01b039091168152602090f35b50346101bf57806003193601126101bf57338152606e60205260ff604082205416156106655760655480156106515760001901606555338152606e6020526040812060ff1981541690556105b96105b433611d09565b611f3d565b505060685481906001600160a01b0316803b1561064e578180916024604051809481936351b27a6d60e11b83523360048401525af180156106435761062e575b506068546001600160a01b0316337f31e0adfec71bccee37b6e83a90c2fedb17d8f1693fee863c4771e7bfe2aed5808380a380f35b8161063891610fcd565b6101bf5780386105f9565b6040513d84823e3d90fd5b50fd5b634e487b7160e01b82526011600452602482fd5b6325ec6c1f60e01b8152600490fd5b50346101bf5760203660031901126101bf5761068e611005565b338252606e60205260ff604083205416156106ad576101689033611a9f565b6325ec6c1f60e01b8252600482fd5b50346101bf57806003193601126101bf576106d5611827565b603380546001600160a01b0319811690915581906001600160a01b03167f8be0079c531659141344cd1fd0a4f28419497f9722a3daafe3b4186f6b6457e08280a380f35b50346101bf5760403660031901126101bf576024356004356001600160401b03821161026b577f713ca53b88d6eb63f5b1854cb8cbdd736ec51eda225e46791aa9298b0160648f6040610773610168943690600401611020565b9261077c611827565b606754908060675582519182526020820152a1611564565b50346101bf5760203660031901126101bf576107ae611827565b61016860043561187f565b50346101bf5760403660031901126101bf576020906001600160a01b036107de611005565b168152606a8252604090206001600160a01b03906102b59060243590611750565b50346101bf5760403660031901126101bf576004356001600160401b03811161026f573660238201121561026f5780600401359061083c82610fee565b9061084a6040519283610fcd565b828252602082019260051b8101602401833682116109075760248301905b8282106108d457505050506024356001600160401b0381116108d0576108929036906004016110bc565b5051156108bc57518051606554036108ad5761016890611564565b63169efb5b60e11b8252600482fd5b634e487b7160e01b82526032600452602482fd5b8380fd5b81356001600160401b038111610903576020916108f8839260243691890101611020565b815201910190610868565b8780fd5b8580fd5b50346101bf57806003193601126101bf576020606754604051908152f35b50346101bf5760403660031901126101bf576004356001600160401b03811161026f576060600319823603011261026f57604051606081018181106001600160401b03821117610b005760405281600401356001600160401b0381116108d05761099990600436918501016110bc565b8152602480830135602083019081526044909301356040830190815290356001600160a01b0381168103610afc57338552606e60205260ff604086205416610aed576065546000198114610ad957859392916001610a209201606555338552606e60205260408520600160ff19825416179055610a186105b433611d09565b505033611a9f565b6068546001600160a01b0316803b156108d057610a6c84809460405197889586948593639926ee7d60e01b855233600486015260406024860152516060604486015260a4850190611802565b9151606484015251608483015203925af18015610acc57610abc575b6068546001600160a01b0316337fa453db612af59e5521d6ab9284dc3e2d06af286eb1b1b7b771fce4716c19f2c18380a380f35b610ac591610fcd565b3881610a88565b50604051903d90823e3d90fd5b634e487b7160e01b86526011600452602486fd5b6342ee68b560e01b8552600485fd5b8480fd5b634e487b7160e01b84526041600452602484fd5b50346101bf5760203660031901126101bf576020906104e0906040906001600160a01b03610b40611005565b168152606d8452206117f3565b50346101bf57806003193601126101bf5760206104e06117e5565b50346101bf5760203660031901126101bf5760206104e063ffffffff610b8c61108e565b166116ba565b50346101bf57806003193601126101bf576060604051610bb181610f81565b52610bdf604051610bc181610f81565b610bc9611251565b8152604051918291602083526020830190611103565b0390f35b50346101bf5760403660031901126101bf576004356024356001600160401b03811161026b57610c179036906004016110bc565b908151820190606083602084019303126108d05760208301516001600160401b038111610afc5783019282603f85011215610afc576020840151610c5a81610fee565b94610c686040519687610fcd565b8186526020808088019360051b830101019085821161090357604001915b818310610f035750505060408101516001600160401b03811161090757810183603f8201121561090757602081015190610cbf82610fee565b94610ccd6040519687610fcd565b8286526020808088019460051b8401010191818311610eff5760408101935b838510610e8a575050505050606001519063ffffffff8216809203610afc578351908590869480518403610e78578315610e695794959394438610159488935b858510610d9957505050505050610d8a57610d46816115cc565b8211610d7b57610d55906116ba565b11610d6c57604051630b135d3f60e11b8152602090f35b63e121632f60e01b8152600490fd5b634b05a0f760e11b8352600483fd5b63e64f180f60e01b8352600483fd5b60018060a09a939495969998979a1b03610db389856112ca565b511695610e5a57858a52606a60205260408a2086906001600160a01b0390610ddc908a90611750565b16916001600160a01b03161015610e4b57610e039085610dfc8a876112ca565b51916121ff565b15610e3c57906001610e2f8a959493610e298960408a99809b8152606d60205220611750565b906112f4565b9701939794959697610d2c565b638baa579f60e01b8952600489fd5b63ba50f91160e01b8a5260048afd5b63e64f180f60e01b8a5260048afd5b63251f56a160e21b8852600488fd5b6001621398b960e31b03198852600488fd5b84516001600160401b038111610efb576020908301019083603f83011215610efb57602082015190610ebb826110a1565b610ec86040519182610fcd565b8281526040848401018610610ef757610eec6020949385946040868501910161122e565b815201940193610cec565b8c80fd5b8a80fd5b8880fd5b82516001600160a01b0381168103610eff57815260209283019201610c86565b50346101bf5760203660031901126101bf5760206104e063ffffffff610f4761108e565b166115cc565b50346101bf5760203660031901126101bf576004356001600160401b03811161026f57610266610168913690600401611020565b602081019081106001600160401b03821117610f9c57604052565b634e487b7160e01b600052604160045260246000fd5b604081019081106001600160401b03821117610f9c57604052565b90601f801991011681019081106001600160401b03821117610f9c57604052565b6001600160401b038111610f9c5760051b60200190565b600435906001600160a01b038216820361101b57565b600080fd5b9080601f8301121561101b5781359061103882610fee565b926110466040519485610fcd565b82845260208085019360051b82010191821161101b57602001915b81831061106e5750505090565b82356001600160a01b038116810361101b57815260209283019201611061565b6004359063ffffffff8216820361101b57565b6001600160401b038111610f9c57601f01601f191660200190565b81601f8201121561101b578035906110d3826110a1565b926110e16040519485610fcd565b8284526020838301011161101b57816000926020809301838601378301015290565b6020604081840192519382815284518094520192019060005b8181106111295750505090565b825180516001600160a01b031685526020908101516001600160601b0316818601526040909401939092019160010161111c565b919060208382031261101b5760405161117581610f81565b80938035906001600160401b03821161101b570182601f8201121561101b578035906111a082610fee565b936111ae6040519586610fcd565b82855260208086019360061b8301019181831161101b57602001925b8284106111d8575050505052565b60408483031261101b57604051906111ef82610fb2565b84356001600160a01b038116810361101b5782526020850135906001600160601b038216820361101b57826020928360409501528152019301926111ca565b60005b8381106112415750506000910152565b8181015183820152602001611231565b6066549061125e82610fee565b9161126c6040519384610fcd565b808352606660009081526000805160206124a3833981519152602085015b8383106112975750505050565b6001602081926040516112a981610fb2565b8554848060a01b038116825260a01c8382015281520192019201919061128a565b80518210156112de5760209160051b010190565b634e487b7160e01b600052603260045260246000fd5b9190820180921161130157565b634e487b7160e01b600052601160045260246000fd5b61131f611251565b80519092600061134761133184610fee565b9361133f6040519586610fcd565b808552610fee565b6020840190601f190136823760005b8651811015611388576001906001600160a01b03611374828a6112ca565b51511661138182886112ca565b5201611356565b5060408051639004134760e01b81526001600160a01b03909616600487015260248601529251604485018190529193909290918291606483019160005b81811061152657506000939283900391508290507f00000000000000000000000000000000000000000000000000000000000000006001600160a01b03165afa90811561151a5760009161148b575b506000915b845183101561146b5761142c83836112ca565b51906001600160601b03602061144286896112ca565b510151169182810292818404149015171561130157600191611463916112f4565b920191611419565b915050612710919250046067548110156000146114855790565b50600090565b3d8083833e61149a8183610fcd565b81019060208183031261026b578051906001600160401b0382116108d0570181601f8201121561026b578051906114d082610fee565b936114de6040519586610fcd565b82855260208086019360051b8301019384116101bf5750602001905b82821061150a5750505038611414565b81518152602091820191016114fa565b6040513d6000823e3d90fd5b82516001600160a01b03168452859450602093840193909201916001016113c5565b9190916000838201938412911290801582169115161761130157565b906000805b83518210156115a35760019061159b906115956001600160a01b0361158e86896112ca565b5116611d09565b90611548565b910190611569565b90506115b0919250611f3d565b5050565b80548210156112de5760005260206000200190600090565b4381101561167657606b54906000905b82821061161b575050806115fa575060005b6001600160e01b031690565b60001981019081116113015761161190606b6115b4565b505460201c6115ee565b909161162e81841860011c8285166112f4565b908263ffffffff61164084606b6115b4565b50541611156116525750915b906115dc565b9250600181018091111561164c57634e487b7160e01b600052601160045260246000fd5b606460405162461bcd60e51b815260206004820152602060248201527f436865636b706f696e74733a20626c6f636b206e6f7420796574206d696e65646044820152fd5b4381101561167657606c54906000905b8282106116f5575050806116de5750600090565b60001981019081116113015761161190606c6115b4565b909161170881841860011c8285166112f4565b908263ffffffff61171a84606c6115b4565b505416111561172c5750915b906116ca565b9250600181018091111561172657634e487b7160e01b600052601160045260246000fd5b9043811015611676578154906000905b82821061178b5750508061177657506000919050565b600019810190811161130157611611916115b4565b909161179e81841860011c8285166112f4565b908263ffffffff6117af84886115b4565b50541611156117c15750915b90611760565b925060018101809111156117bb57634e487b7160e01b600052601160045260246000fd5b606b54806115fa5750600090565b80548061177657506000919050565b9060209161181b8151809281855285808601910161122e565b601f01601f1916010190565b6033546001600160a01b0316330361183b57565b606460405162461bcd60e51b815260206004820152602060248201527f4f776e61626c653a2063616c6c6572206973206e6f7420746865206f776e65726044820152fd5b6000606c549061188f606c6117f3565b9180151580611a1b575b1561190b576118a78461231b565b9160001982019182116103135750916119017f9324f7e5a7c0288808a634ccde44b8e979676474b22e29ee9dd569b55e791a4b94926118e9602095606c6115b4565b509063ffffffff82549181199060201b169116179055565b50604051908152a1565b63ffffffff43116119c75761191f8461231b565b906040519061192d82610fb2565b4363ffffffff1682526001600160e01b039092166020820190815291600160401b811015610b00578060016119679201606c55606c6115b4565b9390936119b3575051905163ffffffff90911663ffffffff19602092831b16179091557f9324f7e5a7c0288808a634ccde44b8e979676474b22e29ee9dd569b55e791a4b929091611901565b634e487b7160e01b81526004819052602490fd5b60405162461bcd60e51b815260206004820152602660248201527f53616665436173743a2076616c756520646f65736e27742066697420696e203360448201526532206269747360d01b6064820152608490fd5b506000198101818111611a4257611a3863ffffffff91606c6115b4565b5054164314611899565b634e487b7160e01b83526011600452602483fd5b603380546001600160a01b039283166001600160a01b0319821681179092559091167f8be0079c531659141344cd1fd0a4f28419497f9722a3daafe3b4186f6b6457e0600080a3565b6001600160a01b039081166000818152606a6020526040902090929190611ac5906117f3565b6001600160a01b0390921692911690828214611b225780600052606a602052611af2836040600020612071565b50506040519182527fd061168252f441733658f09e4d8f5b2d998ed4ef24a2bbfd6ceca52ea131500260204393a4565b505050565b15611b2e57565b60405162461bcd60e51b815260206004820152602b60248201527f496e697469616c697a61626c653a20636f6e7472616374206973206e6f74206960448201526a6e697469616c697a696e6760a81b6064820152608490fd5b611b9081612172565b15611cdf5760405191611ba283610f81565b611baa611251565b8352606654600060665580611ca1575b5060005b82518051821015611c4e5781611bd3916112ca565b51606654600160401b811015610f9c57600181016066556000606654821015611c3a5760669052815160209092015160a01b6001600160a01b0319166001600160a01b0392909216919091176000805160206124a383398151915290910155600101611bbe565b634e487b7160e01b81526032600452602490fd5b505091611c8e90611c9c7f23aad4e61744ece164130aa415c1616e80136b0f0770e56589438b90b269265e93604051938493604085526040850190611103565b908382036020850152611103565b0390a1565b60666000526000805160206124a3833981519152016000805160206124a38339815191525b818110611cd35750611bba565b60008155600101611cc6565b63d173577960e01b60005260046000fd5b8181039291600013801582851316918412161761130157565b6001600160a01b0381166000818152606d602052604081209092908390611d2f906117f3565b9183600052606e60205260ff6040600020541615600014611edc575081611d5591611cf0565b928315611ed65782600052606d602052604060002060008154611d77836117f3565b9281151580611e9c575b15611de157611d8f8361231b565b9260001983019283116103135750604094926118e97f88770dc862e47a7ed586907857eb1b75e4c5ffc8b707c7ee10eb74d6885fe594979593611dd1936115b4565b505b82519182526020820152a290565b63ffffffff43116119c757611df58361231b565b9160405191611e0383610fb2565b4363ffffffff1683526001600160e01b039093166020830190815292600160401b821015611e885790611e3b916001820181556115b4565b9390936119b3575051905160201b63ffffffff191663ffffffff919091161790557f88770dc862e47a7ed586907857eb1b75e4c5ffc8b707c7ee10eb74d6885fe594926040929091611dd1565b634e487b7160e01b85526041600452602485fd5b506000198201828111611ec257611eb863ffffffff91836115b4565b5054164314611d81565b634e487b7160e01b84526011600452602484fd5b50505090565b9050611ee9919350611317565b91611ef48184611cf0565b928315611ed6577f88770dc862e47a7ed586907857eb1b75e4c5ffc8b707c7ee10eb74d6885fe5949160409184600052606d602052611f368184600020612071565b5050611dd3565b90611f50611f496117e5565b9283611548565b906000606b5490611f61606b6117f3565b918015158061204a575b15611fc857611f798561231b565b9160001982019182116103135750906118e9611f9692606b6115b4565b507f86dcf86b12dfeedea74ae9300dbdaa193bcce5809369c8177ea2f4eaaa65729b60408051858152846020820152a1565b63ffffffff43116119c757611fdc8561231b565b9060405190611fea82610fb2565b4363ffffffff1682526001600160e01b039092166020820190815291600160401b811015610b00578060016120249201606b55606b6115b4565b9390936119b3575051905160201b63ffffffff191663ffffffff91909116179055611f96565b506000198101818111611a425761206763ffffffff91606b6115b4565b5054164314611f6b565b919091805461207f826117f3565b918115158061214c575b156120b5576120978561231b565b906000198301928311611301576120b1926118e9916115b4565b9190565b63ffffffff43116119c7576120c98561231b565b90604051926120d784610fb2565b4363ffffffff1684526001600160e01b039092166020840190815291600160401b811015610f9c5761210e916001820181556115b4565b919091612136579151915160201b63ffffffff191663ffffffff929092169190911790559190565b634e487b7160e01b600052600060045260246000fd5b5060001982018281116113015761216863ffffffff91836115b4565b5054164314612089565b5190600080805b84518210156121e7576001600160a01b0361219483876112ca565b515116906001600160a01b03168111156121d6576121cd600191936001600160601b0360206121c3868a6112ca565b51015116906112f4565b91019091612179565b63ba50f91160e01b60005260046000fd5b509192506127101490506121fa57600090565b600190565b91909161220c828461238a565b6005811015612305571590816122ef575b506122e75760009261225861226685946040519283916020830195630b135d3f60e11b87526024840152604060448401526064830190611802565b03601f198101835282610fcd565b51915afa3d156122e0573d61227a816110a1565b906122886040519283610fcd565b81523d6000602083013e5b816122d4575b816122a2575090565b905060208180518101031261101b57602001516001600160e01b031981169081900361101b57630b135d3f60e11b1490565b80516020149150612299565b6060612293565b505050600190565b6001600160a01b0383811691161490503861221d565b634e487b7160e01b600052602160045260246000fd5b6001600160e01b038111612335576001600160e01b031690565b60405162461bcd60e51b815260206004820152602760248201527f53616665436173743a2076616c756520646f65736e27742066697420696e20326044820152663234206269747360c81b6064820152608490fd5b8151604181036123b75750906123b3916020820151906060604084015193015160001a906123fa565b9091565b6040036123f05760406020830151920151918260ff1c91601b8301809311611301576123b3936001600160ff1b03169260ff16906123fa565b5050600090600290565b907f7fffffffffffffffffffffffffffffff5d576e7357a4501ddfe92f46681b20a084116124965760ff1690601b8214158061248b575b61247f57602093600093608093604051938452868401526040830152606082015282805260015afa1561151a576000516001600160a01b038116156124765790600090565b50600090600190565b50505050600090600490565b50601c821415612431565b5050505060009060039056fe46501879b8ca8525e8c2fd519e2fbfcfa2ebea26501294aa02cbfcfb12e94354a264697066735822122058ecb2fe201e2442c42102fead25e3d01367f787e63c92743eb641dc9d0885f264736f6c634300081a0033","linkReferences":{}},"methodIdentifiers":{"deregisterOperator()":"857dc190","getLastCheckpointOperatorWeight(address)":"3b242e4a","getLastCheckpointThresholdWeight()":"b933fa74","getLastCheckpointThresholdWeightAtBlock(uint32)":"1e4cd85e","getLastCheckpointTotalWeight()":"314f3a49","getLastCheckpointTotalWeightAtBlock(uint32)":"0dba3394","getLastestOperatorSigningKey(address)":"cdcd3581","getOperatorSigningKeyAtBlock(address,uint256)":"5e1042e8","getOperatorWeight(address)":"98ec1ac9","getOperatorWeightAtBlock(address,uint32)":"955f2d90","initialize(address,uint256,((address,uint96)[]))":"ab118995","isValidSignature(bytes32,bytes)":"1626ba7e","minimumWeight()":"40bf2fb7","operatorRegistered(address)":"ec7fbb31","owner()":"8da5cb5b","quorum()":"1703a018","registerOperatorWithSignature((bytes,bytes32,uint256),address)":"3d5611f6","renounceOwnership()":"715018a6","transferOwnership(address)":"f2fde38b","updateMinimumWeight(uint256,address[])":"696255be","updateOperatorSigningKey(address)":"743c31f4","updateOperators(address[])":"00cf2ab5","updateOperatorsForQuorum(address[][],bytes)":"5140a548","updateQuorumConfig(((address,uint96)[]),address[])":"dec5d1f6","updateStakeThreshold(uint256)":"5ef53329"},"id":99}