{"abi":[{"type":"constructor","inputs":[{"name":"_registryCoordinator","type":"address","internalType":"contract IRegistryCoordinator"}],"stateMutability":"nonpayable"},{"type":"function","name":"OPERATOR_DOES_NOT_EXIST_ID","inputs":[],"outputs":[{"name":"","type":"bytes32","internalType":"bytes32"}],"stateMutability":"view"},{"type":"function","name":"currentOperatorIndex","inputs":[{"name":"","type":"uint8","internalType":"uint8"},{"name":"","type":"bytes32","internalType":"bytes32"}],"outputs":[{"name":"","type":"uint32","internalType":"uint32"}],"stateMutability":"view"},{"type":"function","name":"deregisterOperator","inputs":[{"name":"operatorId","type":"bytes32","internalType":"bytes32"},{"name":"quorumNumbers","type":"bytes","internalType":"bytes"}],"outputs":[],"stateMutability":"nonpayable"},{"type":"function","name":"getLatestOperatorUpdate","inputs":[{"name":"quorumNumber","type":"uint8","internalType":"uint8"},{"name":"operatorIndex","type":"uint32","internalType":"uint32"}],"outputs":[{"name":"","type":"tuple","internalType":"struct IIndexRegistry.OperatorUpdate","components":[{"name":"fromBlockNumber","type":"uint32","internalType":"uint32"},{"name":"operatorId","type":"bytes32","internalType":"bytes32"}]}],"stateMutability":"view"},{"type":"function","name":"getLatestQuorumUpdate","inputs":[{"name":"quorumNumber","type":"uint8","internalType":"uint8"}],"outputs":[{"name":"","type":"tuple","internalType":"struct IIndexRegistry.QuorumUpdate","components":[{"name":"fromBlockNumber","type":"uint32","internalType":"uint32"},{"name":"numOperators","type":"uint32","internalType":"uint32"}]}],"stateMutability":"view"},{"type":"function","name":"getOperatorListAtBlockNumber","inputs":[{"name":"quorumNumber","type":"uint8","internalType":"uint8"},{"name":"blockNumber","type":"uint32","internalType":"uint32"}],"outputs":[{"name":"","type":"bytes32[]","internalType":"bytes32[]"}],"stateMutability":"view"},{"type":"function","name":"getOperatorUpdateAtIndex","inputs":[{"name":"quorumNumber","type":"uint8","internalType":"uint8"},{"name":"operatorIndex","type":"uint32","internalType":"uint32"},{"name":"arrayIndex","type":"uint32","internalType":"uint32"}],"outputs":[{"name":"","type":"tuple","internalType":"struct IIndexRegistry.OperatorUpdate","components":[{"name":"fromBlockNumber","type":"uint32","internalType":"uint32"},{"name":"operatorId","type":"bytes32","internalType":"bytes32"}]}],"stateMutability":"view"},{"type":"function","name":"getQuorumUpdateAtIndex","inputs":[{"name":"quorumNumber","type":"uint8","internalType":"uint8"},{"name":"quorumIndex","type":"uint32","internalType":"uint32"}],"outputs":[{"name":"","type":"tuple","internalType":"struct IIndexRegistry.QuorumUpdate","components":[{"name":"fromBlockNumber","type":"uint32","internalType":"uint32"},{"name":"numOperators","type":"uint32","internalType":"uint32"}]}],"stateMutability":"view"},{"type":"function","name":"initializeQuorum","inputs":[{"name":"quorumNumber","type":"uint8","internalType":"uint8"}],"outputs":[],"stateMutability":"nonpayable"},{"type":"function","name":"registerOperator","inputs":[{"name":"operatorId","type":"bytes32","internalType":"bytes32"},{"name":"quorumNumbers","type":"bytes","internalType":"bytes"}],"outputs":[{"name":"","type":"uint32[]","internalType":"uint32[]"}],"stateMutability":"nonpayable"},{"type":"function","name":"registryCoordinator","inputs":[],"outputs":[{"name":"","type":"address","internalType":"address"}],"stateMutability":"view"},{"type":"function","name":"totalOperatorsForQuorum","inputs":[{"name":"quorumNumber","type":"uint8","internalType":"uint8"}],"outputs":[{"name":"","type":"uint32","internalType":"uint32"}],"stateMutability":"view"},{"type":"event","name":"Initialized","inputs":[{"name":"version","type":"uint8","indexed":false,"internalType":"uint8"}],"anonymous":false},{"type":"event","name":"QuorumIndexUpdate","inputs":[{"name":"operatorId","type":"bytes32","indexed":true,"internalType":"bytes32"},{"name":"quorumNumber","type":"uint8","indexed":false,"internalType":"uint8"},{"name":"newOperatorIndex","type":"uint32","indexed":false,"internalType":"uint32"}],"anonymous":false}],"bytecode":{"object":"0x60a03461011c57601f61106338819003918201601f19168301916001600160401b038311848410176101215780849260209460405283398101031261011c57516001600160a01b0381169081900361011c5760805260005460ff8160081c166100c75760ff8082161061008c575b604051610f2b908161013882396080518181816104a80152610ab70152f35b60ff90811916176000557f7f26b83ff96e1f2b6a682f133852f6798a09c465da95921460cefb3847402498602060405160ff8152a13861006d565b60405162461bcd60e51b815260206004820152602760248201527f496e697469616c697a61626c653a20636f6e747261637420697320696e697469604482015266616c697a696e6760c81b6064820152608490fd5b600080fd5b634e487b7160e01b600052604160045260246000fdfe6080604052600436101561001257600080fd5b60003560e01c8062bff04d1461068257806312d1d74d1461063c57806326d941f2146105765780632ed583e5146104d75780636d14a987146104925780638121906f1461045557806389026245146102e4578063a48bb0ac14610264578063bd29b8cd1461013c578063caa3cd7614610120578063e2e68580146100d85763f34109221461009f57600080fd5b346100d35760203660031901126100d357602063ffffffff6100c76100c2610881565b610ca9565b54821c16604051908152f35b600080fd5b346100d35760403660031901126100d35760ff6100f3610881565b1660005260016020526040600020602435600052602052602063ffffffff60406000205416604051908152f35b346100d35760003660031901126100d357602060405160008152f35b346100d35761014a3661082d565b9190610154610ab5565b4363ffffffff169160005b84811061016857005b806101766001928786610918565b3560f81c806000526003602052610193604060002054151561093a565b806000528260205260406000208460005260205263ffffffff604060002054166101bc82610ca9565b916101db6101d363ffffffff855460201c166109a4565b809483610e7f565b6101e58382610c6b565b928584018963ffffffff8254965416146000146102245760009150555b828603610213575b5050500161015f565b61021c92610bae565b86808061020a565b50604061025f918360005260026020528160002063ffffffff6000921682526020522061024f6108a4565b908a825260006020830152610b68565b610202565b346100d35760403660031901126100d3576102e06102bb6102b5610286610881565b60ff610290610891565b916000602061029d6108a4565b828152015216600052600360205260406000206109f0565b50610a95565b60405191829182919091602063ffffffff816040840195828151168552015116910152565b0390f35b346100d35760403660031901126100d3576102fd610881565b610305610891565b9063ffffffff6103158383610cde565b1661032761032282610900565b6108da565b9281845261033482610900565b602085019390601f190136853760005b8381106103905784866040519182916020830190602084525180915260408301919060005b818110610377575050500390f35b8251845285945060209384019390920191600101610369565b6103a18363ffffffff831684610dde565b6103ab82886109bd565b526103b681876109bd565b51156103c457600101610344565b60405162461bcd60e51b815260206004820152605d60248201527f496e64657852656769737472792e6765744f70657261746f724c69737441744260448201527f6c6f636b4e756d6265723a206f70657261746f7220646f6573206e6f7420657860648201527f6973742061742074686520676976656e20626c6f636b206e756d626572000000608482015260a490fd5b346100d35760203660031901126100d3576102e06102bb61048d610477610881565b600060206104836108a4565b8281520152610ca9565b610a95565b346100d35760003660031901126100d3576040517f00000000000000000000000000000000000000000000000000000000000000006001600160a01b03168152602090f35b346100d35760603660031901126100d3576104f0610881565b6104f8610891565b6044359163ffffffff831683036100d3576102e0926105539260ff61054d93600060206105236108a4565b828152015216600052600260205263ffffffff604060002091166000526020526040600020610a79565b506109d1565b60405191829182919091602080604083019463ffffffff81511684520151910152565b346100d35760203660031901126100d35760ff610591610881565b610599610ab5565b168060005260036020526040600020546105dd5760005260036020526105db60406000206105c56108a4565b9063ffffffff4316825260006020830152610a08565b005b60405162461bcd60e51b815260206004820152603160248201527f496e64657852656769737472792e63726561746551756f72756d3a2071756f72604482015270756d20616c72656164792065786973747360781b6064820152608490fd5b346100d35760403660031901126100d3576102e061055361067d61065e610881565b610666610891565b90600060206106736108a4565b8281520152610c6b565b6109d1565b346100d3576106903661082d565b90610699610ab5565b6106a561032283610900565b928284526106b283610900565b602085019390601f190136853760005b8181106107145784866040519182916020830190602084525180915260408301919060005b8181106106f5575050500390f35b825163ffffffff168452859450602093840193909201916001016106e7565b61071f818386610918565b3560f81c9081600052600360205261073d604060002054151561093a565b61074682610ca9565b600163ffffffff825460201c16019063ffffffff82116108175783610771836107b093600197610e7f565b806000526002602052604080600020610789856109a4565b9063ffffffff6000921682526020522054156107c9575b6107a9836109a4565b9087610bae565b63ffffffff6107bf838a6109bd565b91169052016106c2565b8060005260026020526108126040806000206107e4866109a4565b9063ffffffff600092168252602052206107fc6108a4565b9063ffffffff4316825260006020830152610b68565b6107a0565b634e487b7160e01b600052601160045260246000fd5b60406003198201126100d3576004359160243567ffffffffffffffff81116100d357826023820112156100d35780600401359267ffffffffffffffff84116100d357602484830101116100d3576024019190565b6004359060ff821682036100d357565b6024359063ffffffff821682036100d357565b604051906040820182811067ffffffffffffffff8211176108c457604052565b634e487b7160e01b600052604160045260246000fd5b6040519190601f01601f1916820167ffffffffffffffff8111838210176108c457604052565b67ffffffffffffffff81116108c45760051b60200190565b90821015610924570190565b634e487b7160e01b600052603260045260246000fd5b1561094157565b60405162461bcd60e51b815260206004820152603560248201527f496e64657852656769737472792e72656769737465724f70657261746f723a206044820152741c5d5bdc9d5b48191bd95cc81b9bdd08195e1a5cdd605a1b6064820152608490fd5b63ffffffff6000199116019063ffffffff821161081757565b80518210156109245760209160051b010190565b9060016109dc6108a4565b9263ffffffff815416845201546020830152565b80548210156109245760005260206000200190600090565b8054600160401b8110156108c457610a25916001820181556109f0565b610a63578151815460209384015167ffffffffffffffff1990911663ffffffff9290921691909117921b67ffffffff0000000016919091179055565b565b634e487b7160e01b600052600060045260246000fd5b80548210156109245760005260206000209060011b0190600090565b9063ffffffff610aa36108a4565b9254818116845260201c166020830152565b7f00000000000000000000000000000000000000000000000000000000000000006001600160a01b03163303610ae757565b60405162461bcd60e51b815260206004820152604d60248201527f496e64657852656769737472792e6f6e6c795265676973747279436f6f72646960448201527f6e61746f723a2063616c6c6572206973206e6f7420746865207265676973747260648201526c3c9031b7b7b93234b730ba37b960991b608482015260a490fd5b8054600160401b8110156108c457610b8591600182018155610a79565b919091610a635760208163ffffffff8060019451161663ffffffff198554161784550151910155565b9160409063ffffffff60ff7f6ee1e4f4075f3d067176140d34e87874244dd273294c05b2218133e49a2ba6f69486610be68583610c6b565b80544386169086168103610c2d5750600101555b169182600052600160205283600020866000526020528360002082821683198254161790558351928352166020820152a2565b9050610c66915083831660005260026020528660002085871660005260205286600020610c586108a4565b918252896020830152610b68565b610bfa565b60ff16600090815260026020908152604080832063ffffffff949094168352929052208054600019810190811161081757610ca591610a79565b5090565b60ff1660009081526003602052604090208054600019810190811161081757610ca5916109f0565b8015610817576000190190565b60ff1690816000526003602052604060002054805b610d805760405162461bcd60e51b815260206004820152605560248201527f496e64657852656769737472792e5f6f70657261746f72436f756e744174426c60448201527f6f636b4e756d6265723a2071756f72756d20646964206e6f742065786973742060648201527430ba1033b4bb32b710313637b1b590373ab6b132b960591b608482015260a490fd5b826000526003602052604060002060001982019082821161081757610da8916102b5916109f0565b63ffffffff81511663ffffffff84161015610dcd5750610dc790610cd1565b80610cf3565b6020015163ffffffff169392505050565b60ff9092919216806000526002602052604060002063ffffffff8416600052602052604060002054805b610e155750505050600090565b81600052600260205260408060002060009063ffffffff871682526020522060001982019082821161081757610e4e9161054d91610a79565b63ffffffff81511663ffffffff85161015610e735750610e6d90610cd1565b80610e08565b60200151949350505050565b919063ffffffff81541663ffffffff4316809114600014610ec25750610a6192509067ffffffff0000000082549160201b169067ffffffff000000001916179055565b91905060ff610a619316600052600360205263ffffffff604060002091610ee76108a4565b938452166020830152610a0856fea2646970667358221220cc2a57ca6e3a2fbc2e36af748ff4132feac43ff3919bc2081535ad1ab87b5cc264736f6c634300081a0033","linkReferences":{}},"methodIdentifiers":{"OPERATOR_DOES_NOT_EXIST_ID()":"caa3cd76","currentOperatorIndex(uint8,bytes32)":"e2e68580","deregisterOperator(bytes32,bytes)":"bd29b8cd","getLatestOperatorUpdate(uint8,uint32)":"12d1d74d","getLatestQuorumUpdate(uint8)":"8121906f","getOperatorListAtBlockNumber(uint8,uint32)":"89026245","getOperatorUpdateAtIndex(uint8,uint32,uint32)":"2ed583e5","getQuorumUpdateAtIndex(uint8,uint32)":"a48bb0ac","initializeQuorum(uint8)":"26d941f2","registerOperator(bytes32,bytes)":"00bff04d","registryCoordinator()":"6d14a987","totalOperatorsForQuorum(uint8)":"f3410922"},"id":78}