{"abi":[{"type":"constructor","inputs":[{"name":"_registryCoordinator","type":"address","internalType":"contract IRegistryCoordinator"},{"name":"_delegationManager","type":"address","internalType":"contract IDelegationManager"}],"stateMutability":"nonpayable"},{"type":"function","name":"MAX_WEIGHING_FUNCTION_LENGTH","inputs":[],"outputs":[{"name":"","type":"uint8","internalType":"uint8"}],"stateMutability":"view"},{"type":"function","name":"WEIGHTING_DIVISOR","inputs":[],"outputs":[{"name":"","type":"uint256","internalType":"uint256"}],"stateMutability":"view"},{"type":"function","name":"addStrategies","inputs":[{"name":"quorumNumber","type":"uint8","internalType":"uint8"},{"name":"_strategyParams","type":"tuple[]","internalType":"struct IStakeRegistry.StrategyParams[]","components":[{"name":"strategy","type":"address","internalType":"contract IStrategy"},{"name":"multiplier","type":"uint96","internalType":"uint96"}]}],"outputs":[],"stateMutability":"nonpayable"},{"type":"function","name":"delegation","inputs":[],"outputs":[{"name":"","type":"address","internalType":"contract IDelegationManager"}],"stateMutability":"view"},{"type":"function","name":"deregisterOperator","inputs":[{"name":"operatorId","type":"bytes32","internalType":"bytes32"},{"name":"quorumNumbers","type":"bytes","internalType":"bytes"}],"outputs":[],"stateMutability":"nonpayable"},{"type":"function","name":"getCurrentStake","inputs":[{"name":"operatorId","type":"bytes32","internalType":"bytes32"},{"name":"quorumNumber","type":"uint8","internalType":"uint8"}],"outputs":[{"name":"","type":"uint96","internalType":"uint96"}],"stateMutability":"view"},{"type":"function","name":"getCurrentTotalStake","inputs":[{"name":"quorumNumber","type":"uint8","internalType":"uint8"}],"outputs":[{"name":"","type":"uint96","internalType":"uint96"}],"stateMutability":"view"},{"type":"function","name":"getLatestStakeUpdate","inputs":[{"name":"operatorId","type":"bytes32","internalType":"bytes32"},{"name":"quorumNumber","type":"uint8","internalType":"uint8"}],"outputs":[{"name":"","type":"tuple","internalType":"struct IStakeRegistry.StakeUpdate","components":[{"name":"updateBlockNumber","type":"uint32","internalType":"uint32"},{"name":"nextUpdateBlockNumber","type":"uint32","internalType":"uint32"},{"name":"stake","type":"uint96","internalType":"uint96"}]}],"stateMutability":"view"},{"type":"function","name":"getStakeAtBlockNumber","inputs":[{"name":"operatorId","type":"bytes32","internalType":"bytes32"},{"name":"quorumNumber","type":"uint8","internalType":"uint8"},{"name":"blockNumber","type":"uint32","internalType":"uint32"}],"outputs":[{"name":"","type":"uint96","internalType":"uint96"}],"stateMutability":"view"},{"type":"function","name":"getStakeAtBlockNumberAndIndex","inputs":[{"name":"quorumNumber","type":"uint8","internalType":"uint8"},{"name":"blockNumber","type":"uint32","internalType":"uint32"},{"name":"operatorId","type":"bytes32","internalType":"bytes32"},{"name":"index","type":"uint256","internalType":"uint256"}],"outputs":[{"name":"","type":"uint96","internalType":"uint96"}],"stateMutability":"view"},{"type":"function","name":"getStakeHistory","inputs":[{"name":"operatorId","type":"bytes32","internalType":"bytes32"},{"name":"quorumNumber","type":"uint8","internalType":"uint8"}],"outputs":[{"name":"","type":"tuple[]","internalType":"struct IStakeRegistry.StakeUpdate[]","components":[{"name":"updateBlockNumber","type":"uint32","internalType":"uint32"},{"name":"nextUpdateBlockNumber","type":"uint32","internalType":"uint32"},{"name":"stake","type":"uint96","internalType":"uint96"}]}],"stateMutability":"view"},{"type":"function","name":"getStakeHistoryLength","inputs":[{"name":"operatorId","type":"bytes32","internalType":"bytes32"},{"name":"quorumNumber","type":"uint8","internalType":"uint8"}],"outputs":[{"name":"","type":"uint256","internalType":"uint256"}],"stateMutability":"view"},{"type":"function","name":"getStakeUpdateAtIndex","inputs":[{"name":"quorumNumber","type":"uint8","internalType":"uint8"},{"name":"operatorId","type":"bytes32","internalType":"bytes32"},{"name":"index","type":"uint256","internalType":"uint256"}],"outputs":[{"name":"","type":"tuple","internalType":"struct IStakeRegistry.StakeUpdate","components":[{"name":"updateBlockNumber","type":"uint32","internalType":"uint32"},{"name":"nextUpdateBlockNumber","type":"uint32","internalType":"uint32"},{"name":"stake","type":"uint96","internalType":"uint96"}]}],"stateMutability":"view"},{"type":"function","name":"getStakeUpdateIndexAtBlockNumber","inputs":[{"name":"operatorId","type":"bytes32","internalType":"bytes32"},{"name":"quorumNumber","type":"uint8","internalType":"uint8"},{"name":"blockNumber","type":"uint32","internalType":"uint32"}],"outputs":[{"name":"","type":"uint32","internalType":"uint32"}],"stateMutability":"view"},{"type":"function","name":"getTotalStakeAtBlockNumberFromIndex","inputs":[{"name":"quorumNumber","type":"uint8","internalType":"uint8"},{"name":"blockNumber","type":"uint32","internalType":"uint32"},{"name":"index","type":"uint256","internalType":"uint256"}],"outputs":[{"name":"","type":"uint96","internalType":"uint96"}],"stateMutability":"view"},{"type":"function","name":"getTotalStakeHistoryLength","inputs":[{"name":"quorumNumber","type":"uint8","internalType":"uint8"}],"outputs":[{"name":"","type":"uint256","internalType":"uint256"}],"stateMutability":"view"},{"type":"function","name":"getTotalStakeIndicesAtBlockNumber","inputs":[{"name":"blockNumber","type":"uint32","internalType":"uint32"},{"name":"quorumNumbers","type":"bytes","internalType":"bytes"}],"outputs":[{"name":"","type":"uint32[]","internalType":"uint32[]"}],"stateMutability":"view"},{"type":"function","name":"getTotalStakeUpdateAtIndex","inputs":[{"name":"quorumNumber","type":"uint8","internalType":"uint8"},{"name":"index","type":"uint256","internalType":"uint256"}],"outputs":[{"name":"","type":"tuple","internalType":"struct IStakeRegistry.StakeUpdate","components":[{"name":"updateBlockNumber","type":"uint32","internalType":"uint32"},{"name":"nextUpdateBlockNumber","type":"uint32","internalType":"uint32"},{"name":"stake","type":"uint96","internalType":"uint96"}]}],"stateMutability":"view"},{"type":"function","name":"initializeQuorum","inputs":[{"name":"quorumNumber","type":"uint8","internalType":"uint8"},{"name":"minimumStake","type":"uint96","internalType":"uint96"},{"name":"_strategyParams","type":"tuple[]","internalType":"struct IStakeRegistry.StrategyParams[]","components":[{"name":"strategy","type":"address","internalType":"contract IStrategy"},{"name":"multiplier","type":"uint96","internalType":"uint96"}]}],"outputs":[],"stateMutability":"nonpayable"},{"type":"function","name":"minimumStakeForQuorum","inputs":[{"name":"","type":"uint8","internalType":"uint8"}],"outputs":[{"name":"","type":"uint96","internalType":"uint96"}],"stateMutability":"view"},{"type":"function","name":"modifyStrategyParams","inputs":[{"name":"quorumNumber","type":"uint8","internalType":"uint8"},{"name":"strategyIndices","type":"uint256[]","internalType":"uint256[]"},{"name":"newMultipliers","type":"uint96[]","internalType":"uint96[]"}],"outputs":[],"stateMutability":"nonpayable"},{"type":"function","name":"registerOperator","inputs":[{"name":"operator","type":"address","internalType":"address"},{"name":"operatorId","type":"bytes32","internalType":"bytes32"},{"name":"quorumNumbers","type":"bytes","internalType":"bytes"}],"outputs":[{"name":"","type":"uint96[]","internalType":"uint96[]"},{"name":"","type":"uint96[]","internalType":"uint96[]"}],"stateMutability":"nonpayable"},{"type":"function","name":"registryCoordinator","inputs":[],"outputs":[{"name":"","type":"address","internalType":"address"}],"stateMutability":"view"},{"type":"function","name":"removeStrategies","inputs":[{"name":"quorumNumber","type":"uint8","internalType":"uint8"},{"name":"indicesToRemove","type":"uint256[]","internalType":"uint256[]"}],"outputs":[],"stateMutability":"nonpayable"},{"type":"function","name":"setMinimumStakeForQuorum","inputs":[{"name":"quorumNumber","type":"uint8","internalType":"uint8"},{"name":"minimumStake","type":"uint96","internalType":"uint96"}],"outputs":[],"stateMutability":"nonpayable"},{"type":"function","name":"strategiesPerQuorum","inputs":[{"name":"","type":"uint8","internalType":"uint8"},{"name":"","type":"uint256","internalType":"uint256"}],"outputs":[{"name":"","type":"address","internalType":"contract IStrategy"}],"stateMutability":"view"},{"type":"function","name":"strategyParams","inputs":[{"name":"","type":"uint8","internalType":"uint8"},{"name":"","type":"uint256","internalType":"uint256"}],"outputs":[{"name":"strategy","type":"address","internalType":"contract IStrategy"},{"name":"multiplier","type":"uint96","internalType":"uint96"}],"stateMutability":"view"},{"type":"function","name":"strategyParamsByIndex","inputs":[{"name":"quorumNumber","type":"uint8","internalType":"uint8"},{"name":"index","type":"uint256","internalType":"uint256"}],"outputs":[{"name":"","type":"tuple","internalType":"struct IStakeRegistry.StrategyParams","components":[{"name":"strategy","type":"address","internalType":"contract IStrategy"},{"name":"multiplier","type":"uint96","internalType":"uint96"}]}],"stateMutability":"view"},{"type":"function","name":"strategyParamsLength","inputs":[{"name":"quorumNumber","type":"uint8","internalType":"uint8"}],"outputs":[{"name":"","type":"uint256","internalType":"uint256"}],"stateMutability":"view"},{"type":"function","name":"updateOperatorStake","inputs":[{"name":"operator","type":"address","internalType":"address"},{"name":"operatorId","type":"bytes32","internalType":"bytes32"},{"name":"quorumNumbers","type":"bytes","internalType":"bytes"}],"outputs":[{"name":"","type":"uint192","internalType":"uint192"}],"stateMutability":"nonpayable"},{"type":"function","name":"weightOfOperatorForQuorum","inputs":[{"name":"quorumNumber","type":"uint8","internalType":"uint8"},{"name":"operator","type":"address","internalType":"address"}],"outputs":[{"name":"","type":"uint96","internalType":"uint96"}],"stateMutability":"view"},{"type":"event","name":"MinimumStakeForQuorumUpdated","inputs":[{"name":"quorumNumber","type":"uint8","indexed":true,"internalType":"uint8"},{"name":"minimumStake","type":"uint96","indexed":false,"internalType":"uint96"}],"anonymous":false},{"type":"event","name":"OperatorStakeUpdate","inputs":[{"name":"operatorId","type":"bytes32","indexed":true,"internalType":"bytes32"},{"name":"quorumNumber","type":"uint8","indexed":false,"internalType":"uint8"},{"name":"stake","type":"uint96","indexed":false,"internalType":"uint96"}],"anonymous":false},{"type":"event","name":"QuorumCreated","inputs":[{"name":"quorumNumber","type":"uint8","indexed":true,"internalType":"uint8"}],"anonymous":false},{"type":"event","name":"StrategyAddedToQuorum","inputs":[{"name":"quorumNumber","type":"uint8","indexed":true,"internalType":"uint8"},{"name":"strategy","type":"address","indexed":false,"internalType":"contract IStrategy"}],"anonymous":false},{"type":"event","name":"StrategyMultiplierUpdated","inputs":[{"name":"quorumNumber","type":"uint8","indexed":true,"internalType":"uint8"},{"name":"strategy","type":"address","indexed":false,"internalType":"contract IStrategy"},{"name":"multiplier","type":"uint256","indexed":false,"internalType":"uint256"}],"anonymous":false},{"type":"event","name":"StrategyRemovedFromQuorum","inputs":[{"name":"quorumNumber","type":"uint8","indexed":true,"internalType":"uint8"},{"name":"strategy","type":"address","indexed":false,"internalType":"contract IStrategy"}],"anonymous":false}],"bytecode":{"object":"0x60c034609e57601f612a9c38819003918201601f19168301916001600160401b0383118484101760a3578084926040948552833981010312609e5780516001600160a01b0381169190829003609e5760200151906001600160a01b0382168203609e5760a0526080526040516129e290816100ba82396080518181816103d30152611a62015260a051818181610a2901528181611c330152611d500152f35b600080fd5b634e487b7160e01b600052604160045260246000fdfe608080604052600436101561001357600080fd5b60003560e01c9081630491b41c146114245750806308732461146113c55780631f9b74e01461137157806320b66298146111405780632550477714610fd45780632cd9594014610ed05780633ca5a5f514610e9c5780634bd26e0914610e595780635401ed2714610e315780635e5a677514610e0e5780635f1f2d7714610aef57806366acfefe14610a585780636d14a98714610a135780637c172347146109f857806381c075021461077b5780639f3ccf6514610720578063ac6bfb03146106ce578063adc804da14610664578063b6904b7814610622578063bc9a40c3146105e7578063bd29b8cd14610568578063c46778a51461052b578063c601527d146104d8578063c8294c561461048b578063d5eccc0514610429578063dd9846b914610402578063df5cf723146103bd578063f2be94ae1461034a578063f851e198146102ec578063fa28c627146102955763ff694a771461017457600080fd5b346102905760603660031901126102905761018d611454565b610195611619565b906044356001600160401b038111610290576101b590369060040161162f565b6101bd611d4e565b6101d78260ff166000526001602052604060002054151590565b61022d5760ff926101eb6101f192846122c9565b82612263565b16600052600160205261022b60406000206040519061020f82611582565b63ffffffff4316825260006020830152600060408301526118c8565b005b60405162461bcd60e51b815260206004820152603560248201527f5374616b6552656769737472792e696e697469616c697a6551756f72756d3a2060448201527471756f72756d20616c72656164792065786973747360581b6064820152608490fd5b600080fd5b346102905760206001600160601b036102de6102d86102b3366116d4565b908260009493945260028752604060002060ff821660005287526040600020936127d2565b90611474565b505460401c16604051908152f35b3461029057604036600319011261029057606061031261030a611464565b60043561181f565b61034860405180926001600160601b036040809263ffffffff815116855263ffffffff6020820151166020860152015116910152565bf35b346102905760803660031901126102905760206001600160601b03604061036f611454565b610377611606565b906044356000526002855260ff83600020911660005284526103b26103ab6103a58460002060643590611474565b5061177b565b918261266b565b015116604051908152f35b34610290576000366003190112610290576040517f00000000000000000000000000000000000000000000000000000000000000006001600160a01b03168152602090f35b3461029057602061041b610415366116d4565b916127d2565b63ffffffff60405191168152f35b346102905760203660031901126102905760ff610444611454565b16600090815260016020526040902080546000198101908111610475576102de6001600160601b0391602093611474565b634e487b7160e01b600052601160045260246000fd5b346102905760603660031901126102905760206001600160601b0360406104b0611454565b60ff6104ba611606565b9116600052600184526103b26103ab6103a560443585600020611474565b34610290576040366003190112610290576104f1611454565b602435906001600160401b0382116102905761051461022b92369060040161162f565b9061051d611c1e565b61052681611932565b6122c9565b346102905760203660031901126102905760ff610546611454565b16600052600060205260206001600160601b0360406000205416604051908152f35b34610290576040366003190112610290576004356024356001600160401b0381116102905761059b9036906004016114d2565b6105a6929192611d4e565b60005b8181106105b257005b806105e06105c3600193858861175b565b3560f81c6105d081611932565b6105da8187611e00565b90612189565b50016105a9565b346102905760403660031901126102905761022b610603611454565b61060b611619565b90610614611c1e565b61061d81611932565b612263565b346102905760403660031901126102905760ff61063d611454565b6106456117c2565b5016600052600160205260606103126103a56024356040600020611474565b346102905760403660031901126102905760ff61067f611454565b6106876117e1565b5016600052600360205260406106ab6106a560243583600020611474565b506117fa565b6001600160601b03602083519260018060a01b0381511684520151166020820152f35b34610290576060366003190112610290576106e7611454565b6106ef6117c2565b50602435600052600260205260ff6040600020911660005260205260606103126103a5604060002060443590611474565b3461029057604036600319011261029057610739611454565b60ff60243591166000526004602052604060002080548210156102905760209161076291611474565b905460405160039290921b1c6001600160a01b03168152f35b346102905760403660031901126102905760043563ffffffff8116809103610290576024356001600160401b038111610290576107bc9036906004016114d2565b91906107c7836115ef565b916107d560405193846115ce565b8383526107e1846115ef565b602084019490601f190136863760005b8181106108435785856040519182916020830190602084525180915260408301919060005b818110610824575050500390f35b825163ffffffff16845285945060209384019390920191600101610816565b610850818386989661175b565b3560f81c61085d81611932565b60008181526001602052604081208054156109e45790602091815220908463ffffffff6000935416116109535780825260016020526040822054825b8181106108b0575b505050506001019492946107f1565b8284526001602052604084206108c682846117b5565b60001981019190821161093f576108e3899263ffffffff92611474565b50541611156108f457600101610899565b906108ff92506117b5565b60001981019190821161092b57509063ffffffff600192166109218288611767565b52908780806108a1565b634e487b7160e01b81526011600452602490fd5b634e487b7160e01b86526011600452602486fd5b60405162461bcd60e51b815260206004820152605b60248201527f5374616b6552656769737472792e676574546f74616c5374616b65496e64696360448201527f65734174426c6f636b4e756d6265723a2071756f72756d20686173206e6f207360648201527f74616b6520686973746f727920617420626c6f636b4e756d6265720000000000608482015260a490fd5b634e487b7160e01b82526032600452602482fd5b34610290576000366003190112610290576020604051818152f35b34610290576000366003190112610290576040517f00000000000000000000000000000000000000000000000000000000000000006001600160a01b03168152602090f35b3461029057610a66366114ff565b929091610a71611d4e565b60009360005b818110610a92576040516001600160c01b0387168152602090f35b80610acb610aa3600193858961175b565b3560f81c610ab081611932565b610aba87826119d2565b15610ad2575b6105da908288611fc2565b5001610a77565b5083811b60c085901b859003908116991698909817976000610ac0565b3461029057604036600319011261029057610b08611454565b602435906001600160401b038211610290573660238301121561029057816004013591610b34836115ef565b92610b4260405194856115ce565b8084526024602085019160051b8301019136831161029057602401905b828210610dfe57505050610b71611c1e565b610b7a81611932565b8151908115610d935760ff1691826000526003602052604060002083600052600460205260406000209360005b848110610bb057005b817f31fa2e2cd280c9375e13ffcf3d81e2378100186e4058f8d3ddb690b82dcd31f76020610be8610be18589611767565b5187611474565b50546040516001600160a01b039091168152a2817f11a5641322da1dff56a4b66eaac31ffa465295ece907cd163437793b4d009a756040610c2c610be18589611767565b505481516001600160a01b03909116815260006020820152a28254600019810190811161047557610c5d9084611474565b50610c72610c6b8387611767565b5185611474565b610d4f57818103610d65575b505082548015610d395760001901610c968185611474565b610d4f576000905583558554600019810190811161047557610cbb610d059188611474565b905460039190911b1c6001600160a01b0316610ce1610cda8488611767565b5189611474565b81546001600160a01b0393841660039290921b91821b9390911b1916919091179055565b8554908115610d395760019160001901610d1f8189611474565b815490858060a01b039060031b1b19169055875501610ba7565b634e487b7160e01b600052603160045260246000fd5b634e487b7160e01b600052600060045260246000fd5b815481546001600160a01b039091166001600160a01b03199182168117835592541690911790558680610c7e565b60405162461bcd60e51b815260206004820152603d60248201527f5374616b6552656769737472792e72656d6f7665537472617465676965733a2060448201527f6e6f20696e646963657320746f2072656d6f76652070726f76696465640000006064820152608490fd5b8135815260209182019101610b5f565b34610290576000366003190112610290576020604051670de0b6b3a76400008152f35b346102905760403660031901126102905760206001600160601b0360406103b261030a611464565b3461029057604036600319011261029057610e72611464565b600435600052600260205260ff604060002091166000526020526020604060002054604051908152f35b346102905760203660031901126102905760ff610eb7611454565b1660005260036020526020604060002054604051908152f35b3461029057604036600319011261029057610ee9611464565b600435600052600260205260ff604060002091166000526020526040600020805490610f14826115ef565b91610f2260405193846115ce565b80835260208301809260005260206000206000915b838310610fb75784866040519182916020830190602084525180915260408301919060005b818110610f6a575050500390f35b919350916020606082610fa960019488516001600160601b036040809263ffffffff815116855263ffffffff6020820151166020860152015116910152565b019401910191849392610f5c565b600160208192610fc68561177b565b815201920192019190610f37565b3461029057610fe2366114ff565b90610fee939293611d4e565b610ff782611729565b9261100183611729565b9260005b81811061103a576110288661103687604051938493604085526040850190611545565b908382036020850152611545565b0390f35b61104581838661175b565b3560f81c9061105382611932565b61105d84836119d2565b929092156110af578281611077600195611093948d611fc2565b916001600160601b0361108a868d611767565b91169052612189565b6001600160601b036110a58389611767565b9116905201611005565b60405162461bcd60e51b815260206004820152605b60248201527f5374616b6552656769737472792e72656769737465724f70657261746f723a2060448201527f4f70657261746f7220646f6573206e6f74206d656574206d696e696d756d207360648201527f74616b6520726571756972656d656e7420666f722071756f72756d0000000000608482015260a490fd5b3461029057606036600319011261029057611159611454565b6024356001600160401b038111610290576111789036906004016114a2565b916044356001600160401b038111610290576111989036906004016114a2565b90916111a2611c1e565b6111ab81611932565b84156113075784820361129c5760ff169182600052600360205260406000209360005b8681106111d757005b806112296111f06111eb6001948888611705565b611715565b6112056111fe848c88611705565b358a611474565b5080546001600160a01b031660a09290921b6001600160a01b031916919091179055565b857f11a5641322da1dff56a4b66eaac31ffa465295ece907cd163437793b4d009a756112596111fe848c88611705565b50848060a01b039054166112716111eb858a8a611705565b604080516001600160a01b039390931683526001600160601b0391909116602083015290a2016111ce565b60405162461bcd60e51b815260206004820152603960248201527f5374616b6552656769737472792e6d6f6469667953747261746567795061726160448201527f6d733a20696e707574206c656e677468206d69736d61746368000000000000006064820152608490fd5b608460405162461bcd60e51b815260206004820152604060248201527f5374616b6552656769737472792e6d6f6469667953747261746567795061726160448201527f6d733a206e6f20737472617465677920696e64696365732070726f76696465646064820152fd5b346102905760403660031901126102905761138a611454565b602435906001600160a01b038216820361029057602091816113ae6113b393611932565b6119d2565b506001600160601b0360405191168152f35b34610290576040366003190112610290576113de611454565b60ff60243591166000526003602052604060002080548210156102905760409161140791611474565b505481516001600160a01b038216815260a09190911c6020820152f35b346102905760203660031901126102905760209060ff611442611454565b16600052600182526040600020548152f35b6004359060ff8216820361029057565b6024359060ff8216820361029057565b805482101561148c5760005260206000200190600090565b634e487b7160e01b600052603260045260246000fd5b9181601f84011215610290578235916001600160401b038311610290576020808501948460051b01011161029057565b9181601f84011215610290578235916001600160401b038311610290576020838186019501011161029057565b6060600319820112610290576004356001600160a01b0381168103610290579160243591604435906001600160401b03821161029057611541916004016114d2565b9091565b906020808351928381520192019060005b8181106115635750505090565b82516001600160601b0316845260209384019390920191600101611556565b606081019081106001600160401b0382111761159d57604052565b634e487b7160e01b600052604160045260246000fd5b604081019081106001600160401b0382111761159d57604052565b90601f801991011681019081106001600160401b0382111761159d57604052565b6001600160401b03811161159d5760051b60200190565b6024359063ffffffff8216820361029057565b602435906001600160601b038216820361029057565b81601f8201121561029057803590611646826115ef565b9261165460405194856115ce565b82845260208085019360061b8301019181831161029057602001925b82841061167e575050505090565b6040848303126102905760405190611695826115b3565b84356001600160a01b03811681036102905782526020850135906001600160601b03821682036102905782602092836040950152815201930192611670565b6060906003190112610290576004359060243560ff81168103610290579060443563ffffffff811681036102905790565b919081101561148c5760051b0190565b356001600160601b03811681036102905790565b90611733826115ef565b61174060405191826115ce565b8281528092611751601f19916115ef565b0190602036910137565b9082101561148c570190565b805182101561148c5760209160051b010190565b9060405161178881611582565b60406001600160601b0382945463ffffffff8116845263ffffffff8160201c166020850152821c16910152565b9190820391821161047557565b604051906117cf82611582565b60006040838281528260208201520152565b604051906117ee826115b3565b60006020838281520152565b90604051611807816115b3565b91546001600160a01b038116835260a01c6020830152565b906118286117c2565b50816000526002602052604060002060ff8216600052602052604060002054906118506117c2565b928261185c5750505090565b90919250600052600260205260ff604060002091166000526020526040600020600019820191821161047557611895916103a591611474565b90565b906bffffffffffffffffffffffff60401b82549160401b16906bffffffffffffffffffffffff60401b1916179055565b8054600160401b81101561159d576118e591600182018155611474565b610d4f578151815460208085015167ffffffff00000000911b1663ffffffff90921667ffffffffffffffff1990911617178155611930916001600160601b0390604001511690611898565b565b61194c9060ff166000526001602052604060002054151590565b1561195357565b60405162461bcd60e51b815260206004820152603160248201527f5374616b6552656769737472792e71756f72756d4578697374733a2071756f726044820152701d5b48191bd95cc81b9bdd08195e1a5cdd607a1b6064820152608490fd5b906001600160601b03809116911601906001600160601b03821161047557565b919060ff6000931690816000526003602052604060002054906000604051906119fa826115b3565b8082526020918201526000848152600480835260408083208151639004134760e01b81526001600160a01b03909616928601929092526024850152805460448501819052908252918120839260648401925b818110611bfc57506000939283900391508290507f00000000000000000000000000000000000000000000000000000000000000006001600160a01b03165afa908115611bf057600091611b56575b5060005b828110611acf5750505060005260006020526001600160601b03604060002054166001600160601b038316101590565b836000526003602052611ae96106a5826040600020611474565b611af38284611767565b51611b02575b50600101611a9f565b6001600160601b036020611b1984869a959a611767565b519201511690818102918183041490151715610475576001916001600160601b03670de0b6b3a7640000611b4f930416906119b2565b9590611af9565b3d8083833e611b6581836115ce565b810190602081830312611be8578051906001600160401b038211611bec570181601f82011215611be857805190611b9b826115ef565b93611ba960405195866115ce565b82855260208086019360051b830101938411611be55750602001905b828210611bd55750505038611a9b565b8151815260209182019101611bc5565b80fd5b8280fd5b8380fd5b6040513d6000823e3d90fd5b82546001600160a01b0316845285945060209093019260019283019201611a4c565b604051638da5cb5b60e01b81526020816004817f00000000000000000000000000000000000000000000000000000000000000006001600160a01b03165afa908115611bf057600091611d08575b506001600160a01b03163303611c7e57565b60405162461bcd60e51b815260206004820152605660248201527f5374616b6552656769737472792e6f6e6c79436f6f7264696e61746f724f776e60448201527f65723a2063616c6c6572206973206e6f7420746865206f776e6572206f6620746064820152753432903932b3b4b9ba393ca1b7b7b93234b730ba37b960511b608482015260a490fd5b6020813d602011611d46575b81611d21602093836115ce565b81010312611d425751906001600160a01b0382168203611be5575038611c6c565b5080fd5b3d9150611d14565b7f00000000000000000000000000000000000000000000000000000000000000006001600160a01b03163303611d8057565b60405162461bcd60e51b815260206004820152604c60248201527f5374616b6552656769737472792e6f6e6c795265676973747279436f6f72646960448201527f6e61746f723a2063616c6c6572206973206e6f7420746865205265676973747260648201526b3ca1b7b7b93234b730ba37b960a11b608482015260a490fd5b600090806000526002602052604060002060ff84166000526020526040600020548015600014611eb8575060008051602061296d83398151915260406001600160601b03948360005260026020528160002060ff8216600052602052611e8a82600020835190611e6f82611582565b63ffffffff43168252600060208301526000858301526118c8565b60ff82519116815260006020820152a216600081810391126000821281169060008313901516176104755790565b908092506000526002602052604060002060ff8416600052602052604060002090600019810190811161047557611eee91611474565b50908154916001600160601b038360401c16928315611fb8576001600160601b039460008051602061296d8339815191529260409263ffffffff43811691168103611f545750805473ffffffffffffffffffffffff000000000000000019169055611e8a565b815467ffffffff000000001916602082901b67ffffffff000000001617909155611fb3908560005260026020528360002060ff841660005260205283600020845191611f9f83611582565b8252600060208301526000858301526118c8565b611e8a565b5050505050600090565b919091600090806000526002602052604060002060ff8516600052602052604060002054801560001461207e575060008051602061296d83398151915260406001600160601b0380958460005260026020528260002060ff89166000526020526120518360002084519061203582611582565b63ffffffff4316825260006020830152848416868301526118c8565b60ff8351981688521695866020820152a21690600082820392128183128116918313901516176104755790565b908092506000526002602052604060002060ff85166000526020526040600020906000198101908111610475576120b491611474565b50908154916001600160601b038360401c16926001600160601b0385169081851461217d578560008051602061296d833981519152936001600160601b039763ffffffff6040958a95824316928391161460001461211c57505061211791611898565b612051565b835467ffffffff000000001916602083901b67ffffffff000000001617909355612117929091508760005260026020528560002060ff8c16600052602052856000209086519261216b84611582565b835260006020840152868301526118c8565b50505050505050600090565b60ff16600081815260016020526040902080549192916000198101908111610475576121b491611474565b509080156122505763ffffffff6121d98354926001600160601b038460401c16612921565b938492438316921682036121f257505061189591611898565b835467ffffffff000000001916602083901b67ffffffff00000000161790935561189592909150600052600160205260406000206040519161223383611582565b8252600060208301526001600160601b03841660408301526118c8565b506001600160601b0391505460401c1690565b602060ff7f26eecff2b70b0a71104ff4d940ba7162d23a95c248771fc487a7be17a596b3cf92169283600052600082526001600160601b036040600020911690816001600160601b0319825416179055604051908152a2565b9190820180921161047557565b8151156126125760ff82519116918260005260036020526040600020549260206122f384866122bc565b116125ab576000925b80841061230a575050505050565b909192939460005b61231c86886122bc565b8110156123bb5783600052600360205261233a816040600020611474565b50546001600160a01b03908116906123528888611767565b5151161461236257600101612312565b60405162461bcd60e51b815260206004820152603d602482015260008051602061298d83398151915260448201527f3a2063616e6e6f74206164642073616d652073747261746567792032780000006064820152608490fd5b509493929190926001600160601b0360206123d68386611767565b51015116156125435781600052600360205260406000206123f78285611767565b51908054600160401b81101561159d5761241691600182018155611474565b610d4f5781516020929092015160a01b6001600160a01b0319166001600160a01b03929092169190911790556000828152600460205260409020906001600160a01b036124638286611767565b515116825490600160401b82101561159d57610ce1826001958661248995018155611474565b827f10565e56cacbf32eca267945f054fec02e59750032d113d3302182ad967f54046020848060a01b036124bd8589611767565b515116604051908152a2827f11a5641322da1dff56a4b66eaac31ffa465295ece907cd163437793b4d009a75838060a01b036124f98488611767565b5151166001600160601b036020612510868a611767565b510151604080516001600160a01b0394909416845291166001600160601b03166020830152819081010390a201926122fc565b60405162461bcd60e51b8152602060048201526046602482015260008051602061298d83398151915260448201527f3a2063616e6e6f74206164642073747261746567792077697468207a65726f206064820152651dd95a59da1d60d21b608482015260a490fd5b60405162461bcd60e51b8152602060048201526045602482015260008051602061298d83398151915260448201527f3a20657863656564204d41585f5745494748494e475f46554e4354494f4e5f4c60648201526408a9c8ea8960db1b608482015260a490fd5b60405162461bcd60e51b8152602060048201526038602482015260008051602061298d83398151915260448201527f3a206e6f20737472617465676965732070726f766964656400000000000000006064820152608490fd5b63ffffffff808251169216918210612748576020015163ffffffff16801591821561273e575b50501561269a57565b60405162461bcd60e51b815260206004820152606a60248201527f5374616b6552656769737472792e5f76616c69646174655374616b655570646160448201527f74654174426c6f636b4e756d6265723a2074686572652069732061206e65776560648201527f72207374616b6555706461746520617661696c61626c65206265666f726520626084820152693637b1b5a73ab6b132b960b11b60a482015260c490fd5b1090503880612691565b60405162461bcd60e51b815260206004820152605660248201527f5374616b6552656769737472792e5f76616c69646174655374616b655570646160448201527f74654174426c6f636b4e756d6265723a207374616b6555706461746520697320606482015275333937b69030b33a32b910313637b1b5a73ab6b132b960511b608482015260a490fd5b92919092806000526002602052604060002060ff8516600052602052604060002054805b6128bb5760405162461bcd60e51b815260206004820152608160248201527f5374616b6552656769737472792e5f6765745374616b65557064617465496e6460448201527f6578466f724f70657261746f724174426c6f636b4e756d6265723a206e6f207360648201527f74616b652075706461746520666f756e6420666f72206f70657261746f72496460848201527f20616e642071756f72756d4e756d62657220617420626c6f636b206e756d626560a4820152603960f91b60c482015260e490fd5b81600052600260205260408060002060009060ff8816825260205220600019820190828211610475576128f38263ffffffff92611474565b50541663ffffffff85161015612914575080156104755760001901806127f6565b63ffffffff169450505050565b90600081121561295857600160ff1b8114610475576001600160601b038091600003169116036001600160601b0381116104755790565b906001600160601b036118959216906119b256fe2f527d527e95d8fe40aec55377743bb779087da3f6d0d08f12e36444da62327d5374616b6552656769737472792e5f6164645374726174656779506172616d73a2646970667358221220f0d18f2e2b70f53f067e64da43d0249596a83f641b7d89b1ee198941287fcc7c64736f6c634300081a0033","linkReferences":{}},"methodIdentifiers":{"MAX_WEIGHING_FUNCTION_LENGTH()":"7c172347","WEIGHTING_DIVISOR()":"5e5a6775","addStrategies(uint8,(address,uint96)[])":"c601527d","delegation()":"df5cf723","deregisterOperator(bytes32,bytes)":"bd29b8cd","getCurrentStake(bytes32,uint8)":"5401ed27","getCurrentTotalStake(uint8)":"d5eccc05","getLatestStakeUpdate(bytes32,uint8)":"f851e198","getStakeAtBlockNumber(bytes32,uint8,uint32)":"fa28c627","getStakeAtBlockNumberAndIndex(uint8,uint32,bytes32,uint256)":"f2be94ae","getStakeHistory(bytes32,uint8)":"2cd95940","getStakeHistoryLength(bytes32,uint8)":"4bd26e09","getStakeUpdateAtIndex(uint8,bytes32,uint256)":"ac6bfb03","getStakeUpdateIndexAtBlockNumber(bytes32,uint8,uint32)":"dd9846b9","getTotalStakeAtBlockNumberFromIndex(uint8,uint32,uint256)":"c8294c56","getTotalStakeHistoryLength(uint8)":"0491b41c","getTotalStakeIndicesAtBlockNumber(uint32,bytes)":"81c07502","getTotalStakeUpdateAtIndex(uint8,uint256)":"b6904b78","initializeQuorum(uint8,uint96,(address,uint96)[])":"ff694a77","minimumStakeForQuorum(uint8)":"c46778a5","modifyStrategyParams(uint8,uint256[],uint96[])":"20b66298","registerOperator(address,bytes32,bytes)":"25504777","registryCoordinator()":"6d14a987","removeStrategies(uint8,uint256[])":"5f1f2d77","setMinimumStakeForQuorum(uint8,uint96)":"bc9a40c3","strategiesPerQuorum(uint8,uint256)":"9f3ccf65","strategyParams(uint8,uint256)":"08732461","strategyParamsByIndex(uint8,uint256)":"adc804da","strategyParamsLength(uint8)":"3ca5a5f5","updateOperatorStake(address,bytes32,bytes)":"66acfefe","weightOfOperatorForQuorum(uint8,address)":"1f9b74e0"},"id":85}