{"abi":[{"type":"constructor","inputs":[{"name":"_avsDirectory","type":"address","internalType":"address"},{"name":"_stakeRegistry","type":"address","internalType":"address"},{"name":"_rewardsCoordinator","type":"address","internalType":"address"},{"name":"_delegationManager","type":"address","internalType":"address"}],"stateMutability":"nonpayable"},{"type":"function","name":"allClaimHashes","inputs":[{"name":"","type":"uint32","internalType":"uint32"}],"outputs":[{"name":"","type":"bytes32","internalType":"bytes32"}],"stateMutability":"view"},{"type":"function","name":"allClaimResponses","inputs":[{"name":"","type":"address","internalType":"address"},{"name":"","type":"uint32","internalType":"uint32"}],"outputs":[{"name":"","type":"bytes","internalType":"bytes"}],"stateMutability":"view"},{"type":"function","name":"approveClaimSpending","inputs":[{"name":"claim","type":"tuple","internalType":"struct IInsuranceServiceManager.Claim","components":[{"name":"pool","type":"address","internalType":"address"},{"name":"insured","type":"address","internalType":"address"},{"name":"amount","type":"uint256","internalType":"uint256"},{"name":"index","type":"uint256","internalType":"uint256"},{"name":"proofUri","type":"string","internalType":"string"},{"name":"claimCreatedBlock","type":"uint32","internalType":"uint32"},{"name":"isApproved","type":"bool","internalType":"bool"}]},{"name":"referenceClaimIndex","type":"uint32","internalType":"uint32"},{"name":"signature","type":"bytes","internalType":"bytes"}],"outputs":[],"stateMutability":"nonpayable"},{"type":"function","name":"avsDirectory","inputs":[],"outputs":[{"name":"","type":"address","internalType":"address"}],"stateMutability":"view"},{"type":"function","name":"createAVSRewardsSubmission","inputs":[{"name":"rewardsSubmissions","type":"tuple[]","internalType":"struct IRewardsCoordinator.RewardsSubmission[]","components":[{"name":"strategiesAndMultipliers","type":"tuple[]","internalType":"struct IRewardsCoordinator.StrategyAndMultiplier[]","components":[{"name":"strategy","type":"address","internalType":"contract IStrategy"},{"name":"multiplier","type":"uint96","internalType":"uint96"}]},{"name":"token","type":"address","internalType":"contract IERC20"},{"name":"amount","type":"uint256","internalType":"uint256"},{"name":"startTimestamp","type":"uint32","internalType":"uint32"},{"name":"duration","type":"uint32","internalType":"uint32"}]}],"outputs":[],"stateMutability":"nonpayable"},{"type":"function","name":"createNewClaim","inputs":[{"name":"pool","type":"address","internalType":"address"},{"name":"insured","type":"address","internalType":"address"},{"name":"amount","type":"uint256","internalType":"uint256"},{"name":"index","type":"uint256","internalType":"uint256"}],"outputs":[],"stateMutability":"nonpayable"},{"type":"function","name":"deregisterOperatorFromAVS","inputs":[{"name":"operator","type":"address","internalType":"address"}],"outputs":[],"stateMutability":"nonpayable"},{"type":"function","name":"factory","inputs":[],"outputs":[{"name":"","type":"address","internalType":"address"}],"stateMutability":"view"},{"type":"function","name":"getOperatorRestakedStrategies","inputs":[{"name":"_operator","type":"address","internalType":"address"}],"outputs":[{"name":"","type":"address[]","internalType":"address[]"}],"stateMutability":"view"},{"type":"function","name":"getRestakeableStrategies","inputs":[],"outputs":[{"name":"","type":"address[]","internalType":"address[]"}],"stateMutability":"view"},{"type":"function","name":"inisiator","inputs":[],"outputs":[{"name":"","type":"address","internalType":"address"}],"stateMutability":"view"},{"type":"function","name":"initialize","inputs":[{"name":"_factory","type":"address","internalType":"address"},{"name":"_operatorPublicKey","type":"string","internalType":"string"}],"outputs":[],"stateMutability":"nonpayable"},{"type":"function","name":"latestClaimNum","inputs":[],"outputs":[{"name":"","type":"uint32","internalType":"uint32"}],"stateMutability":"view"},{"type":"function","name":"mergeAddresses","inputs":[{"name":"_addr1","type":"address","internalType":"address"},{"name":"_addr2","type":"address","internalType":"address"}],"outputs":[{"name":"","type":"string","internalType":"string"}],"stateMutability":"pure"},{"type":"function","name":"operatorPublicKey","inputs":[],"outputs":[{"name":"","type":"string","internalType":"string"}],"stateMutability":"view"},{"type":"function","name":"owner","inputs":[],"outputs":[{"name":"","type":"address","internalType":"address"}],"stateMutability":"view"},{"type":"function","name":"registerOperatorToAVS","inputs":[{"name":"operator","type":"address","internalType":"address"},{"name":"operatorSignature","type":"tuple","internalType":"struct ISignatureUtils.SignatureWithSaltAndExpiry","components":[{"name":"signature","type":"bytes","internalType":"bytes"},{"name":"salt","type":"bytes32","internalType":"bytes32"},{"name":"expiry","type":"uint256","internalType":"uint256"}]}],"outputs":[],"stateMutability":"nonpayable"},{"type":"function","name":"renounceOwnership","inputs":[],"outputs":[],"stateMutability":"nonpayable"},{"type":"function","name":"respondToClaim","inputs":[{"name":"claim","type":"tuple","internalType":"struct IInsuranceServiceManager.Claim","components":[{"name":"pool","type":"address","internalType":"address"},{"name":"insured","type":"address","internalType":"address"},{"name":"amount","type":"uint256","internalType":"uint256"},{"name":"index","type":"uint256","internalType":"uint256"},{"name":"proofUri","type":"string","internalType":"string"},{"name":"claimCreatedBlock","type":"uint32","internalType":"uint32"},{"name":"isApproved","type":"bool","internalType":"bool"}]},{"name":"referenceClaimIndex","type":"uint32","internalType":"uint32"},{"name":"signature","type":"bytes","internalType":"bytes"}],"outputs":[],"stateMutability":"nonpayable"},{"type":"function","name":"rewardsInitiator","inputs":[],"outputs":[{"name":"","type":"address","internalType":"address"}],"stateMutability":"view"},{"type":"function","name":"setRewardsInitiator","inputs":[{"name":"newRewardsInitiator","type":"address","internalType":"address"}],"outputs":[],"stateMutability":"nonpayable"},{"type":"function","name":"stakeRegistry","inputs":[],"outputs":[{"name":"","type":"address","internalType":"address"}],"stateMutability":"view"},{"type":"function","name":"transferOwnership","inputs":[{"name":"newOwner","type":"address","internalType":"address"}],"outputs":[],"stateMutability":"nonpayable"},{"type":"function","name":"updateAVSMetadataURI","inputs":[{"name":"_metadataURI","type":"string","internalType":"string"}],"outputs":[],"stateMutability":"nonpayable"},{"type":"event","name":"ClaimResponded","inputs":[{"name":"claimIndex","type":"uint32","indexed":true,"internalType":"uint32"},{"name":"claim","type":"tuple","indexed":false,"internalType":"struct IInsuranceServiceManager.Claim","components":[{"name":"pool","type":"address","internalType":"address"},{"name":"insured","type":"address","internalType":"address"},{"name":"amount","type":"uint256","internalType":"uint256"},{"name":"index","type":"uint256","internalType":"uint256"},{"name":"proofUri","type":"string","internalType":"string"},{"name":"claimCreatedBlock","type":"uint32","internalType":"uint32"},{"name":"isApproved","type":"bool","internalType":"bool"}]},{"name":"operator","type":"address","indexed":false,"internalType":"address"}],"anonymous":false},{"type":"event","name":"Initialize","inputs":[{"name":"factory","type":"address","indexed":false,"internalType":"address"},{"name":"operatorPublicKey","type":"string","indexed":false,"internalType":"string"}],"anonymous":false},{"type":"event","name":"Initialized","inputs":[{"name":"version","type":"uint8","indexed":false,"internalType":"uint8"}],"anonymous":false},{"type":"event","name":"NewClaimCreated","inputs":[{"name":"claimIndex","type":"uint32","indexed":true,"internalType":"uint32"},{"name":"claim","type":"tuple","indexed":false,"internalType":"struct IInsuranceServiceManager.Claim","components":[{"name":"pool","type":"address","internalType":"address"},{"name":"insured","type":"address","internalType":"address"},{"name":"amount","type":"uint256","internalType":"uint256"},{"name":"index","type":"uint256","internalType":"uint256"},{"name":"proofUri","type":"string","internalType":"string"},{"name":"claimCreatedBlock","type":"uint32","internalType":"uint32"},{"name":"isApproved","type":"bool","internalType":"bool"}]}],"anonymous":false},{"type":"event","name":"OwnershipTransferred","inputs":[{"name":"previousOwner","type":"address","indexed":true,"internalType":"address"},{"name":"newOwner","type":"address","indexed":true,"internalType":"address"}],"anonymous":false},{"type":"event","name":"RewardsInitiatorUpdated","inputs":[{"name":"prevRewardsInitiator","type":"address","indexed":false,"internalType":"address"},{"name":"newRewardsInitiator","type":"address","indexed":false,"internalType":"address"}],"anonymous":false}],"bytecode":{"object":"0x6101003461019957601f61224538819003918201601f19168301916001600160401b0383118484101761019e5780849260809460405283398101031261019957610048816101b4565b90610055602082016101b4565b61006d6060610066604085016101b4565b93016101b4565b9260a05260805260c05260e05260005460ff8160081c166101445760ff80821610610109575b609a80546001600160a01b0319163317905560405161207c90816101c98239608051818181610c0d01528181610fab015281816110e4015281816112ca0152611526015260a051818181610f1601528181610fdb0152818161110d0152611285015260c05181610190015260e051816115ed0152f35b60ff90811916176000557f7f26b83ff96e1f2b6a682f133852f6798a09c465da95921460cefb3847402498602060405160ff8152a138610093565b60405162461bcd60e51b815260206004820152602760248201527f496e697469616c697a61626c653a20636f6e747261637420697320696e697469604482015266616c697a696e6760c81b6064820152608490fd5b600080fd5b634e487b7160e01b600052604160045260246000fd5b51906001600160a01b03821682036101995756fe6080604052600436101561001257600080fd5b6000803560e01c806301dd2f67146117ff5780630bd3c1ca146117d657806333cfb7b7146114f55780633bc28c8c146114745780634eb2d10c146113ee5780635ca8c8c2146112f957806368304835146112b45780636b3aa72e1461126f5780636c09be8f14611236578063715018a6146111d95780638da5cb5b146111b05780639926ee7d14611043578063a364f4da14610f8a578063a98fb35514610ec9578063af38c76114610e8a578063bb54ccf014610ce7578063c45a015514610cbe578063e481af9d14610be8578063e9173a38146108d7578063eaf40bcd146108b3578063f2fde38b146107ea578063f399e22e146105f1578063fc299dee146105c85763fce36c7d1461012557600080fd5b3461023157602036600319011261023157600435906001600160401b0382116102315736602383011215610231578160040135916001600160401b0383116105c457602481018360051b9336602486850101116105c0576065546001600160a01b0316330361053b577f00000000000000000000000000000000000000000000000000000000000000006001600160a01b0381169590855b838110610374575050853b1561037057906040519363fce36c7d60e01b8552816024860160206004880152526044808601938601019392869160c219813603015b84841061023f5788808981818e8183818f03925af18015610234576102205750f35b8161022a91611920565b6102315780f35b80fd5b6040513d84823e3d90fd5b90919293949560431988820301845286358281121561036c5760a08201919084016024810135604219368390030181121561031d57816024910101602081359101936001600160401b038211610368578160061b3603851361036857819060a085525260c0830193908c905b8082106103215750505060448101356001600160a01b0381169081900361031d579282608063ffffffff61030960a460209796600199898099015260648101356040870152836102fd608483016118d9565b166060870152016118d9565b1691015298019401940192949391906101fe565b8b80fd5b909194853560018060a01b03811680910361036457815260208601356001600160601b0381168091036103645760208201526040908101950191600101906102ab565b8e80fd5b8c80fd5b8980fd5b8480fd5b8660206001600160a01b036103948261038e868a8c61200c565b01611ba9565b16606460406103a4868a8c61200c565b013560405194859384926323b872dd60e01b845233600485015230602485015260448401525af180156104cb5761051f575b506001600160a01b036103ef602061038e84888a61200c565b604051636eb1769f60e11b81523060048201526001600160a01b03851660248201529160209183916044918391165afa9081156104cb5788916104ea575b506001600160a01b03610446602061038e85898b61200c565b1690604061045584888a61200c565b01359081018091116104d65760209060448b8b604051958694859363095ea7b360e01b8552600485015260248401525af180156104cb57906001929161049d575b50016101bd565b6104bd9060203d81116104c4575b6104b58183611920565b81019061202e565b5038610496565b503d6104ab565b6040513d8a823e3d90fd5b634e487b7160e01b89526011600452602489fd5b90506020813d8211610517575b8161050460209383611920565b8101031261051357513861042d565b8780fd5b3d91506104f7565b6105369060203d81116104c4576104b58183611920565b6103d6565b60405162461bcd60e51b815260206004820152605160248201527f4543445341536572766963654d616e61676572426173652e6f6e6c795265776160448201527f726473496e69746961746f723a2063616c6c6572206973206e6f7420746865206064820152703932bbb0b932399034b734ba34b0ba37b960791b608482015260a490fd5b8380fd5b5080fd5b50346102315780600319360112610231576065546040516001600160a01b039091168152602090f35b50346102315760403660031901126102315761060b611a03565b90602435916001600160401b0383116105c457366023840112156105c4578260040135906001600160401b0382116107e65736602483860101116107e65760018060a01b03166001600160601b0360a01b609954161760995561066f609854611ace565b601f811161078d575b5081601f821160011461070657819083946106a894926106f8575b50508160011b916000199060031b1c19161790565b6098555b7fe67ddf372291fd94b39c4645817076a797a73cfdfbbf169187f7e5c374dfaeb060018060a01b036099541660405190815260406020820152806106f260408201611b08565b0390a180f35b602492500101353880610693565b60988352601f198216937f2237a976fa961f5921fd19f2b03c925c725d77b20ce8f790c19709c03de4d81491845b8681106107725750836001959610610755575b505050811b016098556106ac565b0160240135600019600384901b60f8161c19169055388080610747565b90926020600181926024878701013581550194019101610734565b609883526107d6907f2237a976fa961f5921fd19f2b03c925c725d77b20ce8f790c19709c03de4d814601f840160051c810191602085106107dc575b601f0160051c0190611cce565b38610678565b90915081906107c9565b8280fd5b503461023157602036600319011261023157610804611a03565b61080c611e8a565b6001600160a01b0316801561085f57603380546001600160a01b0319811683179091556001600160a01b03167f8be0079c531659141344cd1fd0a4f28419497f9722a3daafe3b4186f6b6457e08380a380f35b60405162461bcd60e51b815260206004820152602660248201527f4f776e61626c653a206e6577206f776e657220697320746865207a65726f206160448201526564647265737360d01b6064820152608490fd5b5034610231578060031936011261023157602063ffffffff60975416604051908152f35b5034610231576108e6366119a5565b338452609c602052604080852060009063ffffffff8516825260205220908051906001600160401b038211610bd45761091f8354611ace565b601f8111610ba4575b50602090601f8311600114610b41576109589291879183610b365750508160011b916000199060031b1c19161790565b90555b6020820161096881611ba9565b6080840160608501356040860135876109818489611bbd565b60c08a0196916109c29061099489611bef565b92604051946109a2866118ef565b6001600160a01b0316855260208501879052604085018890523691611941565b6060830152151560808201526001600160a01b036109df8a611ba9565b16803b156107e657604051630827fddf60e11b81529183918391829084908290610a0c9060048301611bfc565b03925af1801561023457610b21575b505060408051908152946001600160a01b03610a3689611a2f565b1660408701526001600160a01b0390610a4e90611a2f565b166060860152608085015260a084015235601e1985360301811215610b1d57840193602085359501906001600160401b038611610b19578536038213610b195760a0610abe918763ffffffff9460e060c089015281610120890152610140880137886101408988010152016118d9565b1660e083015235801515809103610370578163ffffffff7fb073cf1c3bdb25413c9bf798071ca4948dc470d360ccabe5bf4197a0efd3c9d094610140936101008401523360208401521694601f80199101168101030190a280f35b8680fd5b8580fd5b81610b2b91611920565b610513578738610a1b565b015190503880610693565b8387528187209190601f198416885b818110610b8c5750908460019594939210610b73575b505050811b01905561095b565b015160001960f88460031b161c19169055388080610b66565b92936020600181928786015181550195019301610b50565b610bce9084885260208820601f850160051c810191602086106107dc57601f0160051c0190611cce565b38610928565b634e487b7160e01b86526041600452602486fd5b50346102315780600319360112610231576040516302e0740360e31b815281816004817f00000000000000000000000000000000000000000000000000000000000000006001600160a01b03165afa908115610234578291610c9c575b50610c51815151611e58565b915b81518051821015610c8a57600191906001600160a01b0390610c76908390611e09565b515116610c838286611e09565b5201610c53565b60405180610c988682611a43565b0390f35b610cb891503d8084833e610cb08183611920565b810190611cfc565b38610c45565b50346102315780600319360112610231576099546040516001600160a01b039091168152602090f35b503461023157608036600319011261023157610d01611a03565b610d09611a19565b9060405160e081018181106001600160401b03821117610e7657604090815260606080830181815260c084018781526001600160a01b039586168086529690951660208086018281526044358787019081526064358887019081524363ffffffff1660a08a0190815288519485019b8c52848901959095529683529398600198969794967f445c94111ba1ba3f9276ecf50724c543641c207bb13dcd43a0c35ddf17ab312396929594939092610dbf9082611920565b51902063ffffffff609754168b52609b60205260408b205563ffffffff610e2e6097549a828c16998a9960405198899860208a528e8060a01b0390511660208a01528d8060a01b0390511660408901525160608801525160808701525160e060a0870152610100860190611aa9565b92511660c084015251151560e08301520390a20163ffffffff8111610e625763ffffffff169063ffffffff19161760975580f35b634e487b7160e01b83526011600452602483fd5b634e487b7160e01b85526041600452602485fd5b5034610231578060031936011261023157610c98604051610eb581610eae81611b08565b0382611920565b604051918291602083526020830190611aa9565b503461023157602036600319011261023157806004356001600160401b038111610f875736602382011215610f8757610f0c903690602481600401359101611941565b610f14611e8a565b7f00000000000000000000000000000000000000000000000000000000000000006001600160a01b0316803b15610f835760405163a98fb35560e01b8152602060048201529183918391829084908290610f72906024830190611aa9565b03925af18015610234576102205750f35b5050fd5b50fd5b50346102315760203660031901126102315780610fa5611a03565b610fd9337f00000000000000000000000000000000000000000000000000000000000000006001600160a01b031614611c49565b7f00000000000000000000000000000000000000000000000000000000000000006001600160a01b031690813b15610f83576040516351b27a6d60e11b81526001600160a01b0390911660048201529082908290602490829084905af18015610234576102205750f35b50346102315760403660031901126102315761105d611a03565b906024356001600160401b0381116105c457606060031982360301126105c45760405160608101938185106001600160401b0386111761119c57839460405282600401356001600160401b038111610370576110bf9060043691860101611987565b8252602082019160248401358352604460408201940135845261110b60018060a01b037f0000000000000000000000000000000000000000000000000000000000000000163314611c49565b7f00000000000000000000000000000000000000000000000000000000000000006001600160a01b031690813b15610b1d578561117e93819560405197889687958694639926ee7d60e01b865260018060a01b0316600486015260406024860152516060604486015260a4850190611aa9565b9151606484015251608483015203925af18015610234576102205750f35b634e487b7160e01b84526041600452602484fd5b50346102315780600319360112610231576033546040516001600160a01b039091168152602090f35b50346102315780600319360112610231576111f2611e8a565b603380546001600160a01b0319811690915581906001600160a01b03167f8be0079c531659141344cd1fd0a4f28419497f9722a3daafe3b4186f6b6457e08280a380f35b50346102315760203660031901126102315760043563ffffffff81168091036105c4578160409160209352609b83522054604051908152f35b50346102315780600319360112610231576040517f00000000000000000000000000000000000000000000000000000000000000006001600160a01b03168152602090f35b50346102315780600319360112610231576040517f00000000000000000000000000000000000000000000000000000000000000006001600160a01b03168152602090f35b503461023157604036600319011261023157611313611a03565b6024359063ffffffff821682036107e65760018060a01b03168252609c60205263ffffffff604083209116600052602052604060002090604051918181549161135b83611ace565b80865292600181169081156113c45750600114611383575b610c9885610eb581870382611920565b815260208120939250905b8082106113aa57509091508101602001610eb582610c98611373565b91926001816020925483858801015201910190929161138e565b869550610c9896935060209250610eb594915060ff191682840152151560051b8201019293611373565b503461023157604036600319011261023157610c9861140b611a03565b610eb5600161142a61142461141e611a19565b94611ee2565b93611ee2565b92602060405194826114458794518092858088019101611a86565b8301600160fd1b838201526114638251809385602185019101611a86565b01010301601f198101835282611920565b50346102315760203660031901126102315761148e611a03565b611496611e8a565b606554604080516001600160a01b038084168252841660208201529192917fe11cddf1816a43318ca175bbc52cd0185436e9cbead7c83acc54a73e461717e39190a16001600160a01b03166001600160a01b0319919091161760655580f35b50346102315760203660031901126102315761150f611a03565b6040516302e0740360e31b815290919081816004817f00000000000000000000000000000000000000000000000000000000000000006001600160a01b03165afa9081156102345782916117bc575b50918251519161156d83611ce5565b9161157b6040519384611920565b83835261158784611ce5565b602084019590601f1901368737825b85811061178e57505060408051639004134760e01b81526001600160a01b0390921660048301526024820152825160448201819052909490829086906064820190835b8181106117695750929350909150819003817f00000000000000000000000000000000000000000000000000000000000000006001600160a01b03165afa93841561175c5781946116ca575b5080815b84811061169e575061163a90611e58565b93815b8481106116525760405180610c988882611a43565b61165c8183611e09565b5161166a575b60010161163d565b91600190611696906001600160a01b036116848688611e09565b5116611690828a611e09565b52611e33565b929050611662565b6116a88187611e09565b516116b6575b600101611629565b906116c2600191611e33565b9190506116ae565b9093503d8085833e6116dc8183611920565b810190602081830312610370578051906001600160401b038211610b1d57019080601f8301121561037057815161171281611ce5565b926117206040519485611920565b81845260208085019260051b820101928311610b1957602001905b82821061174c575050509238611625565b815181526020918201910161173b565b50604051903d90823e3d90fd5b85516001600160a01b031683526020958601958795508a9450909201916001016115d9565b600190818060a09995991b036117a5828551611e09565b5151166117b28288611e09565b5201959195611596565b6117d091503d8084833e610cb08183611920565b3861155e565b5034610231578060031936011261023157609a546040516001600160a01b039091168152602090f35b5034610231578061180f366119a5565b505061181d60208201611ba9565b9061187061182e6080830183611bbd565b919061183c60c08501611bef565b926040519561184a876118ef565b6001600160a01b0316865260408581013560208801526060860135908701523691611941565b6060840152151560808301526001600160a01b039061188e90611ba9565b16803b15610f83576118ba83929183926040519586809481936365c33d8760e01b835260048301611bfc565b03925af1801561175c576118cb5780f35b6118d491611920565b388180f35b359063ffffffff821682036118ea57565b600080fd5b60a081019081106001600160401b0382111761190a57604052565b634e487b7160e01b600052604160045260246000fd5b90601f801991011681019081106001600160401b0382111761190a57604052565b9291926001600160401b03821161190a576040519161196a601f8201601f191660200184611920565b8294818452818301116118ea578281602093846000960137010152565b9080601f830112156118ea578160206119a293359101611941565b90565b60606003198201126118ea576004356001600160401b0381116118ea5760e081830360031901126118ea576004019160243563ffffffff811681036118ea5791604435906001600160401b0382116118ea576119a291600401611987565b600435906001600160a01b03821682036118ea57565b602435906001600160a01b03821682036118ea57565b35906001600160a01b03821682036118ea57565b602060408183019282815284518094520192019060005b818110611a675750505090565b82516001600160a01b0316845260209384019390920191600101611a5a565b60005b838110611a995750506000910152565b8181015183820152602001611a89565b90602091611ac281518092818552858086019101611a86565b601f01601f1916010190565b90600182811c92168015611afe575b6020831014611ae857565b634e487b7160e01b600052602260045260246000fd5b91607f1691611add565b60985460009291611b1882611ace565b8082529160018116908115611b8d5750600114611b33575050565b609860009081529293509091907f2237a976fa961f5921fd19f2b03c925c725d77b20ce8f790c19709c03de4d8145b838310611b73575060209250010190565b600181602092949394548385870101520191019190611b62565b9050602093945060ff929192191683830152151560051b010190565b356001600160a01b03811681036118ea5790565b903590601e19813603018212156118ea57018035906001600160401b0382116118ea576020019181360383136118ea57565b3580151581036118ea5790565b6020815260018060a01b038251166020820152602082015160408201526040820151606082015260a06080611c3e6060850151838386015260c0850190611aa9565b930151151591015290565b15611c5057565b60405162461bcd60e51b815260206004820152604a60248201527f4543445341536572766963654d616e61676572426173652e6f6e6c795374616b60448201527f6552656769737472793a2063616c6c6572206973206e6f7420746865207374616064820152696b65526567697374727960b01b608482015260a490fd5b818110611cd9575050565b60008155600101611cce565b6001600160401b03811161190a5760051b60200190565b6020818303126118ea578051906001600160401b0382116118ea5701906020828203126118ea5760405191602083018381106001600160401b0382111761190a576040528051906001600160401b0382116118ea570181601f820112156118ea57805190611d6982611ce5565b92611d776040519485611920565b82845260208085019360061b830101918183116118ea57602001925b828410611da35750505050815290565b6040848303126118ea5760405190604082018281106001600160401b0382111761190a5760405284516001600160a01b03811681036118ea5782526020850151906001600160601b03821682036118ea5782602092836040950152815201930192611d93565b8051821015611e1d5760209160051b010190565b634e487b7160e01b600052603260045260246000fd5b6000198114611e425760010190565b634e487b7160e01b600052601160045260246000fd5b90611e6282611ce5565b611e6f6040519182611920565b8281528092611e80601f1991611ce5565b0190602036910137565b6033546001600160a01b03163303611e9e57565b606460405162461bcd60e51b815260206004820152602060248201527f4f776e61626c653a2063616c6c6572206973206e6f7420746865206f776e65726044820152fd5b60018060a01b0316604051611ef8606082611920565b602a815260208101916040368437815115611e1d5760308353815160011015611e1d576078602183015360295b60018111611fae5750611f6a5760226119a291611f599360405194859261060f60f31b602085015251809285850190611a86565b81010301601f198101835282611920565b606460405162461bcd60e51b815260206004820152602060248201527f537472696e67733a20686578206c656e67746820696e73756666696369656e746044820152fd5b90600f81166010811015611e1d5760008451841015611ff857506f181899199a1a9b1b9c1cb0b131b232b360811b901a8383016020015360041c908015611e425760001901611f25565b634e487b7160e01b81526032600452602490fd5b9190811015611e1d5760051b81013590609e19813603018212156118ea570190565b908160209103126118ea575180151581036118ea579056fea26469706673582212208af78c90b80b9974f8ce7906684c290318d93c2cf8d32c10d1818df9e47239f264736f6c634300081a0033","linkReferences":{}},"methodIdentifiers":{"allClaimHashes(uint32)":"6c09be8f","allClaimResponses(address,uint32)":"5ca8c8c2","approveClaimSpending((address,address,uint256,uint256,string,uint32,bool),uint32,bytes)":"01dd2f67","avsDirectory()":"6b3aa72e","createAVSRewardsSubmission(((address,uint96)[],address,uint256,uint32,uint32)[])":"fce36c7d","createNewClaim(address,address,uint256,uint256)":"bb54ccf0","deregisterOperatorFromAVS(address)":"a364f4da","factory()":"c45a0155","getOperatorRestakedStrategies(address)":"33cfb7b7","getRestakeableStrategies()":"e481af9d","inisiator()":"0bd3c1ca","initialize(address,string)":"f399e22e","latestClaimNum()":"eaf40bcd","mergeAddresses(address,address)":"4eb2d10c","operatorPublicKey()":"af38c761","owner()":"8da5cb5b","registerOperatorToAVS(address,(bytes,bytes32,uint256))":"9926ee7d","renounceOwnership()":"715018a6","respondToClaim((address,address,uint256,uint256,string,uint32,bool),uint32,bytes)":"e9173a38","rewardsInitiator()":"fc299dee","setRewardsInitiator(address)":"3bc28c8c","stakeRegistry()":"68304835","transferOwnership(address)":"f2fde38b","updateAVSMetadataURI(string)":"a98fb355"},"id":143}