{"abi":[{"type":"constructor","inputs":[{"name":"","type":"address","internalType":"contract IStrategyManager"},{"name":"","type":"address","internalType":"contract IDelegationManager"}],"stateMutability":"nonpayable"},{"type":"function","name":"canSlash","inputs":[{"name":"","type":"address","internalType":"address"},{"name":"","type":"address","internalType":"address"}],"outputs":[{"name":"","type":"bool","internalType":"bool"}],"stateMutability":"view"},{"type":"function","name":"canWithdraw","inputs":[{"name":"","type":"address","internalType":"address"},{"name":"","type":"uint32","internalType":"uint32"},{"name":"","type":"uint256","internalType":"uint256"}],"outputs":[{"name":"","type":"bool","internalType":"bool"}],"stateMutability":"nonpayable"},{"type":"function","name":"contractCanSlashOperatorUntilBlock","inputs":[{"name":"","type":"address","internalType":"address"},{"name":"","type":"address","internalType":"address"}],"outputs":[{"name":"","type":"uint32","internalType":"uint32"}],"stateMutability":"view"},{"type":"function","name":"delegation","inputs":[],"outputs":[{"name":"","type":"address","internalType":"contract IDelegationManager"}],"stateMutability":"view"},{"type":"function","name":"freezeOperator","inputs":[{"name":"","type":"address","internalType":"address"}],"outputs":[],"stateMutability":"nonpayable"},{"type":"function","name":"getCorrectValueForInsertAfter","inputs":[{"name":"","type":"address","internalType":"address"},{"name":"","type":"uint32","internalType":"uint32"}],"outputs":[{"name":"","type":"uint256","internalType":"uint256"}],"stateMutability":"view"},{"type":"function","name":"getMiddlewareTimesIndexServeUntilBlock","inputs":[{"name":"","type":"address","internalType":"address"},{"name":"","type":"uint32","internalType":"uint32"}],"outputs":[{"name":"","type":"uint32","internalType":"uint32"}],"stateMutability":"view"},{"type":"function","name":"getMiddlewareTimesIndexStalestUpdateBlock","inputs":[{"name":"","type":"address","internalType":"address"},{"name":"","type":"uint32","internalType":"uint32"}],"outputs":[{"name":"","type":"uint32","internalType":"uint32"}],"stateMutability":"view"},{"type":"function","name":"initialize","inputs":[{"name":"","type":"address","internalType":"address"},{"name":"","type":"address","internalType":"contract IPauserRegistry"},{"name":"","type":"uint256","internalType":"uint256"}],"outputs":[],"stateMutability":"nonpayable"},{"type":"function","name":"isFrozen","inputs":[{"name":"","type":"address","internalType":"address"}],"outputs":[{"name":"","type":"bool","internalType":"bool"}],"stateMutability":"view"},{"type":"function","name":"latestUpdateBlock","inputs":[{"name":"","type":"address","internalType":"address"},{"name":"","type":"address","internalType":"address"}],"outputs":[{"name":"","type":"uint32","internalType":"uint32"}],"stateMutability":"view"},{"type":"function","name":"middlewareTimesLength","inputs":[{"name":"","type":"address","internalType":"address"}],"outputs":[{"name":"","type":"uint256","internalType":"uint256"}],"stateMutability":"view"},{"type":"function","name":"operatorToMiddlewareTimes","inputs":[{"name":"","type":"address","internalType":"address"},{"name":"","type":"uint256","internalType":"uint256"}],"outputs":[{"name":"","type":"tuple","internalType":"struct ISlasher.MiddlewareTimes","components":[{"name":"stalestUpdateBlock","type":"uint32","internalType":"uint32"},{"name":"latestServeUntilBlock","type":"uint32","internalType":"uint32"}]}],"stateMutability":"view"},{"type":"function","name":"operatorWhitelistedContractsLinkedListEntry","inputs":[{"name":"","type":"address","internalType":"address"},{"name":"","type":"address","internalType":"address"}],"outputs":[{"name":"","type":"bool","internalType":"bool"},{"name":"","type":"uint256","internalType":"uint256"},{"name":"","type":"uint256","internalType":"uint256"}],"stateMutability":"view"},{"type":"function","name":"operatorWhitelistedContractsLinkedListSize","inputs":[{"name":"","type":"address","internalType":"address"}],"outputs":[{"name":"","type":"uint256","internalType":"uint256"}],"stateMutability":"view"},{"type":"function","name":"optIntoSlashing","inputs":[{"name":"","type":"address","internalType":"address"}],"outputs":[],"stateMutability":"nonpayable"},{"type":"function","name":"owner","inputs":[],"outputs":[{"name":"","type":"address","internalType":"address"}],"stateMutability":"view"},{"type":"function","name":"pause","inputs":[{"name":"newPausedStatus","type":"uint256","internalType":"uint256"}],"outputs":[],"stateMutability":"nonpayable"},{"type":"function","name":"pauseAll","inputs":[],"outputs":[],"stateMutability":"nonpayable"},{"type":"function","name":"paused","inputs":[{"name":"index","type":"uint8","internalType":"uint8"}],"outputs":[{"name":"","type":"bool","internalType":"bool"}],"stateMutability":"view"},{"type":"function","name":"paused","inputs":[],"outputs":[{"name":"","type":"uint256","internalType":"uint256"}],"stateMutability":"view"},{"type":"function","name":"pauserRegistry","inputs":[],"outputs":[{"name":"","type":"address","internalType":"contract IPauserRegistry"}],"stateMutability":"view"},{"type":"function","name":"recordFirstStakeUpdate","inputs":[{"name":"","type":"address","internalType":"address"},{"name":"","type":"uint32","internalType":"uint32"}],"outputs":[],"stateMutability":"nonpayable"},{"type":"function","name":"recordLastStakeUpdateAndRevokeSlashingAbility","inputs":[{"name":"","type":"address","internalType":"address"},{"name":"","type":"uint32","internalType":"uint32"}],"outputs":[],"stateMutability":"nonpayable"},{"type":"function","name":"recordStakeUpdate","inputs":[{"name":"","type":"address","internalType":"address"},{"name":"","type":"uint32","internalType":"uint32"},{"name":"","type":"uint32","internalType":"uint32"},{"name":"","type":"uint256","internalType":"uint256"}],"outputs":[],"stateMutability":"nonpayable"},{"type":"function","name":"renounceOwnership","inputs":[],"outputs":[],"stateMutability":"nonpayable"},{"type":"function","name":"resetFrozenStatus","inputs":[{"name":"","type":"address[]","internalType":"address[]"}],"outputs":[],"stateMutability":"nonpayable"},{"type":"function","name":"setPauserRegistry","inputs":[{"name":"newPauserRegistry","type":"address","internalType":"contract IPauserRegistry"}],"outputs":[],"stateMutability":"nonpayable"},{"type":"function","name":"strategyManager","inputs":[],"outputs":[{"name":"","type":"address","internalType":"contract IStrategyManager"}],"stateMutability":"view"},{"type":"function","name":"transferOwnership","inputs":[{"name":"newOwner","type":"address","internalType":"address"}],"outputs":[],"stateMutability":"nonpayable"},{"type":"function","name":"unpause","inputs":[{"name":"newPausedStatus","type":"uint256","internalType":"uint256"}],"outputs":[],"stateMutability":"nonpayable"},{"type":"function","name":"whitelistedContractDetails","inputs":[{"name":"","type":"address","internalType":"address"},{"name":"","type":"address","internalType":"address"}],"outputs":[{"name":"","type":"tuple","internalType":"struct ISlasher.MiddlewareDetails","components":[{"name":"registrationMayBeginAtBlock","type":"uint32","internalType":"uint32"},{"name":"contractCanSlashOperatorUntilBlock","type":"uint32","internalType":"uint32"},{"name":"latestUpdateBlock","type":"uint32","internalType":"uint32"}]}],"stateMutability":"view"},{"type":"event","name":"FrozenStatusReset","inputs":[{"name":"previouslySlashedAddress","type":"address","indexed":true,"internalType":"address"}],"anonymous":false},{"type":"event","name":"Initialized","inputs":[{"name":"version","type":"uint8","indexed":false,"internalType":"uint8"}],"anonymous":false},{"type":"event","name":"MiddlewareTimesAdded","inputs":[{"name":"operator","type":"address","indexed":false,"internalType":"address"},{"name":"index","type":"uint256","indexed":false,"internalType":"uint256"},{"name":"stalestUpdateBlock","type":"uint32","indexed":false,"internalType":"uint32"},{"name":"latestServeUntilBlock","type":"uint32","indexed":false,"internalType":"uint32"}],"anonymous":false},{"type":"event","name":"OperatorFrozen","inputs":[{"name":"slashedOperator","type":"address","indexed":true,"internalType":"address"},{"name":"slashingContract","type":"address","indexed":true,"internalType":"address"}],"anonymous":false},{"type":"event","name":"OptedIntoSlashing","inputs":[{"name":"operator","type":"address","indexed":true,"internalType":"address"},{"name":"contractAddress","type":"address","indexed":true,"internalType":"address"}],"anonymous":false},{"type":"event","name":"OwnershipTransferred","inputs":[{"name":"previousOwner","type":"address","indexed":true,"internalType":"address"},{"name":"newOwner","type":"address","indexed":true,"internalType":"address"}],"anonymous":false},{"type":"event","name":"Paused","inputs":[{"name":"account","type":"address","indexed":true,"internalType":"address"},{"name":"newPausedStatus","type":"uint256","indexed":false,"internalType":"uint256"}],"anonymous":false},{"type":"event","name":"PauserRegistrySet","inputs":[{"name":"pauserRegistry","type":"address","indexed":false,"internalType":"contract IPauserRegistry"},{"name":"newPauserRegistry","type":"address","indexed":false,"internalType":"contract IPauserRegistry"}],"anonymous":false},{"type":"event","name":"SlashingAbilityRevoked","inputs":[{"name":"operator","type":"address","indexed":true,"internalType":"address"},{"name":"contractAddress","type":"address","indexed":true,"internalType":"address"},{"name":"contractCanSlashOperatorUntilBlock","type":"uint32","indexed":false,"internalType":"uint32"}],"anonymous":false},{"type":"event","name":"Unpaused","inputs":[{"name":"account","type":"address","indexed":true,"internalType":"address"},{"name":"newPausedStatus","type":"uint256","indexed":false,"internalType":"uint256"}],"anonymous":false}],"bytecode":{"object":"0x608034606b57601f610ccf38819003918201601f19168301916001600160401b038311848410176070578084926040948552833981010312606b5780516001600160a01b03811603606b57602001516001600160a01b03811603606b57604051610c4890816100878239f35b600080fd5b634e487b7160e01b600052604160045260246000fdfe608080604052600436101561001357600080fd5b60003560e01c9081630ffabbce146107ae57816310d67a2f146108cd57508063136439dd146107b3578063175d3205146107ae5780631794bb3c1461078c5780631874e5ae146105b1578063282670fc1461073257806338c8ee64146102c457806339b70e38146103b6578063595c6a67146106785780635ac86ab7146106455780635c975abb146106275780636f0c2f74146103d2578063715018a6146105ca578063723e59c7146105b15780637259a45c146105b15780637cf72bba1461055d5780638105e0431461053b578063855fcc4a146104ff578063886f1195146104d65780638da5cb5b146104ad578063a49db73214610391578063c747075b14610480578063d7b7fa13146103f4578063d98128c0146103d2578063da16e29b146103d2578063df5cf723146103b6578063e583983614610391578063e921d4fa14610391578063f2fde38b146102c9578063f73b7519146102c45763fabc1cbc1461017f57600080fd5b346102bf5760203660031901126102bf5760655460405163755b36bd60e11b81526004803592602091839182906001600160a01b03165afa80156102b3576101da91600091610284575b506001600160a01b03163314610ae6565b60665419811981160361021957806066556040519081527f3582d1828e26bf56bd801502bc021ac0bc8afb57c826e4986b45593c8fad389c60203392a2005b60405162461bcd60e51b815260206004820152603860248201527f5061757361626c652e756e70617573653a20696e76616c696420617474656d7060448201527f7420746f2070617573652066756e6374696f6e616c69747900000000000000006064820152608490fd5b6102a6915060203d6020116102ac575b61029e8183610aa5565b810190610ac7565b386101c9565b503d610294565b6040513d6000823e3d90fd5b600080fd5b610a8c565b346102bf5760203660031901126102bf576102e2610a18565b6102ea610bba565b6001600160a01b0316801561033d57603380546001600160a01b0319811683179091556001600160a01b03167f8be0079c531659141344cd1fd0a4f28419497f9722a3daafe3b4186f6b6457e0600080a3005b60405162461bcd60e51b815260206004820152602660248201527f4f776e61626c653a206e6577206f776e657220697320746865207a65726f206160448201526564647265737360d01b6064820152608490fd5b346102bf5760203660031901126102bf576103aa610a18565b50602060405160008152f35b346102bf5760003660031901126102bf57602060405160008152f35b346102bf5760403660031901126102bf576103eb610a18565b506103aa610a2e565b346102bf5760403660031901126102bf5761040d610a18565b50610416610a2e565b50604051606081019080821067ffffffffffffffff83111761046a576060916040526000815263ffffffff604060208301926000845201600081528160405193600085525116602084015251166040820152f35b634e487b7160e01b600052604160045260246000fd5b346102bf5760803660031901126102bf57610499610a18565b506104a2610a44565b506104ab610a57565b005b346102bf5760003660031901126102bf576033546040516001600160a01b039091168152602090f35b346102bf5760003660031901126102bf576065546040516001600160a01b039091168152602090f35b346102bf5760403660031901126102bf57610518610a18565b50610521610a2e565b506060604051600081526000602082015260006040820152f35b346102bf5760603660031901126102bf57610554610a18565b506103aa610a44565b346102bf5760203660031901126102bf5760043567ffffffffffffffff81116102bf57366023820112156102bf5780600401359067ffffffffffffffff82116102bf57602490369260051b0101116102bf57005b346102bf5760403660031901126102bf57610554610a18565b346102bf5760003660031901126102bf576105e3610bba565b603380546001600160a01b031981169091556000906001600160a01b03167f8be0079c531659141344cd1fd0a4f28419497f9722a3daafe3b4186f6b6457e08280a3005b346102bf5760003660031901126102bf576020606654604051908152f35b346102bf5760203660031901126102bf5760043560ff81168091036102bf5760016020911b806066541614604051908152f35b346102bf5760003660031901126102bf5760655460405163237dfb4760e11b815233600482015290602090829060249082906001600160a01b03165afa80156102b3576106cd91600091610703575b50610b5d565b60001960665560405160001981527fab40a374bc51de372200a8bc981af8c9ecdc08dfdaef0bb6e09f88f3c616ef3d60203392a2005b610725915060203d60201161072b575b61071d8183610aa5565b810190610b45565b826106c7565b503d610713565b346102bf5760403660031901126102bf5761074b610a18565b506040516040810181811067ffffffffffffffff82111761046a57604091602091835260008152016000815263ffffffff8251916000835251166020820152f35b346102bf5760603660031901126102bf576107a5610a18565b506104ab610a2e565b610a6a565b346102bf5760203660031901126102bf576004356024602060018060a01b03606554166040519283809263237dfb4760e11b82523360048301525afa80156102b357610806916000916108ae5750610b5d565b6066548181160361084357806066556040519081527fab40a374bc51de372200a8bc981af8c9ecdc08dfdaef0bb6e09f88f3c616ef3d60203392a2005b60405162461bcd60e51b815260206004820152603860248201527f5061757361626c652e70617573653a20696e76616c696420617474656d70742060448201527f746f20756e70617573652066756e6374696f6e616c69747900000000000000006064820152608490fd5b6108c7915060203d60201161072b5761071d8183610aa5565b836106c7565b346102bf5760203660031901126102bf576108e6610a18565b60655463755b36bd60e11b83526001600160a01b03811692909190602081600481875afa80156102b35761092c916000916109f957506001600160a01b03163314610ae6565b6001600160a01b031691821561097c5760407f6e9fcd539896fca60e8b0f01dd580233e48a6b0f7df013b89ba7f565869acdb6918151908152846020820152a16001600160a01b03191617606555005b60405162461bcd60e51b815260206004820152604960248201527f5061757361626c652e5f73657450617573657252656769737472793a206e657760448201527f50617573657252656769737472792063616e6e6f7420626520746865207a65726064820152686f206164647265737360b81b608482015260a490fd5b610a12915060203d6020116102ac5761029e8183610aa5565b856101c9565b600435906001600160a01b03821682036102bf57565b602435906001600160a01b03821682036102bf57565b6024359063ffffffff821682036102bf57565b6044359063ffffffff821682036102bf57565b346102bf5760403660031901126102bf57610a83610a18565b506104ab610a44565b346102bf5760203660031901126102bf576104ab610a18565b90601f8019910116810190811067ffffffffffffffff82111761046a57604052565b908160209103126102bf57516001600160a01b03811681036102bf5790565b15610aed57565b60405162461bcd60e51b815260206004820152602a60248201527f6d73672e73656e646572206973206e6f74207065726d697373696f6e6564206160448201526939903ab73830bab9b2b960b11b6064820152608490fd5b908160209103126102bf575180151581036102bf5790565b15610b6457565b60405162461bcd60e51b815260206004820152602860248201527f6d73672e73656e646572206973206e6f74207065726d697373696f6e6564206160448201526739903830bab9b2b960c11b6064820152608490fd5b6033546001600160a01b03163303610bce57565b606460405162461bcd60e51b815260206004820152602060248201527f4f776e61626c653a2063616c6c6572206973206e6f7420746865206f776e65726044820152fdfea2646970667358221220e82750be1c289ad1cd195f7a362250a780cc32e904c48e9163a88a63ed5232fc64736f6c634300081a0033","linkReferences":{}},"methodIdentifiers":{"canSlash(address,address)":"d98128c0","canWithdraw(address,uint32,uint256)":"8105e043","contractCanSlashOperatorUntilBlock(address,address)":"6f0c2f74","delegation()":"df5cf723","freezeOperator(address)":"38c8ee64","getCorrectValueForInsertAfter(address,uint32)":"723e59c7","getMiddlewareTimesIndexServeUntilBlock(address,uint32)":"7259a45c","getMiddlewareTimesIndexStalestUpdateBlock(address,uint32)":"1874e5ae","initialize(address,address,uint256)":"1794bb3c","isFrozen(address)":"e5839836","latestUpdateBlock(address,address)":"da16e29b","middlewareTimesLength(address)":"a49db732","operatorToMiddlewareTimes(address,uint256)":"282670fc","operatorWhitelistedContractsLinkedListEntry(address,address)":"855fcc4a","operatorWhitelistedContractsLinkedListSize(address)":"e921d4fa","optIntoSlashing(address)":"f73b7519","owner()":"8da5cb5b","pause(uint256)":"136439dd","pauseAll()":"595c6a67","paused()":"5c975abb","paused(uint8)":"5ac86ab7","pauserRegistry()":"886f1195","recordFirstStakeUpdate(address,uint32)":"175d3205","recordLastStakeUpdateAndRevokeSlashingAbility(address,uint32)":"0ffabbce","recordStakeUpdate(address,uint32,uint32,uint256)":"c747075b","renounceOwnership()":"715018a6","resetFrozenStatus(address[])":"7cf72bba","setPauserRegistry(address)":"10d67a2f","strategyManager()":"39b70e38","transferOwnership(address)":"f2fde38b","unpause(uint256)":"fabc1cbc","whitelistedContractDetails(address,address)":"d7b7fa13"},"id":41}