{"abi":[{"type":"constructor","inputs":[{"name":"_avsDirectory","type":"address","internalType":"contract IAVSDirectory"},{"name":"_rewardsCoordinator","type":"address","internalType":"contract IRewardsCoordinator"},{"name":"_registryCoordinator","type":"address","internalType":"contract IRegistryCoordinator"},{"name":"_stakeRegistry","type":"address","internalType":"contract IStakeRegistry"}],"stateMutability":"nonpayable"},{"type":"function","name":"avsDirectory","inputs":[],"outputs":[{"name":"","type":"address","internalType":"address"}],"stateMutability":"view"},{"type":"function","name":"createAVSRewardsSubmission","inputs":[{"name":"rewardsSubmissions","type":"tuple[]","internalType":"struct IRewardsCoordinator.RewardsSubmission[]","components":[{"name":"strategiesAndMultipliers","type":"tuple[]","internalType":"struct IRewardsCoordinator.StrategyAndMultiplier[]","components":[{"name":"strategy","type":"address","internalType":"contract IStrategy"},{"name":"multiplier","type":"uint96","internalType":"uint96"}]},{"name":"token","type":"address","internalType":"contract IERC20"},{"name":"amount","type":"uint256","internalType":"uint256"},{"name":"startTimestamp","type":"uint32","internalType":"uint32"},{"name":"duration","type":"uint32","internalType":"uint32"}]}],"outputs":[],"stateMutability":"nonpayable"},{"type":"function","name":"deregisterOperatorFromAVS","inputs":[{"name":"operator","type":"address","internalType":"address"}],"outputs":[],"stateMutability":"nonpayable"},{"type":"function","name":"getOperatorRestakedStrategies","inputs":[{"name":"operator","type":"address","internalType":"address"}],"outputs":[{"name":"","type":"address[]","internalType":"address[]"}],"stateMutability":"view"},{"type":"function","name":"getRestakeableStrategies","inputs":[],"outputs":[{"name":"","type":"address[]","internalType":"address[]"}],"stateMutability":"view"},{"type":"function","name":"initialize","inputs":[{"name":"initialOwner","type":"address","internalType":"address"},{"name":"rewardsInitiator","type":"address","internalType":"address"}],"outputs":[],"stateMutability":"nonpayable"},{"type":"function","name":"owner","inputs":[],"outputs":[{"name":"","type":"address","internalType":"address"}],"stateMutability":"view"},{"type":"function","name":"registerOperatorToAVS","inputs":[{"name":"operator","type":"address","internalType":"address"},{"name":"operatorSignature","type":"tuple","internalType":"struct ISignatureUtils.SignatureWithSaltAndExpiry","components":[{"name":"signature","type":"bytes","internalType":"bytes"},{"name":"salt","type":"bytes32","internalType":"bytes32"},{"name":"expiry","type":"uint256","internalType":"uint256"}]}],"outputs":[],"stateMutability":"nonpayable"},{"type":"function","name":"renounceOwnership","inputs":[],"outputs":[],"stateMutability":"nonpayable"},{"type":"function","name":"rewardsInitiator","inputs":[],"outputs":[{"name":"","type":"address","internalType":"address"}],"stateMutability":"view"},{"type":"function","name":"setRewardsInitiator","inputs":[{"name":"newRewardsInitiator","type":"address","internalType":"address"}],"outputs":[],"stateMutability":"nonpayable"},{"type":"function","name":"transferOwnership","inputs":[{"name":"newOwner","type":"address","internalType":"address"}],"outputs":[],"stateMutability":"nonpayable"},{"type":"function","name":"updateAVSMetadataURI","inputs":[{"name":"_metadataURI","type":"string","internalType":"string"}],"outputs":[],"stateMutability":"nonpayable"},{"type":"event","name":"Initialized","inputs":[{"name":"version","type":"uint8","indexed":false,"internalType":"uint8"}],"anonymous":false},{"type":"event","name":"OwnershipTransferred","inputs":[{"name":"previousOwner","type":"address","indexed":true,"internalType":"address"},{"name":"newOwner","type":"address","indexed":true,"internalType":"address"}],"anonymous":false},{"type":"event","name":"RewardsInitiatorUpdated","inputs":[{"name":"prevRewardsInitiator","type":"address","indexed":false,"internalType":"address"},{"name":"newRewardsInitiator","type":"address","indexed":false,"internalType":"address"}],"anonymous":false}],"bytecode":{"object":"0x610100346101ab57601f61191438819003918201601f19168301916001600160401b038311848410176101b0578084926080946040528339810103126101ab578051906001600160a01b03821682036101ab5760208101516001600160a01b03811681036101ab576040820151916001600160a01b03831683036101ab5760600151926001600160a01b03841684036101ab5760805260a05260c05260e05260005460ff8160081c166101565760ff8082161061011b575b60405161174d90816101c782396080518181816106690152818161072e0152818161087501526109d3015260a05181610119015260c0518181816106fe0152818161084c01528181610e3f015261135f015260e051818181610f6301526113ac0152f35b60ff90811916176000557f7f26b83ff96e1f2b6a682f133852f6798a09c465da95921460cefb3847402498602060405160ff8152a1386100b7565b60405162461bcd60e51b815260206004820152602760248201527f496e697469616c697a61626c653a20636f6e747261637420697320696e697469604482015266616c697a696e6760c81b6064820152608490fd5b600080fd5b634e487b7160e01b600052604160045260246000fdfe6080604052600436101561001257600080fd5b6000803560e01c806333cfb7b714610bcc5780633bc28c8c14610ba7578063485cc95514610a025780636b3aa72e146109bd578063715018a6146109605780638da5cb5b146109375780639926ee7d14610796578063a364f4da146106dd578063a98fb3551461061b578063e481af9d146105ef578063f2fde38b1461055e578063fc299dee146105355763fce36c7d146100ac57600080fd5b346101b75760203660031901126101b7576004359067ffffffffffffffff82116101b757366023830112156101b75781600401359167ffffffffffffffff831161053157602481018360051b93366024868501011161052d576065546001600160a01b031633036104ad577f00000000000000000000000000000000000000000000000000000000000000006001600160a01b031694845b8281106103005750853b156102fc57906040519363fce36c7d60e01b8552816024860160206004880152526044808601938601019392869160c219813603015b8484106101c55788808981818e8183818f03925af180156101ba576101a65750f35b816101b091610c4f565b6101b75780f35b80fd5b6040513d84823e3d90fd5b9091929394956043198882030184528635828112156102f85760a0820191908401602481013560421936839003018112156102a4578160249101016020813591019367ffffffffffffffff82116102f4578160061b360385136102f457819060a085525260c0830193908c905b8082106102a85750505060448101356001600160a01b038116908190036102a4579282608063ffffffff61029060a4602097966001998980990152606481013560408701528361028460848301611607565b16606087015201611607565b169101529801940194019294939190610184565b8b80fd5b909194853560018060a01b0381168091036102f057815260208601356bffffffffffffffffffffffff81168091036102f0576020820152604090810195019160010190610232565b8e80fd5b8c80fd5b8980fd5b8480fd5b8560206001600160a01b036103208261031a86898b6115b9565b016115db565b166064604061033086898b6115b9565b013560405194859384926323b872dd60e01b845233600485015230602485015260448401525af1801561045357610491575b506001600160a01b0361037b602061031a8487896115b9565b604051636eb1769f60e11b81523060048201526001600160a01b038a1660248201529160209183916044918391165afa90811561045357879161045e575b5060206103ec6001600160a01b036103d68361031a878a8c6115b9565b169260406103e586898b6115b9565b0135610d64565b60448a8a604051958694859363095ea7b360e01b8552600485015260248401525af18015610453579060019291610425575b5001610144565b6104459060203d811161044c575b61043d8183610c4f565b8101906115ef565b503861041e565b503d610433565b6040513d89823e3d90fd5b905060203d811161048a575b6104748183610c4f565b602082600092810103126101b7575051386103b9565b503d61046a565b6104a89060203d811161044c5761043d8183610c4f565b610362565b60405162461bcd60e51b815260206004820152604c60248201527f536572766963654d616e61676572426173652e6f6e6c7952657761726473496e60448201527f69746961746f723a2063616c6c6572206973206e6f742074686520726577617260648201526b32399034b734ba34b0ba37b960a11b608482015260a490fd5b8380fd5b5080fd5b50346101b757806003193601126101b7576065546040516001600160a01b039091168152602090f35b50346101b75760203660031901126101b757610578610bf1565b610580611618565b6001600160a01b0381161561059b57610598906116ce565b80f35b60405162461bcd60e51b815260206004820152602660248201527f4f776e61626c653a206e6577206f776e657220697320746865207a65726f206160448201526564647265737360d01b6064820152608490fd5b50346101b757806003193601126101b75761061761060b611350565b60405191829182610c0c565b0390f35b50346101b75760203660031901126101b7578060043567ffffffffffffffff81116106da57366023820112156106da5761065f903690602481600401359101610ca3565b610667611618565b7f00000000000000000000000000000000000000000000000000000000000000006001600160a01b0316803b156106d65760405163a98fb35560e01b81526020600482015291839183918290849082906106c590602483019061130f565b03925af180156101ba576101a65750f35b5050fd5b50fd5b50346101b75760203660031901126101b757806106f8610bf1565b61072c337f00000000000000000000000000000000000000000000000000000000000000006001600160a01b031614611282565b7f00000000000000000000000000000000000000000000000000000000000000006001600160a01b031690813b156106d6576040516351b27a6d60e11b81526001600160a01b0390911660048201529082908290602490829084905af180156101ba576101a65750f35b50346101b75760403660031901126101b7576107b0610bf1565b6024359067ffffffffffffffff8211610933576060600319833603011261093357604051906060820182811067ffffffffffffffff82111761091f57604052839190600484013567ffffffffffffffff811161052d5784013660238201121561052d57610827903690602460048201359101610ca3565b8252602082019160248501358352604460408201950135855261087360018060a01b037f0000000000000000000000000000000000000000000000000000000000000000163314611282565b7f00000000000000000000000000000000000000000000000000000000000000006001600160a01b031690813b156102fc57846108e693819560405198899687958694639926ee7d60e01b865260018060a01b0316600486015260406024860152516060604486015260a485019061130f565b9151606484015251608483015203925af18015610912576109045780f35b61090d91610c4f565b388180f35b50604051903d90823e3d90fd5b634e487b7160e01b85526041600452602485fd5b8280fd5b50346101b757806003193601126101b7576033546040516001600160a01b039091168152602090f35b50346101b757806003193601126101b757610979611618565b603380546001600160a01b0319811690915581906001600160a01b03167f8be0079c531659141344cd1fd0a4f28419497f9722a3daafe3b4186f6b6457e08280a380f35b50346101b757806003193601126101b7576040517f00000000000000000000000000000000000000000000000000000000000000006001600160a01b03168152602090f35b50346101b75760403660031901126101b757610a1c610bf1565b602435906001600160a01b03821682036109335782549160ff8360081c161592838094610b9a575b8015610b83575b15610b275760ff198116600117855583610b16575b5060ff845460081c1615610abd57610a7a610a7f926116ce565b611670565b610a865780f35b61ff001981541681557f7f26b83ff96e1f2b6a682f133852f6798a09c465da95921460cefb3847402498602060405160018152a180f35b60405162461bcd60e51b815260206004820152602b60248201527f496e697469616c697a61626c653a20636f6e7472616374206973206e6f74206960448201526a6e697469616c697a696e6760a81b6064820152608490fd5b61ffff191661010117845538610a60565b60405162461bcd60e51b815260206004820152602e60248201527f496e697469616c697a61626c653a20636f6e747261637420697320616c72656160448201526d191e481a5b9a5d1a585b1a5e995960921b6064820152608490fd5b50303b158015610a4b5750600160ff821614610a4b565b50600160ff821610610a44565b50346101b75760203660031901126101b757610598610bc4610bf1565b610a7a611618565b50346101b75760203660031901126101b75761061761060b610bec610bf1565b610e20565b600435906001600160a01b0382168203610c0757565b600080fd5b602060408183019282815284518094520192019060005b818110610c305750505090565b82516001600160a01b0316845260209384019390920191600101610c23565b90601f8019910116810190811067ffffffffffffffff821117610c7157604052565b634e487b7160e01b600052604160045260246000fd5b67ffffffffffffffff8111610c7157601f01601f191660200190565b929192610caf82610c87565b91610cbd6040519384610c4f565b829481845281830111610c07578281602093846000960137010152565b90816020910312610c07575160ff81168103610c075790565b67ffffffffffffffff8111610c715760051b60200190565b90610d1582610cf3565b610d226040519182610c4f565b8281528092610d33601f1991610cf3565b0190602036910137565b908151811015610d4e570160200190565b634e487b7160e01b600052603260045260246000fd5b91908201809211610d7157565b634e487b7160e01b600052601160045260246000fd5b90816040910312610c07576000604051916040830183811067ffffffffffffffff821117610de95760405280516001600160a01b038116810361093357835260200151906bffffffffffffffffffffffff821682036101b75750602082015290565b634e487b7160e01b83526041600452602483fd5b8051821015610d4e5760209160051b010190565b6000198114610d715760010190565b6040516309aa152760e11b81526001600160a01b0391821660048201527f000000000000000000000000000000000000000000000000000000000000000090911690602081602481855afa90811561101757600091611250575b506040519063871ef04960e01b82526004820152602081602481855afa9081156110175760009161120e575b50906001600160c01b0382169081159081156111aa575b5061118e57806000915b611168575061ffff16610ed981610c87565b90610ee76040519283610c4f565b808252610ef6601f1991610c87565b013660208301376000805b825182108061115d575b15610f5a576001811b84166001600160c01b0316610f32575b610f2d90610e11565b610f01565b906001610f2d9160ff60f81b8460f81b1660001a610f508287610d3d565b5301919050610f24565b506000939250507f00000000000000000000000000000000000000000000000000000000000000006001600160a01b031690835b815185101561102357610fa18583610d3d565b5160f81c60405190633ca5a5f560e01b82526004820152602081602481875afa90811561101757600091610fe5575b50610fdd90600192610d64565b940193610f8e565b906020823d821161100f575b81610ffe60209383610c4f565b810103126101b75750516001610fd0565b3d9150610ff1565b6040513d6000823e3d90fd5b61102e919450610d0b565b9260009060005b8151811015611157576110488183610d3d565b5160f81c60405190633ca5a5f560e01b8252806004830152602082602481895afa91821561101757600092611124575b50906000915b81831061109057505050600101611035565b604080516356e4026d60e11b815260ff83166004820152602481018590529396929391929190816044818b5afa918215611017576001926110ed926000916110f6575b50838060a01b039051166110e7828d610dfd565b52610e11565b9501919061107e565b611117915060403d811161111d575b61110f8183610c4f565b810190610d87565b386110d3565b503d611105565b90916020823d821161114f575b8161113e60209383610c4f565b810103126101b75750519038611078565b3d9150611131565b50505050565b506101008110610f0b565b6000198101818111610d715761ffff9116911661ffff8114610d71576001019080610ec7565b505060405161119e602082610c4f565b60008152600036813790565b604051639aa1653d60e01b81529150602090829060049082905afa80156110175760ff916000916111df575b50161538610ebd565b611201915060203d602011611207575b6111f98183610c4f565b810190610cda565b386111d6565b503d6111ef565b6020813d602011611248575b8161122760209383610c4f565b810103126105315751906001600160c01b03821682036101b7575038610ea6565b3d915061121a565b90506020813d60201161127a575b8161126b60209383610c4f565b81010312610c07575138610e7a565b3d915061125e565b1561128957565b60405162461bcd60e51b815260206004820152605260248201527f536572766963654d616e61676572426173652e6f6e6c7952656769737472794360448201527f6f6f7264696e61746f723a2063616c6c6572206973206e6f742074686520726560648201527133b4b9ba393c9031b7b7b93234b730ba37b960711b608482015260a490fd5b919082519283825260005b84811061133b575050826000602080949584010152601f8019910116010190565b8060208092840101518282860101520161131a565b604051639aa1653d60e01b81527f00000000000000000000000000000000000000000000000000000000000000006001600160a01b031690602081600481855afa80156110175760ff9160009161159a575b5016801561118e577f00000000000000000000000000000000000000000000000000000000000000006001600160a01b03169060009081905b80831061152357506113ed9150610d0b565b9260009060005b604051639aa1653d60e01b8152602081600481895afa80156110175760ff91600091611505575b50168110156114fe57604051633ca5a5f560e01b815260ff821660048201819052602082602481895afa918215611017576000926114cb575b50906000915b81831061146c575050506001016113f4565b604080516356e4026d60e11b815260ff83166004820152602481018590529396929391929190816044818b5afa918215611017576001926114c2926000916110f65750838060a01b039051166110e7828d610dfd565b9501919061145a565b90916020823d82116114f6575b816114e560209383610c4f565b810103126101b75750519038611454565b3d91506114d8565b5092505050565b61151d915060203d8111611207576111f98183610c4f565b3861141b565b90604051633ca5a5f560e01b815260ff84166004820152602081602481885afa90811561101757600091611568575b5061155f90600192610d64565b920191906113db565b906020823d8211611592575b8161158160209383610c4f565b810103126101b75750516001611552565b3d9150611574565b6115b3915060203d602011611207576111f98183610c4f565b386113a2565b9190811015610d4e5760051b81013590609e1981360301821215610c07570190565b356001600160a01b0381168103610c075790565b90816020910312610c0757518015158103610c075790565b359063ffffffff82168203610c0757565b6033546001600160a01b0316330361162c57565b606460405162461bcd60e51b815260206004820152602060248201527f4f776e61626c653a2063616c6c6572206973206e6f7420746865206f776e65726044820152fd5b606554604080516001600160a01b038084168252841660208201529192917fe11cddf1816a43318ca175bbc52cd0185436e9cbead7c83acc54a73e461717e39190a16001600160a01b03166001600160a01b03199190911617606555565b603380546001600160a01b039283166001600160a01b0319821681179092559091167f8be0079c531659141344cd1fd0a4f28419497f9722a3daafe3b4186f6b6457e0600080a356fea264697066735822122028b34c3b438ee9106ec855c4263610deccb0078ee65467dbd4b5897182f2ad9664736f6c634300081a0033","linkReferences":{}},"methodIdentifiers":{"avsDirectory()":"6b3aa72e","createAVSRewardsSubmission(((address,uint96)[],address,uint256,uint32,uint32)[])":"fce36c7d","deregisterOperatorFromAVS(address)":"a364f4da","getOperatorRestakedStrategies(address)":"33cfb7b7","getRestakeableStrategies()":"e481af9d","initialize(address,address)":"485cc955","owner()":"8da5cb5b","registerOperatorToAVS(address,(bytes,bytes32,uint256))":"9926ee7d","renounceOwnership()":"715018a6","rewardsInitiator()":"fc299dee","setRewardsInitiator(address)":"3bc28c8c","transferOwnership(address)":"f2fde38b","updateAVSMetadataURI(string)":"a98fb355"},"id":107}