{"abi":[{"type":"function","name":"pause","inputs":[{"name":"newPausedStatus","type":"uint256","internalType":"uint256"}],"outputs":[],"stateMutability":"nonpayable"},{"type":"function","name":"pauseAll","inputs":[],"outputs":[],"stateMutability":"nonpayable"},{"type":"function","name":"paused","inputs":[{"name":"index","type":"uint8","internalType":"uint8"}],"outputs":[{"name":"","type":"bool","internalType":"bool"}],"stateMutability":"view"},{"type":"function","name":"paused","inputs":[],"outputs":[{"name":"","type":"uint256","internalType":"uint256"}],"stateMutability":"view"},{"type":"function","name":"pauserRegistry","inputs":[],"outputs":[{"name":"","type":"address","internalType":"contract IPauserRegistry"}],"stateMutability":"view"},{"type":"function","name":"setPauserRegistry","inputs":[{"name":"newPauserRegistry","type":"address","internalType":"contract IPauserRegistry"}],"outputs":[],"stateMutability":"nonpayable"},{"type":"function","name":"unpause","inputs":[{"name":"newPausedStatus","type":"uint256","internalType":"uint256"}],"outputs":[],"stateMutability":"nonpayable"},{"type":"event","name":"Paused","inputs":[{"name":"account","type":"address","indexed":true,"internalType":"address"},{"name":"newPausedStatus","type":"uint256","indexed":false,"internalType":"uint256"}],"anonymous":false},{"type":"event","name":"PauserRegistrySet","inputs":[{"name":"pauserRegistry","type":"address","indexed":false,"internalType":"contract IPauserRegistry"},{"name":"newPauserRegistry","type":"address","indexed":false,"internalType":"contract IPauserRegistry"}],"anonymous":false},{"type":"event","name":"Unpaused","inputs":[{"name":"account","type":"address","indexed":true,"internalType":"address"},{"name":"newPausedStatus","type":"uint256","indexed":false,"internalType":"uint256"}],"anonymous":false}],"bytecode":{"object":"0x608080604052346015576106ad908161001b8239f35b600080fdfe608080604052600436101561001357600080fd5b60003560e01c90816310d67a2f146103ff57508063136439dd146102e5578063595c6a671461022b5780635ac86ab7146101f85780635c975abb146101da578063886f1195146101b15763fabc1cbc1461006c57600080fd5b346101ac5760203660031901126101ac5760005460405163755b36bd60e11b81526004803592602091839182906001600160a01b03165afa80156101a0576100c791600091610171575b506001600160a01b031633146105a3565b60015419811981160361010657806001556040519081527f3582d1828e26bf56bd801502bc021ac0bc8afb57c826e4986b45593c8fad389c60203392a2005b60405162461bcd60e51b815260206004820152603860248201527f5061757361626c652e756e70617573653a20696e76616c696420617474656d7060448201527f7420746f2070617573652066756e6374696f6e616c69747900000000000000006064820152608490fd5b610193915060203d602011610199575b61018b818361054c565b810190610584565b386100b6565b503d610181565b6040513d6000823e3d90fd5b600080fd5b346101ac5760003660031901126101ac576000546040516001600160a01b039091168152602090f35b346101ac5760003660031901126101ac576020600154604051908152f35b346101ac5760203660031901126101ac5760043560ff81168091036101ac5760016020911b806001541614604051908152f35b346101ac5760003660031901126101ac5760005460405163237dfb4760e11b815233600482015290602090829060249082906001600160a01b03165afa80156101a057610280916000916102b6575b5061061a565b60001960015560405160001981527fab40a374bc51de372200a8bc981af8c9ecdc08dfdaef0bb6e09f88f3c616ef3d60203392a2005b6102d8915060203d6020116102de575b6102d0818361054c565b810190610602565b8261027a565b503d6102c6565b346101ac5760203660031901126101ac576004356024602060018060a01b03600054166040519283809263237dfb4760e11b82523360048301525afa80156101a057610338916000916103e0575061061a565b6001548181160361037557806001556040519081527fab40a374bc51de372200a8bc981af8c9ecdc08dfdaef0bb6e09f88f3c616ef3d60203392a2005b60405162461bcd60e51b815260206004820152603860248201527f5061757361626c652e70617573653a20696e76616c696420617474656d70742060448201527f746f20756e70617573652066756e6374696f6e616c69747900000000000000006064820152608490fd5b6103f9915060203d6020116102de576102d0818361054c565b8361027a565b346101ac5760203660031901126101ac576004356001600160a01b03811691908290036101ac5760005463755b36bd60e11b8252906001600160a01b03821690602081600481855afa80156101a05761046a9160009161052d57506001600160a01b031633146105a3565b82156104b05760407f6e9fcd539896fca60e8b0f01dd580233e48a6b0f7df013b89ba7f565869acdb6918151908152846020820152a16001600160a01b03191617600055005b60405162461bcd60e51b815260206004820152604960248201527f5061757361626c652e5f73657450617573657252656769737472793a206e657760448201527f50617573657252656769737472792063616e6e6f7420626520746865207a65726064820152686f206164647265737360b81b608482015260a490fd5b610546915060203d6020116101995761018b818361054c565b856100b6565b90601f8019910116810190811067ffffffffffffffff82111761056e57604052565b634e487b7160e01b600052604160045260246000fd5b908160209103126101ac57516001600160a01b03811681036101ac5790565b156105aa57565b60405162461bcd60e51b815260206004820152602a60248201527f6d73672e73656e646572206973206e6f74207065726d697373696f6e6564206160448201526939903ab73830bab9b2b960b11b6064820152608490fd5b908160209103126101ac575180151581036101ac5790565b1561062157565b60405162461bcd60e51b815260206004820152602860248201527f6d73672e73656e646572206973206e6f74207065726d697373696f6e6564206160448201526739903830bab9b2b960c11b6064820152608490fdfea2646970667358221220fb52aed9bec1489d6cbbaad0631a2671bd21a4ba704f1ff30bc5570bf17dcd8364736f6c634300081a0033","linkReferences":{}},"methodIdentifiers":{"pause(uint256)":"136439dd","pauseAll()":"595c6a67","paused()":"5c975abb","paused(uint8)":"5ac86ab7","pauserRegistry()":"886f1195","setPauserRegistry(address)":"10d67a2f","unpause(uint256)":"fabc1cbc"},"id":62}