{"abi":[{"type":"constructor","inputs":[{"name":"_registryCoordinator","type":"address","internalType":"contract IRegistryCoordinator"}],"stateMutability":"nonpayable"},{"type":"function","name":"apkHistory","inputs":[{"name":"","type":"uint8","internalType":"uint8"},{"name":"","type":"uint256","internalType":"uint256"}],"outputs":[{"name":"apkHash","type":"bytes24","internalType":"bytes24"},{"name":"updateBlockNumber","type":"uint32","internalType":"uint32"},{"name":"nextUpdateBlockNumber","type":"uint32","internalType":"uint32"}],"stateMutability":"view"},{"type":"function","name":"currentApk","inputs":[{"name":"","type":"uint8","internalType":"uint8"}],"outputs":[{"name":"X","type":"uint256","internalType":"uint256"},{"name":"Y","type":"uint256","internalType":"uint256"}],"stateMutability":"view"},{"type":"function","name":"deregisterOperator","inputs":[{"name":"operator","type":"address","internalType":"address"},{"name":"quorumNumbers","type":"bytes","internalType":"bytes"}],"outputs":[],"stateMutability":"nonpayable"},{"type":"function","name":"getApk","inputs":[{"name":"quorumNumber","type":"uint8","internalType":"uint8"}],"outputs":[{"name":"","type":"tuple","internalType":"struct BN254.G1Point","components":[{"name":"X","type":"uint256","internalType":"uint256"},{"name":"Y","type":"uint256","internalType":"uint256"}]}],"stateMutability":"view"},{"type":"function","name":"getApkHashAtBlockNumberAndIndex","inputs":[{"name":"quorumNumber","type":"uint8","internalType":"uint8"},{"name":"blockNumber","type":"uint32","internalType":"uint32"},{"name":"index","type":"uint256","internalType":"uint256"}],"outputs":[{"name":"","type":"bytes24","internalType":"bytes24"}],"stateMutability":"view"},{"type":"function","name":"getApkHistoryLength","inputs":[{"name":"quorumNumber","type":"uint8","internalType":"uint8"}],"outputs":[{"name":"","type":"uint32","internalType":"uint32"}],"stateMutability":"view"},{"type":"function","name":"getApkIndicesAtBlockNumber","inputs":[{"name":"quorumNumbers","type":"bytes","internalType":"bytes"},{"name":"blockNumber","type":"uint256","internalType":"uint256"}],"outputs":[{"name":"","type":"uint32[]","internalType":"uint32[]"}],"stateMutability":"view"},{"type":"function","name":"getApkUpdateAtIndex","inputs":[{"name":"quorumNumber","type":"uint8","internalType":"uint8"},{"name":"index","type":"uint256","internalType":"uint256"}],"outputs":[{"name":"","type":"tuple","internalType":"struct IBLSApkRegistry.ApkUpdate","components":[{"name":"apkHash","type":"bytes24","internalType":"bytes24"},{"name":"updateBlockNumber","type":"uint32","internalType":"uint32"},{"name":"nextUpdateBlockNumber","type":"uint32","internalType":"uint32"}]}],"stateMutability":"view"},{"type":"function","name":"getOperatorFromPubkeyHash","inputs":[{"name":"pubkeyHash","type":"bytes32","internalType":"bytes32"}],"outputs":[{"name":"","type":"address","internalType":"address"}],"stateMutability":"view"},{"type":"function","name":"getOperatorId","inputs":[{"name":"operator","type":"address","internalType":"address"}],"outputs":[{"name":"","type":"bytes32","internalType":"bytes32"}],"stateMutability":"view"},{"type":"function","name":"getRegisteredPubkey","inputs":[{"name":"operator","type":"address","internalType":"address"}],"outputs":[{"name":"","type":"tuple","internalType":"struct BN254.G1Point","components":[{"name":"X","type":"uint256","internalType":"uint256"},{"name":"Y","type":"uint256","internalType":"uint256"}]},{"name":"","type":"bytes32","internalType":"bytes32"}],"stateMutability":"view"},{"type":"function","name":"initializeQuorum","inputs":[{"name":"quorumNumber","type":"uint8","internalType":"uint8"}],"outputs":[],"stateMutability":"nonpayable"},{"type":"function","name":"operatorToPubkey","inputs":[{"name":"","type":"address","internalType":"address"}],"outputs":[{"name":"X","type":"uint256","internalType":"uint256"},{"name":"Y","type":"uint256","internalType":"uint256"}],"stateMutability":"view"},{"type":"function","name":"operatorToPubkeyHash","inputs":[{"name":"","type":"address","internalType":"address"}],"outputs":[{"name":"","type":"bytes32","internalType":"bytes32"}],"stateMutability":"view"},{"type":"function","name":"pubkeyHashToOperator","inputs":[{"name":"","type":"bytes32","internalType":"bytes32"}],"outputs":[{"name":"","type":"address","internalType":"address"}],"stateMutability":"view"},{"type":"function","name":"registerBLSPublicKey","inputs":[{"name":"operator","type":"address","internalType":"address"},{"name":"params","type":"tuple","internalType":"struct IBLSApkRegistry.PubkeyRegistrationParams","components":[{"name":"pubkeyRegistrationSignature","type":"tuple","internalType":"struct BN254.G1Point","components":[{"name":"X","type":"uint256","internalType":"uint256"},{"name":"Y","type":"uint256","internalType":"uint256"}]},{"name":"pubkeyG1","type":"tuple","internalType":"struct BN254.G1Point","components":[{"name":"X","type":"uint256","internalType":"uint256"},{"name":"Y","type":"uint256","internalType":"uint256"}]},{"name":"pubkeyG2","type":"tuple","internalType":"struct BN254.G2Point","components":[{"name":"X","type":"uint256[2]","internalType":"uint256[2]"},{"name":"Y","type":"uint256[2]","internalType":"uint256[2]"}]}]},{"name":"pubkeyRegistrationMessageHash","type":"tuple","internalType":"struct BN254.G1Point","components":[{"name":"X","type":"uint256","internalType":"uint256"},{"name":"Y","type":"uint256","internalType":"uint256"}]}],"outputs":[{"name":"operatorId","type":"bytes32","internalType":"bytes32"}],"stateMutability":"nonpayable"},{"type":"function","name":"registerOperator","inputs":[{"name":"operator","type":"address","internalType":"address"},{"name":"quorumNumbers","type":"bytes","internalType":"bytes"}],"outputs":[],"stateMutability":"nonpayable"},{"type":"function","name":"registryCoordinator","inputs":[],"outputs":[{"name":"","type":"address","internalType":"address"}],"stateMutability":"view"},{"type":"function","name":"setBLSPublicKey","inputs":[{"name":"account","type":"address","internalType":"address"},{"name":"pk","type":"tuple","internalType":"struct BN254.G1Point","components":[{"name":"X","type":"uint256","internalType":"uint256"},{"name":"Y","type":"uint256","internalType":"uint256"}]}],"outputs":[],"stateMutability":"nonpayable"},{"type":"event","name":"Initialized","inputs":[{"name":"version","type":"uint8","indexed":false,"internalType":"uint8"}],"anonymous":false},{"type":"event","name":"NewPubkeyRegistration","inputs":[{"name":"operator","type":"address","indexed":true,"internalType":"address"},{"name":"pubkeyG1","type":"tuple","indexed":false,"internalType":"struct BN254.G1Point","components":[{"name":"X","type":"uint256","internalType":"uint256"},{"name":"Y","type":"uint256","internalType":"uint256"}]},{"name":"pubkeyG2","type":"tuple","indexed":false,"internalType":"struct BN254.G2Point","components":[{"name":"X","type":"uint256[2]","internalType":"uint256[2]"},{"name":"Y","type":"uint256[2]","internalType":"uint256[2]"}]}],"anonymous":false},{"type":"event","name":"OperatorAddedToQuorums","inputs":[{"name":"operator","type":"address","indexed":false,"internalType":"address"},{"name":"operatorId","type":"bytes32","indexed":false,"internalType":"bytes32"},{"name":"quorumNumbers","type":"bytes","indexed":false,"internalType":"bytes"}],"anonymous":false},{"type":"event","name":"OperatorRemovedFromQuorums","inputs":[{"name":"operator","type":"address","indexed":false,"internalType":"address"},{"name":"operatorId","type":"bytes32","indexed":false,"internalType":"bytes32"},{"name":"quorumNumbers","type":"bytes","indexed":false,"internalType":"bytes"}],"anonymous":false}],"bytecode":{"object":"0x60a03461011c57601f611e0e38819003918201601f19168301916001600160401b038311848410176101215780849260209460405283398101031261011c57516001600160a01b0381169081900361011c5760805260005460ff8160081c166100c75760ff8082161061008c575b604051611cd69081610138823960805181818161073f01526114c50152f35b60ff90811916176000557f7f26b83ff96e1f2b6a682f133852f6798a09c465da95921460cefb3847402498602060405160ff8152a13861006d565b60405162461bcd60e51b815260206004820152602760248201527f496e697469616c697a61626c653a20636f6e747261637420697320696e697469604482015266616c697a696e6760c81b6064820152608490fd5b600080fd5b634e487b7160e01b600052604160045260246000fdfe6080604052600436101561001257600080fd5b60003560e01c8062a1f4cb1461013c57806313542a4e146100fb57806326d941f214610137578063377ed99d146101325780633fb279521461012d57806347b314e8146100f15780635f61a88414610128578063605747d51461012357806368bccaac1461011e5780636d14a987146101195780637916cea6146101145780637ff81a871461010f578063a3db80e21461010a578063bf79ce5814610105578063d5254a8c14610100578063de29fac0146100fb578063df4d09e0146100f6578063e8bb9ae6146100f15763f4e24fe5146100ec57600080fd5b610cdf565b6104ca565b610c45565b6101c7565b610b5d565b6108b9565b61086c565b61082b565b6107b6565b610729565b6105ec565b61055c565b6104f8565b610441565b6102ee565b610211565b610170565b600435906001600160a01b038216820361015757565b600080fd5b35906001600160a01b038216820361015757565b34610157576020366003190112610157576001600160a01b03610191610141565b166000526003602052604060002060018154910154906101c36040519283928360209093929193604081019481520152565b0390f35b34610157576020366003190112610157576001600160a01b036101e8610141565b1660005260016020526020604060002054604051908152f35b6004359060ff8216820361015757565b346101575760203660031901126101575761022a610201565b6102326114c3565b60ff8116600052600460205260406000205461028a576102626102889160ff166000526004602052604060002090565b61026a61039d565b600081524363ffffffff166020820152905b60006040830152610d32565b005b60405162461bcd60e51b815260206004820152603660248201527f424c5341706b52656769737472792e696e697469616c697a6551756f72756d3a6044820152752071756f72756d20616c72656164792065786973747360501b6064820152608490fd5b346101575760203660031901126101575760ff610309610201565b166000526004602052602063ffffffff60406000205416604051908152f35b634e487b7160e01b600052604160045260246000fd5b6040810190811067ffffffffffffffff82111761035a57604052565b610328565b6060810190811067ffffffffffffffff82111761035a57604052565b90601f8019910116810190811067ffffffffffffffff82111761035a57604052565b604051906103ac60608361037b565b565b906103ac604051928361037b565b906040600319830112610157576103d3600461015c565b9160243567ffffffffffffffff811161015757816023820112156101575780600401359067ffffffffffffffff821161035a576040519261041e601f8401601f19166020018561037b565b828452602483830101116101575781600092602460209301838601378301015290565b34610157577f73a2b7fb844724b971802ae9b15db094d4b7192df9d7350e14eb466b9b22eb4e610470366103bc565b906104796114c3565b61048c61048582610ef5565b50836115fa565b60018060a01b03811660005260016020526104b36040600020549260405193849384610daa565b0390a1005b60209060031901126101575760043590565b34610157576104d8366104b8565b6000526002602052602060018060a01b0360406000205416604051908152f35b346101575760203660031901126101575760ff610513610201565b61051b610e07565b5016600052600560205260408060002060018251916105398361033e565b805483520154602082015261055a8251809260208091805184520151910152565bf35b34610157576040366003190112610157576105b46105ae61057b610201565b60ff602435916000604080516105908161035f565b8281528260208201520152166000526004602052604060002061079e565b50610e3e565b604051809163ffffffff6040606084019267ffffffffffffffff19815116855282602082015116602086015201511660408301520390f35b3461015757606036600319011261015757610605610201565b6024359063ffffffff8216809203610157576105ae61063d9160ff61062960443590565b91166000526004602052604060002061079e565b9063ffffffff60208301511681106106be57816106836106929261066b60406101c396015163ffffffff1690565b9063ffffffff8216159182156106ae575b5050610e77565b5167ffffffffffffffff191690565b60405167ffffffffffffffff1990911681529081906020820190565b63ffffffff16119050388061067c565b60405162461bcd60e51b815260206004820152603e60248201527f424c5341706b52656769737472792e5f76616c696461746541706b486173684160448201527f74426c6f636b4e756d6265723a20696e64657820746f6f20726563656e7400006064820152608490fd5b34610157576000366003190112610157576040517f00000000000000000000000000000000000000000000000000000000000000006001600160a01b03168152602090f35b634e487b7160e01b600052603260045260246000fd5b80541561079957600052602060002090600090565b61076e565b80548210156107995760005260206000200190600090565b34610157576040366003190112610157576107cf610201565b60ff602435911660005260046020526040600020908154811015610157576107f69161079e565b50546040805182821b67ffffffffffffffff1916815260c083901c63ffffffff16602082015260e09290921c90820152606090f35b3461015757602036600319011261015757606061084e610849610141565b610ef5565b610865604051809360208091805184520151910152565b6040820152f35b346101575760203660031901126101575760ff610887610201565b166000526005602052604060002060018154910154906101c36040519283928360209093929193604081019481520152565b3461015757610160366003190112610157576108d3610141565b61010036602319011261015757604036610123190112610157576101c3906108f96114c3565b61091961090536610bca565b805160005260200151602052604060002090565b906109467fad3228b676f7d3cd4284a5443f17f1962b36e491b30a40b2405849e597ba5fb5831415610fb4565b6001600160a01b0381166000908152600160205260409020610969905415611013565b60008281526002602052604090205461098b906001600160a01b031615611083565b604051610a5290610a4d906109f79060208101906109ce816109c061014435610124356084356064356044356024358a6110ee565b03601f19810183528261037b565b5190207f30644e72e131a029b85045b68181585d2833e84879b9709143e1f593f0000001900690565b610a1b610a0336610bf2565b610a1583610a1036610bca565b6117c7565b9061180f565b90610a3d610a27611899565b91610a15610a3436610c1a565b91610a10611990565b90610a4736611170565b92611a75565b6111a9565b6001600160a01b0381166000908152600360205260409020610a7d9060643581556001608435910155565b6001600160a01b0381166000908152600160205260409020829055610acf81610ab0846000526002602052604060002090565b80546001600160a01b0319166001600160a01b03909216919091179055565b6040516001600160a01b03909116907fe3fb6613af2e8930cf85d47fcf6db10192224a64c6cbe8023e0eee1ba38280419080610b0a81611244565b0390a26040519081529081906020820190565b602060408183019282815284518094520192019060005b818110610b415750505090565b825163ffffffff16845260209384019390920191600101610b34565b346101575760403660031901126101575760043567ffffffffffffffff8111610157573660238201121561015757806004013567ffffffffffffffff8111610157573660248284010111610157576101c391610bbe91602480359201611309565b60405191829182610b1d565b60409060631901126101575760405190610be38261033e565b60643582526084356020830152565b60409060231901126101575760405190610c0b8261033e565b60243582526044356020830152565b6040906101231901126101575760405190610c348261033e565b610124358252610144356020830152565b3461015757606036600319011261015757610c5e610141565b610c6736610bf2565b90610cbf610c8383805160005260200151602052604060002090565b6001600160a01b039092166000818152600160209081526040808320869055948252600290529290922080546001600160a01b03191683179055565b600052600360205260016020604060002092805184550151910155600080f35b34610157577ff843ecd53a563675e62107be1494fdde4a3d49aeedaf8d88c616d85346e3500e610d0e366103bc565b90610d176114c3565b61048c610d2c610d2683610ef5565b50611bbe565b836115fa565b80546801000000000000000081101561035a57610d549160018201815561079e565b610d94578151602083015160409384015163ffffffff60c01b60c09290921b919091169190931c1760e09290921b6001600160e01b031916919091179055565b634e487b7160e01b600052600060045260246000fd5b919093929360018060a01b03168252602082015260606040820152825180606083015260005b818110610df1575060809293506000838284010152601f8019910116010190565b8060208092870101516080828601015201610dd0565b60405190610e148261033e565b60006020838281520152565b90604051610e2d8161033e565b602060018294805484520154910152565b90604051610e4b8161035f565b604081935467ffffffffffffffff1981831b16835263ffffffff8160c01c16602084015260e01c910152565b15610e7e57565b60405162461bcd60e51b815260206004820152604360248201527f424c5341706b52656769737472792e5f76616c696461746541706b486173684160448201527f74426c6f636b4e756d6265723a206e6f74206c61746573742061706b2075706460648201526261746560e81b608482015260a490fd5b610efd610e07565b5060018060a01b031690816000526003602052604060002091600160405193610f258561033e565b80548552015460208401526000526001602052604060002054918215610f49579190565b60405162461bcd60e51b815260206004820152603e60248201527f424c5341706b52656769737472792e676574526567697374657265645075626b60448201527f65793a206f70657261746f72206973206e6f74207265676973746572656400006064820152608490fd5b15610fbb57565b608460405162461bcd60e51b81526020600482015260406024820152600080516020611c8183398151915260448201527f4b65793a2063616e6e6f74207265676973746572207a65726f207075626b65796064820152fd5b1561101a57565b60405162461bcd60e51b81526020600482015260476024820152600080516020611c8183398151915260448201527f4b65793a206f70657261746f7220616c72656164792072656769737465726564606482015266207075626b657960c81b608482015260a490fd5b1561108a57565b60405162461bcd60e51b81526020600482015260426024820152600080516020611c8183398151915260448201527f4b65793a207075626c6963206b657920616c7265616479207265676973746572606482015261195960f21b608482015260a490fd5b949290916101409694928652602086015260408501526060840152604060a46080850137604060e460c08501376101008301526101208201520190565b9080601f83011215610157576040805192611146828561037b565b8391810192831161015757905b8282106111605750505090565b8135815260209182019101611153565b90608060a319830112610157576040516111898161033e565b60206111a4829461119b8160a461112b565b845260e461112b565b910152565b156111b057565b60405162461bcd60e51b815260206004820152606c6024820152600080516020611c8183398151915260448201527f4b65793a2065697468657220746865204731207369676e61747572652069732060648201527f77726f6e672c206f7220473120616e642047322070726976617465206b65792060848201526b0c8de40dcdee840dac2e8c6d60a31b60a482015260c490fd5b90604060e4608060c0850194606435815260843560208201528360a4818301370137565b67ffffffffffffffff811161035a5760051b60200190565b9061128a82611268565b611297604051918261037b565b82815280926112a8601f1991611268565b0190602036910137565b90821015610799570190565b634e487b7160e01b600052601160045260246000fd5b80156112e1576000190190565b6112be565b6000198101919082116112e157565b80518210156107995760209160051b010190565b91909161131583611280565b9260005b818110611327575050505090565b61134c6113466113388385876112b2565b356001600160f81b03191690565b60f81c90565b6113638160ff166000526004602052604060002090565b5480158015611496575b61141157805b611382575b5050600101611319565b8563ffffffff6113c26113b46113a58660ff166000526004602052604060002090565b6113ae866112e6565b9061079e565b505460c01c63ffffffff1690565b1611156113d8576113d2906112d4565b80611373565b60019291506113f56113ec61140a926112e6565b63ffffffff1690565b6113ff83896112f5565b9063ffffffff169052565b9038611378565b60405162461bcd60e51b815260206004820152605160248201527f424c5341706b52656769737472792e67657441706b496e64696365734174426c60448201527f6f636b4e756d6265723a20626c6f636b4e756d626572206973206265666f7265606482015270207468652066697273742075706461746560781b608482015260a490fd5b506114bc6113ec6113b46114b78560ff166000526004602052604060002090565b610784565b861061136d565b7f00000000000000000000000000000000000000000000000000000000000000006001600160a01b031633036114f557565b60405162461bcd60e51b815260206004820152604e60248201527f424c5341706b52656769737472792e6f6e6c795265676973747279436f6f726460448201527f696e61746f723a2063616c6c6572206973206e6f74207468652072656769737460648201526d393c9031b7b7b93234b730ba37b960911b608482015260a490fd5b908151811015610799570160200190565b1561158f57565b60405162461bcd60e51b815260206004820152603d60248201527f424c5341706b52656769737472792e5f70726f6365737351756f72756d41706b60448201527f5570646174653a2071756f72756d20646f6573206e6f742065786973740000006064820152608490fd5b9190611604610e07565b504363ffffffff169060005b845181101561179a57808361163b61134661162d6001958a611577565b516001600160f81b03191690565b6116528160ff166000526004602052604060002090565b549061165f821515611588565b6116eb6116ca6116bc6116908961168b6116868760ff166000526005602052604060002090565b610e20565b61180f565b610905816116ab8760ff166000526005602052604060002090565b906020600191805184550151910155565b67ffffffffffffffff191690565b926113ae6116e58460ff166000526004602052604060002090565b916112e6565b5090836117036113ec845463ffffffff9060c01c1690565b0361172c575061172692509060401c67ffffffffffffffff60c01b825416179055565b01611610565b81546001600160e01b031660e09490941b6001600160e01b031916939093179055611795916117689060ff166000526004602052604060002090565b61178461177361039d565b67ffffffffffffffff199093168352565b63ffffffff8716602083015261027c565b611726565b5050509050565b604051906101806117b2818461037b565b368337565b6040519060206117b2818461037b565b6040909291926117d5610e07565b93849160609160208551926117ea858561037b565b8436853780518452015160208301528482015260076107cf195a01fa1561180d57565bfe5b60409092919261181d610e07565b938491602060809281865193611833868661037b565b85368637805185520151828401528051868401520151606082015260066107cf195a01fa801561180d571561186457565b60405162461bcd60e51b815260206004820152600d60248201526c1958cb5859190b59985a5b1959609a1b6044820152606490fd5b6040516118a58161033e565b60409081516118b4838261037b565b82368237815260208251916118c9848461037b565b83368437015280516118db828261037b565b7f198e9393920d483a7260bfb731fb5d25f1aa493335a9e71297e485b7aef312c281527f1800deef121f1e76426a00665e5c4479674322d4f75edadd46debd5cd992f6ed6020820152815190611931838361037b565b7f275dc4a288d1afb3cbb1ac09187524c7db36395df7be3b99e673b13a075a65ec82527f1d9befcd05a5323e6da4d435f3b617cdb3af83285c2df711ef39c01571827f9d60208301526119868351938461037b565b8252602082015290565b611998610e07565b506040516119a58161033e565b600181526002602082015290565b906006820291808304600614901517156112e157565b9060028110156107995760051b0190565b90600182018092116112e157565b90600282018092116112e157565b90600382018092116112e157565b90600482018092116112e157565b90600582018092116112e157565b90600c8110156107995760051b0190565b15611a3857565b60405162461bcd60e51b81526020600482015260156024820152741c185a5c9a5b99cb5bdc18dbd9194b59985a5b1959605a1b6044820152606490fd5b929091611a8260406103ae565b9384526020840152611a9460406103ae565b9182526020820152611aa46117a1565b9160005b60028110611ae257505050602061018091611ac16117b7565b92839160086107cf195a01fa801561180d57611adc90611a31565b51151590565b80611aee6001926119b3565b611af882856119c9565b5151600090611b078389611a20565b526020611b1484876119c9565b510151611b29611b23846119da565b89611a20565b52611b3483876119c9565b515151611b43611b23846119e8565b52611b59611b5184886119c9565b515160200190565b51611b66611b23846119f6565b526020611b7384886119c9565b510151905051611b8b611b8583611a04565b88611a20565b52611bb7611bb1611baa6020611ba1868a6119c9565b51015160200190565b5192611a12565b87611a20565b5201611aa8565b611bc6610e07565b50805190811580611c74575b15611bf5575050604051611be760408261037b565b600081526000602082015290565b60207f30644e72e131a029b85045b68181585d97816a916871ca8d3c208c16d87cfd47910151067f30644e72e131a029b85045b68181585d97816a916871ca8d3c208c16d87cfd47037f30644e72e131a029b85045b68181585d97816a916871ca8d3c208c16d87cfd4781116112e1576040519161198660408461037b565b50602081015115611bd256fe424c5341706b52656769737472792e7265676973746572424c535075626c6963a2646970667358221220c050d9854811cfa3e91478c7d97242c57f2b70936a2feb17f7e9e764633d511264736f6c634300081a0033","linkReferences":{}},"methodIdentifiers":{"apkHistory(uint8,uint256)":"7916cea6","currentApk(uint8)":"a3db80e2","deregisterOperator(address,bytes)":"f4e24fe5","getApk(uint8)":"5f61a884","getApkHashAtBlockNumberAndIndex(uint8,uint32,uint256)":"68bccaac","getApkHistoryLength(uint8)":"377ed99d","getApkIndicesAtBlockNumber(bytes,uint256)":"d5254a8c","getApkUpdateAtIndex(uint8,uint256)":"605747d5","getOperatorFromPubkeyHash(bytes32)":"47b314e8","getOperatorId(address)":"13542a4e","getRegisteredPubkey(address)":"7ff81a87","initializeQuorum(uint8)":"26d941f2","operatorToPubkey(address)":"00a1f4cb","operatorToPubkeyHash(address)":"de29fac0","pubkeyHashToOperator(bytes32)":"e8bb9ae6","registerBLSPublicKey(address,((uint256,uint256),(uint256,uint256),(uint256[2],uint256[2])),(uint256,uint256))":"bf79ce58","registerOperator(address,bytes)":"3fb27952","registryCoordinator()":"6d14a987","setBLSPublicKey(address,(uint256,uint256))":"df4d09e0"},"id":101}