{"abi":[{"type":"constructor","inputs":[{"name":"_registryCoordinator","type":"address","internalType":"contract IRegistryCoordinator"},{"name":"_delegationManager","type":"address","internalType":"contract IDelegationManager"}],"stateMutability":"nonpayable"},{"type":"function","name":"MAX_WEIGHING_FUNCTION_LENGTH","inputs":[],"outputs":[{"name":"","type":"uint8","internalType":"uint8"}],"stateMutability":"view"},{"type":"function","name":"WEIGHTING_DIVISOR","inputs":[],"outputs":[{"name":"","type":"uint256","internalType":"uint256"}],"stateMutability":"view"},{"type":"function","name":"addStrategies","inputs":[{"name":"quorumNumber","type":"uint8","internalType":"uint8"},{"name":"_strategyParams","type":"tuple[]","internalType":"struct IStakeRegistry.StrategyParams[]","components":[{"name":"strategy","type":"address","internalType":"contract IStrategy"},{"name":"multiplier","type":"uint96","internalType":"uint96"}]}],"outputs":[],"stateMutability":"nonpayable"},{"type":"function","name":"applyDelta","inputs":[{"name":"value","type":"uint96","internalType":"uint96"},{"name":"delta","type":"int256","internalType":"int256"}],"outputs":[{"name":"","type":"uint96","internalType":"uint96"}],"stateMutability":"pure"},{"type":"function","name":"calculateDelta","inputs":[{"name":"prev","type":"uint96","internalType":"uint96"},{"name":"cur","type":"uint96","internalType":"uint96"}],"outputs":[{"name":"","type":"int256","internalType":"int256"}],"stateMutability":"pure"},{"type":"function","name":"delegation","inputs":[],"outputs":[{"name":"","type":"address","internalType":"contract IDelegationManager"}],"stateMutability":"view"},{"type":"function","name":"deregisterOperator","inputs":[{"name":"operatorId","type":"bytes32","internalType":"bytes32"},{"name":"quorumNumbers","type":"bytes","internalType":"bytes"}],"outputs":[],"stateMutability":"nonpayable"},{"type":"function","name":"getCurrentStake","inputs":[{"name":"operatorId","type":"bytes32","internalType":"bytes32"},{"name":"quorumNumber","type":"uint8","internalType":"uint8"}],"outputs":[{"name":"","type":"uint96","internalType":"uint96"}],"stateMutability":"view"},{"type":"function","name":"getCurrentTotalStake","inputs":[{"name":"quorumNumber","type":"uint8","internalType":"uint8"}],"outputs":[{"name":"","type":"uint96","internalType":"uint96"}],"stateMutability":"view"},{"type":"function","name":"getLatestStakeUpdate","inputs":[{"name":"operatorId","type":"bytes32","internalType":"bytes32"},{"name":"quorumNumber","type":"uint8","internalType":"uint8"}],"outputs":[{"name":"","type":"tuple","internalType":"struct IStakeRegistry.StakeUpdate","components":[{"name":"updateBlockNumber","type":"uint32","internalType":"uint32"},{"name":"nextUpdateBlockNumber","type":"uint32","internalType":"uint32"},{"name":"stake","type":"uint96","internalType":"uint96"}]}],"stateMutability":"view"},{"type":"function","name":"getStakeAtBlockNumber","inputs":[{"name":"operatorId","type":"bytes32","internalType":"bytes32"},{"name":"quorumNumber","type":"uint8","internalType":"uint8"},{"name":"blockNumber","type":"uint32","internalType":"uint32"}],"outputs":[{"name":"","type":"uint96","internalType":"uint96"}],"stateMutability":"view"},{"type":"function","name":"getStakeAtBlockNumberAndIndex","inputs":[{"name":"quorumNumber","type":"uint8","internalType":"uint8"},{"name":"blockNumber","type":"uint32","internalType":"uint32"},{"name":"operatorId","type":"bytes32","internalType":"bytes32"},{"name":"index","type":"uint256","internalType":"uint256"}],"outputs":[{"name":"","type":"uint96","internalType":"uint96"}],"stateMutability":"view"},{"type":"function","name":"getStakeHistory","inputs":[{"name":"operatorId","type":"bytes32","internalType":"bytes32"},{"name":"quorumNumber","type":"uint8","internalType":"uint8"}],"outputs":[{"name":"","type":"tuple[]","internalType":"struct IStakeRegistry.StakeUpdate[]","components":[{"name":"updateBlockNumber","type":"uint32","internalType":"uint32"},{"name":"nextUpdateBlockNumber","type":"uint32","internalType":"uint32"},{"name":"stake","type":"uint96","internalType":"uint96"}]}],"stateMutability":"view"},{"type":"function","name":"getStakeHistoryLength","inputs":[{"name":"operatorId","type":"bytes32","internalType":"bytes32"},{"name":"quorumNumber","type":"uint8","internalType":"uint8"}],"outputs":[{"name":"","type":"uint256","internalType":"uint256"}],"stateMutability":"view"},{"type":"function","name":"getStakeUpdateAtIndex","inputs":[{"name":"quorumNumber","type":"uint8","internalType":"uint8"},{"name":"operatorId","type":"bytes32","internalType":"bytes32"},{"name":"index","type":"uint256","internalType":"uint256"}],"outputs":[{"name":"","type":"tuple","internalType":"struct IStakeRegistry.StakeUpdate","components":[{"name":"updateBlockNumber","type":"uint32","internalType":"uint32"},{"name":"nextUpdateBlockNumber","type":"uint32","internalType":"uint32"},{"name":"stake","type":"uint96","internalType":"uint96"}]}],"stateMutability":"view"},{"type":"function","name":"getStakeUpdateIndexAtBlockNumber","inputs":[{"name":"operatorId","type":"bytes32","internalType":"bytes32"},{"name":"quorumNumber","type":"uint8","internalType":"uint8"},{"name":"blockNumber","type":"uint32","internalType":"uint32"}],"outputs":[{"name":"","type":"uint32","internalType":"uint32"}],"stateMutability":"view"},{"type":"function","name":"getTotalStakeAtBlockNumberFromIndex","inputs":[{"name":"quorumNumber","type":"uint8","internalType":"uint8"},{"name":"blockNumber","type":"uint32","internalType":"uint32"},{"name":"index","type":"uint256","internalType":"uint256"}],"outputs":[{"name":"","type":"uint96","internalType":"uint96"}],"stateMutability":"view"},{"type":"function","name":"getTotalStakeHistoryLength","inputs":[{"name":"quorumNumber","type":"uint8","internalType":"uint8"}],"outputs":[{"name":"","type":"uint256","internalType":"uint256"}],"stateMutability":"view"},{"type":"function","name":"getTotalStakeIndicesAtBlockNumber","inputs":[{"name":"blockNumber","type":"uint32","internalType":"uint32"},{"name":"quorumNumbers","type":"bytes","internalType":"bytes"}],"outputs":[{"name":"","type":"uint32[]","internalType":"uint32[]"}],"stateMutability":"view"},{"type":"function","name":"getTotalStakeUpdateAtIndex","inputs":[{"name":"quorumNumber","type":"uint8","internalType":"uint8"},{"name":"index","type":"uint256","internalType":"uint256"}],"outputs":[{"name":"","type":"tuple","internalType":"struct IStakeRegistry.StakeUpdate","components":[{"name":"updateBlockNumber","type":"uint32","internalType":"uint32"},{"name":"nextUpdateBlockNumber","type":"uint32","internalType":"uint32"},{"name":"stake","type":"uint96","internalType":"uint96"}]}],"stateMutability":"view"},{"type":"function","name":"initializeQuorum","inputs":[{"name":"quorumNumber","type":"uint8","internalType":"uint8"},{"name":"minimumStake","type":"uint96","internalType":"uint96"},{"name":"_strategyParams","type":"tuple[]","internalType":"struct IStakeRegistry.StrategyParams[]","components":[{"name":"strategy","type":"address","internalType":"contract IStrategy"},{"name":"multiplier","type":"uint96","internalType":"uint96"}]}],"outputs":[],"stateMutability":"nonpayable"},{"type":"function","name":"minimumStakeForQuorum","inputs":[{"name":"","type":"uint8","internalType":"uint8"}],"outputs":[{"name":"","type":"uint96","internalType":"uint96"}],"stateMutability":"view"},{"type":"function","name":"modifyStrategyParams","inputs":[{"name":"quorumNumber","type":"uint8","internalType":"uint8"},{"name":"strategyIndices","type":"uint256[]","internalType":"uint256[]"},{"name":"newMultipliers","type":"uint96[]","internalType":"uint96[]"}],"outputs":[],"stateMutability":"nonpayable"},{"type":"function","name":"recordOperatorStakeUpdate","inputs":[{"name":"operatorId","type":"bytes32","internalType":"bytes32"},{"name":"quorumNumber","type":"uint8","internalType":"uint8"},{"name":"newStake","type":"uint96","internalType":"uint96"}],"outputs":[{"name":"","type":"int256","internalType":"int256"}],"stateMutability":"nonpayable"},{"type":"function","name":"recordTotalStakeUpdate","inputs":[{"name":"quorumNumber","type":"uint8","internalType":"uint8"},{"name":"stakeDelta","type":"int256","internalType":"int256"}],"outputs":[],"stateMutability":"nonpayable"},{"type":"function","name":"registerOperator","inputs":[{"name":"operator","type":"address","internalType":"address"},{"name":"operatorId","type":"bytes32","internalType":"bytes32"},{"name":"quorumNumbers","type":"bytes","internalType":"bytes"}],"outputs":[{"name":"","type":"uint96[]","internalType":"uint96[]"},{"name":"","type":"uint96[]","internalType":"uint96[]"}],"stateMutability":"nonpayable"},{"type":"function","name":"registryCoordinator","inputs":[],"outputs":[{"name":"","type":"address","internalType":"address"}],"stateMutability":"view"},{"type":"function","name":"removeStrategies","inputs":[{"name":"quorumNumber","type":"uint8","internalType":"uint8"},{"name":"indicesToRemove","type":"uint256[]","internalType":"uint256[]"}],"outputs":[],"stateMutability":"nonpayable"},{"type":"function","name":"setMinimumStakeForQuorum","inputs":[{"name":"quorumNumber","type":"uint8","internalType":"uint8"},{"name":"minimumStake","type":"uint96","internalType":"uint96"}],"outputs":[],"stateMutability":"nonpayable"},{"type":"function","name":"strategiesPerQuorum","inputs":[{"name":"","type":"uint8","internalType":"uint8"},{"name":"","type":"uint256","internalType":"uint256"}],"outputs":[{"name":"","type":"address","internalType":"contract IStrategy"}],"stateMutability":"view"},{"type":"function","name":"strategyParams","inputs":[{"name":"","type":"uint8","internalType":"uint8"},{"name":"","type":"uint256","internalType":"uint256"}],"outputs":[{"name":"strategy","type":"address","internalType":"contract IStrategy"},{"name":"multiplier","type":"uint96","internalType":"uint96"}],"stateMutability":"view"},{"type":"function","name":"strategyParamsByIndex","inputs":[{"name":"quorumNumber","type":"uint8","internalType":"uint8"},{"name":"index","type":"uint256","internalType":"uint256"}],"outputs":[{"name":"","type":"tuple","internalType":"struct IStakeRegistry.StrategyParams","components":[{"name":"strategy","type":"address","internalType":"contract IStrategy"},{"name":"multiplier","type":"uint96","internalType":"uint96"}]}],"stateMutability":"view"},{"type":"function","name":"strategyParamsLength","inputs":[{"name":"quorumNumber","type":"uint8","internalType":"uint8"}],"outputs":[{"name":"","type":"uint256","internalType":"uint256"}],"stateMutability":"view"},{"type":"function","name":"updateOperatorStake","inputs":[{"name":"operator","type":"address","internalType":"address"},{"name":"operatorId","type":"bytes32","internalType":"bytes32"},{"name":"quorumNumbers","type":"bytes","internalType":"bytes"}],"outputs":[{"name":"","type":"uint192","internalType":"uint192"}],"stateMutability":"nonpayable"},{"type":"function","name":"weightOfOperatorForQuorum","inputs":[{"name":"quorumNumber","type":"uint8","internalType":"uint8"},{"name":"operator","type":"address","internalType":"address"}],"outputs":[{"name":"","type":"uint96","internalType":"uint96"}],"stateMutability":"view"},{"type":"event","name":"MinimumStakeForQuorumUpdated","inputs":[{"name":"quorumNumber","type":"uint8","indexed":true,"internalType":"uint8"},{"name":"minimumStake","type":"uint96","indexed":false,"internalType":"uint96"}],"anonymous":false},{"type":"event","name":"OperatorStakeUpdate","inputs":[{"name":"operatorId","type":"bytes32","indexed":true,"internalType":"bytes32"},{"name":"quorumNumber","type":"uint8","indexed":false,"internalType":"uint8"},{"name":"stake","type":"uint96","indexed":false,"internalType":"uint96"}],"anonymous":false},{"type":"event","name":"QuorumCreated","inputs":[{"name":"quorumNumber","type":"uint8","indexed":true,"internalType":"uint8"}],"anonymous":false},{"type":"event","name":"StrategyAddedToQuorum","inputs":[{"name":"quorumNumber","type":"uint8","indexed":true,"internalType":"uint8"},{"name":"strategy","type":"address","indexed":false,"internalType":"contract IStrategy"}],"anonymous":false},{"type":"event","name":"StrategyMultiplierUpdated","inputs":[{"name":"quorumNumber","type":"uint8","indexed":true,"internalType":"uint8"},{"name":"strategy","type":"address","indexed":false,"internalType":"contract IStrategy"},{"name":"multiplier","type":"uint256","indexed":false,"internalType":"uint256"}],"anonymous":false},{"type":"event","name":"StrategyRemovedFromQuorum","inputs":[{"name":"quorumNumber","type":"uint8","indexed":true,"internalType":"uint8"},{"name":"strategy","type":"address","indexed":false,"internalType":"contract IStrategy"}],"anonymous":false}],"bytecode":{"object":"0x60c034609e57601f612b9538819003918201601f19168301916001600160401b0383118484101760a3578084926040948552833981010312609e5780516001600160a01b0381169190829003609e5760200151906001600160a01b0382168203609e5760a052608052604051612adb90816100ba82396080518181816104300152611c4c015260a051818181610afa01528181611e1d0152611f3a0152f35b600080fd5b634e487b7160e01b600052604160045260246000fdfe6080604052600436101561001257600080fd5b60003560e01c80630390a4d5146115295780630491b41c146114f557806308732461146114965780631f9b74e01461144257806320b662981461121157806325504777146110a55780632cd9594014610fa15780633ca5a5f514610f6d5780634bd26e0914610f2a5780635401ed2714610f025780635e5a677514610edf5780635f1f2d7714610bc057806366acfefe14610b295780636d14a98714610ae457806374454c6d14610aa85780637c17234714610a8d5780637f42982214610a5557806381c07502146107d85780639f3ccf651461077d578063ac6bfb031461072b578063adc804da146106c1578063b6904b781461067f578063bc9a40c314610644578063bd29b8cd146105c5578063c46778a514610588578063c601527d14610535578063c8294c56146104e8578063d5eccc0514610486578063dd9846b91461045f578063df5cf7231461041a578063f2be94ae146103a7578063f509551a14610373578063f851e19814610315578063fa28c627146102be5763ff694a771461019d57600080fd5b346102b95760603660031901126102b9576101b661154e565b6101be611716565b906044356001600160401b0381116102b9576101de90369060040161173f565b6101e6611f38565b6102008260ff166000526001602052604060002054151590565b6102565760ff9261021461021a92846123e7565b82612381565b1660005260016020526102546040600020604051906102388261167c565b63ffffffff4316825260006020830152600060408301526119d8565b005b60405162461bcd60e51b815260206004820152603560248201527f5374616b6552656769737472792e696e697469616c697a6551756f72756d3a2060448201527471756f72756d20616c72656164792065786973747360581b6064820152608490fd5b600080fd5b346102b95760206001600160601b036103076103016102dc366117e4565b908260009493945260028752604060002060ff821660005287526040600020936128f0565b9061156e565b505460401c16604051908152f35b346102b95760403660031901126102b957606061033b61033361155e565b60043561192f565b61037160405180926001600160601b036040809263ffffffff815116855263ffffffff6020820151166020860152015116910152565bf35b346102b95760403660031901126102b957602061039f610391611700565b610399611716565b90612a3f565b604051908152f35b346102b95760803660031901126102b95760206001600160601b0360406103cc61154e565b6103d461172c565b906044356000526002855260ff836000209116600052845261040f610408610402846000206064359061156e565b5061188b565b9182612789565b015116604051908152f35b346102b95760003660031901126102b9576040517f00000000000000000000000000000000000000000000000000000000000000006001600160a01b03168152602090f35b346102b9576020610478610472366117e4565b916128f0565b63ffffffff60405191168152f35b346102b95760203660031901126102b95760ff6104a161154e565b166000908152600160205260409020805460001981019081116104d2576103076001600160601b039160209361156e565b634e487b7160e01b600052601160045260246000fd5b346102b95760603660031901126102b95760206001600160601b03604061050d61154e565b60ff61051761172c565b91166000526001845261040f6104086104026044358560002061156e565b346102b95760403660031901126102b95761054e61154e565b602435906001600160401b0382116102b95761057161025492369060040161173f565b9061057a611e08565b61058381611b1c565b6123e7565b346102b95760203660031901126102b95760ff6105a361154e565b16600052600060205260206001600160601b0360406000205416604051908152f35b346102b95760403660031901126102b9576004356024356001600160401b0381116102b9576105f89036906004016115cc565b610603929192611f38565b60005b81811061060f57005b8061063d610620600193858861186b565b3560f81c61062d81611b1c565b6106378187611fea565b90611a42565b5001610606565b346102b95760403660031901126102b95761025461066061154e565b610668611716565b90610671611e08565b61067a81611b1c565b612381565b346102b95760403660031901126102b95760ff61069a61154e565b6106a26118d2565b50166000526001602052606061033b610402602435604060002061156e565b346102b95760403660031901126102b95760ff6106dc61154e565b6106e46118f1565b5016600052600360205260406107086107026024358360002061156e565b5061190a565b6001600160601b03602083519260018060a01b0381511684520151166020820152f35b346102b95760603660031901126102b95761074461154e565b61074c6118d2565b50602435600052600260205260ff60406000209116600052602052606061033b61040260406000206044359061156e565b346102b95760403660031901126102b95761079661154e565b60ff60243591166000526004602052604060002080548210156102b9576020916107bf9161156e565b905460405160039290921b1c6001600160a01b03168152f35b346102b95760403660031901126102b95760043563ffffffff81168091036102b9576024356001600160401b0381116102b9576108199036906004016115cc565b9190610824836116e9565b9161083260405193846116c8565b83835261083e846116e9565b602084019490601f190136863760005b8181106108a05785856040519182916020830190602084525180915260408301919060005b818110610881575050500390f35b825163ffffffff16845285945060209384019390920191600101610873565b6108ad818386989661186b565b3560f81c6108ba81611b1c565b6000818152600160205260408120805415610a415790602091815220908463ffffffff6000935416116109b05780825260016020526040822054825b81811061090d575b5050505060010194929461084e565b82845260016020526040842061092382846118c5565b60001981019190821161099c57610940899263ffffffff9261156e565b5054161115610951576001016108f6565b9061095c92506118c5565b60001981019190821161098857509063ffffffff6001921661097e8288611877565b52908780806108fe565b634e487b7160e01b81526011600452602490fd5b634e487b7160e01b86526011600452602486fd5b60405162461bcd60e51b815260206004820152605b60248201527f5374616b6552656769737472792e676574546f74616c5374616b65496e64696360448201527f65734174426c6f636b4e756d6265723a2071756f72756d20686173206e6f207360648201527f74616b6520686973746f727920617420626c6f636b4e756d6265720000000000608482015260a490fd5b634e487b7160e01b82526032600452602482fd5b346102b95760403660031901126102b9576020610a7c610a73611700565b60243590612336565b6001600160601b0360405191168152f35b346102b95760003660031901126102b9576020604051818152f35b346102b95760603660031901126102b957610ac161155e565b604435906001600160601b03821682036102b95760209161039f91600435612185565b346102b95760003660031901126102b9576040517f00000000000000000000000000000000000000000000000000000000000000006001600160a01b03168152602090f35b346102b957610b37366115f9565b929091610b42611f38565b60009360005b818110610b63576040516001600160c01b0387168152602090f35b80610b9c610b74600193858961186b565b3560f81c610b8181611b1c565b610b8b8782611bbc565b15610ba3575b610637908288612185565b5001610b48565b5083811b60c085901b859003908116991698909817976000610b91565b346102b95760403660031901126102b957610bd961154e565b602435906001600160401b0382116102b957366023830112156102b957816004013591610c05836116e9565b92610c1360405194856116c8565b8084526024602085019160051b830101913683116102b957602401905b828210610ecf57505050610c42611e08565b610c4b81611b1c565b8151908115610e645760ff1691826000526003602052604060002083600052600460205260406000209360005b848110610c8157005b817f31fa2e2cd280c9375e13ffcf3d81e2378100186e4058f8d3ddb690b82dcd31f76020610cb9610cb28589611877565b518761156e565b50546040516001600160a01b039091168152a2817f11a5641322da1dff56a4b66eaac31ffa465295ece907cd163437793b4d009a756040610cfd610cb28589611877565b505481516001600160a01b03909116815260006020820152a2825460001981019081116104d257610d2e908461156e565b50610d43610d3c8387611877565b518561156e565b610e2057818103610e36575b505082548015610e0a5760001901610d67818561156e565b610e2057600090558355855460001981019081116104d257610d8c610dd6918861156e565b905460039190911b1c6001600160a01b0316610db2610dab8488611877565b518961156e565b81546001600160a01b0393841660039290921b91821b9390911b1916919091179055565b8554908115610e0a5760019160001901610df0818961156e565b815490858060a01b039060031b1b19169055875501610c78565b634e487b7160e01b600052603160045260246000fd5b634e487b7160e01b600052600060045260246000fd5b815481546001600160a01b039091166001600160a01b03199182168117835592541690911790558680610d4f565b60405162461bcd60e51b815260206004820152603d60248201527f5374616b6552656769737472792e72656d6f7665537472617465676965733a2060448201527f6e6f20696e646963657320746f2072656d6f76652070726f76696465640000006064820152608490fd5b8135815260209182019101610c30565b346102b95760003660031901126102b9576020604051670de0b6b3a76400008152f35b346102b95760403660031901126102b95760206001600160601b03604061040f61033361155e565b346102b95760403660031901126102b957610f4361155e565b600435600052600260205260ff604060002091166000526020526020604060002054604051908152f35b346102b95760203660031901126102b95760ff610f8861154e565b1660005260036020526020604060002054604051908152f35b346102b95760403660031901126102b957610fba61155e565b600435600052600260205260ff604060002091166000526020526040600020805490610fe5826116e9565b91610ff360405193846116c8565b80835260208301809260005260206000206000915b8383106110885784866040519182916020830190602084525180915260408301919060005b81811061103b575050500390f35b91935091602060608261107a60019488516001600160601b036040809263ffffffff815116855263ffffffff6020820151166020860152015116910152565b01940191019184939261102d565b6001602081926110978561188b565b815201920192019190611008565b346102b9576110b3366115f9565b906110bf939293611f38565b6110c882611839565b926110d283611839565b9260005b81811061110b576110f9866111078760405193849360408552604085019061163f565b90838203602085015261163f565b0390f35b61111681838661186b565b3560f81c9061112482611b1c565b61112e8483611bbc565b92909215611180578281611148600195611164948d612185565b916001600160601b0361115b868d611877565b91169052611a42565b6001600160601b036111768389611877565b91169052016110d6565b60405162461bcd60e51b815260206004820152605b60248201527f5374616b6552656769737472792e72656769737465724f70657261746f723a2060448201527f4f70657261746f7220646f6573206e6f74206d656574206d696e696d756d207360648201527f74616b6520726571756972656d656e7420666f722071756f72756d0000000000608482015260a490fd5b346102b95760603660031901126102b95761122a61154e565b6024356001600160401b0381116102b95761124990369060040161159c565b916044356001600160401b0381116102b95761126990369060040161159c565b9091611273611e08565b61127c81611b1c565b84156113d85784820361136d5760ff169182600052600360205260406000209360005b8681106112a857005b806112fa6112c16112bc6001948888611815565b611825565b6112d66112cf848c88611815565b358a61156e565b5080546001600160a01b031660a09290921b6001600160a01b031916919091179055565b857f11a5641322da1dff56a4b66eaac31ffa465295ece907cd163437793b4d009a7561132a6112cf848c88611815565b50848060a01b039054166113426112bc858a8a611815565b604080516001600160a01b039390931683526001600160601b0391909116602083015290a20161129f565b60405162461bcd60e51b815260206004820152603960248201527f5374616b6552656769737472792e6d6f6469667953747261746567795061726160448201527f6d733a20696e707574206c656e677468206d69736d61746368000000000000006064820152608490fd5b608460405162461bcd60e51b815260206004820152604060248201527f5374616b6552656769737472792e6d6f6469667953747261746567795061726160448201527f6d733a206e6f20737472617465677920696e64696365732070726f76696465646064820152fd5b346102b95760403660031901126102b95761145b61154e565b602435906001600160a01b03821682036102b9576020918161147f61148493611b1c565b611bbc565b506001600160601b0360405191168152f35b346102b95760403660031901126102b9576114af61154e565b60ff60243591166000526003602052604060002080548210156102b9576040916114d89161156e565b505481516001600160a01b038216815260a09190911c6020820152f35b346102b95760203660031901126102b95760ff61151061154e565b1660005260016020526020604060002054604051908152f35b346102b95760403660031901126102b95761025461154561154e565b60243590611a42565b6004359060ff821682036102b957565b6024359060ff821682036102b957565b80548210156115865760005260206000200190600090565b634e487b7160e01b600052603260045260246000fd5b9181601f840112156102b9578235916001600160401b0383116102b9576020808501948460051b0101116102b957565b9181601f840112156102b9578235916001600160401b0383116102b957602083818601950101116102b957565b60606003198201126102b9576004356001600160a01b03811681036102b9579160243591604435906001600160401b0382116102b95761163b916004016115cc565b9091565b906020808351928381520192019060005b81811061165d5750505090565b82516001600160601b0316845260209384019390920191600101611650565b606081019081106001600160401b0382111761169757604052565b634e487b7160e01b600052604160045260246000fd5b604081019081106001600160401b0382111761169757604052565b90601f801991011681019081106001600160401b0382111761169757604052565b6001600160401b0381116116975760051b60200190565b600435906001600160601b03821682036102b957565b602435906001600160601b03821682036102b957565b6024359063ffffffff821682036102b957565b81601f820112156102b957803590611756826116e9565b9261176460405194856116c8565b82845260208085019360061b830101918183116102b957602001925b82841061178e575050505090565b6040848303126102b957604051906117a5826116ad565b84356001600160a01b03811681036102b95782526020850135906001600160601b03821682036102b95782602092836040950152815201930192611780565b60609060031901126102b9576004359060243560ff811681036102b9579060443563ffffffff811681036102b95790565b91908110156115865760051b0190565b356001600160601b03811681036102b95790565b90611843826116e9565b61185060405191826116c8565b8281528092611861601f19916116e9565b0190602036910137565b90821015611586570190565b80518210156115865760209160051b010190565b906040516118988161167c565b60406001600160601b0382945463ffffffff8116845263ffffffff8160201c166020850152821c16910152565b919082039182116104d257565b604051906118df8261167c565b60006040838281528260208201520152565b604051906118fe826116ad565b60006020838281520152565b90604051611917816116ad565b91546001600160a01b038116835260a01c6020830152565b906119386118d2565b50816000526002602052604060002060ff8216600052602052604060002054906119606118d2565b928261196c5750505090565b90919250600052600260205260ff60406000209116600052602052604060002060001982019182116104d2576119a5916104029161156e565b90565b906bffffffffffffffffffffffff60401b82549160401b16906bffffffffffffffffffffffff60401b1916179055565b8054600160401b811015611697576119f59160018201815561156e565b610e20578151815460208085015167ffffffff00000000911b1663ffffffff90921667ffffffffffffffff1990911617178155611a40916001600160601b03906040015116906119a8565b565b60ff166000818152600160205260409020805491929160001981019081116104d257611a6d9161156e565b50908015611b095763ffffffff611a928354926001600160601b038460401c16612336565b93849243831692168203611aab5750506119a5916119a8565b835467ffffffff000000001916602083901b67ffffffff0000000016179093556119a5929091506000526001602052604060002060405191611aec8361167c565b8252600060208301526001600160601b03841660408301526119d8565b506001600160601b0391505460401c1690565b611b369060ff166000526001602052604060002054151590565b15611b3d57565b60405162461bcd60e51b815260206004820152603160248201527f5374616b6552656769737472792e71756f72756d4578697374733a2071756f726044820152701d5b48191bd95cc81b9bdd08195e1a5cdd607a1b6064820152608490fd5b906001600160601b03809116911601906001600160601b0382116104d257565b919060ff600093169081600052600360205260406000205490600060405190611be4826116ad565b8082526020918201526000848152600480835260408083208151639004134760e01b81526001600160a01b03909616928601929092526024850152805460448501819052908252918120839260648401925b818110611de657506000939283900391508290507f00000000000000000000000000000000000000000000000000000000000000006001600160a01b03165afa908115611dda57600091611d40575b5060005b828110611cb95750505060005260006020526001600160601b03604060002054166001600160601b038316101590565b836000526003602052611cd361070282604060002061156e565b611cdd8284611877565b51611cec575b50600101611c89565b6001600160601b036020611d0384869a959a611877565b5192015116908181029181830414901517156104d2576001916001600160601b03670de0b6b3a7640000611d3993041690611b9c565b9590611ce3565b3d8083833e611d4f81836116c8565b810190602081830312611dd2578051906001600160401b038211611dd6570181601f82011215611dd257805190611d85826116e9565b93611d9360405195866116c8565b82855260208086019360051b830101938411611dcf5750602001905b828210611dbf5750505038611c85565b8151815260209182019101611daf565b80fd5b8280fd5b8380fd5b6040513d6000823e3d90fd5b82546001600160a01b0316845285945060209093019260019283019201611c36565b604051638da5cb5b60e01b81526020816004817f00000000000000000000000000000000000000000000000000000000000000006001600160a01b03165afa908115611dda57600091611ef2575b506001600160a01b03163303611e6857565b60405162461bcd60e51b815260206004820152605660248201527f5374616b6552656769737472792e6f6e6c79436f6f7264696e61746f724f776e60448201527f65723a2063616c6c6572206973206e6f7420746865206f776e6572206f6620746064820152753432903932b3b4b9ba393ca1b7b7b93234b730ba37b960511b608482015260a490fd5b6020813d602011611f30575b81611f0b602093836116c8565b81010312611f2c5751906001600160a01b0382168203611dcf575038611e56565b5080fd5b3d9150611efe565b7f00000000000000000000000000000000000000000000000000000000000000006001600160a01b03163303611f6a57565b60405162461bcd60e51b815260206004820152604c60248201527f5374616b6552656769737472792e6f6e6c795265676973747279436f6f72646960448201527f6e61746f723a2063616c6c6572206973206e6f7420746865205265676973747260648201526b3ca1b7b7b93234b730ba37b960a11b608482015260a490fd5b90600090826000526002602052604060002060ff8216600052602052604060002054801560001461208257509082600080516020612a6683398151915260406000946119a5968652600260205281862060ff8216875260205261206e8287208351906120558261167c565b63ffffffff4316825288602083015288858301526119d8565b60ff825191168152856020820152a2612a3f565b909150826000526002602052604060002060ff831660005260205260406000209060001981019081116104d2576120b89161156e565b508054926001600160601b038460401c1691821561217b576040600094600080516020612a668339815191529263ffffffff6119a5988143169182911614881461211d5750805473ffffffffffffffffffffffff00000000000000001916905561206e565b815467ffffffff000000001916602082901b67ffffffff00000000161790915561217690858852600260205283882060ff841689526020528388208451916121648361167c565b825288602083015288858301526119d8565b61206e565b5050505050600090565b9190600090836000526002602052604060002060ff82166000526020526040600020548015600014612232575092600080516020612a6683398151915260406119a5958360005260026020528160002060ff8216600052602052612215826000208351906121f28261167c565b63ffffffff43168252600060208301526001600160601b038916858301526119d8565b60ff8251911681526001600160601b0386166020820152a2612a3f565b909150836000526002602052604060002060ff831660005260205260406000209060001981019081116104d2576122689161156e565b50928354916001600160601b038360401c16926001600160601b0385169182851461232a576119a5968663ffffffff600080516020612a668339815191529560409582431692839116146000146122c95750506122c4916119a8565b612215565b835467ffffffff000000001916602083901b67ffffffff0000000016179093556122c4929091508660005260026020528460002060ff851660005260205284600020908551926123188461167c565b835260006020840152858301526119d8565b50505050505050600090565b90600081121561236d57600160ff1b81146104d2576001600160601b038091600003169116036001600160601b0381116104d25790565b906001600160601b036119a5921690611b9c565b602060ff7f26eecff2b70b0a71104ff4d940ba7162d23a95c248771fc487a7be17a596b3cf92169283600052600082526001600160601b036040600020911690816001600160601b0319825416179055604051908152a2565b919082018092116104d257565b8151156127305760ff825191169182600052600360205260406000205492602061241184866123da565b116126c9576000925b808410612428575050505050565b909192939460005b61243a86886123da565b8110156124d95783600052600360205261245881604060002061156e565b50546001600160a01b03908116906124708888611877565b5151161461248057600101612430565b60405162461bcd60e51b815260206004820152603d6024820152600080516020612a8683398151915260448201527f3a2063616e6e6f74206164642073616d652073747261746567792032780000006064820152608490fd5b509493929190926001600160601b0360206124f48386611877565b51015116156126615781600052600360205260406000206125158285611877565b51908054600160401b811015611697576125349160018201815561156e565b610e205781516020929092015160a01b6001600160a01b0319166001600160a01b03929092169190911790556000828152600460205260409020906001600160a01b036125818286611877565b515116825490600160401b82101561169757610db282600195866125a79501815561156e565b827f10565e56cacbf32eca267945f054fec02e59750032d113d3302182ad967f54046020848060a01b036125db8589611877565b515116604051908152a2827f11a5641322da1dff56a4b66eaac31ffa465295ece907cd163437793b4d009a75838060a01b036126178488611877565b5151166001600160601b03602061262e868a611877565b510151604080516001600160a01b0394909416845291166001600160601b03166020830152819081010390a2019261241a565b60405162461bcd60e51b81526020600482015260466024820152600080516020612a8683398151915260448201527f3a2063616e6e6f74206164642073747261746567792077697468207a65726f206064820152651dd95a59da1d60d21b608482015260a490fd5b60405162461bcd60e51b81526020600482015260456024820152600080516020612a8683398151915260448201527f3a20657863656564204d41585f5745494748494e475f46554e4354494f4e5f4c60648201526408a9c8ea8960db1b608482015260a490fd5b60405162461bcd60e51b81526020600482015260386024820152600080516020612a8683398151915260448201527f3a206e6f20737472617465676965732070726f766964656400000000000000006064820152608490fd5b63ffffffff808251169216918210612866576020015163ffffffff16801591821561285c575b5050156127b857565b60405162461bcd60e51b815260206004820152606a60248201527f5374616b6552656769737472792e5f76616c69646174655374616b655570646160448201527f74654174426c6f636b4e756d6265723a2074686572652069732061206e65776560648201527f72207374616b6555706461746520617661696c61626c65206265666f726520626084820152693637b1b5a73ab6b132b960b11b60a482015260c490fd5b10905038806127af565b60405162461bcd60e51b815260206004820152605660248201527f5374616b6552656769737472792e5f76616c69646174655374616b655570646160448201527f74654174426c6f636b4e756d6265723a207374616b6555706461746520697320606482015275333937b69030b33a32b910313637b1b5a73ab6b132b960511b608482015260a490fd5b92919092806000526002602052604060002060ff8516600052602052604060002054805b6129d95760405162461bcd60e51b815260206004820152608160248201527f5374616b6552656769737472792e5f6765745374616b65557064617465496e6460448201527f6578466f724f70657261746f724174426c6f636b4e756d6265723a206e6f207360648201527f74616b652075706461746520666f756e6420666f72206f70657261746f72496460848201527f20616e642071756f72756d4e756d62657220617420626c6f636b206e756d626560a4820152603960f91b60c482015260e490fd5b81600052600260205260408060002060009060ff88168252602052206000198201908282116104d257612a118263ffffffff9261156e565b50541663ffffffff85161015612a32575080156104d2576000190180612914565b63ffffffff169450505050565b6001600160601b0390811691168181039160001380158284131691831216176104d2579056fe2f527d527e95d8fe40aec55377743bb779087da3f6d0d08f12e36444da62327d5374616b6552656769737472792e5f6164645374726174656779506172616d73a2646970667358221220fc94ab1bf9d3f3c14fb93799ae4fc9b50b43d5fe0e2db5f5b0ef735158c02e6264736f6c634300081a0033","linkReferences":{}},"methodIdentifiers":{"MAX_WEIGHING_FUNCTION_LENGTH()":"7c172347","WEIGHTING_DIVISOR()":"5e5a6775","addStrategies(uint8,(address,uint96)[])":"c601527d","applyDelta(uint96,int256)":"7f429822","calculateDelta(uint96,uint96)":"f509551a","delegation()":"df5cf723","deregisterOperator(bytes32,bytes)":"bd29b8cd","getCurrentStake(bytes32,uint8)":"5401ed27","getCurrentTotalStake(uint8)":"d5eccc05","getLatestStakeUpdate(bytes32,uint8)":"f851e198","getStakeAtBlockNumber(bytes32,uint8,uint32)":"fa28c627","getStakeAtBlockNumberAndIndex(uint8,uint32,bytes32,uint256)":"f2be94ae","getStakeHistory(bytes32,uint8)":"2cd95940","getStakeHistoryLength(bytes32,uint8)":"4bd26e09","getStakeUpdateAtIndex(uint8,bytes32,uint256)":"ac6bfb03","getStakeUpdateIndexAtBlockNumber(bytes32,uint8,uint32)":"dd9846b9","getTotalStakeAtBlockNumberFromIndex(uint8,uint32,uint256)":"c8294c56","getTotalStakeHistoryLength(uint8)":"0491b41c","getTotalStakeIndicesAtBlockNumber(uint32,bytes)":"81c07502","getTotalStakeUpdateAtIndex(uint8,uint256)":"b6904b78","initializeQuorum(uint8,uint96,(address,uint96)[])":"ff694a77","minimumStakeForQuorum(uint8)":"c46778a5","modifyStrategyParams(uint8,uint256[],uint96[])":"20b66298","recordOperatorStakeUpdate(bytes32,uint8,uint96)":"74454c6d","recordTotalStakeUpdate(uint8,int256)":"0390a4d5","registerOperator(address,bytes32,bytes)":"25504777","registryCoordinator()":"6d14a987","removeStrategies(uint8,uint256[])":"5f1f2d77","setMinimumStakeForQuorum(uint8,uint96)":"bc9a40c3","strategiesPerQuorum(uint8,uint256)":"9f3ccf65","strategyParams(uint8,uint256)":"08732461","strategyParamsByIndex(uint8,uint256)":"adc804da","strategyParamsLength(uint8)":"3ca5a5f5","updateOperatorStake(address,bytes32,bytes)":"66acfefe","weightOfOperatorForQuorum(uint8,address)":"1f9b74e0"},"id":103}