{"abi":[{"type":"constructor","inputs":[{"name":"_ethPOS","type":"address","internalType":"contract IETHPOSDeposit"},{"name":"_eigenPodManager","type":"address","internalType":"contract IEigenPodManager"},{"name":"_GENESIS_TIME","type":"uint64","internalType":"uint64"}],"stateMutability":"nonpayable"},{"type":"receive","stateMutability":"payable"},{"type":"function","name":"GENESIS_TIME","inputs":[],"outputs":[{"name":"","type":"uint64","internalType":"uint64"}],"stateMutability":"view"},{"type":"function","name":"activeValidatorCount","inputs":[],"outputs":[{"name":"","type":"uint256","internalType":"uint256"}],"stateMutability":"view"},{"type":"function","name":"checkpointBalanceExitedGwei","inputs":[{"name":"","type":"uint64","internalType":"uint64"}],"outputs":[{"name":"","type":"uint64","internalType":"uint64"}],"stateMutability":"view"},{"type":"function","name":"currentCheckpoint","inputs":[],"outputs":[{"name":"","type":"tuple","internalType":"struct IEigenPod.Checkpoint","components":[{"name":"beaconBlockRoot","type":"bytes32","internalType":"bytes32"},{"name":"proofsRemaining","type":"uint24","internalType":"uint24"},{"name":"podBalanceGwei","type":"uint64","internalType":"uint64"},{"name":"balanceDeltasGwei","type":"int128","internalType":"int128"}]}],"stateMutability":"view"},{"type":"function","name":"currentCheckpointTimestamp","inputs":[],"outputs":[{"name":"","type":"uint64","internalType":"uint64"}],"stateMutability":"view"},{"type":"function","name":"eigenPodManager","inputs":[],"outputs":[{"name":"","type":"address","internalType":"contract IEigenPodManager"}],"stateMutability":"view"},{"type":"function","name":"ethPOS","inputs":[],"outputs":[{"name":"","type":"address","internalType":"contract IETHPOSDeposit"}],"stateMutability":"view"},{"type":"function","name":"getParentBlockRoot","inputs":[{"name":"timestamp","type":"uint64","internalType":"uint64"}],"outputs":[{"name":"","type":"bytes32","internalType":"bytes32"}],"stateMutability":"view"},{"type":"function","name":"initialize","inputs":[{"name":"_podOwner","type":"address","internalType":"address"}],"outputs":[],"stateMutability":"nonpayable"},{"type":"function","name":"lastCheckpointTimestamp","inputs":[],"outputs":[{"name":"","type":"uint64","internalType":"uint64"}],"stateMutability":"view"},{"type":"function","name":"podOwner","inputs":[],"outputs":[{"name":"","type":"address","internalType":"address"}],"stateMutability":"view"},{"type":"function","name":"proofSubmitter","inputs":[],"outputs":[{"name":"","type":"address","internalType":"address"}],"stateMutability":"view"},{"type":"function","name":"recoverTokens","inputs":[{"name":"tokenList","type":"address[]","internalType":"contract IERC20[]"},{"name":"amountsToWithdraw","type":"uint256[]","internalType":"uint256[]"},{"name":"recipient","type":"address","internalType":"address"}],"outputs":[],"stateMutability":"nonpayable"},{"type":"function","name":"setProofSubmitter","inputs":[{"name":"newProofSubmitter","type":"address","internalType":"address"}],"outputs":[],"stateMutability":"nonpayable"},{"type":"function","name":"stake","inputs":[{"name":"pubkey","type":"bytes","internalType":"bytes"},{"name":"signature","type":"bytes","internalType":"bytes"},{"name":"depositDataRoot","type":"bytes32","internalType":"bytes32"}],"outputs":[],"stateMutability":"payable"},{"type":"function","name":"startCheckpoint","inputs":[{"name":"revertIfNoBalance","type":"bool","internalType":"bool"}],"outputs":[],"stateMutability":"nonpayable"},{"type":"function","name":"validatorPubkeyHashToInfo","inputs":[{"name":"validatorPubkeyHash","type":"bytes32","internalType":"bytes32"}],"outputs":[{"name":"","type":"tuple","internalType":"struct IEigenPod.ValidatorInfo","components":[{"name":"validatorIndex","type":"uint64","internalType":"uint64"},{"name":"restakedBalanceGwei","type":"uint64","internalType":"uint64"},{"name":"lastCheckpointedAt","type":"uint64","internalType":"uint64"},{"name":"status","type":"uint8","internalType":"enum IEigenPod.VALIDATOR_STATUS"}]}],"stateMutability":"view"},{"type":"function","name":"validatorPubkeyToInfo","inputs":[{"name":"validatorPubkey","type":"bytes","internalType":"bytes"}],"outputs":[{"name":"","type":"tuple","internalType":"struct IEigenPod.ValidatorInfo","components":[{"name":"validatorIndex","type":"uint64","internalType":"uint64"},{"name":"restakedBalanceGwei","type":"uint64","internalType":"uint64"},{"name":"lastCheckpointedAt","type":"uint64","internalType":"uint64"},{"name":"status","type":"uint8","internalType":"enum IEigenPod.VALIDATOR_STATUS"}]}],"stateMutability":"view"},{"type":"function","name":"validatorStatus","inputs":[{"name":"validatorPubkey","type":"bytes","internalType":"bytes"}],"outputs":[{"name":"","type":"uint8","internalType":"enum IEigenPod.VALIDATOR_STATUS"}],"stateMutability":"view"},{"type":"function","name":"validatorStatus","inputs":[{"name":"pubkeyHash","type":"bytes32","internalType":"bytes32"}],"outputs":[{"name":"","type":"uint8","internalType":"enum IEigenPod.VALIDATOR_STATUS"}],"stateMutability":"view"},{"type":"function","name":"verifyCheckpointProofs","inputs":[{"name":"balanceContainerProof","type":"tuple","internalType":"struct BeaconChainProofs.BalanceContainerProof","components":[{"name":"balanceContainerRoot","type":"bytes32","internalType":"bytes32"},{"name":"proof","type":"bytes","internalType":"bytes"}]},{"name":"proofs","type":"tuple[]","internalType":"struct BeaconChainProofs.BalanceProof[]","components":[{"name":"pubkeyHash","type":"bytes32","internalType":"bytes32"},{"name":"balanceRoot","type":"bytes32","internalType":"bytes32"},{"name":"proof","type":"bytes","internalType":"bytes"}]}],"outputs":[],"stateMutability":"nonpayable"},{"type":"function","name":"verifyStaleBalance","inputs":[{"name":"beaconTimestamp","type":"uint64","internalType":"uint64"},{"name":"stateRootProof","type":"tuple","internalType":"struct BeaconChainProofs.StateRootProof","components":[{"name":"beaconStateRoot","type":"bytes32","internalType":"bytes32"},{"name":"proof","type":"bytes","internalType":"bytes"}]},{"name":"proof","type":"tuple","internalType":"struct BeaconChainProofs.ValidatorProof","components":[{"name":"validatorFields","type":"bytes32[]","internalType":"bytes32[]"},{"name":"proof","type":"bytes","internalType":"bytes"}]}],"outputs":[],"stateMutability":"nonpayable"},{"type":"function","name":"verifyWithdrawalCredentials","inputs":[{"name":"beaconTimestamp","type":"uint64","internalType":"uint64"},{"name":"stateRootProof","type":"tuple","internalType":"struct BeaconChainProofs.StateRootProof","components":[{"name":"beaconStateRoot","type":"bytes32","internalType":"bytes32"},{"name":"proof","type":"bytes","internalType":"bytes"}]},{"name":"validatorIndices","type":"uint40[]","internalType":"uint40[]"},{"name":"validatorFieldsProofs","type":"bytes[]","internalType":"bytes[]"},{"name":"validatorFields","type":"bytes32[][]","internalType":"bytes32[][]"}],"outputs":[],"stateMutability":"nonpayable"},{"type":"function","name":"withdrawRestakedBeaconChainETH","inputs":[{"name":"recipient","type":"address","internalType":"address"},{"name":"amountWei","type":"uint256","internalType":"uint256"}],"outputs":[],"stateMutability":"nonpayable"},{"type":"function","name":"withdrawableRestakedExecutionLayerGwei","inputs":[],"outputs":[{"name":"","type":"uint64","internalType":"uint64"}],"stateMutability":"view"},{"type":"event","name":"CheckpointCreated","inputs":[{"name":"checkpointTimestamp","type":"uint64","indexed":true,"internalType":"uint64"},{"name":"beaconBlockRoot","type":"bytes32","indexed":true,"internalType":"bytes32"},{"name":"validatorCount","type":"uint256","indexed":false,"internalType":"uint256"}],"anonymous":false},{"type":"event","name":"CheckpointFinalized","inputs":[{"name":"checkpointTimestamp","type":"uint64","indexed":true,"internalType":"uint64"},{"name":"totalShareDeltaWei","type":"int256","indexed":false,"internalType":"int256"}],"anonymous":false},{"type":"event","name":"EigenPodStaked","inputs":[{"name":"pubkey","type":"bytes","indexed":false,"internalType":"bytes"}],"anonymous":false},{"type":"event","name":"Initialized","inputs":[{"name":"version","type":"uint8","indexed":false,"internalType":"uint8"}],"anonymous":false},{"type":"event","name":"NonBeaconChainETHReceived","inputs":[{"name":"amountReceived","type":"uint256","indexed":false,"internalType":"uint256"}],"anonymous":false},{"type":"event","name":"ProofSubmitterUpdated","inputs":[{"name":"prevProofSubmitter","type":"address","indexed":false,"internalType":"address"},{"name":"newProofSubmitter","type":"address","indexed":false,"internalType":"address"}],"anonymous":false},{"type":"event","name":"RestakedBeaconChainETHWithdrawn","inputs":[{"name":"recipient","type":"address","indexed":true,"internalType":"address"},{"name":"amount","type":"uint256","indexed":false,"internalType":"uint256"}],"anonymous":false},{"type":"event","name":"ValidatorBalanceUpdated","inputs":[{"name":"validatorIndex","type":"uint40","indexed":false,"internalType":"uint40"},{"name":"balanceTimestamp","type":"uint64","indexed":false,"internalType":"uint64"},{"name":"newValidatorBalanceGwei","type":"uint64","indexed":false,"internalType":"uint64"}],"anonymous":false},{"type":"event","name":"ValidatorCheckpointed","inputs":[{"name":"checkpointTimestamp","type":"uint64","indexed":true,"internalType":"uint64"},{"name":"validatorIndex","type":"uint40","indexed":true,"internalType":"uint40"}],"anonymous":false},{"type":"event","name":"ValidatorRestaked","inputs":[{"name":"validatorIndex","type":"uint40","indexed":false,"internalType":"uint40"}],"anonymous":false},{"type":"event","name":"ValidatorWithdrawn","inputs":[{"name":"checkpointTimestamp","type":"uint64","indexed":true,"internalType":"uint64"},{"name":"validatorIndex","type":"uint40","indexed":true,"internalType":"uint40"}],"anonymous":false}],"bytecode":{"object":"0x60e0346101a557601f613f4438819003918201601f19168301916001600160401b038311848410176101aa578084926060946040528339810103126101a5578051906001600160a01b03821682036101a5576020810151906001600160a01b03821682036101a55760400151916001600160401b03831683036101a55760805260a05260c05260005460ff8160081c166101505760ff80821610610115575b604051613d8390816101c1823960805181818161077e0152610905015260a051818181610258015281816104670152818161080f015281816108c501528181610acf01528181610ff001528181611136015281816115a70152818161184f01528181611f570152613643015260c0518161105c0152f35b60ff90811916176000557f7f26b83ff96e1f2b6a682f133852f6798a09c465da95921460cefb3847402498602060405160ff8152a13861009e565b60405162461bcd60e51b815260206004820152602760248201527f496e697469616c697a61626c653a20636f6e747261637420697320696e697469604482015266616c697a696e6760c81b6064820152608490fd5b600080fd5b634e487b7160e01b600052604160045260246000fdfe60806040526004361015610023575b361561001957600080fd5b610021612410565b005b60003560e01c8063039157d2146101b35780630b18ff66146101ae5780632340e8d3146101a95780633474aa16146101a45780633f65cf191461019f57806342ecff2a1461019a5780634665bcda1461019557806347d283721461019057806352396a591461018b578063587533571461018657806358eaee79146101815780636c0d2d5a1461017c5780636fcd0e53146101775780637439841f1461017257806374cdd7981461016d57806388676cad146101685780639b4e463414610163578063b522538a1461015e578063c490744214610159578063c4d66de814610154578063d06d55871461014f578063dda3346c1461014a578063ee94d67c14610145578063f074ba62146101405763f28824610361000e5761103c565b610f81565b610f5a565b610ea1565b610d34565b610c36565b610aa9565b610a45565b61086f565b6107b7565b610768565b610731565b6106a4565b61062b565b6105e6565b610535565b6104f2565b610496565b610451565b610427565b610382565b61032b565b61030d565b6102e4565b6101e1565b600435906001600160401b03821682036101ce57565b600080fd5b908160409103126101ce5790565b346101ce5760603660031901126101ce576101fa6101b8565b6024356001600160401b0381116101ce576102199036906004016101d3565b6044356001600160401b0381116101ce576102389036906004016101d3565b604051635ac86ab760e01b815260066004820152929091906020846024817f00000000000000000000000000000000000000000000000000000000000000006001600160a01b03165afa9384156102d457610021946102a0916000916102a5575b50156110a4565b611116565b6102c7915060203d6020116102cd575b6102bf8183610def565b810190611080565b38610299565b503d6102b5565b611098565b60009103126101ce57565b346101ce5760003660031901126101ce576033546040516001600160a01b039091168152602090f35b346101ce5760003660031901126101ce576020603954604051908152f35b346101ce5760003660031901126101ce5760206001600160401b0360345416604051908152f35b9181601f840112156101ce578235916001600160401b0383116101ce576020808501948460051b0101116101ce57565b346101ce5760a03660031901126101ce5761039b6101b8565b6024356001600160401b0381116101ce576103ba9036906004016101d3565b6044356001600160401b0381116101ce576103d9903690600401610352565b6064939193356001600160401b0381116101ce576103fb903690600401610352565b91608435956001600160401b0387116101ce5761041f610021973690600401610352565b969095611566565b346101ce5760003660031901126101ce5760206001600160401b03603a5460401c16604051908152f35b346101ce5760003660031901126101ce576040517f00000000000000000000000000000000000000000000000000000000000000006001600160a01b03168152602090f35b346101ce5760003660031901126101ce576104af61193d565b5060806104ba611962565b6060604051918051835262ffffff60208201511660208401526001600160401b0360408201511660408401520151600f0b6060820152f35b346101ce5760203660031901126101ce576001600160401b036105136101b8565b16600052603b60205260206001600160401b0360406000205416604051908152f35b346101ce5760003660031901126101ce57603e546040516001600160a01b039091168152602090f35b9181601f840112156101ce578235916001600160401b0383116101ce57602083818601950101116101ce57565b60206003198201126101ce57600435906001600160401b0382116101ce576105b59160040161055e565b9091565b600311156105c357565b634e487b7160e01b600052602160045260246000fd5b9060038210156105c35752565b346101ce576106066106016105fa3661058b565b36916119bd565b612f41565b6000526036602052602060ff60406000205460c01c1661062960405180926105d9565bf35b346101ce5760203660031901126101ce57602061064e6106496101b8565b611af1565b604051908152f35b6106a29092919260608060808301956001600160401b0381511684526001600160401b0360208201511660208501526001600160401b03604082015116604085015201519101906105d9565b565b346101ce5760203660031901126101ce576004356106c061193d565b50600052603660205261072d604060002061072160ff604051926106e384610dcf565b546001600160401b03811684526001600160401b038160401c1660208501526001600160401b038160801c16604085015260c01c16606083016112ef565b60405191829182610656565b0390f35b346101ce5760203660031901126101ce576004356000526036602052602060ff60406000205460c01c1661062960405180926105d9565b346101ce5760003660031901126101ce576040517f00000000000000000000000000000000000000000000000000000000000000006001600160a01b03168152602090f35b801515036101ce57565b346101ce5760203660031901126101ce576004356107d4816107ad565b6033546001600160a01b03163314801561085b575b6107f2906114dd565b604051635ac86ab760e01b815260066004820152906020826024817f00000000000000000000000000000000000000000000000000000000000000006001600160a01b03165afa9182156102d45761002192610856916000916102a55750156110a4565b612a01565b50603e546001600160a01b031633146107e9565b60603660031901126101ce576004356001600160401b0381116101ce5761089a90369060040161055e565b6024356001600160401b0381116101ce576108b990369060040161055e565b9290604435936108f3337f00000000000000000000000000000000000000000000000000000000000000006001600160a01b031614611bf2565b6801bc16d674ec80000034036109ce577f00000000000000000000000000000000000000000000000000000000000000006001600160a01b0316610935612ffe565b92813b156101ce576801bc16d674ec80000060009461096c604051998a96879586946304512a2360e31b86528c8c60048801611cc1565b03925af19283156102d4577f606865b7934a25d4aed43f6cdb426403353fa4b3009c4d228407474581b01e23936109b3575b506109ae60405192839283611d03565b0390a1005b806109c260006109c893610def565b806102d9565b3861099e565b60a460405162461bcd60e51b815260206004820152604460248201527f456967656e506f642e7374616b653a206d75737420696e697469616c6c79207360448201527f74616b6520666f7220616e792076616c696461746f72207769746820333220656064820152633a3432b960e11b6084820152fd5b346101ce57610a69610601610a593661058b565b610a6161193d565b5036916119bd565b600052603660205261072d604060002061072160ff604051926106e384610dcf565b6001600160a01b038116036101ce57565b604435906106a282610a8b565b346101ce5760403660031901126101ce57600435610ac681610a8b565b602435610afd337f00000000000000000000000000000000000000000000000000000000000000006001600160a01b031614611bf2565b633b9aca008106610bb45761002191610b74610b58610b29633b9aca0085045b6001600160401b031690565b6034546001600160401b0316610b536001600160401b0382166001600160401b0384161115611d14565b611db7565b6001600160401b03166001600160401b03196034541617603455565b6040518281526001600160a01b03919091169081907f8947fd2ce07ef9cc302c4e8f0461015615d91ce851564839e91cc804c2f49d8e90602090a261302a565b60405162461bcd60e51b815260206004820152604e60248201527f456967656e506f642e776974686472617752657374616b6564426561636f6e4360448201527f6861696e4554483a20616d6f756e74576569206d75737420626520612077686f60648201526d1b194811ddd95a48185b5bdd5b9d60921b608482015260a490fd5b346101ce5760203660031901126101ce57600435610c5381610a8b565b610ca460005491610c88610c72610c6e8560ff9060081c1690565b1590565b80948195610d26575b8115610d06575b50611dd7565b82610c9b600160ff196000541617600055565b610ced57611e3a565b610caa57005b610cba61ff001960005416600055565b604051600181527f7f26b83ff96e1f2b6a682f133852f6798a09c465da95921460cefb38474024989080602081016109ae565b610d0161010061ff00196000541617600055565b611e3a565b303b15915081610d18575b5038610c82565b60ff16600114905038610d11565b600160ff8216109150610c7b565b346101ce5760203660031901126101ce57600435610d5181610a8b565b610d6660018060a01b03603354163314611ec5565b603e54604080516001600160a01b03808416825290931660208401819052927ffb8129080a19d34dceac04ba253fc50304dc86c729bd63cdca4a969ad19a5eac9190a16001600160a01b03191617603e55005b634e487b7160e01b600052604160045260246000fd5b608081019081106001600160401b03821117610dea57604052565b610db9565b90601f801991011681019081106001600160401b03821117610dea57604052565b604051906106a2608083610def565b906106a26040519283610def565b6001600160401b038111610dea5760051b60200190565b9080601f830112156101ce578135610e5b81610e2d565b92610e696040519485610def565b81845260208085019260051b8201019283116101ce57602001905b828210610e915750505090565b8135815260209182019101610e84565b346101ce5760603660031901126101ce576004356001600160401b0381116101ce57366023820112156101ce57806004013590610edd82610e2d565b91610eeb6040519384610def565b8083526024602084019160051b830101913683116101ce57602401905b828210610f4057602435846001600160401b0382116101ce57610f32610021923690600401610e44565b610f3a610a9c565b91611f22565b602080918335610f4f81610a8b565b815201910190610f08565b346101ce5760003660031901126101ce5760206001600160401b03603a5416604051908152f35b346101ce5760403660031901126101ce576004356001600160401b0381116101ce57610fb19036906004016101d3565b6024356001600160401b0381116101ce57610fd0903690600401610352565b604051635ac86ab760e01b815260076004820152929091906020846024817f00000000000000000000000000000000000000000000000000000000000000006001600160a01b03165afa9384156102d45761002194611037916000916102a55750156110a4565b61222b565b346101ce5760003660031901126101ce5760206040516001600160401b037f0000000000000000000000000000000000000000000000000000000000000000168152f35b908160209103126101ce5751611095816107ad565b90565b6040513d6000823e3d90fd5b156110ab57565b60405162461bcd60e51b815260206004820152603e60248201527f456967656e506f642e6f6e6c795768656e4e6f745061757365643a20696e646560448201527f782069732070617573656420696e20456967656e506f644d616e6167657200006064820152608490fd5b604051635ac86ab760e01b815260086004820152919291906020826024817f00000000000000000000000000000000000000000000000000000000000000006001600160a01b03165afa80156102d4576112669461118361124692611256956000916102a55750156110a4565b61119f61119a611193878061126e565b36916112a3565b61243c565b600052603660205261122a816112256111bb60406000206112fb565b956111e66111d6610b1d60408a01516001600160401b031690565b6001600160401b0383161161134d565b611208600160608901516111f9816105b9565b611202816105b9565b146113be565b61064961122061121b6111938c8061126e565b61244a565b611427565b6124da565b3593611260611239828061126e565b93909260208101906114ab565b959094516001600160401b031690565b64ffffffffff1690565b946126fd565b6106a26128cd565b903590601e19813603018212156101ce57018035906001600160401b0382116101ce57602001918160051b360383136101ce57565b9291906112af81610e2d565b936112bd6040519586610def565b602085838152019160051b81019283116101ce57905b8282106112df57505050565b81358152602091820191016112d3565b60038210156105c35752565b906106a260405161130b81610dcf565b606060ff8295546001600160401b03811684526001600160401b038160401c1660208501526001600160401b038160801c16604085015260c01c1691016112ef565b1561135457565b608460405162461bcd60e51b815260206004820152604060248201527f456967656e506f642e7665726966795374616c6542616c616e63653a2070726f60448201527f6f66206973206f6c646572207468616e206c61737420636865636b706f696e746064820152fd5b156113c557565b60405162461bcd60e51b815260206004820152603460248201527f456967656e506f642e7665726966795374616c6542616c616e63653a2076616c604482015273696461746f72206973206e6f742061637469766560601b6064820152608490fd5b1561142e57565b60405162461bcd60e51b815260206004820152604960248201527f456967656e506f642e7665726966795374616c6542616c616e63653a2076616c60448201527f696461746f72206d75737420626520736c617368656420746f206265206d61726064820152686b6564207374616c6560b81b608482015260a490fd5b903590601e19813603018212156101ce57018035906001600160401b0382116101ce576020019181360383136101ce57565b156114e457565b60405162461bcd60e51b815260206004820152604e60248201527f456967656e506f642e6f6e6c794f776e65724f7250726f6f665375626d69747460448201527f65723a2063616c6c6572206973206e6f7420706f64206f776e6572206f72207060648201526d3937b7b31039bab136b4ba3a32b960911b608482015260a490fd5b9695949392919060018060a01b0360335416331480156115f3575b61158a906114dd565b604051635ac86ab760e01b815260026004820152976020896024817f00000000000000000000000000000000000000000000000000000000000000006001600160a01b03165afa9889156102d4576106a2996115ee916000916102a55750156110a4565b6117db565b50603e546001600160a01b03163314611581565b1561160e57565b60405162461bcd60e51b815260206004820152605560248201527f456967656e506f642e7665726966795769746864726177616c43726564656e7460448201527f69616c733a2076616c696461746f72496e646963657320616e642070726f6f666064820152740e640daeae6e840c4ca40e6c2daca40d8cadccee8d605b1b608482015260a490fd5b1561169e57565b60405162461bcd60e51b815260206004820152604c60248201527f456967656e506f642e7665726966795769746864726177616c43726564656e7460448201527f69616c733a207370656369666965642074696d657374616d7020697320746f6f60648201526b0819985c881a5b881c185cdd60a21b608482015260a490fd5b634e487b7160e01b600052603260045260246000fd5b91908110156117445760051b0190565b61171e565b3564ffffffffff811681036101ce5790565b90821015611744576105b59160051b8101906114ab565b90821015611744576105b59160051b81019061126e565b634e487b7160e01b600052601160045260246000fd5b90600582018092116117ad57565b611789565b90602082018092116117ad57565b90600182018092116117ad57565b919082018092116117ad57565b8161122561183292999599989496979398848b1480611934575b611806909b9a99989796959b611607565b610649611822610b1d603a546001600160401b039060401c1690565b6001600160401b03831611611697565b6000966000965b8088106118d65750506033546001600160a01b037f000000000000000000000000000000000000000000000000000000000000000081169897501694506118809350505050565b90823b156101ce5760405163030b147160e61b81526001600160a01b039290921660048301526024820152906000908290604490829084905af180156102d4576118c75750565b806109c260006106a293610def565b909192939495969761192660019161192089896119188e61190e8f8b611908611903858e81953599611734565b611749565b9661175b565b9290918d8d611772565b949093612d11565b906117ce565b980196959493929190611839565b508487146117f5565b6040519061194a82610dcf565b60006060838281528260208201528260408201520152565b6040519061196f82610dcf565b81603c5481526060603d5462ffffff811660208401526001600160401b038160181c16604084015260581c600f0b910152565b6001600160401b038111610dea57601f01601f191660200190565b9291926119c9826119a2565b916119d76040519384610def565b8294818452818301116101ce578281602093846000960137010152565b600581901b91906001600160fb1b038116036117ad57565b90633b9aca00820291808304633b9aca0014901517156117ad57565b600181901b91906001600160ff1b038116036117ad57565b3d15611a6b573d90611a51826119a2565b91611a5f6040519384610def565b82523d6000602084013e565b606090565b15611a7757565b60405162461bcd60e51b815260206004820152603860248201527f456967656e506f642e676574506172656e74426c6f636b526f6f743a20696e7660448201527f616c696420626c6f636b20726f6f742072657475726e656400000000000000006064820152608490fd5b908160209103126101ce575190565b6001600160401b03811642034281116117ad5762017ff41115611b915760008061109592604051611b4881611b3a6020820194859190916001600160401b036020820193169052565b03601f198101835282610def565b5190720f3df6d732807ef1319fb7b8bb8522d0beac025afa611b68611a40565b9080611b87575b611b7890611a70565b60208082518301019101611ae2565b5080511515611b6f565b60405162461bcd60e51b815260206004820152603360248201527f456967656e506f642e676574506172656e74426c6f636b526f6f743a2074696d604482015272657374616d70206f7574206f662072616e676560681b6064820152608490fd5b15611bf957565b60405162461bcd60e51b815260206004820152603160248201527f456967656e506f642e6f6e6c79456967656e506f644d616e616765723a206e6f6044820152703a1032b4b3b2b72837b226b0b730b3b2b960791b6064820152608490fd5b908060209392818452848401376000828201840152601f01601f1916010190565b60005b838110611c8c5750506000910152565b8181015183820152602001611c7c565b90602091611cb581518092818552858086019101611c79565b601f01601f1916010190565b96959490611cfe93611ce2611cf0926060979560808c5260808c0191611c58565b9089820360208b0152611c9c565b918783036040890152611c58565b930152565b916020611095938181520191611c58565b15611d1b57565b60405162461bcd60e51b815260206004820152606260248201527f456967656e506f642e776974686472617752657374616b6564426561636f6e4360448201527f6861696e4554483a20616d6f756e74477765692065786365656473207769746860648201527f6472617761626c6552657374616b6564457865637574696f6e4c617965724777608482015261656960f01b60a482015260c490fd5b906001600160401b03809116911603906001600160401b0382116117ad57565b15611dde57565b60405162461bcd60e51b815260206004820152602e60248201527f496e697469616c697a61626c653a20636f6e747261637420697320616c72656160448201526d191e481a5b9a5d1a585b1a5e995960921b6064820152608490fd5b6001600160a01b03168015611e63576bffffffffffffffffffffffff60a01b6033541617603355565b60405162461bcd60e51b815260206004820152603460248201527f456967656e506f642e696e697469616c697a653a20706f644f776e65722063616044820152736e6e6f74206265207a65726f206164647265737360601b6064820152608490fd5b15611ecc57565b60405162461bcd60e51b815260206004820152602860248201527f456967656e506f642e6f6e6c79456967656e506f644f776e65723a206e6f74206044820152673837b227bbb732b960c11b6064820152608490fd5b92919092611f3b60018060a01b03603354163314611ec5565b604051635ac86ab760e01b8152600560048201526020816024817f00000000000000000000000000000000000000000000000000000000000000006001600160a01b03165afa80156102d457611f99916000916102a55750156110a4565b8051845103611fed5760005b8151811015611fe65780611fe0611fce611fc160019486612079565b516001600160a01b031690565b85611fd9848a612079565b5191613105565b01611fa5565b5050509050565b60405162461bcd60e51b815260206004820152604b60248201527f456967656e506f642e7265636f766572546f6b656e733a20746f6b656e4c697360448201527f7420616e6420616d6f756e7473546f5769746864726177206d7573742062652060648201526a0e6c2daca40d8cadccee8d60ab1b608482015260a490fd5b8051156117445760200190565b80518210156117445760209160051b010190565b1561209457565b60405162461bcd60e51b815260206004820152605860248201527f456967656e506f642e766572696679436865636b706f696e7450726f6f66733a60448201527f206d75737420686176652061637469766520636865636b706f696e7420746f2060648201527f706572666f726d20636865636b706f696e742070726f6f660000000000000000608482015260a490fd5b91908110156117445760051b81013590605e19813603018212156101ce570190565b62ffffff1680156117ad576000190190565b90600f0b90600f0b019060016001607f1b0319821260016001607f1b038313176117ad57565b906001600160401b03809116911601906001600160401b0382116117ad57565b9060038110156105c357815460ff60c01b191660c09190911b60ff60c01b16179055565b8151815460208401516040808601516001600160401b039094166001600160c01b031990931692909217911b67ffffffffffffffff60401b161760809190911b67ffffffffffffffff60801b1617815560609091015160038110156105c3576106a29161219f565b603a5460401c6001600160401b03169392918461224981151561208d565b612251611962565b9361225d84865161324c565b6000936000602087019260608801915b8181106122d957505050505050506122d4906122ba6122a36106a295966001600160401b0316600052603b602052604060002090565b916122b583546001600160401b031690565b61217f565b6001600160401b03166001600160401b0319825416179055565b613551565b6122e4818389612125565b8035986123036122fe8b6000526036602052604060002090565b6112fb565b9160016060840151612314816105b9565b61231d816105b9565b03612404578d8961233b610b1d60408701516001600160401b031690565b10156123f757836123bd600196956123b86123a76123966123ca988f8f8f906122b5926123756112569d6112569d6123a09435908c6133c3565b96909161238d612388825162ffffff1690565b612147565b62ffffff169052565b8251600f0b612159565b600f0b9052565b9f6000526036602052604060002090565b6121c3565b516001600160401b031690565b877fa91c59033c3423e18b54d0acecebb4972f9ea95aedf5f4cae3b677b02eaf3a3f600080a35b0161226d565b50509850506001906123f1565b509850506001906123f1565b7f6fdd3dbdb173299608c0aa9f368735857c8842b581f8389238bf05bd04b3bf496020604051348152a1565b805115611744576020015190565b8051600310156117445760800151151590565b1561246457565b60405162461bcd60e51b815260206004820152604260248201527f426561636f6e436861696e50726f6f66732e7665726966795374617465526f6f60448201527f743a20496e76616c696420737461746520726f6f74206d65726b6c652070726f60648201526137b360f11b608482015260a490fd5b90916020830160606124ec82866114ab565b9050036125c65761250061250a91856114ab565b94359436916119bd565b90600093600392612526815180151590816125ba575b50613b7d565b60209261253284610e1f565b92835283945b825186116125a6576001811661257c5783518852828601518552848460408a60026107cf195a01fa15612578576125729060011c956117b2565b94612538565b8780fd5b82860151885283518552848460408a60026107cf195a01fa15612578576125729060011c956117b2565b5095919250506106a293925050511461245d565b601f1690501538612520565b60405162461bcd60e51b815260206004820152603d60248201527f426561636f6e436861696e50726f6f66732e7665726966795374617465526f6f60448201527f743a2050726f6f662068617320696e636f7272656374206c656e6774680000006064820152608490fd5b1561263857565b60405162461bcd60e51b81526020600482015260436024820152600080516020613d2e83398151915260448201527f724669656c64733a2050726f6f662068617320696e636f7272656374206c656e6064820152620cee8d60eb1b608482015260a490fd5b156126a457565b60405162461bcd60e51b815260206004820152603d6024820152600080516020613d2e83398151915260448201527f724669656c64733a20496e76616c6964206d65726b6c652070726f6f660000006064820152608490fd5b9094919392946008850361275e576106a29564ffffffffff61274461273f6127549461275999611193612738612733602961179f565b6119f4565b8b14612631565b61385c565b9416600b60291b179436916119bd565b613786565b61269d565b60405162461bcd60e51b815260206004820152604e6024820152600080516020613d2e83398151915260448201527f724669656c64733a2056616c696461746f72206669656c64732068617320696e60648201526d0c6dee4e4cac6e840d8cadccee8d60931b608482015260a490fd5b156127d557565b60405162461bcd60e51b815260206004820152605260248201527f456967656e506f642e5f7374617274436865636b706f696e743a206d7573742060448201527f66696e6973682070726576696f757320636865636b706f696e74206265666f72606482015271329039ba30b93a34b7339030b737ba3432b960711b608482015260a490fd5b1561286257565b60405162461bcd60e51b815260206004820152603f60248201527f456967656e506f642e5f7374617274436865636b706f696e743a2063616e6e6f60448201527f7420636865636b706f696e7420747769636520696e206f6e6520626c6f636b006064820152608490fd5b6001600160401b0361290a6128fd603a54610b1d846128f6836001600160401b039060401c1690565b16156127ce565b428316921682141561285b565b61292e61291c633b9aca004704610b1d565b6034546001600160401b031690611db7565b907f575796133bbed337e5b39aa49a30dc2556a91e0c6c2af4b7b886ae77ebef10766129fc6129e661295f84611af1565b61299f61297060395462ffffff1690565b96612979610e10565b92835261298f6020840198899062ffffff169052565b6001600160401b03166040830152565b60006060820152603a80546fffffffffffffffff00000000000000001916604087901b67ffffffffffffffff60401b161790556129db81613551565b51945162ffffff1690565b60405162ffffff90911681529081906020820190565b0390a3565b6001600160401b03612a2a6128fd603a54610b1d846128f6836001600160401b039060401c1690565b612a3c61291c633b9aca004704610b1d565b9180612ae6575b612a77577f575796133bbed337e5b39aa49a30dc2556a91e0c6c2af4b7b886ae77ebef10766129fc6129e661295f84611af1565b60405162461bcd60e51b815260206004820152603d60248201527f456967656e506f642e5f7374617274436865636b706f696e743a206e6f20626160448201527f6c616e636520617661696c61626c6520746f20636865636b706f696e740000006064820152608490fd5b0390fd5b506001600160401b03821615612a43565b15612afe57565b60405162461bcd60e51b81526020600482015260616024820152600080516020613d0e83398151915260448201527f7469616c733a2076616c696461746f72206d75737420626520696e616374697660648201527f6520746f2070726f7665207769746864726177616c2063726564656e7469616c6084820152607360f81b60a482015260c490fd5b15612b8e57565b60405162461bcd60e51b81526020600482015260556024820152600080516020613d0e83398151915260448201527f7469616c733a2076616c696461746f72206d75737420626520696e207468652060648201527470726f63657373206f662061637469766174696e6760581b608482015260a490fd5b15612c0c57565b60a460405162461bcd60e51b81526020600482015260446024820152600080516020613d0e83398151915260448201527f7469616c733a2076616c696461746f72206d757374206e6f742062652065786960648201526374696e6760e01b6084820152fd5b602081519101519060208110612c85575090565b6000199060200360031b1b1690565b15612c9b57565b60405162461bcd60e51b81526020600482015260456024820152600080516020613d0e83398151915260448201527f7469616c733a2070726f6f66206973206e6f7420666f72207468697320456967606482015264195b941bd960da1b608482015260a490fd5b60001981146117ad5760010190565b9290612e11816001600160401b0396937f0e5fac175b83177cc047381e030d8fb3b42b37bd1c025e22c280facad62c32df9561109599612d5561119a36838a6112a3565b96612d8c6060612d726122fe8b6000526036602052604060002090565b0151612d7d816105b9565b612d86816105b9565b15612af7565b612dac8b80612da4612d9f3687876112a3565b61396d565b161415612b87565b612dcc8b612dc6610b1d612dc13687876112a3565b613984565b14612c05565b612df8612de2612ddd3685856112a3565b61399b565b612df2612ded612ffe565b612c71565b14612c94565b612e0b612e063684846112a3565b6139ac565b996126fd565b612e24612e1f603954612d02565b603955565b612e9e603a54612e3e816001600160401b039060401c1690565b90878216612f05576001600160401b03169050925b6123b8612e5e610e10565b64ffffffffff85168152916001600160401b03881660208401526001600160401b0386166040840152600160608401526000526036602052604060002090565b60405164ffffffffff821681527f2d0800bbc377ea54a08c5db6a87aafff5e3e9c8fead0eda110e40e0c1044144990602090a16040805164ffffffffff9290921682526001600160401b03928316602083015291841691810191909152606090a116611a0c565b5092612e53565b90612f1f60209282815194859201611c79565b0190565b602090612f3860109382815194859201611c79565b01600081520190565b6030815103612f83576000612f72611b3a612f66602094604051928391878301612f23565b60405191828092612f0c565b039060025afa156102d45760005190565b60405162461bcd60e51b815260206004820152604760248201527f456967656e506f642e5f63616c63756c61746556616c696461746f725075626b60448201527f657948617368206d75737420626520612034382d6279746520424c53207075626064820152666c6963206b657960c81b608482015260a490fd5b604051600160f81b6020820152600060218201523060601b602c82015260208152611095604082610def565b8147106130c0576000918291829182916001600160a01b03165af161304d611a40565b501561305557565b60405162461bcd60e51b815260206004820152603a60248201527f416464726573733a20756e61626c6520746f2073656e642076616c75652c207260448201527f6563697069656e74206d617920686176652072657665727465640000000000006064820152608490fd5b60405162461bcd60e51b815260206004820152601d60248201527f416464726573733a20696e73756666696369656e742062616c616e63650000006044820152606490fd5b60006131a39392819260405194602086019263a9059cbb60e01b845260018060a01b03166024870152604486015260448552613142606486610def565b60018060a01b031690826040519561315b604088610def565b602087527f5361666545524332303a206c6f772d6c6576656c2063616c6c206661696c65646020880152613191843b1515613c81565b51925af161319d611a40565b90613ccd565b8051806131ae575050565b816020806131c3936106a29501019101611080565b6139c3565b156131cf57565b60405162461bcd60e51b815260206004820152604960248201527f426561636f6e436861696e50726f6f66732e76657269667942616c616e63654360448201527f6f6e7461696e65723a20696e76616c69642062616c616e636520636f6e7461696064820152683732b910383937b7b360b91b608482015260a490fd5b90916020830161010061325f82866114ab565b90500361331e5761250061327391856114ab565b90600093606c9261328e815180151590816125ba5750613b7d565b60209261329a84610e1f565b92835283945b8251861161330a57600181166132e05783518852828601518552848460408a60026107cf195a01fa15612578576132da9060011c956117b2565b946132a0565b82860151885283518552848460408a60026107cf195a01fa15612578576132da9060011c956117b2565b5095919250506106a29392505051146131c8565b60a460405162461bcd60e51b815260206004820152604460248201527f426561636f6e436861696e50726f6f66732e76657269667942616c616e63654360448201527f6f6e7461696e65723a2050726f6f662068617320696e636f7272656374206c656064820152630dccee8d60e31b6084820152fd5b80156117ad576000190190565b600f0b6f7fffffffffffffffffffffffffffffff1981146117ad5760000390565b919392906000926000956133e161125683516001600160401b031690565b936134026020840191866133fc84516001600160401b031690565b94613a82565b906001600160401b038216926001600160401b03811684036134c3575b506001600160401b0390911690525b6001600160401b03831660408301521561344a575b5050509190565b61346991929550606090613462612e1f603954613395565b0160029052565b6001600160401b0364ffffffffff613492610b1d613486866133a2565b6001600160801b031690565b951691167f2a02361ffa66cf2c2da4682c2355a6adcaa9f6c227b6e6563e68480f9587626a600080a3388080613443565b829197506134d49061342e93613b4b565b967f0e5fac175b83177cc047381e030d8fb3b42b37bd1c025e22c280facad62c32df6040518061352b858a8c849160409194936001600160401b03809264ffffffffff606087019816865216602085015216910152565b0390a1909161341f565b90633b9aca00820291808305633b9aca0014901517156117ad57565b62ffffff613565602083015162ffffff1690565b16613717576135df610b586135ce6135c06135b860408601956135b260606135a961359a610b1d8b516001600160401b031690565b6001600160801b0316600f0b90565b920151600f0b90565b90612159565b600f0b613535565b93516001600160401b031690565b6034546001600160401b031661217f565b603a5461360e9060401c6001600160401b03166001600160401b03166001600160401b0319603a541617603a55565b61362767ffffffffffffffff60401b19603a5416603a55565b6136366000603c556000603d55565b6033546001600160a01b037f00000000000000000000000000000000000000000000000000000000000000008116911690803b156101ce5760405163030b147160e61b81526001600160a01b03929092166004830152602482018390526000908290604490829084905af180156102d457613702575b507f525408c201bc1576eb44116f6478f1c2a54775b19a043bcfdc708364f74f8e446136fd6001600160401b036136eb603a546001600160401b031690565b60405194855216929081906020820190565b0390a2565b806109c2600061371193610def565b386136ac565b6106a2906060908051603c5562ffffff602082015116603d54906affffffffffffffff000000604084015160181b16916affffffffffffffffffffff19161717603d550151600f0b603d549060581b6001600160801b0360581b16906001600160801b0360581b191617603d55565b939190929361379f815180151590816125ba5750613b7d565b6020926137ab84610e1f565b92835283955b8251871161381f57600181166137f357835160005286830151855284846040600060026107cf195a01fa156101ce576137ed9060011c966117b2565b956137b1565b868301516000528351855284846040600060026107cf195a01fa156101ce576137ed9060011c966117b2565b509450509050511490565b9061383482610e2d565b6138416040519182610def565b8281528092613852601f1991610e2d565b0190602036910137565b805160011c61386a8161382a565b9160005b82811061391957505060011c805b61388e575061388a9061206c565b5190565b60005b8181106138a2575060011c8061387c565b602060006138f76138bb6138b585611a28565b87612079565b51612f666138d96138d36138ce88611a28565b6117c0565b89612079565b5191611b3a6040519384928884019091604092825260208201520190565b039060025afa156102d4576001906000516139128286612079565b5201613891565b6020600061394b61393261392c85611a28565b86612079565b51612f666138d96139456138ce88611a28565b88612079565b039060025afa156102d4576001906000516139668287612079565b520161386e565b8051600510156117445760c0611095910151613c0c565b8051600610156117445760e0611095910151613c0c565b805160011015611744576040015190565b805160021015611744576060611095910151613c0c565b156139ca57565b60405162461bcd60e51b815260206004820152602a60248201527f5361666545524332303a204552433230206f7065726174696f6e20646964206e6044820152691bdd081cdd58d8d9595960b21b6064820152608490fd5b15613a2957565b60405162461bcd60e51b815260206004820152603e6024820152600080516020613d2e83398151915260448201527f7242616c616e63653a20496e76616c6964206d65726b6c652070726f6f6600006064820152608490fd5b91604081016104e0613a9482846114ab565b905003613ae657613adc613ae191602061109596612754613acd613ac6643fffffffff8a60021c1664ffffffffff1690565b94886114ab565b939097013596879336916119bd565b613a22565b613c71565b60a460405162461bcd60e51b81526020600482015260446024820152600080516020613d2e83398151915260448201527f7242616c616e63653a2050726f6f662068617320696e636f7272656374206c656064820152630dccee8d60e31b6084820152fd5b906001600160401b03809116600f0b9116600f0b0360016001607f1b03811360016001607f1b03198212176117ad5790565b15613b8457565b60405162461bcd60e51b815260206004820152605460248201527f4d65726b6c652e70726f63657373496e636c7573696f6e50726f6f665368613260448201527f35363a2070726f6f66206c656e6774682073686f756c642062652061206e6f6e60648201527316bd32b9379036bab63a34b836329037b310199960611b608482015260a490fd5b609881901c66ff0000000000001660a882901c65ff00000000001660e883901c61ff001660f884901c1760d884901c62ff0000161760c884901c63ff000000161764ff0000000060b885901c161717179067ff0000000000000060889190911c161790565b60c06110959260061b161b613c0c565b15613c8857565b60405162461bcd60e51b815260206004820152601d60248201527f416464726573733a2063616c6c20746f206e6f6e2d636f6e74726163740000006044820152606490fd5b90919015613cd9575090565b815115613ce95750805190602001fd5b60405162461bcd60e51b815260206004820152908190612ae2906024830190611c9c56fe456967656e506f642e5f7665726966795769746864726177616c43726564656e426561636f6e436861696e50726f6f66732e76657269667956616c696461746fa2646970667358221220a2f85894bbe711edb764b1d1f976ac55b852409cb6cf0147b2eb6e2217c5949564736f6c634300081a0033","linkReferences":{}},"methodIdentifiers":{"GENESIS_TIME()":"f2882461","activeValidatorCount()":"2340e8d3","checkpointBalanceExitedGwei(uint64)":"52396a59","currentCheckpoint()":"47d28372","currentCheckpointTimestamp()":"42ecff2a","eigenPodManager()":"4665bcda","ethPOS()":"74cdd798","getParentBlockRoot(uint64)":"6c0d2d5a","initialize(address)":"c4d66de8","lastCheckpointTimestamp()":"ee94d67c","podOwner()":"0b18ff66","proofSubmitter()":"58753357","recoverTokens(address[],uint256[],address)":"dda3346c","setProofSubmitter(address)":"d06d5587","stake(bytes,bytes,bytes32)":"9b4e4634","startCheckpoint(bool)":"88676cad","validatorPubkeyHashToInfo(bytes32)":"6fcd0e53","validatorPubkeyToInfo(bytes)":"b522538a","validatorStatus(bytes)":"58eaee79","validatorStatus(bytes32)":"7439841f","verifyCheckpointProofs((bytes32,bytes),(bytes32,bytes32,bytes)[])":"f074ba62","verifyStaleBalance(uint64,(bytes32,bytes),(bytes32[],bytes))":"039157d2","verifyWithdrawalCredentials(uint64,(bytes32,bytes),uint40[],bytes[],bytes32[][])":"3f65cf19","withdrawRestakedBeaconChainETH(address,uint256)":"c4907442","withdrawableRestakedExecutionLayerGwei()":"3474aa16"},"id":64}