{"abi":[{"type":"function","name":"OPERATOR_AVS_REGISTRATION_TYPEHASH","inputs":[],"outputs":[{"name":"","type":"bytes32","internalType":"bytes32"}],"stateMutability":"view"},{"type":"function","name":"calculateOperatorAVSRegistrationDigestHash","inputs":[{"name":"operator","type":"address","internalType":"address"},{"name":"avs","type":"address","internalType":"address"},{"name":"salt","type":"bytes32","internalType":"bytes32"},{"name":"expiry","type":"uint256","internalType":"uint256"}],"outputs":[{"name":"","type":"bytes32","internalType":"bytes32"}],"stateMutability":"view"},{"type":"function","name":"deregisterOperatorFromAVS","inputs":[{"name":"operator","type":"address","internalType":"address"}],"outputs":[],"stateMutability":"nonpayable"},{"type":"function","name":"operatorSaltIsSpent","inputs":[{"name":"operator","type":"address","internalType":"address"},{"name":"salt","type":"bytes32","internalType":"bytes32"}],"outputs":[{"name":"","type":"bool","internalType":"bool"}],"stateMutability":"view"},{"type":"function","name":"registerOperatorToAVS","inputs":[{"name":"operator","type":"address","internalType":"address"},{"name":"operatorSignature","type":"tuple","internalType":"struct ISignatureUtils.SignatureWithSaltAndExpiry","components":[{"name":"signature","type":"bytes","internalType":"bytes"},{"name":"salt","type":"bytes32","internalType":"bytes32"},{"name":"expiry","type":"uint256","internalType":"uint256"}]}],"outputs":[],"stateMutability":"nonpayable"},{"type":"function","name":"updateAVSMetadataURI","inputs":[{"name":"metadataURI","type":"string","internalType":"string"}],"outputs":[],"stateMutability":"nonpayable"},{"type":"event","name":"AVSMetadataURIUpdated","inputs":[{"name":"avs","type":"address","indexed":true,"internalType":"address"},{"name":"metadataURI","type":"string","indexed":false,"internalType":"string"}],"anonymous":false},{"type":"event","name":"OperatorAVSRegistrationStatusUpdated","inputs":[{"name":"operator","type":"address","indexed":true,"internalType":"address"},{"name":"avs","type":"address","indexed":true,"internalType":"address"},{"name":"status","type":"uint8","indexed":false,"internalType":"enum IAVSDirectory.OperatorAVSRegistrationStatus"}],"anonymous":false}],"bytecode":{"object":"0x608080604052346015576102a4908161001b8239f35b600080fdfe608080604052600436101561001357600080fd5b60003560e01c908163374823b51461021f575080639926ee7d1461011a578063a1060c88146100ec578063a364f4da146100d1578063a98fb355146100825763d79aceab1461006157600080fd5b3461007d57600036600319011261007d57602060405160008152f35b600080fd5b3461007d57602036600319011261007d5760043567ffffffffffffffff811161007d573660238201121561007d57806004013567ffffffffffffffff811161007d573691016024011161007d57005b3461007d57602036600319011261007d576100ea610242565b005b3461007d57608036600319011261007d57610105610242565b5061010e610258565b50602060405160008152f35b3461007d57604036600319011261007d57610133610242565b5060243567ffffffffffffffff811161007d576060600319823603011261007d57604051906060820182811067ffffffffffffffff82111761020957604052806004013567ffffffffffffffff811161007d5781013660238201121561007d5760048101359167ffffffffffffffff831161020957604051601f8401601f19908116603f0116810167ffffffffffffffff81118282101761020957604052838152366024848601011161007d57600060208560409660246044970183860137830101528452602481013560208501520135910152005b634e487b7160e01b600052604160045260246000fd5b3461007d57604036600319011261007d5760209061023b610242565b5060008152f35b600435906001600160a01b038216820361007d57565b602435906001600160a01b038216820361007d5756fea2646970667358221220010ff6d4df723d02ba0987f803e12e807f11d45d1e5680ff2ef49346e0099aac64736f6c634300081a0033","linkReferences":{}},"methodIdentifiers":{"OPERATOR_AVS_REGISTRATION_TYPEHASH()":"d79aceab","calculateOperatorAVSRegistrationDigestHash(address,address,bytes32,uint256)":"a1060c88","deregisterOperatorFromAVS(address)":"a364f4da","operatorSaltIsSpent(address,bytes32)":"374823b5","registerOperatorToAVS(address,(bytes,bytes32,uint256))":"9926ee7d","updateAVSMetadataURI(string)":"a98fb355"},"id":104}