{"abi":[{"type":"constructor","inputs":[{"name":"_delegation","type":"address","internalType":"contract IDelegationManager"},{"name":"_eigenPodManager","type":"address","internalType":"contract IEigenPodManager"},{"name":"_slasher","type":"address","internalType":"contract ISlasher"}],"stateMutability":"nonpayable"},{"type":"function","name":"DEPOSIT_TYPEHASH","inputs":[],"outputs":[{"name":"","type":"bytes32","internalType":"bytes32"}],"stateMutability":"view"},{"type":"function","name":"DOMAIN_TYPEHASH","inputs":[],"outputs":[{"name":"","type":"bytes32","internalType":"bytes32"}],"stateMutability":"view"},{"type":"function","name":"addShares","inputs":[{"name":"staker","type":"address","internalType":"address"},{"name":"token","type":"address","internalType":"contract IERC20"},{"name":"strategy","type":"address","internalType":"contract IStrategy"},{"name":"shares","type":"uint256","internalType":"uint256"}],"outputs":[],"stateMutability":"nonpayable"},{"type":"function","name":"addStrategiesToDepositWhitelist","inputs":[{"name":"strategiesToWhitelist","type":"address[]","internalType":"contract IStrategy[]"},{"name":"thirdPartyTransfersForbiddenValues","type":"bool[]","internalType":"bool[]"}],"outputs":[],"stateMutability":"nonpayable"},{"type":"function","name":"delegation","inputs":[],"outputs":[{"name":"","type":"address","internalType":"contract IDelegationManager"}],"stateMutability":"view"},{"type":"function","name":"depositIntoStrategy","inputs":[{"name":"strategy","type":"address","internalType":"contract IStrategy"},{"name":"token","type":"address","internalType":"contract IERC20"},{"name":"amount","type":"uint256","internalType":"uint256"}],"outputs":[{"name":"shares","type":"uint256","internalType":"uint256"}],"stateMutability":"nonpayable"},{"type":"function","name":"depositIntoStrategyWithSignature","inputs":[{"name":"strategy","type":"address","internalType":"contract IStrategy"},{"name":"token","type":"address","internalType":"contract IERC20"},{"name":"amount","type":"uint256","internalType":"uint256"},{"name":"staker","type":"address","internalType":"address"},{"name":"expiry","type":"uint256","internalType":"uint256"},{"name":"signature","type":"bytes","internalType":"bytes"}],"outputs":[{"name":"shares","type":"uint256","internalType":"uint256"}],"stateMutability":"nonpayable"},{"type":"function","name":"domainSeparator","inputs":[],"outputs":[{"name":"","type":"bytes32","internalType":"bytes32"}],"stateMutability":"view"},{"type":"function","name":"eigenPodManager","inputs":[],"outputs":[{"name":"","type":"address","internalType":"contract IEigenPodManager"}],"stateMutability":"view"},{"type":"function","name":"getDeposits","inputs":[{"name":"staker","type":"address","internalType":"address"}],"outputs":[{"name":"","type":"address[]","internalType":"contract IStrategy[]"},{"name":"","type":"uint256[]","internalType":"uint256[]"}],"stateMutability":"view"},{"type":"function","name":"initialize","inputs":[{"name":"initialOwner","type":"address","internalType":"address"},{"name":"initialStrategyWhitelister","type":"address","internalType":"address"},{"name":"_pauserRegistry","type":"address","internalType":"contract IPauserRegistry"},{"name":"initialPausedStatus","type":"uint256","internalType":"uint256"}],"outputs":[],"stateMutability":"nonpayable"},{"type":"function","name":"nonces","inputs":[{"name":"","type":"address","internalType":"address"}],"outputs":[{"name":"","type":"uint256","internalType":"uint256"}],"stateMutability":"view"},{"type":"function","name":"owner","inputs":[],"outputs":[{"name":"","type":"address","internalType":"address"}],"stateMutability":"view"},{"type":"function","name":"pause","inputs":[{"name":"newPausedStatus","type":"uint256","internalType":"uint256"}],"outputs":[],"stateMutability":"nonpayable"},{"type":"function","name":"pauseAll","inputs":[],"outputs":[],"stateMutability":"nonpayable"},{"type":"function","name":"paused","inputs":[{"name":"index","type":"uint8","internalType":"uint8"}],"outputs":[{"name":"","type":"bool","internalType":"bool"}],"stateMutability":"view"},{"type":"function","name":"paused","inputs":[],"outputs":[{"name":"","type":"uint256","internalType":"uint256"}],"stateMutability":"view"},{"type":"function","name":"pauserRegistry","inputs":[],"outputs":[{"name":"","type":"address","internalType":"contract IPauserRegistry"}],"stateMutability":"view"},{"type":"function","name":"removeShares","inputs":[{"name":"staker","type":"address","internalType":"address"},{"name":"strategy","type":"address","internalType":"contract IStrategy"},{"name":"shares","type":"uint256","internalType":"uint256"}],"outputs":[],"stateMutability":"nonpayable"},{"type":"function","name":"removeStrategiesFromDepositWhitelist","inputs":[{"name":"strategiesToRemoveFromWhitelist","type":"address[]","internalType":"contract IStrategy[]"}],"outputs":[],"stateMutability":"nonpayable"},{"type":"function","name":"renounceOwnership","inputs":[],"outputs":[],"stateMutability":"nonpayable"},{"type":"function","name":"setPauserRegistry","inputs":[{"name":"newPauserRegistry","type":"address","internalType":"contract IPauserRegistry"}],"outputs":[],"stateMutability":"nonpayable"},{"type":"function","name":"setStrategyWhitelister","inputs":[{"name":"newStrategyWhitelister","type":"address","internalType":"address"}],"outputs":[],"stateMutability":"nonpayable"},{"type":"function","name":"setThirdPartyTransfersForbidden","inputs":[{"name":"strategy","type":"address","internalType":"contract IStrategy"},{"name":"value","type":"bool","internalType":"bool"}],"outputs":[],"stateMutability":"nonpayable"},{"type":"function","name":"slasher","inputs":[],"outputs":[{"name":"","type":"address","internalType":"contract ISlasher"}],"stateMutability":"view"},{"type":"function","name":"stakerStrategyList","inputs":[{"name":"","type":"address","internalType":"address"},{"name":"","type":"uint256","internalType":"uint256"}],"outputs":[{"name":"","type":"address","internalType":"contract IStrategy"}],"stateMutability":"view"},{"type":"function","name":"stakerStrategyListLength","inputs":[{"name":"staker","type":"address","internalType":"address"}],"outputs":[{"name":"","type":"uint256","internalType":"uint256"}],"stateMutability":"view"},{"type":"function","name":"stakerStrategyShares","inputs":[{"name":"","type":"address","internalType":"address"},{"name":"","type":"address","internalType":"contract IStrategy"}],"outputs":[{"name":"","type":"uint256","internalType":"uint256"}],"stateMutability":"view"},{"type":"function","name":"strategyIsWhitelistedForDeposit","inputs":[{"name":"","type":"address","internalType":"contract IStrategy"}],"outputs":[{"name":"","type":"bool","internalType":"bool"}],"stateMutability":"view"},{"type":"function","name":"strategyWhitelister","inputs":[],"outputs":[{"name":"","type":"address","internalType":"address"}],"stateMutability":"view"},{"type":"function","name":"thirdPartyTransfersForbidden","inputs":[{"name":"","type":"address","internalType":"contract IStrategy"}],"outputs":[{"name":"","type":"bool","internalType":"bool"}],"stateMutability":"view"},{"type":"function","name":"transferOwnership","inputs":[{"name":"newOwner","type":"address","internalType":"address"}],"outputs":[],"stateMutability":"nonpayable"},{"type":"function","name":"unpause","inputs":[{"name":"newPausedStatus","type":"uint256","internalType":"uint256"}],"outputs":[],"stateMutability":"nonpayable"},{"type":"function","name":"withdrawSharesAsTokens","inputs":[{"name":"recipient","type":"address","internalType":"address"},{"name":"strategy","type":"address","internalType":"contract IStrategy"},{"name":"shares","type":"uint256","internalType":"uint256"},{"name":"token","type":"address","internalType":"contract IERC20"}],"outputs":[],"stateMutability":"nonpayable"},{"type":"event","name":"Deposit","inputs":[{"name":"staker","type":"address","indexed":false,"internalType":"address"},{"name":"token","type":"address","indexed":false,"internalType":"contract IERC20"},{"name":"strategy","type":"address","indexed":false,"internalType":"contract IStrategy"},{"name":"shares","type":"uint256","indexed":false,"internalType":"uint256"}],"anonymous":false},{"type":"event","name":"Initialized","inputs":[{"name":"version","type":"uint8","indexed":false,"internalType":"uint8"}],"anonymous":false},{"type":"event","name":"OwnershipTransferred","inputs":[{"name":"previousOwner","type":"address","indexed":true,"internalType":"address"},{"name":"newOwner","type":"address","indexed":true,"internalType":"address"}],"anonymous":false},{"type":"event","name":"Paused","inputs":[{"name":"account","type":"address","indexed":true,"internalType":"address"},{"name":"newPausedStatus","type":"uint256","indexed":false,"internalType":"uint256"}],"anonymous":false},{"type":"event","name":"PauserRegistrySet","inputs":[{"name":"pauserRegistry","type":"address","indexed":false,"internalType":"contract IPauserRegistry"},{"name":"newPauserRegistry","type":"address","indexed":false,"internalType":"contract IPauserRegistry"}],"anonymous":false},{"type":"event","name":"StrategyAddedToDepositWhitelist","inputs":[{"name":"strategy","type":"address","indexed":false,"internalType":"contract IStrategy"}],"anonymous":false},{"type":"event","name":"StrategyRemovedFromDepositWhitelist","inputs":[{"name":"strategy","type":"address","indexed":false,"internalType":"contract IStrategy"}],"anonymous":false},{"type":"event","name":"StrategyWhitelisterChanged","inputs":[{"name":"previousAddress","type":"address","indexed":false,"internalType":"address"},{"name":"newAddress","type":"address","indexed":false,"internalType":"address"}],"anonymous":false},{"type":"event","name":"Unpaused","inputs":[{"name":"account","type":"address","indexed":true,"internalType":"address"},{"name":"newPausedStatus","type":"uint256","indexed":false,"internalType":"uint256"}],"anonymous":false},{"type":"event","name":"UpdatedThirdPartyTransfersForbidden","inputs":[{"name":"strategy","type":"address","indexed":false,"internalType":"contract IStrategy"},{"name":"value","type":"bool","indexed":false,"internalType":"bool"}],"anonymous":false}],"bytecode":{"object":"0x6101003461018257601f612c1238819003918201601f19168301916001600160401b0383118484101761018757808492606094604052833981010312610182578051906001600160a01b0382168203610182576020810151906001600160a01b03821682036101825760400151916001600160a01b03831683036101825760805260a05260c05260005460ff8160081c1661012d5760ff808216106100f2575b4660e052604051612a74908161019e8239608051818181610406015281816108ff015281816109d801528181610e170152611e15015260a05181611182015260c05181610b72015260e05181611b970152f35b60ff90811916176000557f7f26b83ff96e1f2b6a682f133852f6798a09c465da95921460cefb3847402498602060405160ff8152a13861009f565b60405162461bcd60e51b815260206004820152602760248201527f496e697469616c697a61626c653a20636f6e747261637420697320696e697469604482015266616c697a696e6760c81b6064820152608490fd5b600080fd5b634e487b7160e01b600052604160045260246000fdfe608080604052600436101561001357600080fd5b600090813560e01c90816310d67a2f1461176657508063136439dd1461166a57806320606b701461162f57806332e89ace146111b15780634665bcda1461116c57806348825e94146111315780634e5a4263146110ed578063595c6a67146110285780635ac86ab714610ff25780635c975abb14610fd4578063663c1de414610f95578063715018a614610f385780637a7e0d9214610eed5780637ecebe0014610eb4578063886f119514610e8b5780638b8aac3c14610e525780638c80d4e514610dec5780638da5cb5b14610dc357806394f649dd14610c09578063967fc0d214610be05780639b4da03d14610ba1578063b134427114610b5c578063b5d8b5b814610a0f578063c4623ea1146109a4578063c608c7f3146108cc578063c6656702146108a7578063cbc2bd6214610846578063cf756fdf1461061d578063df5b354714610435578063df5cf723146103f0578063e7a050aa1461038d578063f2fde38b146102fc578063f698da25146102d95763fabc1cbc1461019757600080fd5b346102d65760203660031901126102d65760975460405163755b36bd60e11b81526004803592602091839182906001600160a01b03165afa80156102cb576101f191849161029c575b506001600160a01b031633146118fd565b60985419811981160361023157806098556040519081527f3582d1828e26bf56bd801502bc021ac0bc8afb57c826e4986b45593c8fad389c60203392a280f35b60405162461bcd60e51b815260206004820152603860248201527f5061757361626c652e756e70617573653a20696e76616c696420617474656d7060448201527f7420746f2070617573652066756e6374696f6e616c69747900000000000000006064820152608490fd5b6102be915060203d6020116102c4575b6102b6818361182b565b8101906118de565b386101e0565b503d6102ac565b6040513d85823e3d90fd5b80fd5b50346102d657806003193601126102d65760206102f4611b94565b604051908152f35b50346102d65760203660031901126102d6576103166117ce565b61031e612086565b6001600160a01b0381161561033957610336906120de565b80f35b60405162461bcd60e51b815260206004820152602660248201527f4f776e61626c653a206e6577206f776e657220697320746865207a65726f206160448201526564647265737360d01b6064820152608490fd5b50346102d65760603660031901126102d65760206103e36103ac6117ce565b6103b46117ff565b6103c56001806098541614156119d1565b6103d460026065541415611a1d565b60026065556044359133611ce7565b6001606555604051908152f35b50346102d657806003193601126102d6576040517f00000000000000000000000000000000000000000000000000000000000000006001600160a01b03168152602090f35b50346102d65760403660031901126102d65760043567ffffffffffffffff81116106195761046790369060040161187f565b60243567ffffffffffffffff81116106155761048790369060040161187f565b909161049e60018060a01b0360cb54163314611a69565b81810361059657845b8181106104b2578580f35b6001600160a01b036104cd6104c8838589611b70565b611b80565b16865260d160205260ff604087205416156104eb575b6001016104a7565b6001600160a01b036105016104c8838589611b70565b16865260d160205260408620600160ff198254161790557f0c35b17d91c96eb2751cd456e1252f42a386e524ef9ff26ecc9950859fdc04fe60206105496104c884868a611b70565b6040516001600160a01b039091168152a16105686104c8828488611b70565b90610574818587611b70565b359182151583036105925760019261058b91612029565b90506104e3565b8780fd5b60405162461bcd60e51b815260206004820152604b60248201527f53747261746567794d616e616765722e61646453747261746567696573546f4460448201527f65706f73697457686974656c6973743a206172726179206c656e67746873206460648201526a0de40dcdee840dac2e8c6d60ab1b608482015260a490fd5b8380fd5b5080fd5b50346102d65760803660031901126102d6576106376117ce565b61063f6117ff565b6106476117e9565b906064359184549360ff8560081c161594858096610839575b8015610822575b156107c65760ff1981166001178755856107b5575b506106856126e6565b60c9556097546001600160a01b031615806107a3575b15610728576106e06106e592856106ea966098556040519081527fab40a374bc51de372200a8bc981af8c9ecdc08dfdaef0bb6e09f88f3c616ef3d60203392a2611bcc565b6120de565b612693565b6106f15780f35b61ff001981541681557f7f26b83ff96e1f2b6a682f133852f6798a09c465da95921460cefb3847402498602060405160018152a180f35b60405162461bcd60e51b815260206004820152604760248201527f5061757361626c652e5f696e697469616c697a655061757365723a205f696e6960448201527f7469616c697a6550617573657228292063616e206f6e6c792062652063616c6c6064820152666564206f6e636560c81b608482015260a490fd5b506001600160a01b038216151561069b565b61ffff19166101011786553861067c565b60405162461bcd60e51b815260206004820152602e60248201527f496e697469616c697a61626c653a20636f6e747261637420697320616c72656160448201526d191e481a5b9a5d1a585b1a5e995960921b6064820152608490fd5b50303b1580156106675750600160ff821614610667565b50600160ff821610610660565b50346102d65760403660031901126102d6576108606117ce565b6001600160a01b0316815260ce60205260408120805460243592908310156102d657602061088e84846118b0565b905460405160039290921b1c6001600160a01b03168152f35b50346102d65760203660031901126102d6576103366108c46117ce565b6106e5612086565b50346102d65760803660031901126102d6576108e66117ce565b816108ef6117ff565b916108f8611815565b9261092d337f00000000000000000000000000000000000000000000000000000000000000006001600160a01b031614611ae7565b6001600160a01b031692833b156109a057604051636ce5768960e11b81526001600160a01b0392831660048201529116602482015260448035908201529181908390606490829084905af18015610993576109855780f35b61098e9161182b565b388180f35b50604051903d90823e3d90fd5b8280fd5b50346102d65760803660031901126102d6576103366109c16117ce565b6109c96117ff565b6109d16117e9565b90610a06337f00000000000000000000000000000000000000000000000000000000000000006001600160a01b031614611ae7565b6064359261242e565b50346102d65760203660031901126102d65760043567ffffffffffffffff811161061957610a4190369060040161187f565b610a5660018060a01b0360cb54163314611a69565b825b818110610a63578380f35b6001906001600160a01b03610a7c6104c8838688611b70565b16855260d160205260ff604086205416610a97575b01610a58565b818060a01b03610aab6104c8838688611b70565b16855260d16020526040852060ff1981541690557f4074413b4b443e4e58019f2855a8765113358c7c72e39509c6af45fc0f5ba0306020610af06104c8848789611b70565b60405190858060a01b03168152a1610b0c6104c8828587611b70565b7f77d930df4937793473a95024d87a98fd2ccb9e92d3c2463b3dacd65d3e6a57866040805192858060a01b031692838152886020820152a1855260d360205260408520805460ff19169055610a91565b50346102d657806003193601126102d6576040517f00000000000000000000000000000000000000000000000000000000000000006001600160a01b03168152602090f35b50346102d65760203660031901126102d65760209060ff906040906001600160a01b03610bcc6117ce565b16815260d384522054166040519015158152f35b50346102d657806003193601126102d65760cb546040516001600160a01b039091168152602090f35b50346102d65760203660031901126102d6576001600160a01b03610c2b6117ce565b169081815260ce6020526040812054610c4381611b58565b92610c51604051948561182b565b818452610c5d82611b58565b602085019290601f1901368437835b818110610d51575050825260ce6020526040822091604051928360208254918281520190819284526020842090845b818110610d325750505084610cb191038561182b565b60405194859460408601906040875251809152606086019290845b818110610d10575050506020908583038287015251918281520192915b818110610cf7575050500390f35b8251845285945060209384019390920191600101610ce9565b82516001600160a01b0316855288975060209485019490920191600101610ccc565b82546001600160a01b0316845260209093019260019283019201610c9b565b828594955260cd6020526040842083855260ce602052610d7482604087206118b0565b905460039190911b1c6001600160a01b0316855260205260408420548651821015610daf57600582901b870160200152929392600101610c6c565b634e487b7160e01b85526032600452602485fd5b50346102d657806003193601126102d6576033546040516001600160a01b039091168152602090f35b50346102d65760603660031901126102d657610e4e610e096117ce565b610e116117ff565b610e45337f00000000000000000000000000000000000000000000000000000000000000006001600160a01b031614611ae7565b60443591612127565b5080f35b50346102d65760203660031901126102d6576020906040906001600160a01b03610e7a6117ce565b16815260ce83522054604051908152f35b50346102d657806003193601126102d6576097546040516001600160a01b039091168152602090f35b50346102d65760203660031901126102d6576020906040906001600160a01b03610edc6117ce565b16815260ca83522054604051908152f35b50346102d65760403660031901126102d6576040602091610f0c6117ce565b610f146117ff565b6001600160a01b03918216835260cd85528383209116825283522054604051908152f35b50346102d657806003193601126102d657610f51612086565b603380546001600160a01b0319811690915581906001600160a01b03167f8be0079c531659141344cd1fd0a4f28419497f9722a3daafe3b4186f6b6457e08280a380f35b50346102d65760203660031901126102d65760209060ff906040906001600160a01b03610fc06117ce565b16815260d184522054166040519015158152f35b50346102d657806003193601126102d6576020609854604051908152f35b50346102d65760203660031901126102d65760043560ff811680910361061957600190602092501b806098541614604051908152f35b50346102d657806003193601126102d65760975460405163237dfb4760e11b815233600482015290602090829060249082906001600160a01b03165afa80156110e25761107c9183916110b3575b50611974565b60001960985560405160001981527fab40a374bc51de372200a8bc981af8c9ecdc08dfdaef0bb6e09f88f3c616ef3d60203392a280f35b6110d5915060203d6020116110db575b6110cd818361182b565b81019061195c565b38611076565b503d6110c3565b6040513d84823e3d90fd5b50346102d65760403660031901126102d6576111076117ce565b60243580151581036109a0576103369161112c60018060a01b0360cb54163314611a69565b612029565b50346102d657806003193601126102d65760206040517f4337f82d142e41f2a8c10547cd8c859bddb92262a61058e77842e24d9dea92248152f35b50346102d657806003193601126102d6576040517f00000000000000000000000000000000000000000000000000000000000000006001600160a01b03168152602090f35b50346102d65760c03660031901126102d6576111cb6117ce565b906111d46117ff565b604435906111e0611815565b926084359060a43567ffffffffffffffff8111610619573660238201121561061957806004013561121081611863565b9161121e604051938461182b565b818352366024838301011161061557818492602460209301838601378301015261124f6001806098541614156119d1565b61125e60026065541415611a1d565b60026065556001600160a01b03871680835260d3602052604083205490939060ff166115b15742811061153a576001808060a01b0388169485855260ca6020526040852054926040519060208201927f4337f82d142e41f2a8c10547cd8c859bddb92262a61058e77842e24d9dea922484528860408401526060830152838060a01b03891660808301528960a08301528460c083015260e082015260e081526113096101008261182b565b5190209185855260ca602052016040842055611323611b94565b9060405190602082019261190160f01b8452602283015260428201526042815261134e60628261182b565b519020863b1561148e579061138993602092604051809681948293630b135d3f60e11b84526004840152604060248401526044830190611ca6565b03915afa918215610993578192611447575b50506001600160e01b0319166374eca2c160e11b016113c0576020936103e393611ce7565b60405162461bcd60e51b815260206004820152605360248201527f454950313237315369676e61747572655574696c732e636865636b5369676e6160448201527f747572655f454950313237313a2045524331323731207369676e6174757265206064820152721d995c9a599a58d85d1a5bdb8819985a5b1959606a1b608482015260a490fd5b9091506020813d602011611486575b816114636020938361182b565b810103126106195751906001600160e01b0319821682036102d65750388061139b565b3d9150611456565b6114a592509061149d9161275c565b9190916127cc565b6001600160a01b0316036114bf576020936103e393611ce7565b60405162461bcd60e51b815260206004820152604760248201527f454950313237315369676e61747572655574696c732e636865636b5369676e6160448201527f747572655f454950313237313a207369676e6174757265206e6f742066726f6d6064820152661039b4b3b732b960c91b608482015260a490fd5b60405162461bcd60e51b815260206004820152604360248201527f53747261746567794d616e616765722e6465706f736974496e746f537472617460448201527f656779576974685369676e61747572653a207369676e617475726520657870696064820152621c995960ea1b608482015260a490fd5b60405162461bcd60e51b815260206004820152604a60248201527f53747261746567794d616e616765722e6465706f736974496e746f537472617460448201527f656779576974685369676e61747572653a207468697264207472616e736665726064820152691cc8191a5cd8589b195960b21b608482015260a490fd5b50346102d657806003193601126102d65760206040517f8cad95687ba82c2ce50e74f7b754645e5117c3a5bec8151c0726d5857980a8668152f35b50346102d65760203660031901126102d6576004356024602060018060a01b03609754166040519283809263237dfb4760e11b82523360048301525afa80156102cb576116bd9184916110b35750611974565b609854818116036116fb57806098556040519081527fab40a374bc51de372200a8bc981af8c9ecdc08dfdaef0bb6e09f88f3c616ef3d60203392a280f35b60405162461bcd60e51b815260206004820152603860248201527f5061757361626c652e70617573653a20696e76616c696420617474656d70742060448201527f746f20756e70617573652066756e6374696f6e616c69747900000000000000006064820152608490fd5b905034610619576020366003190112610619576117816117ce565b60975463755b36bd60e11b8352602090839060049082906001600160a01b03165afa9182156102cb57610336926117c991859161029c57506001600160a01b031633146118fd565b611bcc565b600435906001600160a01b03821682036117e457565b600080fd5b604435906001600160a01b03821682036117e457565b602435906001600160a01b03821682036117e457565b606435906001600160a01b03821682036117e457565b90601f8019910116810190811067ffffffffffffffff82111761184d57604052565b634e487b7160e01b600052604160045260246000fd5b67ffffffffffffffff811161184d57601f01601f191660200190565b9181601f840112156117e45782359167ffffffffffffffff83116117e4576020808501948460051b0101116117e457565b80548210156118c85760005260206000200190600090565b634e487b7160e01b600052603260045260246000fd5b908160209103126117e457516001600160a01b03811681036117e45790565b1561190457565b60405162461bcd60e51b815260206004820152602a60248201527f6d73672e73656e646572206973206e6f74207065726d697373696f6e6564206160448201526939903ab73830bab9b2b960b11b6064820152608490fd5b908160209103126117e4575180151581036117e45790565b1561197b57565b60405162461bcd60e51b815260206004820152602860248201527f6d73672e73656e646572206973206e6f74207065726d697373696f6e6564206160448201526739903830bab9b2b960c11b6064820152608490fd5b156119d857565b60405162461bcd60e51b815260206004820152601960248201527f5061757361626c653a20696e64657820697320706175736564000000000000006044820152606490fd5b15611a2457565b60405162461bcd60e51b815260206004820152601f60248201527f5265656e7472616e637947756172643a207265656e7472616e742063616c6c006044820152606490fd5b15611a7057565b60a460405162461bcd60e51b815260206004820152604460248201527f53747261746567794d616e616765722e6f6e6c7953747261746567795768697460448201527f656c69737465723a206e6f742074686520737472617465677957686974656c6960648201526339ba32b960e11b6084820152fd5b15611aee57565b608460405162461bcd60e51b815260206004820152604060248201527f53747261746567794d616e616765722e6f6e6c7944656c65676174696f6e4d6160448201527f6e616765723a206e6f74207468652044656c65676174696f6e4d616e616765726064820152fd5b67ffffffffffffffff811161184d5760051b60200190565b91908110156118c85760051b0190565b356001600160a01b03811681036117e45790565b467f000000000000000000000000000000000000000000000000000000000000000003611bc15760c95490565b611bc96126e6565b90565b6001600160a01b03168015611c2957609754604080516001600160a01b0383168152602081018490527f6e9fcd539896fca60e8b0f01dd580233e48a6b0f7df013b89ba7f565869acdb69190a16001600160a01b03191617609755565b60405162461bcd60e51b815260206004820152604960248201527f5061757361626c652e5f73657450617573657252656769737472793a206e657760448201527f50617573657252656769737472792063616e6e6f7420626520746865207a65726064820152686f206164647265737360b81b608482015260a490fd5b919082519283825260005b848110611cd2575050826000602080949584010152601f8019910116010190565b80602080928401015182828601015201611cb1565b6001600160a01b038216600081815260d16020526040812054949590949293909260ff1615611fa8576040519560208701936323b872dd60e01b855233602489015283604489015280606489015260648852611d4460848961182b565b604080516001600160a01b0384169991969091611d61888461182b565b602083527f5361666545524332303a206c6f772d6c6576656c2063616c6c206661696c656460208401528a3b15611f6457898b611dcc949382809451925af13d15611f5c573d90611db182611863565b91611dbe8a51938461182b565b82523d8b602084013e6129fa565b80519081611ee8575b50508451976311f9fbc960e21b89526004890152602488015260208760448189875af1968715611ede578697611ea2575b50611e139187918661242e565b7f00000000000000000000000000000000000000000000000000000000000000006001600160a01b031692833b15611e9e5790606485928385519687948593631452b9d760e11b855260018060a01b0316600485015260248401528960448401525af1908115611e955750611e8757505090565b81611e919161182b565b5090565b513d84823e3d90fd5b8480fd5b909196506020813d602011611ed6575b81611ebf6020938361182b565b81010312611ed257519590611e13611e06565b8580fd5b3d9150611eb2565b84513d88823e3d90fd5b602080611ef993830101910161195c565b15611f05573880611dd5565b845162461bcd60e51b815260206004820152602a60248201527f5361666545524332303a204552433230206f7065726174696f6e20646964206e6044820152691bdd081cdd58d8d9595960b21b6064820152608490fd5b6060906129fa565b875162461bcd60e51b815260206004820152601d60248201527f416464726573733a2063616c6c20746f206e6f6e2d636f6e74726163740000006044820152606490fd5b60405162461bcd60e51b815260206004820152604d60248201527f53747261746567794d616e616765722e6f6e6c7953747261746567696573576860448201527f6974656c6973746564466f724465706f7369743a207374726174656779206e6f60648201526c1d081dda1a5d195b1a5cdd1959609a1b608482015260a490fd5b604080516001600160a01b039092168083528315156020840152917f77d930df4937793473a95024d87a98fd2ccb9e92d3c2463b3dacd65d3e6a57869190a160005260d360205260406000209060ff801983541691151516179055565b6033546001600160a01b0316330361209a57565b606460405162461bcd60e51b815260206004820152602060248201527f4f776e61626c653a2063616c6c6572206973206e6f7420746865206f776e65726044820152fd5b603380546001600160a01b039283166001600160a01b0319821681179092559091167f8be0079c531659141344cd1fd0a4f28419497f9722a3daafe3b4186f6b6457e0600080a3565b91909181156123c35760018060a01b0316908160005260cd602052604060002060018060a01b038416600052602052604060002054808211612362578260005260cd602052604060002060018060a01b0385166000526020526040600020828203905514612196575050600090565b600081815260ce602052604081205491926001600160a01b03165b82821061228f575b50146122125760005260ce6020526040600020805480156121fc5760001901906121e382826118b0565b81549060018060a01b039060031b1b1916905555600190565b634e487b7160e01b600052603160045260246000fd5b60405162461bcd60e51b815260206004820152604960248201527f53747261746567794d616e616765722e5f72656d6f766553747261746567794660448201527f726f6d5374616b657253747261746567794c6973743a207374726174656779206064820152681b9bdd08199bdd5b9960ba1b608482015260a490fd5b9291908260005260ce602052836122aa8260406000206118b0565b905460039190911b1c6001600160a01b0316146122cc576001019091926121b1565b600083815260ce60205260409020805493945091929091600019820191821161234c57612346916122fc916118b0565b60018060a01b0391549060031b1c168460005260ce6020526123228360406000206118b0565b81546001600160a01b0393841660039290921b91821b9390911b1916919091179055565b386121b9565b634e487b7160e01b600052601160045260246000fd5b60405162461bcd60e51b815260206004820152603360248201527f53747261746567794d616e616765722e5f72656d6f76655368617265733a20736044820152720d0c2e4ca82dadeeadce840e8dede40d0d2ced606b1b6064820152608490fd5b60405162461bcd60e51b815260206004820152603e60248201527f53747261746567794d616e616765722e5f72656d6f76655368617265733a207360448201527f68617265416d6f756e742073686f756c64206e6f74206265207a65726f2100006064820152608490fd5b90926001600160a01b039091169081156126285780156125c4578160005260cd602052604060002060018060a01b038416600052602052604060002054156124ef575b8160005260cd602052604060002060018060a01b03841660005260205260406000209283549482860180961161234c577f7cfff908a4b583f36430b25d75964c458d8ede8a99bd61be750e97ee1b2f3a96956080955560405193845260018060a01b0316602084015260018060a01b031660408301526060820152a1565b8160005260ce60205260206040600020541015612540578160005260ce602052604060002080546801000000000000000081101561184d576123228161253b93600188940181556118b0565b612471565b60405162461bcd60e51b815260206004820152605060248201527f53747261746567794d616e616765722e5f6164645368617265733a206465706f60448201527f73697420776f756c6420657863656564204d41585f5354414b45525f5354524160648201526f0a88a8eb2be9892a6a8be988a9c8ea8960831b608482015260a490fd5b60405162461bcd60e51b815260206004820152603660248201527f53747261746567794d616e616765722e5f6164645368617265733a207368617260448201527565732073686f756c64206e6f74206265207a65726f2160501b6064820152608490fd5b60405162461bcd60e51b815260206004820152603960248201527f53747261746567794d616e616765722e5f6164645368617265733a207374616b60448201527f65722063616e6e6f74206265207a65726f2061646472657373000000000000006064820152608490fd5b60cb54604080516001600160a01b03808416825290931660208401819052927f4264275e593955ff9d6146a51a4525f6ddace2e81db9391abcc9d1ca48047d299190a16001600160a01b0319161760cb55565b6040600a602082516126f8848261182b565b828152016922b4b3b2b72630bcb2b960b11b81522081519060208201927f8cad95687ba82c2ce50e74f7b754645e5117c3a5bec8151c0726d5857980a86684528201524660608201523060808201526080815261275660a08261182b565b51902090565b815160418103612789575090612785916020820151906060604084015193015160001a90612946565b9091565b6040036127c25760406020830151920151918260ff1c91601b830180931161234c57612785936001600160ff1b03169260ff1690612946565b5050600090600290565b600581101561293057806127dd5750565b60006001820361282c5760405162461bcd60e51b815260206004820152601860248201527f45434453413a20696e76616c6964207369676e617475726500000000000000006044820152606490fd5b506002810361287a5760405162461bcd60e51b815260206004820152601f60248201527f45434453413a20696e76616c6964207369676e6174757265206c656e677468006044820152606490fd5b600090600381036128d55760405162461bcd60e51b815260206004820152602260248201527f45434453413a20696e76616c6964207369676e6174757265202773272076616c604482015261756560f01b6064820152608490fd5b60049150146128e057565b60405162461bcd60e51b815260206004820152602260248201527f45434453413a20696e76616c6964207369676e6174757265202776272076616c604482015261756560f01b6064820152608490fd5b634e487b7160e01b600052602160045260246000fd5b907f7fffffffffffffffffffffffffffffff5d576e7357a4501ddfe92f46681b20a084116129ee5760ff1690601b821415806129e3575b6129d757602093600093608093604051938452868401526040830152606082015282805260015afa156129cb576000516001600160a01b038116156129c25790600090565b50600090600190565b6040513d6000823e3d90fd5b50505050600090600490565b50601c82141561297d565b50505050600090600390565b90919015612a06575090565b815115612a165750805190602001fd5b60405162461bcd60e51b815260206004820152908190612a3a906024830190611ca6565b0390fdfea26469706673582212207ab1880c412aad09e7bf6a622c87a2f6b147d009b8e5b15347638bd198ea823864736f6c634300081a0033","linkReferences":{}},"methodIdentifiers":{"DEPOSIT_TYPEHASH()":"48825e94","DOMAIN_TYPEHASH()":"20606b70","addShares(address,address,address,uint256)":"c4623ea1","addStrategiesToDepositWhitelist(address[],bool[])":"df5b3547","delegation()":"df5cf723","depositIntoStrategy(address,address,uint256)":"e7a050aa","depositIntoStrategyWithSignature(address,address,uint256,address,uint256,bytes)":"32e89ace","domainSeparator()":"f698da25","eigenPodManager()":"4665bcda","getDeposits(address)":"94f649dd","initialize(address,address,address,uint256)":"cf756fdf","nonces(address)":"7ecebe00","owner()":"8da5cb5b","pause(uint256)":"136439dd","pauseAll()":"595c6a67","paused()":"5c975abb","paused(uint8)":"5ac86ab7","pauserRegistry()":"886f1195","removeShares(address,address,uint256)":"8c80d4e5","removeStrategiesFromDepositWhitelist(address[])":"b5d8b5b8","renounceOwnership()":"715018a6","setPauserRegistry(address)":"10d67a2f","setStrategyWhitelister(address)":"c6656702","setThirdPartyTransfersForbidden(address,bool)":"4e5a4263","slasher()":"b1344271","stakerStrategyList(address,uint256)":"cbc2bd62","stakerStrategyListLength(address)":"8b8aac3c","stakerStrategyShares(address,address)":"7a7e0d92","strategyIsWhitelistedForDeposit(address)":"663c1de4","strategyWhitelister()":"967fc0d2","thirdPartyTransfersForbidden(address)":"9b4da03d","transferOwnership(address)":"f2fde38b","unpause(uint256)":"fabc1cbc","withdrawSharesAsTokens(address,address,uint256,address)":"c608c7f3"},"id":42}