{"abi":[{"type":"constructor","inputs":[{"name":"_strategyManager","type":"address","internalType":"contract IStrategyManager"}],"stateMutability":"nonpayable"},{"type":"function","name":"blacklistTokens","inputs":[{"name":"tokens","type":"address[]","internalType":"contract IERC20[]"}],"outputs":[],"stateMutability":"nonpayable"},{"type":"function","name":"deployNewStrategy","inputs":[{"name":"token","type":"address","internalType":"contract IERC20"}],"outputs":[{"name":"newStrategy","type":"address","internalType":"contract IStrategy"}],"stateMutability":"nonpayable"},{"type":"function","name":"deployedStrategies","inputs":[{"name":"","type":"address","internalType":"contract IERC20"}],"outputs":[{"name":"","type":"address","internalType":"contract IStrategy"}],"stateMutability":"view"},{"type":"function","name":"initialize","inputs":[{"name":"_initialOwner","type":"address","internalType":"address"},{"name":"_pauserRegistry","type":"address","internalType":"contract IPauserRegistry"},{"name":"_initialPausedStatus","type":"uint256","internalType":"uint256"},{"name":"_strategyBeacon","type":"address","internalType":"contract IBeacon"}],"outputs":[],"stateMutability":"nonpayable"},{"type":"function","name":"isBlacklisted","inputs":[{"name":"","type":"address","internalType":"contract IERC20"}],"outputs":[{"name":"","type":"bool","internalType":"bool"}],"stateMutability":"view"},{"type":"function","name":"owner","inputs":[],"outputs":[{"name":"","type":"address","internalType":"address"}],"stateMutability":"view"},{"type":"function","name":"pause","inputs":[{"name":"newPausedStatus","type":"uint256","internalType":"uint256"}],"outputs":[],"stateMutability":"nonpayable"},{"type":"function","name":"pauseAll","inputs":[],"outputs":[],"stateMutability":"nonpayable"},{"type":"function","name":"paused","inputs":[{"name":"index","type":"uint8","internalType":"uint8"}],"outputs":[{"name":"","type":"bool","internalType":"bool"}],"stateMutability":"view"},{"type":"function","name":"paused","inputs":[],"outputs":[{"name":"","type":"uint256","internalType":"uint256"}],"stateMutability":"view"},{"type":"function","name":"pauserRegistry","inputs":[],"outputs":[{"name":"","type":"address","internalType":"contract IPauserRegistry"}],"stateMutability":"view"},{"type":"function","name":"removeStrategiesFromWhitelist","inputs":[{"name":"strategiesToRemoveFromWhitelist","type":"address[]","internalType":"contract IStrategy[]"}],"outputs":[],"stateMutability":"nonpayable"},{"type":"function","name":"renounceOwnership","inputs":[],"outputs":[],"stateMutability":"nonpayable"},{"type":"function","name":"setPauserRegistry","inputs":[{"name":"newPauserRegistry","type":"address","internalType":"contract IPauserRegistry"}],"outputs":[],"stateMutability":"nonpayable"},{"type":"function","name":"setThirdPartyTransfersForbidden","inputs":[{"name":"strategy","type":"address","internalType":"contract IStrategy"},{"name":"value","type":"bool","internalType":"bool"}],"outputs":[],"stateMutability":"nonpayable"},{"type":"function","name":"strategyBeacon","inputs":[],"outputs":[{"name":"","type":"address","internalType":"contract IBeacon"}],"stateMutability":"view"},{"type":"function","name":"strategyManager","inputs":[],"outputs":[{"name":"","type":"address","internalType":"contract IStrategyManager"}],"stateMutability":"view"},{"type":"function","name":"transferOwnership","inputs":[{"name":"newOwner","type":"address","internalType":"address"}],"outputs":[],"stateMutability":"nonpayable"},{"type":"function","name":"unpause","inputs":[{"name":"newPausedStatus","type":"uint256","internalType":"uint256"}],"outputs":[],"stateMutability":"nonpayable"},{"type":"function","name":"whitelistStrategies","inputs":[{"name":"strategiesToWhitelist","type":"address[]","internalType":"contract IStrategy[]"},{"name":"thirdPartyTransfersForbiddenValues","type":"bool[]","internalType":"bool[]"}],"outputs":[],"stateMutability":"nonpayable"},{"type":"event","name":"Initialized","inputs":[{"name":"version","type":"uint8","indexed":false,"internalType":"uint8"}],"anonymous":false},{"type":"event","name":"OwnershipTransferred","inputs":[{"name":"previousOwner","type":"address","indexed":true,"internalType":"address"},{"name":"newOwner","type":"address","indexed":true,"internalType":"address"}],"anonymous":false},{"type":"event","name":"Paused","inputs":[{"name":"account","type":"address","indexed":true,"internalType":"address"},{"name":"newPausedStatus","type":"uint256","indexed":false,"internalType":"uint256"}],"anonymous":false},{"type":"event","name":"PauserRegistrySet","inputs":[{"name":"pauserRegistry","type":"address","indexed":false,"internalType":"contract IPauserRegistry"},{"name":"newPauserRegistry","type":"address","indexed":false,"internalType":"contract IPauserRegistry"}],"anonymous":false},{"type":"event","name":"StrategyBeaconModified","inputs":[{"name":"previousBeacon","type":"address","indexed":false,"internalType":"contract IBeacon"},{"name":"newBeacon","type":"address","indexed":false,"internalType":"contract IBeacon"}],"anonymous":false},{"type":"event","name":"StrategySetForToken","inputs":[{"name":"token","type":"address","indexed":false,"internalType":"contract IERC20"},{"name":"strategy","type":"address","indexed":false,"internalType":"contract IStrategy"}],"anonymous":false},{"type":"event","name":"TokenBlacklisted","inputs":[{"name":"token","type":"address","indexed":false,"internalType":"contract IERC20"}],"anonymous":false},{"type":"event","name":"Unpaused","inputs":[{"name":"account","type":"address","indexed":true,"internalType":"address"},{"name":"newPausedStatus","type":"uint256","indexed":false,"internalType":"uint256"}],"anonymous":false}],"bytecode":{"object":"0x60a03461013657601f611fcf38819003918201601f19168301916001600160401b0383118484101761013b5780849260209460405283398101031261013657516001600160a01b03811681036101365760805260335460ff8160081c166100e15760ff808216106100a6575b604051611e7d908161015282396080518181816103ec015281816105c3015281816106320152818161083301528181610a2d0152610eae0152f35b60ff90811916176033557f7f26b83ff96e1f2b6a682f133852f6798a09c465da95921460cefb3847402498602060405160ff8152a13861006b565b60405162461bcd60e51b815260206004820152602760248201527f496e697469616c697a61626c653a20636f6e747261637420697320696e697469604482015266616c697a696e6760c81b6064820152608490fd5b600080fd5b634e487b7160e01b600052604160045260246000fdfe6080604052600436101561001257600080fd5b60003560e01c806310d67a2f14610157578063136439dd1461015257806323103c411461014d57806339b70e38146101485780634e5a426314610143578063581dfd651461013e578063595c6a67146101395780635ac86ab7146101345780635c975abb1461012f578063697d54b41461012a5780636b9b622914610125578063715018a614610120578063886f11951461011b5780638da5cb5b14610116578063be20309414610111578063f0062d9a1461010c578063f2fde38b14610107578063fabc1cbc14610102578063fe38b32d146100fd5763fe575a87146100f857600080fd5b610f1f565b610e95565b610d86565b610cf5565b610ccc565b610bc2565b610b99565b610b70565b610b13565b6108e9565b6107d7565b6107b9565b610786565b6106fc565b6106b7565b6105fc565b6105ad565b6103b2565b610217565b610172565b6001600160a01b0381160361016d57565b600080fd5b3461016d57602036600319011261016d57600480356101908161015c565b60985460405163755b36bd60e11b81529260209184919082906001600160a01b03165afa918215610212576101e1926101dc916000916101e3575b506001600160a01b03163314610fbd565b61157d565b005b610205915060203d60201161020b575b6101fd8183610f77565b810190610f99565b386101cb565b503d6101f3565b610fb1565b3461016d57602036600319011261016d5760043560985460405163237dfb4760e11b815233600482015290602090829060249082906001600160a01b03165afa80156102125761026f91600091610323575b50611031565b609954818116036102b857806099557fab40a374bc51de372200a8bc981af8c9ecdc08dfdaef0bb6e09f88f3c616ef3d604051806102b33394829190602083019252565b0390a2005b60405162461bcd60e51b815260206004820152603860248201527f5061757361626c652e70617573653a20696e76616c696420617474656d70742060448201527f746f20756e70617573652066756e6374696f6e616c69747900000000000000006064820152608490fd5b610345915060203d60201161034b575b61033d8183610f77565b81019061101c565b38610269565b503d610333565b9181601f8401121561016d5782359167ffffffffffffffff831161016d576020808501948460051b01011161016d57565b602060031982011261016d576004359067ffffffffffffffff821161016d576103ae91600401610352565b9091565b3461016d576103c036610383565b6103c861166a565b6103d1816110c8565b91600091825b818110610466575050508082526103ea57005b7f00000000000000000000000000000000000000000000000000000000000000006001600160a01b0316803b1561016d576040516316bb16b760e31b81529160009183918290849082906104419060048301611230565b03925af180156102125761045157005b8061046060006101e193610f77565b806105a2565b6104af6104aa6104a661049f61048561048086888a611110565b611125565b6001600160a01b0316600090815260026020526040902090565b5460ff1690565b1590565b61112f565b6104d06104c3610485610480848688611110565b805460ff19166001179055565b7f75519c51f39873ec0e27dd3bbc09549e4865a113f505393fb9eab5898f6418b361051c610502610480848688611110565b6040516001600160a01b0390911681529081906020820190565b0390a161055a61054d610533610480848688611110565b6001600160a01b0316600090815260016020526040902090565b546001600160a01b031690565b6001600160a01b038116610572575b506001016103d7565b8461059661059b92610587600195988a6111ba565b6001600160a01b039091169052565b6111ce565b9390610569565b600091031261016d57565b3461016d57600036600319011261016d576040517f00000000000000000000000000000000000000000000000000000000000000006001600160a01b03168152602090f35b8015150361016d57565b3461016d57600060403660031901126106b45760043561061b8161015c565b81602435610628816105f2565b61063061166a565b7f00000000000000000000000000000000000000000000000000000000000000006001600160a01b031692833b156106b057604051634e5a426360e01b81526001600160a01b0390911660048201529015156024820152918290604490829084905af180156102125782906106a25780f35b6106ab91610f77565b388180f35b8280fd5b80fd5b3461016d57602036600319011261016d576004356106d48161015c565b6001600160a01b03908116600090815260016020908152604091829020549151919092168152f35b3461016d57600036600319011261016d5760985460405163237dfb4760e11b815233600482015290602090829060249082906001600160a01b03165afa801561021257610750916000916103235750611031565b60001960995560405160001981527fab40a374bc51de372200a8bc981af8c9ecdc08dfdaef0bb6e09f88f3c616ef3d60203392a2005b3461016d57602036600319011261016d5760043560ff811680910361016d5760016020911b806099541614604051908152f35b3461016d57600036600319011261016d576020609954604051908152f35b3461016d57604036600319011261016d5760043567ffffffffffffffff811161016d57610808903690600401610352565b9060243567ffffffffffffffff811161016d57610829903690600401610352565b61083161166a565b7f00000000000000000000000000000000000000000000000000000000000000006001600160a01b031692833b1561016d57939190602061088c60405196879563df5b354760e01b8752604060048801526044870191611241565b84810360031901602486015282815201919060005b8181106108c2575050509181600081819503925af180156102125761045157005b9193509160208060019286356108d7816105f2565b151581520194019101918593926108a1565b3461016d57602036600319011261016d576004356109068161015c565b610914600180609954161490565b610ace5761094261093d6104a661049f8460018060a01b03166000526002602052604060002090565b611285565b6001600160a01b03818116600090815260016020526040902061097091906109699061054d565b16156112f7565b60005460985460405163485cc95560e01b60208201526001600160a01b038481166024830152918216604480830191909152815291166109b1606483610f77565b60405191610680908184019284841067ffffffffffffffff851117610ac95784936109e0936117c88639611375565b03906000f08015610212576001600160a01b031690610a009082906116c2565b610a086110a6565b90610a116110a6565b91610a1f82610587836111ad565b6000610a2a846111ad565b527f00000000000000000000000000000000000000000000000000000000000000006001600160a01b031692833b1561016d57610a81936000928360405180978195829463df5b354760e01b8452600484016113cc565b03925af191821561021257610ab092610ab4575b506040516001600160a01b0390911681529081906020820190565b0390f35b806104606000610ac393610f77565b38610a95565b610f61565b60405162461bcd60e51b815260206004820152601960248201527f5061757361626c653a20696e64657820697320706175736564000000000000006044820152606490fd5b3461016d57600036600319011261016d57610b2c61166a565b606680546001600160a01b031981169091556000906001600160a01b03167f8be0079c531659141344cd1fd0a4f28419497f9722a3daafe3b4186f6b6457e08280a3005b3461016d57600036600319011261016d576098546040516001600160a01b039091168152602090f35b3461016d57600036600319011261016d576066546040516001600160a01b039091168152602090f35b3461016d57608036600319011261016d57600435610bdf8161015c565b610c40602435610bee8161015c565b60443560643591610bfe8361015c565b60335494610c2460ff600888901c161580978198610cbe575b8115610c9e575b5061141d565b85610c37600160ff196033541617603355565b610c8557611480565b610c4657005b610c5661ff001960335416603355565b604051600181527f7f26b83ff96e1f2b6a682f133852f6798a09c465da95921460cefb384740249890602090a1005b610c9961010061ff00196033541617603355565b611480565b303b15915081610cb0575b5038610c1e565b60ff16600114905038610ca9565b600160ff8216109150610c17565b3461016d57600036600319011261016d576000546040516001600160a01b039091168152602090f35b3461016d57602036600319011261016d57600435610d128161015c565b610d1a61166a565b6001600160a01b03811615610d32576101e19061172b565b60405162461bcd60e51b815260206004820152602660248201527f4f776e61626c653a206e6577206f776e657220697320746865207a65726f206160448201526564647265737360d01b6064820152608490fd5b3461016d57602036600319011261016d5760985460405163755b36bd60e11b81526004803592602091839182906001600160a01b03165afa801561021257610de0916000916101e357506001600160a01b03163314610fbd565b609954198119811603610e2a57610df681609955565b60405190815233907f3582d1828e26bf56bd801502bc021ac0bc8afb57c826e4986b45593c8fad389c9080602081016102b3565b60405162461bcd60e51b815260206004820152603860248201527f5061757361626c652e756e70617573653a20696e76616c696420617474656d7060448201527f7420746f2070617573652066756e6374696f6e616c69747900000000000000006064820152608490fd5b3461016d57610ea336610383565b90610eac61166a565b7f00000000000000000000000000000000000000000000000000000000000000006001600160a01b031690813b1561016d57610f0c92604051928380926316bb16b760e31b82528160009788968793602060048501526024840191611241565b03925af180156102125782906106a25780f35b3461016d57602036600319011261016d57600435610f3c8161015c565b60018060a01b03166000526002602052602060ff604060002054166040519015158152f35b634e487b7160e01b600052604160045260246000fd5b90601f8019910116810190811067ffffffffffffffff821117610ac957604052565b9081602091031261016d5751610fae8161015c565b90565b6040513d6000823e3d90fd5b15610fc457565b60405162461bcd60e51b815260206004820152602a60248201527f6d73672e73656e646572206973206e6f74207065726d697373696f6e6564206160448201526939903ab73830bab9b2b960b11b6064820152608490fd5b9081602091031261016d5751610fae816105f2565b1561103857565b60405162461bcd60e51b815260206004820152602860248201527f6d73672e73656e646572206973206e6f74207065726d697373696f6e6564206160448201526739903830bab9b2b960c11b6064820152608490fd5b67ffffffffffffffff8111610ac95760051b60200190565b604080519091906110b78382610f77565b6001815291601f1901366020840137565b906110d28261108e565b6110df6040519182610f77565b82815280926110f0601f199161108e565b0190602036910137565b634e487b7160e01b600052603260045260246000fd5b91908110156111205760051b0190565b6110fa565b35610fae8161015c565b1561113657565b60405162461bcd60e51b815260206004820152604360248201527f5374726174656779466163746f72792e626c61636b6c697374546f6b656e733a60448201527f2043616e6e6f7420626c61636b6c697374206465706c6f79656420737472617460648201526265677960e81b608482015260a490fd5b8051156111205760200190565b80518210156111205760209160051b010190565b60001981146111dd5760010190565b634e487b7160e01b600052601160045260246000fd5b906020808351928381520192019060005b8181106112115750505090565b82516001600160a01b0316845260209384019390920191600101611204565b906020610fae9281815201906111f3565b9160209082815201919060005b81811061125b5750505090565b909192602080600192863561126f8161015c565b848060a01b03168152019401910191909161124e565b1561128c57565b60405162461bcd60e51b815260206004820152603760248201527f5374726174656779466163746f72792e6465706c6f794e65775374726174656760448201527f793a20546f6b656e20697320626c61636b6c69737465640000000000000000006064820152608490fd5b156112fe57565b60a460405162461bcd60e51b815260206004820152604460248201527f5374726174656779466163746f72792e6465706c6f794e65775374726174656760448201527f793a20537472617465677920616c72656164792065786973747320666f72207460648201526337b5b2b760e11b6084820152fd5b9092919260018060a01b0316815260406020820152825180604083015260005b8181106113b6575060609293506000838284010152601f8019910116010190565b8060208092870101516060828601015201611395565b906113df906040835260408301906111f3565b9060208183039101526020808351928381520192019060005b8181106114055750505090565b825115158452602093840193909201916001016113f8565b1561142457565b60405162461bcd60e51b815260206004820152602e60248201527f496e697469616c697a61626c653a20636f6e747261637420697320616c72656160448201526d191e481a5b9a5d1a585b1a5e995960921b6064820152608490fd5b61148d909392919361172b565b6098546001600160a01b0316158061156b575b156114f0576114ee92816114b66114e993609955565b60405190815233907fab40a374bc51de372200a8bc981af8c9ecdc08dfdaef0bb6e09f88f3c616ef3d90602090a261157d565b611774565b565b60405162461bcd60e51b815260206004820152604760248201527f5061757361626c652e5f696e697469616c697a655061757365723a205f696e6960448201527f7469616c697a6550617573657228292063616e206f6e6c792062652063616c6c6064820152666564206f6e636560c81b608482015260a490fd5b506001600160a01b03831615156114a0565b6001600160a01b038116156115ed57609854604080516001600160a01b03928316815291831660208301527f6e9fcd539896fca60e8b0f01dd580233e48a6b0f7df013b89ba7f565869acdb691a160018060a01b03166bffffffffffffffffffffffff60a01b6098541617609855565b60405162461bcd60e51b815260206004820152604960248201527f5061757361626c652e5f73657450617573657252656769737472793a206e657760448201527f50617573657252656769737472792063616e6e6f7420626520746865207a65726064820152686f206164647265737360b81b608482015260a490fd5b6066546001600160a01b0316330361167e57565b606460405162461bcd60e51b815260206004820152602060248201527f4f776e61626c653a2063616c6c6572206973206e6f7420746865206f776e65726044820152fd5b7f6852a55230ef089d785bce7ffbf757985de34026df90a87d7b4a6e56f95d251f9160409160018060a01b031690816000526001602052826000209060018060a01b031690816bffffffffffffffffffffffff60a01b82541617905582519182526020820152a1565b606680546001600160a01b039283166001600160a01b0319821681179092559091167f8be0079c531659141344cd1fd0a4f28419497f9722a3daafe3b4186f6b6457e0600080a3565b600054604080516001600160a01b03808416825290931660208401819052927fe21755962a7d7e100b59b9c3e4d4b54085b146313719955efb6a7a25c5c7feee9190a16001600160a01b0319161760005556fe6080806040526106808038038091610017828561039a565b833981019060408183031261028e5761002f816103d3565b602082015190916001600160401b03821161028e57019082601f8301121561028e5781519161005d836103e7565b9261006b604051948561039a565b80845260208401946020828401011161028e5784602061008b9301610402565b803b1561034757604051635c60da1b60e01b81526001600160a01b03919091169290602081600481875afa90811561029b5760009161030d575b503b156102af577fa3f0ad74e5423aebfd80d3ef4346578335a9a72aeaee59ff6cb3582b35133d5080546001600160a01b0319168417905560405192807f1cf3b03a6cf19fa2baba4df148e9dcabedea7f8a5c07840e207e5c089be95d3e600080a28251158015906102a7575b610146575b60405161020090816104808239f35b83600481602093635c60da1b60e01b82525afa92831561029b5760009361025a575b506040519161017860608461039a565b602783527f416464726573733a206c6f772d6c6576656c2064656c65676174652063616c6c6020840152660819985a5b195960ca1b6040840152833b15610206576101f493600092839251915af43d156101fe573d906101d7826103e7565b916101e5604051938461039a565b82523d6000602084013e610425565b5038808080610137565b606090610425565b60405162461bcd60e51b815260206004820152602660248201527f416464726573733a2064656c65676174652063616c6c20746f206e6f6e2d636f6044820152651b9d1c9858dd60d21b6064820152608490fd5b9092506020813d602011610293575b816102766020938361039a565b8101031261028e57610287906103d3565b9138610168565b600080fd5b3d9150610269565b6040513d6000823e3d90fd5b506000610132565b60405162461bcd60e51b815260206004820152603060248201527f455243313936373a20626561636f6e20696d706c656d656e746174696f6e206960448201526f1cc81b9bdd08184818dbdb9d1c9858dd60821b6064820152608490fd5b90506020813d60201161033f575b816103286020938361039a565b8101031261028e57610339906103d3565b386100c5565b3d915061031b565b60405162461bcd60e51b815260206004820152602560248201527f455243313936373a206e657720626561636f6e206973206e6f74206120636f6e6044820152641d1c9858dd60da1b6064820152608490fd5b601f909101601f19168101906001600160401b038211908210176103bd57604052565b634e487b7160e01b600052604160045260246000fd5b51906001600160a01b038216820361028e57565b6001600160401b0381116103bd57601f01601f191660200190565b60005b8381106104155750506000910152565b8181015183820152602001610405565b90919015610431575090565b8151156104415750805190602001fd5b6044604051809262461bcd60e51b8252602060048301526104718151809281602486015260208686019101610402565b601f01601f19168101030190fdfe6080604052366100c2577fa3f0ad74e5423aebfd80d3ef4346578335a9a72aeaee59ff6cb3582b35133d5054635c60da1b60e01b608090815260209160049082906001600160a01b03165afa80156100b657600090156101a9575060203d6020116100af575b601f19601f820116608001906080821067ffffffffffffffff8311176100995761009491604052608001610163565b6101a9565b634e487b7160e01b600052604160045260246000fd5b503d610065565b6040513d6000823e3d90fd5b7fa3f0ad74e5423aebfd80d3ef4346578335a9a72aeaee59ff6cb3582b35133d5054604051635c60da1b60e01b815290602090829060049082906001600160a01b03165afa9081156100b65760009161011c575b506101a9565b602091503d821161015b575b601f8201601f191681019167ffffffffffffffff831182841017610099576101559260405281019061018a565b38610116565b3d9150610128565b602090607f190112610185576080516001600160a01b03811681036101855790565b600080fd5b9081602091031261018557516001600160a01b03811681036101855790565b60008091368280378136915af43d6000803e156101c5573d6000f35b3d6000fdfea2646970667358221220aa2ff1bd406f5e348b5db7ae4fd18c3e0c806a84df51e9ad671200e732bf48ec64736f6c634300081a0033a2646970667358221220194994555e2646436b12a1a33cfcd902e9fd5ea00869d5f1527ab3b733e0c2a864736f6c634300081a0033","linkReferences":{}},"methodIdentifiers":{"blacklistTokens(address[])":"23103c41","deployNewStrategy(address)":"6b9b6229","deployedStrategies(address)":"581dfd65","initialize(address,address,uint256,address)":"be203094","isBlacklisted(address)":"fe575a87","owner()":"8da5cb5b","pause(uint256)":"136439dd","pauseAll()":"595c6a67","paused()":"5c975abb","paused(uint8)":"5ac86ab7","pauserRegistry()":"886f1195","removeStrategiesFromWhitelist(address[])":"fe38b32d","renounceOwnership()":"715018a6","setPauserRegistry(address)":"10d67a2f","setThirdPartyTransfersForbidden(address,bool)":"4e5a4263","strategyBeacon()":"f0062d9a","strategyManager()":"39b70e38","transferOwnership(address)":"f2fde38b","unpause(uint256)":"fabc1cbc","whitelistStrategies(address[],bool[])":"697d54b4"},"id":71}