{
  "_format": "hh-sol-artifact-1",
  "contractName": "Create2DeployerLocal",
  "sourceName": "contracts/src/Create2DeployerLocal.sol",
  "abi": [
    {
      "inputs": [
        {
          "internalType": "address",
          "name": "emitter",
          "type": "address"
        }
      ],
      "name": "FailedContractCreation",
      "type": "error"
    },
    {
      "inputs": [
        {
          "internalType": "address",
          "name": "emitter",
          "type": "address"
        },
        {
          "internalType": "bytes",
          "name": "revertData",
          "type": "bytes"
        }
      ],
      "name": "FailedContractInitialisation",
      "type": "error"
    },
    {
      "inputs": [
        {
          "internalType": "address",
          "name": "emitter",
          "type": "address"
        },
        {
          "internalType": "bytes",
          "name": "revertData",
          "type": "bytes"
        }
      ],
      "name": "FailedEtherTransfer",
      "type": "error"
    },
    {
      "inputs": [
        {
          "internalType": "address",
          "name": "emitter",
          "type": "address"
        }
      ],
      "name": "InvalidNonceValue",
      "type": "error"
    },
    {
      "inputs": [
        {
          "internalType": "address",
          "name": "emitter",
          "type": "address"
        }
      ],
      "name": "InvalidSalt",
      "type": "error"
    },
    {
      "anonymous": false,
      "inputs": [
        {
          "indexed": true,
          "internalType": "address",
          "name": "newContract",
          "type": "address"
        },
        {
          "indexed": true,
          "internalType": "bytes32",
          "name": "salt",
          "type": "bytes32"
        }
      ],
      "name": "ContractCreation",
      "type": "event"
    },
    {
      "anonymous": false,
      "inputs": [
        {
          "indexed": true,
          "internalType": "address",
          "name": "newContract",
          "type": "address"
        }
      ],
      "name": "ContractCreation",
      "type": "event"
    },
    {
      "anonymous": false,
      "inputs": [
        {
          "indexed": true,
          "internalType": "address",
          "name": "newContract",
          "type": "address"
        },
        {
          "indexed": true,
          "internalType": "bytes32",
          "name": "salt",
          "type": "bytes32"
        }
      ],
      "name": "Create3ProxyContractCreation",
      "type": "event"
    },
    {
      "inputs": [
        {
          "internalType": "bytes32",
          "name": "salt",
          "type": "bytes32"
        },
        {
          "internalType": "bytes32",
          "name": "initCodeHash",
          "type": "bytes32"
        }
      ],
      "name": "computeCreate2Address",
      "outputs": [
        {
          "internalType": "address",
          "name": "computedAddress",
          "type": "address"
        }
      ],
      "stateMutability": "view",
      "type": "function"
    },
    {
      "inputs": [
        {
          "internalType": "bytes32",
          "name": "salt",
          "type": "bytes32"
        },
        {
          "internalType": "bytes32",
          "name": "initCodeHash",
          "type": "bytes32"
        },
        {
          "internalType": "address",
          "name": "deployer",
          "type": "address"
        }
      ],
      "name": "computeCreate2Address",
      "outputs": [
        {
          "internalType": "address",
          "name": "computedAddress",
          "type": "address"
        }
      ],
      "stateMutability": "pure",
      "type": "function"
    },
    {
      "inputs": [
        {
          "internalType": "bytes32",
          "name": "salt",
          "type": "bytes32"
        },
        {
          "internalType": "address",
          "name": "deployer",
          "type": "address"
        }
      ],
      "name": "computeCreate3Address",
      "outputs": [
        {
          "internalType": "address",
          "name": "computedAddress",
          "type": "address"
        }
      ],
      "stateMutability": "pure",
      "type": "function"
    },
    {
      "inputs": [
        {
          "internalType": "bytes32",
          "name": "salt",
          "type": "bytes32"
        }
      ],
      "name": "computeCreate3Address",
      "outputs": [
        {
          "internalType": "address",
          "name": "computedAddress",
          "type": "address"
        }
      ],
      "stateMutability": "view",
      "type": "function"
    },
    {
      "inputs": [
        {
          "internalType": "uint256",
          "name": "nonce",
          "type": "uint256"
        }
      ],
      "name": "computeCreateAddress",
      "outputs": [
        {
          "internalType": "address",
          "name": "computedAddress",
          "type": "address"
        }
      ],
      "stateMutability": "view",
      "type": "function"
    },
    {
      "inputs": [
        {
          "internalType": "address",
          "name": "deployer",
          "type": "address"
        },
        {
          "internalType": "uint256",
          "name": "nonce",
          "type": "uint256"
        }
      ],
      "name": "computeCreateAddress",
      "outputs": [
        {
          "internalType": "address",
          "name": "computedAddress",
          "type": "address"
        }
      ],
      "stateMutability": "view",
      "type": "function"
    },
    {
      "inputs": [
        {
          "internalType": "bytes",
          "name": "initCode",
          "type": "bytes"
        }
      ],
      "name": "deployCreate",
      "outputs": [
        {
          "internalType": "address",
          "name": "newContract",
          "type": "address"
        }
      ],
      "stateMutability": "payable",
      "type": "function"
    },
    {
      "inputs": [
        {
          "internalType": "bytes32",
          "name": "salt",
          "type": "bytes32"
        },
        {
          "internalType": "bytes",
          "name": "initCode",
          "type": "bytes"
        }
      ],
      "name": "deployCreate2",
      "outputs": [
        {
          "internalType": "address",
          "name": "newContract",
          "type": "address"
        }
      ],
      "stateMutability": "payable",
      "type": "function"
    },
    {
      "inputs": [
        {
          "internalType": "bytes",
          "name": "initCode",
          "type": "bytes"
        }
      ],
      "name": "deployCreate2",
      "outputs": [
        {
          "internalType": "address",
          "name": "newContract",
          "type": "address"
        }
      ],
      "stateMutability": "payable",
      "type": "function"
    },
    {
      "inputs": [
        {
          "internalType": "bytes32",
          "name": "salt",
          "type": "bytes32"
        },
        {
          "internalType": "bytes",
          "name": "initCode",
          "type": "bytes"
        },
        {
          "internalType": "bytes",
          "name": "data",
          "type": "bytes"
        },
        {
          "components": [
            {
              "internalType": "uint256",
              "name": "constructorAmount",
              "type": "uint256"
            },
            {
              "internalType": "uint256",
              "name": "initCallAmount",
              "type": "uint256"
            }
          ],
          "internalType": "struct CreateX.Values",
          "name": "values",
          "type": "tuple"
        },
        {
          "internalType": "address",
          "name": "refundAddress",
          "type": "address"
        }
      ],
      "name": "deployCreate2AndInit",
      "outputs": [
        {
          "internalType": "address",
          "name": "newContract",
          "type": "address"
        }
      ],
      "stateMutability": "payable",
      "type": "function"
    },
    {
      "inputs": [
        {
          "internalType": "bytes",
          "name": "initCode",
          "type": "bytes"
        },
        {
          "internalType": "bytes",
          "name": "data",
          "type": "bytes"
        },
        {
          "components": [
            {
              "internalType": "uint256",
              "name": "constructorAmount",
              "type": "uint256"
            },
            {
              "internalType": "uint256",
              "name": "initCallAmount",
              "type": "uint256"
            }
          ],
          "internalType": "struct CreateX.Values",
          "name": "values",
          "type": "tuple"
        }
      ],
      "name": "deployCreate2AndInit",
      "outputs": [
        {
          "internalType": "address",
          "name": "newContract",
          "type": "address"
        }
      ],
      "stateMutability": "payable",
      "type": "function"
    },
    {
      "inputs": [
        {
          "internalType": "bytes",
          "name": "initCode",
          "type": "bytes"
        },
        {
          "internalType": "bytes",
          "name": "data",
          "type": "bytes"
        },
        {
          "components": [
            {
              "internalType": "uint256",
              "name": "constructorAmount",
              "type": "uint256"
            },
            {
              "internalType": "uint256",
              "name": "initCallAmount",
              "type": "uint256"
            }
          ],
          "internalType": "struct CreateX.Values",
          "name": "values",
          "type": "tuple"
        },
        {
          "internalType": "address",
          "name": "refundAddress",
          "type": "address"
        }
      ],
      "name": "deployCreate2AndInit",
      "outputs": [
        {
          "internalType": "address",
          "name": "newContract",
          "type": "address"
        }
      ],
      "stateMutability": "payable",
      "type": "function"
    },
    {
      "inputs": [
        {
          "internalType": "bytes32",
          "name": "salt",
          "type": "bytes32"
        },
        {
          "internalType": "bytes",
          "name": "initCode",
          "type": "bytes"
        },
        {
          "internalType": "bytes",
          "name": "data",
          "type": "bytes"
        },
        {
          "components": [
            {
              "internalType": "uint256",
              "name": "constructorAmount",
              "type": "uint256"
            },
            {
              "internalType": "uint256",
              "name": "initCallAmount",
              "type": "uint256"
            }
          ],
          "internalType": "struct CreateX.Values",
          "name": "values",
          "type": "tuple"
        }
      ],
      "name": "deployCreate2AndInit",
      "outputs": [
        {
          "internalType": "address",
          "name": "newContract",
          "type": "address"
        }
      ],
      "stateMutability": "payable",
      "type": "function"
    },
    {
      "inputs": [
        {
          "internalType": "bytes32",
          "name": "salt",
          "type": "bytes32"
        },
        {
          "internalType": "address",
          "name": "implementation",
          "type": "address"
        },
        {
          "internalType": "bytes",
          "name": "data",
          "type": "bytes"
        }
      ],
      "name": "deployCreate2Clone",
      "outputs": [
        {
          "internalType": "address",
          "name": "proxy",
          "type": "address"
        }
      ],
      "stateMutability": "payable",
      "type": "function"
    },
    {
      "inputs": [
        {
          "internalType": "address",
          "name": "implementation",
          "type": "address"
        },
        {
          "internalType": "bytes",
          "name": "data",
          "type": "bytes"
        }
      ],
      "name": "deployCreate2Clone",
      "outputs": [
        {
          "internalType": "address",
          "name": "proxy",
          "type": "address"
        }
      ],
      "stateMutability": "payable",
      "type": "function"
    },
    {
      "inputs": [
        {
          "internalType": "bytes",
          "name": "initCode",
          "type": "bytes"
        }
      ],
      "name": "deployCreate3",
      "outputs": [
        {
          "internalType": "address",
          "name": "newContract",
          "type": "address"
        }
      ],
      "stateMutability": "payable",
      "type": "function"
    },
    {
      "inputs": [
        {
          "internalType": "bytes32",
          "name": "salt",
          "type": "bytes32"
        },
        {
          "internalType": "bytes",
          "name": "initCode",
          "type": "bytes"
        }
      ],
      "name": "deployCreate3",
      "outputs": [
        {
          "internalType": "address",
          "name": "newContract",
          "type": "address"
        }
      ],
      "stateMutability": "payable",
      "type": "function"
    },
    {
      "inputs": [
        {
          "internalType": "bytes32",
          "name": "salt",
          "type": "bytes32"
        },
        {
          "internalType": "bytes",
          "name": "initCode",
          "type": "bytes"
        },
        {
          "internalType": "bytes",
          "name": "data",
          "type": "bytes"
        },
        {
          "components": [
            {
              "internalType": "uint256",
              "name": "constructorAmount",
              "type": "uint256"
            },
            {
              "internalType": "uint256",
              "name": "initCallAmount",
              "type": "uint256"
            }
          ],
          "internalType": "struct CreateX.Values",
          "name": "values",
          "type": "tuple"
        }
      ],
      "name": "deployCreate3AndInit",
      "outputs": [
        {
          "internalType": "address",
          "name": "newContract",
          "type": "address"
        }
      ],
      "stateMutability": "payable",
      "type": "function"
    },
    {
      "inputs": [
        {
          "internalType": "bytes",
          "name": "initCode",
          "type": "bytes"
        },
        {
          "internalType": "bytes",
          "name": "data",
          "type": "bytes"
        },
        {
          "components": [
            {
              "internalType": "uint256",
              "name": "constructorAmount",
              "type": "uint256"
            },
            {
              "internalType": "uint256",
              "name": "initCallAmount",
              "type": "uint256"
            }
          ],
          "internalType": "struct CreateX.Values",
          "name": "values",
          "type": "tuple"
        }
      ],
      "name": "deployCreate3AndInit",
      "outputs": [
        {
          "internalType": "address",
          "name": "newContract",
          "type": "address"
        }
      ],
      "stateMutability": "payable",
      "type": "function"
    },
    {
      "inputs": [
        {
          "internalType": "bytes32",
          "name": "salt",
          "type": "bytes32"
        },
        {
          "internalType": "bytes",
          "name": "initCode",
          "type": "bytes"
        },
        {
          "internalType": "bytes",
          "name": "data",
          "type": "bytes"
        },
        {
          "components": [
            {
              "internalType": "uint256",
              "name": "constructorAmount",
              "type": "uint256"
            },
            {
              "internalType": "uint256",
              "name": "initCallAmount",
              "type": "uint256"
            }
          ],
          "internalType": "struct CreateX.Values",
          "name": "values",
          "type": "tuple"
        },
        {
          "internalType": "address",
          "name": "refundAddress",
          "type": "address"
        }
      ],
      "name": "deployCreate3AndInit",
      "outputs": [
        {
          "internalType": "address",
          "name": "newContract",
          "type": "address"
        }
      ],
      "stateMutability": "payable",
      "type": "function"
    },
    {
      "inputs": [
        {
          "internalType": "bytes",
          "name": "initCode",
          "type": "bytes"
        },
        {
          "internalType": "bytes",
          "name": "data",
          "type": "bytes"
        },
        {
          "components": [
            {
              "internalType": "uint256",
              "name": "constructorAmount",
              "type": "uint256"
            },
            {
              "internalType": "uint256",
              "name": "initCallAmount",
              "type": "uint256"
            }
          ],
          "internalType": "struct CreateX.Values",
          "name": "values",
          "type": "tuple"
        },
        {
          "internalType": "address",
          "name": "refundAddress",
          "type": "address"
        }
      ],
      "name": "deployCreate3AndInit",
      "outputs": [
        {
          "internalType": "address",
          "name": "newContract",
          "type": "address"
        }
      ],
      "stateMutability": "payable",
      "type": "function"
    },
    {
      "inputs": [
        {
          "internalType": "bytes",
          "name": "initCode",
          "type": "bytes"
        },
        {
          "internalType": "bytes",
          "name": "data",
          "type": "bytes"
        },
        {
          "components": [
            {
              "internalType": "uint256",
              "name": "constructorAmount",
              "type": "uint256"
            },
            {
              "internalType": "uint256",
              "name": "initCallAmount",
              "type": "uint256"
            }
          ],
          "internalType": "struct CreateX.Values",
          "name": "values",
          "type": "tuple"
        }
      ],
      "name": "deployCreateAndInit",
      "outputs": [
        {
          "internalType": "address",
          "name": "newContract",
          "type": "address"
        }
      ],
      "stateMutability": "payable",
      "type": "function"
    },
    {
      "inputs": [
        {
          "internalType": "bytes",
          "name": "initCode",
          "type": "bytes"
        },
        {
          "internalType": "bytes",
          "name": "data",
          "type": "bytes"
        },
        {
          "components": [
            {
              "internalType": "uint256",
              "name": "constructorAmount",
              "type": "uint256"
            },
            {
              "internalType": "uint256",
              "name": "initCallAmount",
              "type": "uint256"
            }
          ],
          "internalType": "struct CreateX.Values",
          "name": "values",
          "type": "tuple"
        },
        {
          "internalType": "address",
          "name": "refundAddress",
          "type": "address"
        }
      ],
      "name": "deployCreateAndInit",
      "outputs": [
        {
          "internalType": "address",
          "name": "newContract",
          "type": "address"
        }
      ],
      "stateMutability": "payable",
      "type": "function"
    },
    {
      "inputs": [
        {
          "internalType": "address",
          "name": "implementation",
          "type": "address"
        },
        {
          "internalType": "bytes",
          "name": "data",
          "type": "bytes"
        }
      ],
      "name": "deployCreateClone",
      "outputs": [
        {
          "internalType": "address",
          "name": "proxy",
          "type": "address"
        }
      ],
      "stateMutability": "payable",
      "type": "function"
    }
  ],
  "bytecode": "0x60a06040523060805234801561001457600080fd5b50608051612e756100d860003960008181610603015281816107050152818161082b015281816108d50152818161127f01528181611375015281816113e00152818161141f015281816114a7015281816115b3015281816117d20152818161183d0152818161187c0152818161190401528181611ac501528181611c7801528181611ce301528181611d2201528181611daa01528181611fe901528181612206015281816122f20152818161244d015281816124a601526125820152612e756000f3fe60806040526004361061018a5760003560e01c806381503da1116100d6578063d323826a1161007f578063e96deee411610059578063e96deee414610395578063f5745aba146103a8578063f9664498146103bb57600080fd5b8063d323826a1461034f578063ddda0acb1461036f578063e437252a1461038257600080fd5b80639c36a286116100b05780639c36a28614610316578063a7db93f214610329578063c3fe107b1461033c57600080fd5b806381503da1146102d0578063890c283b146102e357806398e810771461030357600080fd5b80632f990e3f116101385780636cec2536116101125780636cec25361461027d57806374637a7a1461029d5780637f565360146102bd57600080fd5b80632f990e3f1461023757806331a7c8c81461024a57806342d654fc1461025d57600080fd5b806327fe18221161016957806327fe1822146101f15780632852527a1461020457806328ddd0461461021757600080fd5b8062d84acb1461018f57806326307668146101cb57806326a32fc7146101de575b600080fd5b6101a261019d366004612917565b6103ce565b60405173ffffffffffffffffffffffffffffffffffffffff909116815260200160405180910390f35b6101a26101d936600461299b565b6103e6565b6101a26101ec3660046129e2565b610452565b6101a26101ff3660046129e2565b6104de565b6101a2610212366004612a40565b610539565b34801561022357600080fd5b506101a2610232366004612a97565b6106fe565b6101a2610245366004612ab0565b61072a565b6101a2610258366004612ab0565b6107bb565b34801561026957600080fd5b506101a2610278366004612b2a565b6107c9565b34801561028957600080fd5b506101a2610298366004612a97565b610823565b3480156102a957600080fd5b506101a26102b8366004612b56565b61084f565b6101a26102cb3660046129e2565b611162565b6101a26102de366004612b80565b6111e8565b3480156102ef57600080fd5b506101a26102fe366004612bb8565b611276565b6101a2610311366004612bda565b6112a3565b6101a261032436600461299b565b611505565b6101a2610337366004612c5a565b6116f1565b6101a261034a366004612ab0565b611964565b34801561035b57600080fd5b506101a261036a366004612cef565b6119ed565b6101a261037d366004612c5a565b611a17565b6101a2610390366004612bda565b611e0c565b6101a26103a3366004612917565b611e95565b6101a26103b6366004612bda565b611ea4565b6101a26103c9366004612b80565b611f2d565b60006103dd8585858533611a17565b95945050505050565b6000806103f2846120db565b90508083516020850134f59150610408826123d3565b604051819073ffffffffffffffffffffffffffffffffffffffff8416907fb8fda7e00c6b06a2b54e58521bc5894fee35f1090e5a3bb6390bfe2b98b497f790600090a35092915050565b60006104d86104d260408051437fffffffffffffffffffffffffffffffffffffffffffffffffffffffffffffffe08101406020830152419282019290925260608101919091524260808201524460a08201524660c08201523360e08201526000906101000160405160208183030381529060405280519060200120905090565b836103e6565b92915050565b600081516020830134f090506104f3816123d3565b60405173ffffffffffffffffffffffffffffffffffffffff8216907f4db17dd5e4732fb6da34a148104a592783ca119a1e7bb8829eba6cbadef0b51190600090a2919050565b600080610545856120db565b905060008460601b90506040517f3d602d80600a3d3981f3363d3d373d3d3d363d7300000000000000000000000081528160148201527f5af43d82803e903d91602b57fd5bf300000000000000000000000000000000006028820152826037826000f593505073ffffffffffffffffffffffffffffffffffffffff8316610635576040517fc05cee7a00000000000000000000000000000000000000000000000000000000815273ffffffffffffffffffffffffffffffffffffffff7f00000000000000000000000000000000000000000000000000000000000000001660048201526024015b60405180910390fd5b604051829073ffffffffffffffffffffffffffffffffffffffff8516907fb8fda7e00c6b06a2b54e58521bc5894fee35f1090e5a3bb6390bfe2b98b497f790600090a36000808473ffffffffffffffffffffffffffffffffffffffff1634876040516106a19190612d3f565b60006040518083038185875af1925050503d80600081146106de576040519150601f19603f3d011682016040523d82523d6000602084013e6106e3565b606091505b50915091506106f382828961247d565b505050509392505050565b60006104d87f00000000000000000000000000000000000000000000000000000000000000008361084f565b60006107b36107aa60408051437fffffffffffffffffffffffffffffffffffffffffffffffffffffffffffffffe08101406020830152419282019290925260608101919091524260808201524460a08201524660c08201523360e08201526000906101000160405160208183030381529060405280519060200120905090565b85858533611a17565b949350505050565b60006107b3848484336112a3565b60006040518260005260ff600b53836020527f21c35dbe1b344a2488cf3321d6ce542f8e9f305544ff09e4993a62319a497c1f6040526055600b20601452806040525061d694600052600160345350506017601e20919050565b60006104d8827f00000000000000000000000000000000000000000000000000000000000000006107c9565b600060607f9400000000000000000000000000000000000000000000000000000000000000610887600167ffffffffffffffff612d5b565b67ffffffffffffffff16841115610902576040517f3c55ab3b00000000000000000000000000000000000000000000000000000000815273ffffffffffffffffffffffffffffffffffffffff7f000000000000000000000000000000000000000000000000000000000000000016600482015260240161062c565b836000036109c7576040517fd60000000000000000000000000000000000000000000000000000000000000060208201527fff00000000000000000000000000000000000000000000000000000000000000821660218201527fffffffffffffffffffffffffffffffffffffffff000000000000000000000000606087901b1660228201527f800000000000000000000000000000000000000000000000000000000000000060368201526037015b6040516020818303038152906040529150611152565b607f8411610a60576040517fd60000000000000000000000000000000000000000000000000000000000000060208201527fff0000000000000000000000000000000000000000000000000000000000000080831660218301527fffffffffffffffffffffffffffffffffffffffff000000000000000000000000606088901b16602283015260f886901b1660368201526037016109b1565b60ff8411610b1f576040517fd70000000000000000000000000000000000000000000000000000000000000060208201527fff0000000000000000000000000000000000000000000000000000000000000080831660218301527fffffffffffffffffffffffffffffffffffffffff000000000000000000000000606088901b1660228301527f8100000000000000000000000000000000000000000000000000000000000000603683015260f886901b1660378201526038016109b1565b61ffff8411610bff576040517fd80000000000000000000000000000000000000000000000000000000000000060208201527fff00000000000000000000000000000000000000000000000000000000000000821660218201527fffffffffffffffffffffffffffffffffffffffff000000000000000000000000606087901b1660228201527f820000000000000000000000000000000000000000000000000000000000000060368201527fffff00000000000000000000000000000000000000000000000000000000000060f086901b1660378201526039016109b1565b62ffffff8411610ce0576040517fd90000000000000000000000000000000000000000000000000000000000000060208201527fff00000000000000000000000000000000000000000000000000000000000000821660218201527fffffffffffffffffffffffffffffffffffffffff000000000000000000000000606087901b1660228201527f830000000000000000000000000000000000000000000000000000000000000060368201527fffffff000000000000000000000000000000000000000000000000000000000060e886901b166037820152603a016109b1565b63ffffffff8411610dc2576040517fda0000000000000000000000000000000000000000000000000000000000000060208201527fff00000000000000000000000000000000000000000000000000000000000000821660218201527fffffffffffffffffffffffffffffffffffffffff000000000000000000000000606087901b1660228201527f840000000000000000000000000000000000000000000000000000000000000060368201527fffffffff0000000000000000000000000000000000000000000000000000000060e086901b166037820152603b016109b1565b64ffffffffff8411610ea5576040517fdb0000000000000000000000000000000000000000000000000000000000000060208201527fff00000000000000000000000000000000000000000000000000000000000000821660218201527fffffffffffffffffffffffffffffffffffffffff000000000000000000000000606087901b1660228201527f850000000000000000000000000000000000000000000000000000000000000060368201527fffffffffff00000000000000000000000000000000000000000000000000000060d886901b166037820152603c016109b1565b65ffffffffffff8411610f89576040517fdc0000000000000000000000000000000000000000000000000000000000000060208201527fff00000000000000000000000000000000000000000000000000000000000000821660218201527fffffffffffffffffffffffffffffffffffffffff000000000000000000000000606087901b1660228201527f860000000000000000000000000000000000000000000000000000000000000060368201527fffffffffffff000000000000000000000000000000000000000000000000000060d086901b166037820152603d016109b1565b66ffffffffffffff841161106e576040517fdd0000000000000000000000000000000000000000000000000000000000000060208201527fff00000000000000000000000000000000000000000000000000000000000000821660218201527fffffffffffffffffffffffffffffffffffffffff000000000000000000000000606087901b1660228201527f870000000000000000000000000000000000000000000000000000000000000060368201527fffffffffffffff0000000000000000000000000000000000000000000000000060c886901b166037820152603e016109b1565b6040517fde0000000000000000000000000000000000000000000000000000000000000060208201527fff00000000000000000000000000000000000000000000000000000000000000821660218201527fffffffffffffffffffffffffffffffffffffffff000000000000000000000000606087901b1660228201527f880000000000000000000000000000000000000000000000000000000000000060368201527fffffffffffffffff00000000000000000000000000000000000000000000000060c086901b166037820152603f0160405160208183030381529060405291505b5080516020909101209392505050565b60006104d86111e260408051437fffffffffffffffffffffffffffffffffffffffffffffffffffffffffffffffe08101406020830152419282019290925260608101919091524260808201524460a08201524660c08201523360e08201526000906101000160405160208183030381529060405280519060200120905090565b83611505565b600061126f61126860408051437fffffffffffffffffffffffffffffffffffffffffffffffffffffffffffffffe08101406020830152419282019290925260608101919091524260808201524460a08201524660c08201523360e08201526000906101000160405160208183030381529060405280519060200120905090565b8484610539565b9392505050565b600061126f83837f00000000000000000000000000000000000000000000000000000000000000006119ed565b60008451602086018451f090506112b9816123d3565b60405173ffffffffffffffffffffffffffffffffffffffff8216907f4db17dd5e4732fb6da34a148104a592783ca119a1e7bb8829eba6cbadef0b51190600090a26000808273ffffffffffffffffffffffffffffffffffffffff168560200151876040516113279190612d3f565b60006040518083038185875af1925050503d8060008114611364576040519150601f19603f3d011682016040523d82523d6000602084013e611369565b606091505b5091509150816113c9577f0000000000000000000000000000000000000000000000000000000000000000816040517fa57ca23900000000000000000000000000000000000000000000000000000000815260040161062c929190612da2565b73ffffffffffffffffffffffffffffffffffffffff7f00000000000000000000000000000000000000000000000000000000000000001631156114fb578373ffffffffffffffffffffffffffffffffffffffff167f000000000000000000000000000000000000000000000000000000000000000073ffffffffffffffffffffffffffffffffffffffff163160405160006040518083038185875af1925050503d8060008114611495576040519150601f19603f3d011682016040523d82523d6000602084013e61149a565b606091505b509092509050816114fb577f0000000000000000000000000000000000000000000000000000000000000000816040517fc2b3f44500000000000000000000000000000000000000000000000000000000815260040161062c929190612da2565b5050949350505050565b600080611511846120db565b905060006040518060400160405280601081526020017f67363d3d37363d34f03d5260086018f30000000000000000000000000000000081525090506000828251602084016000f5905073ffffffffffffffffffffffffffffffffffffffff81166115e0576040517fc05cee7a00000000000000000000000000000000000000000000000000000000815273ffffffffffffffffffffffffffffffffffffffff7f000000000000000000000000000000000000000000000000000000000000000016600482015260240161062c565b604051839073ffffffffffffffffffffffffffffffffffffffff8316907f2feea65dd4e9f9cbd86b74b7734210c59a1b2981b5b137bd0ee3e208200c906790600090a361162c83610823565b935060008173ffffffffffffffffffffffffffffffffffffffff1634876040516116569190612d3f565b60006040518083038185875af1925050503d8060008114611693576040519150601f19603f3d011682016040523d82523d6000602084013e611698565b606091505b505090506116a681866124ff565b60405173ffffffffffffffffffffffffffffffffffffffff8616907f4db17dd5e4732fb6da34a148104a592783ca119a1e7bb8829eba6cbadef0b51190600090a25050505092915050565b6000806116fd876120db565b9050808651602088018651f59150611714826123d3565b604051819073ffffffffffffffffffffffffffffffffffffffff8416907fb8fda7e00c6b06a2b54e58521bc5894fee35f1090e5a3bb6390bfe2b98b497f790600090a36000808373ffffffffffffffffffffffffffffffffffffffff168660200151886040516117849190612d3f565b60006040518083038185875af1925050503d80600081146117c1576040519150601f19603f3d011682016040523d82523d6000602084013e6117c6565b606091505b509150915081611826577f0000000000000000000000000000000000000000000000000000000000000000816040517fa57ca23900000000000000000000000000000000000000000000000000000000815260040161062c929190612da2565b73ffffffffffffffffffffffffffffffffffffffff7f0000000000000000000000000000000000000000000000000000000000000000163115611958578473ffffffffffffffffffffffffffffffffffffffff167f000000000000000000000000000000000000000000000000000000000000000073ffffffffffffffffffffffffffffffffffffffff163160405160006040518083038185875af1925050503d80600081146118f2576040519150601f19603f3d011682016040523d82523d6000602084013e6118f7565b606091505b50909250905081611958577f0000000000000000000000000000000000000000000000000000000000000000816040517fc2b3f44500000000000000000000000000000000000000000000000000000000815260040161062c929190612da2565b50505095945050505050565b60006107b36119e460408051437fffffffffffffffffffffffffffffffffffffffffffffffffffffffffffffffe08101406020830152419282019290925260608101919091524260808201524460a08201524660c08201523360e08201526000906101000160405160208183030381529060405280519060200120905090565b858585336116f1565b6000604051836040820152846020820152828152600b8101905060ff815360559020949350505050565b600080611a23876120db565b905060006040518060400160405280601081526020017f67363d3d37363d34f03d5260086018f30000000000000000000000000000000081525090506000828251602084016000f5905073ffffffffffffffffffffffffffffffffffffffff8116611af2576040517fc05cee7a00000000000000000000000000000000000000000000000000000000815273ffffffffffffffffffffffffffffffffffffffff7f000000000000000000000000000000000000000000000000000000000000000016600482015260240161062c565b604051839073ffffffffffffffffffffffffffffffffffffffff8316907f2feea65dd4e9f9cbd86b74b7734210c59a1b2981b5b137bd0ee3e208200c906790600090a3611b3e83610823565b935060008173ffffffffffffffffffffffffffffffffffffffff1687600001518a604051611b6c9190612d3f565b60006040518083038185875af1925050503d8060008114611ba9576040519150601f19603f3d011682016040523d82523d6000602084013e611bae565b606091505b50509050611bbc81866124ff565b60405173ffffffffffffffffffffffffffffffffffffffff8616907f4db17dd5e4732fb6da34a148104a592783ca119a1e7bb8829eba6cbadef0b51190600090a260608573ffffffffffffffffffffffffffffffffffffffff1688602001518a604051611c299190612d3f565b60006040518083038185875af1925050503d8060008114611c66576040519150601f19603f3d011682016040523d82523d6000602084013e611c6b565b606091505b50909250905081611ccc577f0000000000000000000000000000000000000000000000000000000000000000816040517fa57ca23900000000000000000000000000000000000000000000000000000000815260040161062c929190612da2565b73ffffffffffffffffffffffffffffffffffffffff7f0000000000000000000000000000000000000000000000000000000000000000163115611dfe578673ffffffffffffffffffffffffffffffffffffffff167f000000000000000000000000000000000000000000000000000000000000000073ffffffffffffffffffffffffffffffffffffffff163160405160006040518083038185875af1925050503d8060008114611d98576040519150601f19603f3d011682016040523d82523d6000602084013e611d9d565b606091505b50909250905081611dfe577f0000000000000000000000000000000000000000000000000000000000000000816040517fc2b3f44500000000000000000000000000000000000000000000000000000000815260040161062c929190612da2565b505050505095945050505050565b60006103dd611e8c60408051437fffffffffffffffffffffffffffffffffffffffffffffffffffffffffffffffe08101406020830152419282019290925260608101919091524260808201524460a08201524660c08201523360e08201526000906101000160405160208183030381529060405280519060200120905090565b868686866116f1565b60006103dd85858585336116f1565b60006103dd611f2460408051437fffffffffffffffffffffffffffffffffffffffffffffffffffffffffffffffe08101406020830152419282019290925260608101919091524260808201524460a08201524660c08201523360e08201526000906101000160405160208183030381529060405280519060200120905090565b86868686611a17565b6000808360601b90506040517f3d602d80600a3d3981f3363d3d373d3d3d363d7300000000000000000000000081528160148201527f5af43d82803e903d91602b57fd5bf3000000000000000000000000000000000060288201526037816000f092505073ffffffffffffffffffffffffffffffffffffffff8216612016576040517fc05cee7a00000000000000000000000000000000000000000000000000000000815273ffffffffffffffffffffffffffffffffffffffff7f000000000000000000000000000000000000000000000000000000000000000016600482015260240161062c565b60405173ffffffffffffffffffffffffffffffffffffffff8316907f4db17dd5e4732fb6da34a148104a592783ca119a1e7bb8829eba6cbadef0b51190600090a26000808373ffffffffffffffffffffffffffffffffffffffff1634866040516120809190612d3f565b60006040518083038185875af1925050503d80600081146120bd576040519150601f19603f3d011682016040523d82523d6000602084013e6120c2565b606091505b50915091506120d282828861247d565b50505092915050565b60008060006120e9846125b3565b9092509050600082600281111561210257612102612e10565b1480156121205750600081600281111561211e5761211e612e10565b145b1561215e57604080513360208201524691810191909152606081018590526080016040516020818303038152906040528051906020012092506123cc565b600082600281111561217257612172612e10565b1480156121905750600181600281111561218e5761218e612e10565b145b156121b0576121a9338560009182526020526040902090565b92506123cc565b60008260028111156121c4576121c4612e10565b03612233576040517f13b3a2a100000000000000000000000000000000000000000000000000000000815273ffffffffffffffffffffffffffffffffffffffff7f000000000000000000000000000000000000000000000000000000000000000016600482015260240161062c565b600182600281111561224757612247612e10565b1480156122655750600081600281111561226357612263612e10565b145b1561227e576121a9468560009182526020526040902090565b600182600281111561229257612292612e10565b1480156122b0575060028160028111156122ae576122ae612e10565b145b1561231f576040517f13b3a2a100000000000000000000000000000000000000000000000000000000815273ffffffffffffffffffffffffffffffffffffffff7f000000000000000000000000000000000000000000000000000000000000000016600482015260240161062c565b61239a60408051437fffffffffffffffffffffffffffffffffffffffffffffffffffffffffffffffe08101406020830152419282019290925260608101919091524260808201524460a08201524660c08201523360e08201526000906101000160405160208183030381529060405280519060200120905090565b84036123a657836123c9565b604080516020810186905201604051602081830303815290604052805190602001205b92505b5050919050565b73ffffffffffffffffffffffffffffffffffffffff8116158061240b575073ffffffffffffffffffffffffffffffffffffffff81163b155b1561247a576040517fc05cee7a00000000000000000000000000000000000000000000000000000000815273ffffffffffffffffffffffffffffffffffffffff7f000000000000000000000000000000000000000000000000000000000000000016600482015260240161062c565b50565b82158061249f575073ffffffffffffffffffffffffffffffffffffffff81163b155b156124fa577f0000000000000000000000000000000000000000000000000000000000000000826040517fa57ca23900000000000000000000000000000000000000000000000000000000815260040161062c929190612da2565b505050565b811580612520575073ffffffffffffffffffffffffffffffffffffffff8116155b80612540575073ffffffffffffffffffffffffffffffffffffffff81163b155b156125af576040517fc05cee7a00000000000000000000000000000000000000000000000000000000815273ffffffffffffffffffffffffffffffffffffffff7f000000000000000000000000000000000000000000000000000000000000000016600482015260240161062c565b5050565b600080606083901c3314801561261057508260141a60f81b7effffffffffffffffffffffffffffffffffffffffffffffffffffffffffffff19167f0100000000000000000000000000000000000000000000000000000000000000145b1561262057506000905080915091565b606083901c3314801561265a57507fff00000000000000000000000000000000000000000000000000000000000000601484901a60f81b16155b1561266b5750600090506001915091565b33606084901c036126825750600090506002915091565b606083901c1580156126db57508260141a60f81b7effffffffffffffffffffffffffffffffffffffffffffffffffffffffffffff19167f0100000000000000000000000000000000000000000000000000000000000000145b156126ec5750600190506000915091565b606083901c15801561272557507fff00000000000000000000000000000000000000000000000000000000000000601484901a60f81b16155b1561273557506001905080915091565b606083901c61274a5750600190506002915091565b8260141a60f81b7effffffffffffffffffffffffffffffffffffffffffffffffffffffffffffff19167f0100000000000000000000000000000000000000000000000000000000000000036127a55750600290506000915091565b8260141a60f81b7effffffffffffffffffffffffffffffffffffffffffffffffffffffffffffff19166000036127e15750600290506001915091565b506002905080915091565b7f4e487b7100000000000000000000000000000000000000000000000000000000600052604160045260246000fd5b600082601f83011261282c57600080fd5b813567ffffffffffffffff811115612846576128466127ec565b604051601f82017fffffffffffffffffffffffffffffffffffffffffffffffffffffffffffffffe0908116603f0116810167ffffffffffffffff81118282101715612893576128936127ec565b6040528181528382016020018510156128ab57600080fd5b816020850160208301376000918101602001919091529392505050565b6000604082840312156128da57600080fd5b6040805190810167ffffffffffffffff811182821017156128fd576128fd6127ec565b604052823581526020928301359281019290925250919050565b60008060008060a0858703121561292d57600080fd5b84359350602085013567ffffffffffffffff81111561294b57600080fd5b6129578782880161281b565b935050604085013567ffffffffffffffff81111561297457600080fd5b6129808782880161281b565b92505061299086606087016128c8565b905092959194509250565b600080604083850312156129ae57600080fd5b82359150602083013567ffffffffffffffff8111156129cc57600080fd5b6129d88582860161281b565b9150509250929050565b6000602082840312156129f457600080fd5b813567ffffffffffffffff811115612a0b57600080fd5b6107b38482850161281b565b803573ffffffffffffffffffffffffffffffffffffffff81168114612a3b57600080fd5b919050565b600080600060608486031215612a5557600080fd5b83359250612a6560208501612a17565b9150604084013567ffffffffffffffff811115612a8157600080fd5b612a8d8682870161281b565b9150509250925092565b600060208284031215612aa957600080fd5b5035919050565b600080600060808486031215612ac557600080fd5b833567ffffffffffffffff811115612adc57600080fd5b612ae88682870161281b565b935050602084013567ffffffffffffffff811115612b0557600080fd5b612b118682870161281b565b925050612b2185604086016128c8565b90509250925092565b60008060408385031215612b3d57600080fd5b82359150612b4d60208401612a17565b90509250929050565b60008060408385031215612b6957600080fd5b612b7283612a17565b946020939093013593505050565b60008060408385031215612b9357600080fd5b612b9c83612a17565b9150602083013567ffffffffffffffff8111156129cc57600080fd5b60008060408385031215612bcb57600080fd5b50508035926020909101359150565b60008060008060a08587031215612bf057600080fd5b843567ffffffffffffffff811115612c0757600080fd5b612c138782880161281b565b945050602085013567ffffffffffffffff811115612c3057600080fd5b612c3c8782880161281b565b935050612c4c86604087016128c8565b915061299060808601612a17565b600080600080600060c08688031215612c7257600080fd5b85359450602086013567ffffffffffffffff811115612c9057600080fd5b612c9c8882890161281b565b945050604086013567ffffffffffffffff811115612cb957600080fd5b612cc58882890161281b565b935050612cd587606088016128c8565b9150612ce360a08701612a17565b90509295509295909350565b600080600060608486031215612d0457600080fd5b8335925060208401359150612b2160408501612a17565b60005b83811015612d36578181015183820152602001612d1e565b50506000910152565b60008251612d51818460208701612d1b565b9190910192915050565b67ffffffffffffffff82811682821603908111156104d8577f4e487b7100000000000000000000000000000000000000000000000000000000600052601160045260246000fd5b73ffffffffffffffffffffffffffffffffffffffff831681526040602082015260008251806040840152612ddd816060850160208701612d1b565b601f017fffffffffffffffffffffffffffffffffffffffffffffffffffffffffffffffe016919091016060019392505050565b7f4e487b7100000000000000000000000000000000000000000000000000000000600052602160045260246000fdfea26469706673582212204b549553ec3f9c3d42fafe8afaa552c9d7828ba977b63c80c2fa9c82083192f164736f6c634300081b0033",
  "linkReferences": {},
  "deployedLinkReferences": {}
}