{"abi":[{"type":"constructor","inputs":[{"name":"_ethPOS","type":"address","internalType":"contract IETHPOSDeposit"},{"name":"_eigenPodBeacon","type":"address","internalType":"contract IBeacon"},{"name":"_strategyManager","type":"address","internalType":"contract IStrategyManager"},{"name":"_slasher","type":"address","internalType":"contract ISlasher"},{"name":"_delegationManager","type":"address","internalType":"contract IDelegationManager"}],"stateMutability":"nonpayable"},{"type":"function","name":"addShares","inputs":[{"name":"podOwner","type":"address","internalType":"address"},{"name":"shares","type":"uint256","internalType":"uint256"}],"outputs":[{"name":"","type":"uint256","internalType":"uint256"}],"stateMutability":"nonpayable"},{"type":"function","name":"beaconChainETHStrategy","inputs":[],"outputs":[{"name":"","type":"address","internalType":"contract IStrategy"}],"stateMutability":"view"},{"type":"function","name":"createPod","inputs":[],"outputs":[{"name":"","type":"address","internalType":"address"}],"stateMutability":"nonpayable"},{"type":"function","name":"delegationManager","inputs":[],"outputs":[{"name":"","type":"address","internalType":"contract IDelegationManager"}],"stateMutability":"view"},{"type":"function","name":"eigenPodBeacon","inputs":[],"outputs":[{"name":"","type":"address","internalType":"contract IBeacon"}],"stateMutability":"view"},{"type":"function","name":"ethPOS","inputs":[],"outputs":[{"name":"","type":"address","internalType":"contract IETHPOSDeposit"}],"stateMutability":"view"},{"type":"function","name":"getPod","inputs":[{"name":"podOwner","type":"address","internalType":"address"}],"outputs":[{"name":"","type":"address","internalType":"contract IEigenPod"}],"stateMutability":"view"},{"type":"function","name":"hasPod","inputs":[{"name":"podOwner","type":"address","internalType":"address"}],"outputs":[{"name":"","type":"bool","internalType":"bool"}],"stateMutability":"view"},{"type":"function","name":"initialize","inputs":[{"name":"initialOwner","type":"address","internalType":"address"},{"name":"_pauserRegistry","type":"address","internalType":"contract IPauserRegistry"},{"name":"_initPausedStatus","type":"uint256","internalType":"uint256"}],"outputs":[],"stateMutability":"nonpayable"},{"type":"function","name":"numPods","inputs":[],"outputs":[{"name":"","type":"uint256","internalType":"uint256"}],"stateMutability":"view"},{"type":"function","name":"owner","inputs":[],"outputs":[{"name":"","type":"address","internalType":"address"}],"stateMutability":"view"},{"type":"function","name":"ownerToPod","inputs":[{"name":"","type":"address","internalType":"address"}],"outputs":[{"name":"","type":"address","internalType":"contract IEigenPod"}],"stateMutability":"view"},{"type":"function","name":"pause","inputs":[{"name":"newPausedStatus","type":"uint256","internalType":"uint256"}],"outputs":[],"stateMutability":"nonpayable"},{"type":"function","name":"pauseAll","inputs":[],"outputs":[],"stateMutability":"nonpayable"},{"type":"function","name":"paused","inputs":[{"name":"index","type":"uint8","internalType":"uint8"}],"outputs":[{"name":"","type":"bool","internalType":"bool"}],"stateMutability":"view"},{"type":"function","name":"paused","inputs":[],"outputs":[{"name":"","type":"uint256","internalType":"uint256"}],"stateMutability":"view"},{"type":"function","name":"pauserRegistry","inputs":[],"outputs":[{"name":"","type":"address","internalType":"contract IPauserRegistry"}],"stateMutability":"view"},{"type":"function","name":"podOwnerShares","inputs":[{"name":"","type":"address","internalType":"address"}],"outputs":[{"name":"","type":"int256","internalType":"int256"}],"stateMutability":"view"},{"type":"function","name":"recordBeaconChainETHBalanceUpdate","inputs":[{"name":"podOwner","type":"address","internalType":"address"},{"name":"sharesDelta","type":"int256","internalType":"int256"}],"outputs":[],"stateMutability":"nonpayable"},{"type":"function","name":"removeShares","inputs":[{"name":"podOwner","type":"address","internalType":"address"},{"name":"shares","type":"uint256","internalType":"uint256"}],"outputs":[],"stateMutability":"nonpayable"},{"type":"function","name":"renounceOwnership","inputs":[],"outputs":[],"stateMutability":"nonpayable"},{"type":"function","name":"setPauserRegistry","inputs":[{"name":"newPauserRegistry","type":"address","internalType":"contract IPauserRegistry"}],"outputs":[],"stateMutability":"nonpayable"},{"type":"function","name":"slasher","inputs":[],"outputs":[{"name":"","type":"address","internalType":"contract ISlasher"}],"stateMutability":"view"},{"type":"function","name":"stake","inputs":[{"name":"pubkey","type":"bytes","internalType":"bytes"},{"name":"signature","type":"bytes","internalType":"bytes"},{"name":"depositDataRoot","type":"bytes32","internalType":"bytes32"}],"outputs":[],"stateMutability":"payable"},{"type":"function","name":"strategyManager","inputs":[],"outputs":[{"name":"","type":"address","internalType":"contract IStrategyManager"}],"stateMutability":"view"},{"type":"function","name":"transferOwnership","inputs":[{"name":"newOwner","type":"address","internalType":"address"}],"outputs":[],"stateMutability":"nonpayable"},{"type":"function","name":"unpause","inputs":[{"name":"newPausedStatus","type":"uint256","internalType":"uint256"}],"outputs":[],"stateMutability":"nonpayable"},{"type":"function","name":"withdrawSharesAsTokens","inputs":[{"name":"podOwner","type":"address","internalType":"address"},{"name":"destination","type":"address","internalType":"address"},{"name":"shares","type":"uint256","internalType":"uint256"}],"outputs":[],"stateMutability":"nonpayable"},{"type":"event","name":"BeaconChainETHDeposited","inputs":[{"name":"podOwner","type":"address","indexed":true,"internalType":"address"},{"name":"amount","type":"uint256","indexed":false,"internalType":"uint256"}],"anonymous":false},{"type":"event","name":"BeaconChainETHWithdrawalCompleted","inputs":[{"name":"podOwner","type":"address","indexed":true,"internalType":"address"},{"name":"shares","type":"uint256","indexed":false,"internalType":"uint256"},{"name":"nonce","type":"uint96","indexed":false,"internalType":"uint96"},{"name":"delegatedAddress","type":"address","indexed":false,"internalType":"address"},{"name":"withdrawer","type":"address","indexed":false,"internalType":"address"},{"name":"withdrawalRoot","type":"bytes32","indexed":false,"internalType":"bytes32"}],"anonymous":false},{"type":"event","name":"Initialized","inputs":[{"name":"version","type":"uint8","indexed":false,"internalType":"uint8"}],"anonymous":false},{"type":"event","name":"NewTotalShares","inputs":[{"name":"podOwner","type":"address","indexed":true,"internalType":"address"},{"name":"newTotalShares","type":"int256","indexed":false,"internalType":"int256"}],"anonymous":false},{"type":"event","name":"OwnershipTransferred","inputs":[{"name":"previousOwner","type":"address","indexed":true,"internalType":"address"},{"name":"newOwner","type":"address","indexed":true,"internalType":"address"}],"anonymous":false},{"type":"event","name":"Paused","inputs":[{"name":"account","type":"address","indexed":true,"internalType":"address"},{"name":"newPausedStatus","type":"uint256","indexed":false,"internalType":"uint256"}],"anonymous":false},{"type":"event","name":"PauserRegistrySet","inputs":[{"name":"pauserRegistry","type":"address","indexed":false,"internalType":"contract IPauserRegistry"},{"name":"newPauserRegistry","type":"address","indexed":false,"internalType":"contract IPauserRegistry"}],"anonymous":false},{"type":"event","name":"PodDeployed","inputs":[{"name":"eigenPod","type":"address","indexed":true,"internalType":"address"},{"name":"podOwner","type":"address","indexed":true,"internalType":"address"}],"anonymous":false},{"type":"event","name":"PodSharesUpdated","inputs":[{"name":"podOwner","type":"address","indexed":true,"internalType":"address"},{"name":"sharesDelta","type":"int256","indexed":false,"internalType":"int256"}],"anonymous":false},{"type":"event","name":"Unpaused","inputs":[{"name":"account","type":"address","indexed":true,"internalType":"address"},{"name":"newPausedStatus","type":"uint256","indexed":false,"internalType":"uint256"}],"anonymous":false}],"bytecode":{"object":"0x610120346101cf57601f612dd438819003918201601f19168301916001600160401b038311848410176101d45780849260a0946040528339810103126101cf578051906001600160a01b03821682036101cf5760208101516001600160a01b03811681036101cf576040820151906001600160a01b03821682036101cf576060830151926001600160a01b03841684036101cf5760800151936001600160a01b03851685036101cf5760805260a05260c05260e0526101005260005460ff8160081c1661017a5760ff8082161061013f575b604051612be990816101eb823960805181610e45015260a051818181610af2015281816110e401526129b0015260c0518161103d015260e05181610a32015261010051818181610383015281816104960152818161058f015281816108330152818161109701526114aa0152f35b60ff90811916176000557f7f26b83ff96e1f2b6a682f133852f6798a09c465da95921460cefb3847402498602060405160ff8152a1386100d1565b60405162461bcd60e51b815260206004820152602760248201527f496e697469616c697a61626c653a20636f6e747261637420697320696e697469604482015266616c697a696e6760c81b6064820152608490fd5b600080fd5b634e487b7160e01b600052604160045260246000fdfe6080604052600436101561001257600080fd5b6000803560e01c80630e81073c1461148657806310d67a2f1461141b578063136439dd1461131f5780631794bb3c14611113578063292b7b2b146110ce578063387b13001461106c57806339b70e3814611027578063595c6a6714610f625780635ac86ab714610f285780635c975abb14610f0a57806360f4062b14610ed1578063715018a614610e7457806374cdd79814610e2f57806384d8106214610d73578063886f119514610d4a5780638da5cb5b14610d215780639104c31914610cf25780639b4e463414610be35780639ba0627514610ba2578063a38406a314610a7f578063a6a509be14610a61578063b134427114610a1c578063beffbb891461080f578063c2c51c40146103b2578063ea4d3c9b1461036d578063f2fde38b146102dc578063f6848d24146102935763fabc1cbc1461015157600080fd5b346102905760203660031901126102905760655460405163755b36bd60e11b81526004803592602091839182906001600160a01b03165afa8015610285576101ab918491610256575b506001600160a01b031633146117f3565b6066541981198116036101eb57806066556040519081527f3582d1828e26bf56bd801502bc021ac0bc8afb57c826e4986b45593c8fad389c60203392a280f35b60405162461bcd60e51b815260206004820152603860248201527f5061757361626c652e756e70617573653a20696e76616c696420617474656d7060448201527f7420746f2070617573652066756e6374696f6e616c69747900000000000000006064820152608490fd5b610278915060203d60201161027e575b610270818361179c565b8101906117d4565b3861019a565b503d610266565b6040513d85823e3d90fd5b80fd5b50346102905760203660031901126102905760206102d26102b261169a565b6001600160a01b0390811660009081526098602052604090205416151590565b6040519015158152f35b5034610290576020366003190112610290576102f661169a565b6102fe61292d565b6001600160a01b0381161561031957610316906128e4565b80f35b60405162461bcd60e51b815260206004820152602660248201527f4f776e61626c653a206e6577206f776e657220697320746865207a65726f206160448201526564647265737360d01b6064820152608490fd5b50346102905780600319360112610290576040517f00000000000000000000000000000000000000000000000000000000000000006001600160a01b03168152602090f35b5034610290576040366003190112610290576103cc61169a565b6001600160a01b0380821680845260986020526040842054909291602435911633036107ba57600260c9541461077557600260c95582156106ef57633b9aca00810761065e578290818552609b60205260408520549285610445610430848761176a565b8096868452609b6020528160408520556127d5565b9182610488575b5083600080516020612b5483398151915260208783600080516020612b748339815191528389604051908152a2604051908152a2600160c95580f35b919350908184121561058d577f00000000000000000000000000000000000000000000000000000000000000006001600160a01b0316936104c8906118c7565b843b156105895760405163132d496760e01b81526001600160a01b0392909216600483015273beac0eeeeeeeeeeeeeeeeeeeeeeeeeeeeeebeac0602483015260448201529281908490606490829084905af192831561057c57859361055d575b505091602091600080516020612b7483398151915283600080516020612b54833981519152955b93955082945087915061044c565b819293509061056b9161179c565b6105785782908438610528565b8380fd5b50604051903d90823e3d90fd5b8280fd5b7f00000000000000000000000000000000000000000000000000000000000000006001600160a01b031693843b1561058957604051631452b9d760e11b81526001600160a01b0392909216600483015273beac0eeeeeeeeeeeeeeeeeeeeeeeeeeeeeebeac0602483015260448201529281908490606490829084905af192831561057c578593610643575b505091602091600080516020612b7483398151915283600080516020612b548339815191529561054f565b81929350906106519161179c565b6105785782908438610618565b60405162461bcd60e51b815260206004820152605a60248201527f456967656e506f644d616e616765722e7265636f7264426561636f6e4368616960448201527f6e45544842616c616e63655570646174653a2073686172657344656c7461206d60648201527f75737420626520612077686f6c65204777656920616d6f756e74000000000000608482015260a490fd5b60405162461bcd60e51b815260206004820152605260248201527f456967656e506f644d616e616765722e7265636f7264426561636f6e4368616960448201527f6e45544842616c616e63655570646174653a20706f644f776e65722063616e6e6064820152716f74206265207a65726f206164647265737360701b608482015260a490fd5b60405162461bcd60e51b815260206004820152601f60248201527f5265656e7472616e637947756172643a207265656e7472616e742063616c6c006044820152606490fd5b60405162461bcd60e51b815260206004820152602760248201527f456967656e506f644d616e616765722e6f6e6c79456967656e506f643a206e6f6044820152661d0818481c1bd960ca1b6064820152608490fd5b50346102905760403660031901126102905761082961169a565b60243590610861337f00000000000000000000000000000000000000000000000000000000000000006001600160a01b0316146116f9565b8282126109b157633b9aca008206610947576001600160a01b0316808352609b60205260408320549091610894916127bc565b8281126108c4576020600080516020612b5483398151915291838552609b8252806040862055604051908152a280f35b60405162461bcd60e51b815260206004820152604f60248201527f456967656e506f644d616e616765722e72656d6f76655368617265733a20636160448201527f6e6e6f7420726573756c7420696e20706f64206f776e657220686176696e672060648201526e6e656761746976652073686172657360881b608482015260a490fd5b608460405162461bcd60e51b815260206004820152604060248201527f456967656e506f644d616e616765722e72656d6f76655368617265733a20736860448201527f61726573206d75737420626520612077686f6c65204777656920616d6f756e746064820152fd5b60405162461bcd60e51b815260206004820152603760248201527f456967656e506f644d616e616765722e72656d6f76655368617265733a20736860448201527f617265732063616e6e6f74206265206e656761746976650000000000000000006064820152608490fd5b50346102905780600319360112610290576040517f00000000000000000000000000000000000000000000000000000000000000006001600160a01b03168152602090f35b50346102905780600319360112610290576020609954604051908152f35b5034610290576020366003190112610290576020906001600160a01b03610aa461169a565b16808252609883526040909120546001600160a01b0316908115610ad6575b506040516001600160a01b039091168152f35b9050610ae0611c65565b610b33610b5a604051610b4181610b337f000000000000000000000000000000000000000000000000000000000000000089830160609160018060a01b0316815260406020820152600060408201520190565b03601f19810183528261179c565b604051928391610b548884018097612791565b90612791565b51902090604051918383019160ff60f81b83523060601b60218501526035840152605583015260558252610b8f60758361179c565b905190206001600160a01b031638610ac3565b5034610290576020366003190112610290576020906001600160a01b03610bc761169a565b16815260988252604060018060a01b0391205416604051908152f35b506060366003190112610290578060043567ffffffffffffffff8111610cef57610c119036906004016116cb565b60249291923567ffffffffffffffff811161058957610c349036906004016116cb565b93610c46600180606654161415611bf8565b338452609860205260408420546001600160a01b03168015610ce1575b6001600160a01b031690813b15610cdd578493610cb4610ca294604051988996879586956326d3918d60e21b8752606060048801526064870191611c44565b84810360031901602486015291611c44565b6044356044830152039134905af1801561057c57610ccf5780f35b610cd89161179c565b388180f35b8480fd5b50610cea612985565b610c63565b50fd5b5034610290578060031936011261029057602060405173beac0eeeeeeeeeeeeeeeeeeeeeeeeeeeeeebeac08152f35b50346102905780600319360112610290576033546040516001600160a01b039091168152602090f35b50346102905780600319360112610290576065546040516001600160a01b039091168152602090f35b503461029057806003193601126102905750610d96600180606654161415611bf8565b336000908152609860205260409020546001600160a01b0316610dce5760206001600160a01b03610dc5612985565b16604051908152f35b60405162461bcd60e51b815260206004820152603360248201527f456967656e506f644d616e616765722e637265617465506f643a2053656e64656044820152721c88185b1c9958591e481a185cc818481c1bd9606a1b6064820152608490fd5b50346102905780600319360112610290576040517f00000000000000000000000000000000000000000000000000000000000000006001600160a01b03168152602090f35b5034610290578060031936011261029057610e8d61292d565b603380546001600160a01b0319811690915581906001600160a01b03167f8be0079c531659141344cd1fd0a4f28419497f9722a3daafe3b4186f6b6457e08280a380f35b5034610290576020366003190112610290576020906040906001600160a01b03610ef961169a565b168152609b83522054604051908152f35b50346102905780600319360112610290576020606654604051908152f35b50346102905760203660031901126102905760043560ff8116809103610f5e57600190602092501b806066541614604051908152f35b5080fd5b503461029057806003193601126102905760655460405163237dfb4760e11b815233600482015290602090829060249082906001600160a01b03165afa801561101c57610fb6918391610fed575b5061186a565b60001960665560405160001981527fab40a374bc51de372200a8bc981af8c9ecdc08dfdaef0bb6e09f88f3c616ef3d60203392a280f35b61100f915060203d602011611015575b611007818361179c565b810190611852565b38610fb0565b503d610ffd565b6040513d84823e3d90fd5b50346102905780600319360112610290576040517f00000000000000000000000000000000000000000000000000000000000000006001600160a01b03168152602090f35b50346102905760603660031901126102905761031661108961169a565b6110916116b5565b6110c5337f00000000000000000000000000000000000000000000000000000000000000006001600160a01b0316146116f9565b604435916118d8565b50346102905780600319360112610290576040517f00000000000000000000000000000000000000000000000000000000000000006001600160a01b03168152602090f35b50346102905760603660031901126102905761112d61169a565b6111356116b5565b60443590835460ff8160081c161593848095611312575b80156112fb575b1561129f5760ff1982166001178655611172918561128e575b506128e4565b6065546001600160a01b0316158061127c575b1561120157816111c3926066556040519081527fab40a374bc51de372200a8bc981af8c9ecdc08dfdaef0bb6e09f88f3c616ef3d60203392a261280a565b6111ca5780f35b61ff001981541681557f7f26b83ff96e1f2b6a682f133852f6798a09c465da95921460cefb3847402498602060405160018152a180f35b60405162461bcd60e51b815260206004820152604760248201527f5061757361626c652e5f696e697469616c697a655061757365723a205f696e6960448201527f7469616c697a6550617573657228292063616e206f6e6c792062652063616c6c6064820152666564206f6e636560c81b608482015260a490fd5b506001600160a01b0381161515611185565b61ffff19166101011786553861116c565b60405162461bcd60e51b815260206004820152602e60248201527f496e697469616c697a61626c653a20636f6e747261637420697320616c72656160448201526d191e481a5b9a5d1a585b1a5e995960921b6064820152608490fd5b50303b1580156111535750600160ff831614611153565b50600160ff83161061114c565b5034610290576020366003190112610290576004356024602060018060a01b03606554166040519283809263237dfb4760e11b82523360048301525afa801561028557611372918491610fed575061186a565b606654818116036113b057806066556040519081527fab40a374bc51de372200a8bc981af8c9ecdc08dfdaef0bb6e09f88f3c616ef3d60203392a280f35b60405162461bcd60e51b815260206004820152603860248201527f5061757361626c652e70617573653a20696e76616c696420617474656d70742060448201527f746f20756e70617573652066756e6374696f6e616c69747900000000000000006064820152608490fd5b503461029057602036600319011261029057600461143761169a565b60655460405163755b36bd60e11b81529260209184919082906001600160a01b03165afa918215610285576103169261148191859161025657506001600160a01b031633146117f3565b61280a565b5034610290576040366003190112610290576114a061169a565b602435906114d8337f00000000000000000000000000000000000000000000000000000000000000006001600160a01b0316146116f9565b6001600160a01b031690811561162f578281126115cd57633b9aca00810661156257828280600080516020612b74833981519152602060409561155a97829952609b8252868620549561152b828861176a565b9781868a9352609b85522055604051908152a2600080516020612b5483398151915285604051858152a26127d5565b604051908152f35b60405162461bcd60e51b815260206004820152603d60248201527f456967656e506f644d616e616765722e6164645368617265733a20736861726560448201527f73206d75737420626520612077686f6c65204777656920616d6f756e740000006064820152608490fd5b60405162461bcd60e51b815260206004820152603460248201527f456967656e506f644d616e616765722e6164645368617265733a207368617265604482015273732063616e6e6f74206265206e6567617469766560601b6064820152608490fd5b60405162461bcd60e51b815260206004820152603a60248201527f456967656e506f644d616e616765722e6164645368617265733a20706f644f7760448201527f6e65722063616e6e6f74206265207a65726f20616464726573730000000000006064820152608490fd5b600435906001600160a01b03821682036116b057565b600080fd5b602435906001600160a01b03821682036116b057565b9181601f840112156116b05782359167ffffffffffffffff83116116b057602083818601950101116116b057565b1561170057565b608460405162461bcd60e51b815260206004820152604060248201527f456967656e506f644d616e616765722e6f6e6c7944656c65676174696f6e4d6160448201527f6e616765723a206e6f74207468652044656c65676174696f6e4d616e616765726064820152fd5b9190916000838201938412911290801582169115161761178657565b634e487b7160e01b600052601160045260246000fd5b90601f8019910116810190811067ffffffffffffffff8211176117be57604052565b634e487b7160e01b600052604160045260246000fd5b908160209103126116b057516001600160a01b03811681036116b05790565b156117fa57565b60405162461bcd60e51b815260206004820152602a60248201527f6d73672e73656e646572206973206e6f74207065726d697373696f6e6564206160448201526939903ab73830bab9b2b960b11b6064820152608490fd5b908160209103126116b0575180151581036116b05790565b1561187157565b60405162461bcd60e51b815260206004820152602860248201527f6d73672e73656e646572206973206e6f74207065726d697373696f6e6564206160448201526739903830bab9b2b960c11b6064820152608490fd5b600160ff1b81146117865760000390565b6000926001600160a01b03909116918215611b8f576001600160a01b0316918215611b2357838212611ac057633b9aca008206611a5457808452609b6020526040842054848112611981575b508352609860205260408320546001600160a01b031691823b156105785790604484928360405195869485936362483a2160e11b8552600485015260248401525af1801561101c57611974575050565b8161197e9161179c565b50565b61198a906118c7565b91828111156119f957818552609b6020528460408120558281039081116119e557600080516020612b748339815191526020839294604051908152a280600080516020612b548339815191526020604051878152a238611924565b634e487b7160e01b85526011600452602485fd5b600080516020612b5483398151915293506020925090600080516020612b74833981519152836040938784809952609b8352611a38828783205461176a565b958186889352609b85522055604051908152a2604051908152a2565b60405162461bcd60e51b815260206004820152604a6024820152600080516020612b9483398151915260448201527f546f6b656e733a20736861726573206d75737420626520612077686f6c6520476064820152691dd95a48185b5bdd5b9d60b21b608482015260a490fd5b60405162461bcd60e51b81526020600482015260416024820152600080516020612b9483398151915260448201527f546f6b656e733a207368617265732063616e6e6f74206265206e6567617469766064820152606560f81b608482015260a490fd5b60405162461bcd60e51b815260206004820152604a6024820152600080516020612b9483398151915260448201527f546f6b656e733a2064657374696e6174696f6e2063616e6e6f74206265207a65606482015269726f206164647265737360b01b608482015260a490fd5b60405162461bcd60e51b81526020600482015260476024820152600080516020612b9483398151915260448201527f546f6b656e733a20706f644f776e65722063616e6e6f74206265207a65726f206064820152666164647265737360c81b608482015260a490fd5b15611bff57565b60405162461bcd60e51b815260206004820152601960248201527f5061757361626c653a20696e64657820697320706175736564000000000000006044820152606490fd5b908060209392818452848401376000828201840152601f01601f1916010190565b60405190610940820182811067ffffffffffffffff8211176117be5760405261090e82526d1d194818d85b1b0819985a5b195960921b610920837f608060405260405161090e38038061090e83398101604081905261002291610460208201527f60565b61002e82826000610035565b505061058a565b61003e83610100565b6060408201527f40516001600160a01b038416907f1cf3b03a6cf19fa2baba4df148e9dcabedea60608201527f7f8a5c07840e207e5c089be95d3e90600090a260008251118061007f5750805b60808201527f156100fb576100f9836001600160a01b0316635c60da1b6040518163ffffffff60a08201527f1660e01b8152600401602060405180830381865afa1580156100c5573d60008060c08201527f3e3d6000fd5b505050506040513d601f19601f8201168201806040525081019060e08201527f6100e99190610520565b836102a360201b6100291760201c565b505b505050566101008201527f5b610113816102cf60201b6100551760201c565b6101725760405162461bcd606101208201527fe51b815260206004820152602560248201527f455243313936373a206e6577206101408201527f626561636f6e206973206e6f74206120636f6e6044820152641d1c9858dd60da6101608201527f1b60648201526084015b60405180910390fd5b6101e6816001600160a01b03166101808201527f635c60da1b6040518163ffffffff1660e01b81526004016020604051808303816101a08201527f865afa1580156101b3573d6000803e3d6000fd5b505050506040513d601f19606101c08201527f1f820116820180604052508101906101d79190610520565b6102cf60201b61006101e08201527f551760201c565b61024b5760405162461bcd60e51b81526020600482015260306102008201527f60248201527f455243313936373a20626561636f6e20696d706c656d656e74616102208201527f74696f6e206960448201526f1cc81b9bdd08184818dbdb9d1c9858dd60821b606102408201527f64820152608401610169565b806102827fa3f0ad74e5423aebfd80d3ef4346576102608201527f8335a9a72aeaee59ff6cb3582b35133d5060001b6102de60201b6100641760206102808201527f1c565b80546001600160a01b0319166001600160a01b039290921691909117906102a08201527f5550565b60606102c883836040518060600160405280602781526020016108e76102c08201527f602791396102e1565b9392505050565b6001600160a01b03163b151590565b906102e08201527f565b6060600080856001600160a01b0316856040516102fe919061053b565b606103008201527e60405180830381855af49150503d8060008114610339576040519150601f196103208201527f603f3d011682016040523d82523d6000602084013e61033e565b606091505b506103408201527f90925090506103508683838761035a565b9695505050505050565b60608315616103608201527f03c65782516103bf576001600160a01b0385163b6103bf5760405162461bcd606103808201527fe51b815260206004820152601d60248201527f416464726573733a2063616c6c6103a08201527f20746f206e6f6e2d636f6e74726163740000006044820152606401610169565b6103c08201527f50816103d0565b6103d083836103d8565b949350505050565b8151156103e8576103e08201527f81518083602001fd5b8060405162461bcd60e51b8152600401610169919061056104008201527f57565b80516001600160a01b038116811461041957600080fd5b919050565b636104208201527f4e487b7160e01b600052604160045260246000fd5b60005b8381101561044f576104408201527f8181015183820152602001610437565b838111156100f95750506000910152566104608201527f5b6000806040838503121561047357600080fd5b61047c83610402565b6020846104808201527f01519092506001600160401b038082111561049957600080fd5b8185019150856104a08201527f601f8301126104ad57600080fd5b8151818111156104bf576104bf61041e565b6104c08201527f604051601f8201601f19908116603f011681019083821181831017156104e7576104e08201527f6104e761041e565b8160405282815288602084870101111561050057600080fd6105008201527f5b610511836020830160208801610434565b80955050505050509250929050566105208201527f5b60006020828403121561053257600080fd5b6102c882610402565b600082516105408201527f61054d818460208701610434565b9190910192915050565b60208152600082516105608201527f806020840152610576816040850160208701610434565b601f01601f191691906105808201527f910160400192915050565b61034e806105996000396000f3fe608060405236616105a08201527e1357610011610017565b005b6100115b610027610022610067565b610100566105c08201527f5b565b606061004e83836040518060600160405280602781526020016102f2606105e08201527f279139610124565b9392505050565b6001600160a01b03163b151590565b90566106008201527f5b600061009a7fa3f0ad74e5423aebfd80d3ef4346578335a9a72aeaee59ff6c6106208201527fb3582b35133d50546001600160a01b031690565b6001600160a01b0316635c606106408201527fda1b6040518163ffffffff1660e01b8152600401602060405180830381865afa6106608201527f1580156100d7573d6000803e3d6000fd5b505050506040513d601f19601f82016106808201527f16820180604052508101906100fb9190610249565b905090565b3660008037606106a08201527e80366000845af43d6000803e80801561011f573d6000f35b3d6000fd5b60606106c08201527f600080856001600160a01b03168560405161014191906102a2565b60006040516106e08201527f80830381855af49150503d806000811461017c576040519150601f19603f3d016107008201527f1682016040523d82523d6000602084013e610181565b606091505b50915091506107208201527f6101928683838761019c565b9695505050505050565b6060831561020d5782516107408201527f610206576001600160a01b0385163b6102065760405162461bcd60e51b8152606107608201527f206004820152601d60248201527f416464726573733a2063616c6c20746f206e6107808201527f6f6e2d636f6e747261637400000060448201526064015b60405180910390fd5b6107a08201527f5081610217565b610217838361021f565b949350505050565b81511561022f576107c08201527f81518083602001fd5b8060405162461bcd60e51b81526004016101fd919061026107e08201527fbe565b60006020828403121561025b57600080fd5b81516001600160a01b03816108008201527f16811461004e57600080fd5b60005b8381101561028d578181015183820152606108208201527f2001610275565b8381111561029c576000848401525b50505050565b600082516108408201527f6102b4818460208701610272565b9190910192915050565b60208152600082516108608201527f8060208401526102dd816040850160208701610272565b601f01601f191691906108808201527f91016040019291505056fe416464726573733a206c6f772d6c6576656c2064656108a08201527f6c65676174652063616c6c206661696c6564a2646970667358221220d51e81d36108c08201527fbc5ed20a26aeb05dce7e825c503b2061aa78628027300c8d65b9d89a64736f6c6108e08201527f634300080c0033416464726573733a206c6f772d6c6576656c2064656c6567616109008201520152565b9081519160005b8381106127a9575050016000815290565b8060208092840101518185015201612798565b8181039291600013801582851316918412161761178657565b600081136127ef5750600081136127ec5750600090565b90565b60008213612801576127ec91506118c7565b6127ec916127bc565b6001600160a01b0316801561286757606554604080516001600160a01b0383168152602081018490527f6e9fcd539896fca60e8b0f01dd580233e48a6b0f7df013b89ba7f565869acdb69190a16001600160a01b03191617606555565b60405162461bcd60e51b815260206004820152604960248201527f5061757361626c652e5f73657450617573657252656769737472793a206e657760448201527f50617573657252656769737472792063616e6e6f7420626520746865207a65726064820152686f206164647265737360b81b608482015260a490fd5b603380546001600160a01b039283166001600160a01b0319821681179092559091167f8be0079c531659141344cd1fd0a4f28419497f9722a3daafe3b4186f6b6457e0600080a3565b6033546001600160a01b0316330361294157565b606460405162461bcd60e51b815260206004820152602060248201527f4f776e61626c653a2063616c6c6572206973206e6f7420746865206f776e65726044820152fd5b6099546000906000198114612b3f576001016099556129a2611c65565b604080516001600160a01b037f00000000000000000000000000000000000000000000000000000000000000001660208201528082019190915260006060820152610b3390612a0a906129f6816080810185565b604051928391610b54602084018097612791565b805115612afb57516001600160a01b039133919084f516908115612ab657813b156102905760405163189acdbd60e31b8152336004820152818160248183875af1801561101c578290612aa6575b5050338152609860205260408120826bffffffffffffffffffffffff60a01b825416179055817f21c99d0db02213c32fff5b05cf0a718ab5f858802b91498f80d82270289d856a339280a390565b612aaf9161179c565b3881612a58565b60405162461bcd60e51b815260206004820152601960248201527f437265617465323a204661696c6564206f6e206465706c6f79000000000000006044820152606490fd5b606460405162461bcd60e51b815260206004820152602060248201527f437265617465323a2062797465636f6465206c656e677468206973207a65726f6044820152fd5b634e487b7160e01b82526011600452602482fdfed4def76d6d2bed6f14d5cd9af73cc2913d618d00edde42432e81c09bfe0770984e2b791dedccd9fb30141b088cabf5c14a8912b52f59375c95c010700b8c6193456967656e506f644d616e616765722e77697468647261775368617265734173a26469706673582212206f411baa61c441752644d20bdd9fa069113b503e831c7f382516c59ab9dbc7ac64736f6c634300081a0033","linkReferences":{}},"methodIdentifiers":{"addShares(address,uint256)":"0e81073c","beaconChainETHStrategy()":"9104c319","createPod()":"84d81062","delegationManager()":"ea4d3c9b","eigenPodBeacon()":"292b7b2b","ethPOS()":"74cdd798","getPod(address)":"a38406a3","hasPod(address)":"f6848d24","initialize(address,address,uint256)":"1794bb3c","numPods()":"a6a509be","owner()":"8da5cb5b","ownerToPod(address)":"9ba06275","pause(uint256)":"136439dd","pauseAll()":"595c6a67","paused()":"5c975abb","paused(uint8)":"5ac86ab7","pauserRegistry()":"886f1195","podOwnerShares(address)":"60f4062b","recordBeaconChainETHBalanceUpdate(address,int256)":"c2c51c40","removeShares(address,uint256)":"beffbb89","renounceOwnership()":"715018a6","setPauserRegistry(address)":"10d67a2f","slasher()":"b1344271","stake(bytes,bytes,bytes32)":"9b4e4634","strategyManager()":"39b70e38","transferOwnership(address)":"f2fde38b","unpause(uint256)":"fabc1cbc","withdrawSharesAsTokens(address,address,uint256)":"387b1300"},"id":65}