{"abi":[{"type":"constructor","inputs":[{"name":"_registryCoordinator","type":"address","internalType":"contract IRegistryCoordinator"}],"stateMutability":"nonpayable"},{"type":"function","name":"apkHistory","inputs":[{"name":"","type":"uint8","internalType":"uint8"},{"name":"","type":"uint256","internalType":"uint256"}],"outputs":[{"name":"apkHash","type":"bytes24","internalType":"bytes24"},{"name":"updateBlockNumber","type":"uint32","internalType":"uint32"},{"name":"nextUpdateBlockNumber","type":"uint32","internalType":"uint32"}],"stateMutability":"view"},{"type":"function","name":"currentApk","inputs":[{"name":"","type":"uint8","internalType":"uint8"}],"outputs":[{"name":"X","type":"uint256","internalType":"uint256"},{"name":"Y","type":"uint256","internalType":"uint256"}],"stateMutability":"view"},{"type":"function","name":"deregisterOperator","inputs":[{"name":"operator","type":"address","internalType":"address"},{"name":"quorumNumbers","type":"bytes","internalType":"bytes"}],"outputs":[],"stateMutability":"nonpayable"},{"type":"function","name":"getApk","inputs":[{"name":"quorumNumber","type":"uint8","internalType":"uint8"}],"outputs":[{"name":"","type":"tuple","internalType":"struct BN254.G1Point","components":[{"name":"X","type":"uint256","internalType":"uint256"},{"name":"Y","type":"uint256","internalType":"uint256"}]}],"stateMutability":"view"},{"type":"function","name":"getApkHashAtBlockNumberAndIndex","inputs":[{"name":"quorumNumber","type":"uint8","internalType":"uint8"},{"name":"blockNumber","type":"uint32","internalType":"uint32"},{"name":"index","type":"uint256","internalType":"uint256"}],"outputs":[{"name":"","type":"bytes24","internalType":"bytes24"}],"stateMutability":"view"},{"type":"function","name":"getApkHistoryLength","inputs":[{"name":"quorumNumber","type":"uint8","internalType":"uint8"}],"outputs":[{"name":"","type":"uint32","internalType":"uint32"}],"stateMutability":"view"},{"type":"function","name":"getApkIndicesAtBlockNumber","inputs":[{"name":"quorumNumbers","type":"bytes","internalType":"bytes"},{"name":"blockNumber","type":"uint256","internalType":"uint256"}],"outputs":[{"name":"","type":"uint32[]","internalType":"uint32[]"}],"stateMutability":"view"},{"type":"function","name":"getApkUpdateAtIndex","inputs":[{"name":"quorumNumber","type":"uint8","internalType":"uint8"},{"name":"index","type":"uint256","internalType":"uint256"}],"outputs":[{"name":"","type":"tuple","internalType":"struct IBLSApkRegistry.ApkUpdate","components":[{"name":"apkHash","type":"bytes24","internalType":"bytes24"},{"name":"updateBlockNumber","type":"uint32","internalType":"uint32"},{"name":"nextUpdateBlockNumber","type":"uint32","internalType":"uint32"}]}],"stateMutability":"view"},{"type":"function","name":"getOperatorFromPubkeyHash","inputs":[{"name":"pubkeyHash","type":"bytes32","internalType":"bytes32"}],"outputs":[{"name":"","type":"address","internalType":"address"}],"stateMutability":"view"},{"type":"function","name":"getOperatorId","inputs":[{"name":"operator","type":"address","internalType":"address"}],"outputs":[{"name":"","type":"bytes32","internalType":"bytes32"}],"stateMutability":"view"},{"type":"function","name":"getRegisteredPubkey","inputs":[{"name":"operator","type":"address","internalType":"address"}],"outputs":[{"name":"","type":"tuple","internalType":"struct BN254.G1Point","components":[{"name":"X","type":"uint256","internalType":"uint256"},{"name":"Y","type":"uint256","internalType":"uint256"}]},{"name":"","type":"bytes32","internalType":"bytes32"}],"stateMutability":"view"},{"type":"function","name":"initializeQuorum","inputs":[{"name":"quorumNumber","type":"uint8","internalType":"uint8"}],"outputs":[],"stateMutability":"nonpayable"},{"type":"function","name":"operatorToPubkey","inputs":[{"name":"","type":"address","internalType":"address"}],"outputs":[{"name":"X","type":"uint256","internalType":"uint256"},{"name":"Y","type":"uint256","internalType":"uint256"}],"stateMutability":"view"},{"type":"function","name":"operatorToPubkeyHash","inputs":[{"name":"","type":"address","internalType":"address"}],"outputs":[{"name":"","type":"bytes32","internalType":"bytes32"}],"stateMutability":"view"},{"type":"function","name":"pubkeyHashToOperator","inputs":[{"name":"","type":"bytes32","internalType":"bytes32"}],"outputs":[{"name":"","type":"address","internalType":"address"}],"stateMutability":"view"},{"type":"function","name":"registerBLSPublicKey","inputs":[{"name":"operator","type":"address","internalType":"address"},{"name":"params","type":"tuple","internalType":"struct IBLSApkRegistry.PubkeyRegistrationParams","components":[{"name":"pubkeyRegistrationSignature","type":"tuple","internalType":"struct BN254.G1Point","components":[{"name":"X","type":"uint256","internalType":"uint256"},{"name":"Y","type":"uint256","internalType":"uint256"}]},{"name":"pubkeyG1","type":"tuple","internalType":"struct BN254.G1Point","components":[{"name":"X","type":"uint256","internalType":"uint256"},{"name":"Y","type":"uint256","internalType":"uint256"}]},{"name":"pubkeyG2","type":"tuple","internalType":"struct BN254.G2Point","components":[{"name":"X","type":"uint256[2]","internalType":"uint256[2]"},{"name":"Y","type":"uint256[2]","internalType":"uint256[2]"}]}]},{"name":"pubkeyRegistrationMessageHash","type":"tuple","internalType":"struct BN254.G1Point","components":[{"name":"X","type":"uint256","internalType":"uint256"},{"name":"Y","type":"uint256","internalType":"uint256"}]}],"outputs":[{"name":"operatorId","type":"bytes32","internalType":"bytes32"}],"stateMutability":"nonpayable"},{"type":"function","name":"registerOperator","inputs":[{"name":"operator","type":"address","internalType":"address"},{"name":"quorumNumbers","type":"bytes","internalType":"bytes"}],"outputs":[],"stateMutability":"nonpayable"},{"type":"function","name":"registryCoordinator","inputs":[],"outputs":[{"name":"","type":"address","internalType":"address"}],"stateMutability":"view"},{"type":"event","name":"Initialized","inputs":[{"name":"version","type":"uint8","indexed":false,"internalType":"uint8"}],"anonymous":false},{"type":"event","name":"NewPubkeyRegistration","inputs":[{"name":"operator","type":"address","indexed":true,"internalType":"address"},{"name":"pubkeyG1","type":"tuple","indexed":false,"internalType":"struct BN254.G1Point","components":[{"name":"X","type":"uint256","internalType":"uint256"},{"name":"Y","type":"uint256","internalType":"uint256"}]},{"name":"pubkeyG2","type":"tuple","indexed":false,"internalType":"struct BN254.G2Point","components":[{"name":"X","type":"uint256[2]","internalType":"uint256[2]"},{"name":"Y","type":"uint256[2]","internalType":"uint256[2]"}]}],"anonymous":false},{"type":"event","name":"OperatorAddedToQuorums","inputs":[{"name":"operator","type":"address","indexed":false,"internalType":"address"},{"name":"operatorId","type":"bytes32","indexed":false,"internalType":"bytes32"},{"name":"quorumNumbers","type":"bytes","indexed":false,"internalType":"bytes"}],"anonymous":false},{"type":"event","name":"OperatorRemovedFromQuorums","inputs":[{"name":"operator","type":"address","indexed":false,"internalType":"address"},{"name":"operatorId","type":"bytes32","indexed":false,"internalType":"bytes32"},{"name":"quorumNumbers","type":"bytes","indexed":false,"internalType":"bytes"}],"anonymous":false}],"bytecode":{"object":"0x60a03461011c57601f611d6438819003918201601f19168301916001600160401b038311848410176101215780849260209460405283398101031261011c57516001600160a01b0381169081900361011c5760805260005460ff8160081c166100c75760ff8082161061008c575b604051611c2c9081610138823960805181818161072f015261141b0152f35b60ff90811916176000557f7f26b83ff96e1f2b6a682f133852f6798a09c465da95921460cefb3847402498602060405160ff8152a13861006d565b60405162461bcd60e51b815260206004820152602760248201527f496e697469616c697a61626c653a20636f6e747261637420697320696e697469604482015266616c697a696e6760c81b6064820152608490fd5b600080fd5b634e487b7160e01b600052604160045260246000fdfe6080604052600436101561001257600080fd5b60003560e01c8062a1f4cb1461012c57806313542a4e146100eb57806326d941f214610127578063377ed99d146101225780633fb279521461011d57806347b314e8146100e65780635f61a88414610118578063605747d51461011357806368bccaac1461010e5780636d14a987146101095780637916cea6146101045780637ff81a87146100ff578063a3db80e2146100fa578063bf79ce58146100f5578063d5254a8c146100f0578063de29fac0146100eb578063e8bb9ae6146100e65763f4e24fe5146100e157600080fd5b610bba565b6104ba565b6101b7565b610b4d565b6108a9565b61085c565b61081b565b6107a6565b610719565b6105dc565b61054c565b6104e8565b610431565b6102de565b610201565b610160565b600435906001600160a01b038216820361014757565b600080fd5b35906001600160a01b038216820361014757565b34610147576020366003190112610147576001600160a01b03610181610131565b166000526003602052604060002060018154910154906101b36040519283928360209093929193604081019481520152565b0390f35b34610147576020366003190112610147576001600160a01b036101d8610131565b1660005260016020526020604060002054604051908152f35b6004359060ff8216820361014757565b346101475760203660031901126101475761021a6101f1565b610222611419565b60ff8116600052600460205260406000205461027a576102526102789160ff166000526004602052604060002090565b61025a61038d565b600081524363ffffffff166020820152905b60006040830152610c0d565b005b60405162461bcd60e51b815260206004820152603660248201527f424c5341706b52656769737472792e696e697469616c697a6551756f72756d3a6044820152752071756f72756d20616c72656164792065786973747360501b6064820152608490fd5b346101475760203660031901126101475760ff6102f96101f1565b166000526004602052602063ffffffff60406000205416604051908152f35b634e487b7160e01b600052604160045260246000fd5b6040810190811067ffffffffffffffff82111761034a57604052565b610318565b6060810190811067ffffffffffffffff82111761034a57604052565b90601f8019910116810190811067ffffffffffffffff82111761034a57604052565b6040519061039c60608361036b565b565b9061039c604051928361036b565b906040600319830112610147576103c3600461014c565b9160243567ffffffffffffffff811161014757816023820112156101475780600401359067ffffffffffffffff821161034a576040519261040e601f8401601f19166020018561036b565b828452602483830101116101475781600092602460209301838601378301015290565b34610147577f73a2b7fb844724b971802ae9b15db094d4b7192df9d7350e14eb466b9b22eb4e610460366103ac565b90610469611419565b61047c61047582610dd0565b5083611550565b60018060a01b03811660005260016020526104a36040600020549260405193849384610c85565b0390a1005b60209060031901126101475760043590565b34610147576104c8366104a8565b6000526002602052602060018060a01b0360406000205416604051908152f35b346101475760203660031901126101475760ff6105036101f1565b61050b610ce2565b5016600052600560205260408060002060018251916105298361032e565b805483520154602082015261054a8251809260208091805184520151910152565bf35b34610147576040366003190112610147576105a461059e61056b6101f1565b60ff602435916000604080516105808161034f565b8281528260208201520152166000526004602052604060002061078e565b50610d19565b604051809163ffffffff6040606084019267ffffffffffffffff19815116855282602082015116602086015201511660408301520390f35b34610147576060366003190112610147576105f56101f1565b6024359063ffffffff82168092036101475761059e61062d9160ff61061960443590565b91166000526004602052604060002061078e565b9063ffffffff60208301511681106106ae57816106736106829261065b60406101b396015163ffffffff1690565b9063ffffffff82161591821561069e575b5050610d52565b5167ffffffffffffffff191690565b60405167ffffffffffffffff1990911681529081906020820190565b63ffffffff16119050388061066c565b60405162461bcd60e51b815260206004820152603e60248201527f424c5341706b52656769737472792e5f76616c696461746541706b486173684160448201527f74426c6f636b4e756d6265723a20696e64657820746f6f20726563656e7400006064820152608490fd5b34610147576000366003190112610147576040517f00000000000000000000000000000000000000000000000000000000000000006001600160a01b03168152602090f35b634e487b7160e01b600052603260045260246000fd5b80541561078957600052602060002090600090565b61075e565b80548210156107895760005260206000200190600090565b34610147576040366003190112610147576107bf6101f1565b60ff602435911660005260046020526040600020908154811015610147576107e69161078e565b50546040805182821b67ffffffffffffffff1916815260c083901c63ffffffff16602082015260e09290921c90820152606090f35b3461014757602036600319011261014757606061083e610839610131565b610dd0565b610855604051809360208091805184520151910152565b6040820152f35b346101475760203660031901126101475760ff6108776101f1565b166000526005602052604060002060018154910154906101b36040519283928360209093929193604081019481520152565b3461014757610160366003190112610147576108c3610131565b61010036602319011261014757604036610123190112610147576101b3906108e9611419565b6109096108f536610e8f565b805160005260200151602052604060002090565b906109367fad3228b676f7d3cd4284a5443f17f1962b36e491b30a40b2405849e597ba5fb5831415610f0a565b6001600160a01b0381166000908152600160205260409020610959905415610f69565b60008281526002602052604090205461097b906001600160a01b031615610fd9565b604051610a4290610a3d906109e79060208101906109be816109b061014435610124356084356064356044356024358a611044565b03601f19810183528261036b565b5190207f30644e72e131a029b85045b68181585d2833e84879b9709143e1f593f0000001900690565b610a0b6109f336610eb7565b610a0583610a0036610e8f565b61171d565b90611765565b90610a2d610a176117ef565b91610a05610a2436610edf565b91610a006118e6565b90610a37366110c6565b926119cb565b6110ff565b6001600160a01b0381166000908152600360205260409020610a6d9060643581556001608435910155565b6001600160a01b0381166000908152600160205260409020829055610abf81610aa0846000526002602052604060002090565b80546001600160a01b0319166001600160a01b03909216919091179055565b6040516001600160a01b03909116907fe3fb6613af2e8930cf85d47fcf6db10192224a64c6cbe8023e0eee1ba38280419080610afa8161119a565b0390a26040519081529081906020820190565b602060408183019282815284518094520192019060005b818110610b315750505090565b825163ffffffff16845260209384019390920191600101610b24565b346101475760403660031901126101475760043567ffffffffffffffff8111610147573660238201121561014757806004013567ffffffffffffffff8111610147573660248284010111610147576101b391610bae9160248035920161125f565b60405191829182610b0d565b34610147577ff843ecd53a563675e62107be1494fdde4a3d49aeedaf8d88c616d85346e3500e610be9366103ac565b90610bf2611419565b61047c610c07610c0183610dd0565b50611b14565b83611550565b80546801000000000000000081101561034a57610c2f9160018201815561078e565b610c6f578151602083015160409384015163ffffffff60c01b60c09290921b919091169190931c1760e09290921b6001600160e01b031916919091179055565b634e487b7160e01b600052600060045260246000fd5b919093929360018060a01b03168252602082015260606040820152825180606083015260005b818110610ccc575060809293506000838284010152601f8019910116010190565b8060208092870101516080828601015201610cab565b60405190610cef8261032e565b60006020838281520152565b90604051610d088161032e565b602060018294805484520154910152565b90604051610d268161034f565b604081935467ffffffffffffffff1981831b16835263ffffffff8160c01c16602084015260e01c910152565b15610d5957565b60405162461bcd60e51b815260206004820152604360248201527f424c5341706b52656769737472792e5f76616c696461746541706b486173684160448201527f74426c6f636b4e756d6265723a206e6f74206c61746573742061706b2075706460648201526261746560e81b608482015260a490fd5b610dd8610ce2565b5060018060a01b031690816000526003602052604060002091600160405193610e008561032e565b80548552015460208401526000526001602052604060002054918215610e24579190565b60405162461bcd60e51b815260206004820152603e60248201527f424c5341706b52656769737472792e676574526567697374657265645075626b60448201527f65793a206f70657261746f72206973206e6f74207265676973746572656400006064820152608490fd5b60409060631901126101475760405190610ea88261032e565b60643582526084356020830152565b60409060231901126101475760405190610ed08261032e565b60243582526044356020830152565b6040906101231901126101475760405190610ef98261032e565b610124358252610144356020830152565b15610f1157565b608460405162461bcd60e51b81526020600482015260406024820152600080516020611bd783398151915260448201527f4b65793a2063616e6e6f74207265676973746572207a65726f207075626b65796064820152fd5b15610f7057565b60405162461bcd60e51b81526020600482015260476024820152600080516020611bd783398151915260448201527f4b65793a206f70657261746f7220616c72656164792072656769737465726564606482015266207075626b657960c81b608482015260a490fd5b15610fe057565b60405162461bcd60e51b81526020600482015260426024820152600080516020611bd783398151915260448201527f4b65793a207075626c6963206b657920616c7265616479207265676973746572606482015261195960f21b608482015260a490fd5b949290916101409694928652602086015260408501526060840152604060a46080850137604060e460c08501376101008301526101208201520190565b9080601f8301121561014757604080519261109c828561036b565b8391810192831161014757905b8282106110b65750505090565b81358152602091820191016110a9565b90608060a319830112610147576040516110df8161032e565b60206110fa82946110f18160a4611081565b845260e4611081565b910152565b1561110657565b60405162461bcd60e51b815260206004820152606c6024820152600080516020611bd783398151915260448201527f4b65793a2065697468657220746865204731207369676e61747572652069732060648201527f77726f6e672c206f7220473120616e642047322070726976617465206b65792060848201526b0c8de40dcdee840dac2e8c6d60a31b60a482015260c490fd5b90604060e4608060c0850194606435815260843560208201528360a4818301370137565b67ffffffffffffffff811161034a5760051b60200190565b906111e0826111be565b6111ed604051918261036b565b82815280926111fe601f19916111be565b0190602036910137565b90821015610789570190565b634e487b7160e01b600052601160045260246000fd5b8015611237576000190190565b611214565b60001981019190821161123757565b80518210156107895760209160051b010190565b91909161126b836111d6565b9260005b81811061127d575050505090565b6112a261129c61128e838587611208565b356001600160f81b03191690565b60f81c90565b6112b98160ff166000526004602052604060002090565b54801580156113ec575b61136757805b6112d8575b505060010161126f565b8563ffffffff61131861130a6112fb8660ff166000526004602052604060002090565b6113048661123c565b9061078e565b505460c01c63ffffffff1690565b16111561132e576113289061122a565b806112c9565b600192915061134b6113426113609261123c565b63ffffffff1690565b611355838961124b565b9063ffffffff169052565b90386112ce565b60405162461bcd60e51b815260206004820152605160248201527f424c5341706b52656769737472792e67657441706b496e64696365734174426c60448201527f6f636b4e756d6265723a20626c6f636b4e756d626572206973206265666f7265606482015270207468652066697273742075706461746560781b608482015260a490fd5b5061141261134261130a61140d8560ff166000526004602052604060002090565b610774565b86106112c3565b7f00000000000000000000000000000000000000000000000000000000000000006001600160a01b0316330361144b57565b60405162461bcd60e51b815260206004820152604e60248201527f424c5341706b52656769737472792e6f6e6c795265676973747279436f6f726460448201527f696e61746f723a2063616c6c6572206973206e6f74207468652072656769737460648201526d393c9031b7b7b93234b730ba37b960911b608482015260a490fd5b908151811015610789570160200190565b156114e557565b60405162461bcd60e51b815260206004820152603d60248201527f424c5341706b52656769737472792e5f70726f6365737351756f72756d41706b60448201527f5570646174653a2071756f72756d20646f6573206e6f742065786973740000006064820152608490fd5b919061155a610ce2565b504363ffffffff169060005b84518110156116f057808361159161129c6115836001958a6114cd565b516001600160f81b03191690565b6115a88160ff166000526004602052604060002090565b54906115b58215156114de565b6116416116206116126115e6896115e16115dc8760ff166000526005602052604060002090565b610cfb565b611765565b6108f5816116018760ff166000526005602052604060002090565b906020600191805184550151910155565b67ffffffffffffffff191690565b9261130461163b8460ff166000526004602052604060002090565b9161123c565b509083611659611342845463ffffffff9060c01c1690565b03611682575061167c92509060401c67ffffffffffffffff60c01b825416179055565b01611566565b81546001600160e01b031660e09490941b6001600160e01b0319169390931790556116eb916116be9060ff166000526004602052604060002090565b6116da6116c961038d565b67ffffffffffffffff199093168352565b63ffffffff8716602083015261026c565b61167c565b5050509050565b60405190610180611708818461036b565b368337565b604051906020611708818461036b565b60409092919261172b610ce2565b9384916060916020855192611740858561036b565b8436853780518452015160208301528482015260076107cf195a01fa1561176357565bfe5b604090929192611773610ce2565b938491602060809281865193611789868661036b565b85368637805185520151828401528051868401520151606082015260066107cf195a01fa801561176357156117ba57565b60405162461bcd60e51b815260206004820152600d60248201526c1958cb5859190b59985a5b1959609a1b6044820152606490fd5b6040516117fb8161032e565b604090815161180a838261036b565b823682378152602082519161181f848461036b565b8336843701528051611831828261036b565b7f198e9393920d483a7260bfb731fb5d25f1aa493335a9e71297e485b7aef312c281527f1800deef121f1e76426a00665e5c4479674322d4f75edadd46debd5cd992f6ed6020820152815190611887838361036b565b7f275dc4a288d1afb3cbb1ac09187524c7db36395df7be3b99e673b13a075a65ec82527f1d9befcd05a5323e6da4d435f3b617cdb3af83285c2df711ef39c01571827f9d60208301526118dc8351938461036b565b8252602082015290565b6118ee610ce2565b506040516118fb8161032e565b600181526002602082015290565b9060068202918083046006149015171561123757565b9060028110156107895760051b0190565b906001820180921161123757565b906002820180921161123757565b906003820180921161123757565b906004820180921161123757565b906005820180921161123757565b90600c8110156107895760051b0190565b1561198e57565b60405162461bcd60e51b81526020600482015260156024820152741c185a5c9a5b99cb5bdc18dbd9194b59985a5b1959605a1b6044820152606490fd5b9290916119d8604061039e565b93845260208401526119ea604061039e565b91825260208201526119fa6116f7565b9160005b60028110611a3857505050602061018091611a1761170d565b92839160086107cf195a01fa801561176357611a3290611987565b51151590565b80611a44600192611909565b611a4e828561191f565b5151600090611a5d8389611976565b526020611a6a848761191f565b510151611a7f611a7984611930565b89611976565b52611a8a838761191f565b515151611a99611a798461193e565b52611aaf611aa7848861191f565b515160200190565b51611abc611a798461194c565b526020611ac9848861191f565b510151905051611ae1611adb8361195a565b88611976565b52611b0d611b07611b006020611af7868a61191f565b51015160200190565b5192611968565b87611976565b52016119fe565b611b1c610ce2565b50805190811580611bca575b15611b4b575050604051611b3d60408261036b565b600081526000602082015290565b60207f30644e72e131a029b85045b68181585d97816a916871ca8d3c208c16d87cfd47910151067f30644e72e131a029b85045b68181585d97816a916871ca8d3c208c16d87cfd47037f30644e72e131a029b85045b68181585d97816a916871ca8d3c208c16d87cfd47811161123757604051916118dc60408461036b565b50602081015115611b2856fe424c5341706b52656769737472792e7265676973746572424c535075626c6963a264697066735822122030931d86971de9247ec928c6257ce8489990053d08cbfdee597ff6946eb1424164736f6c634300081a0033","linkReferences":{}},"methodIdentifiers":{"apkHistory(uint8,uint256)":"7916cea6","currentApk(uint8)":"a3db80e2","deregisterOperator(address,bytes)":"f4e24fe5","getApk(uint8)":"5f61a884","getApkHashAtBlockNumberAndIndex(uint8,uint32,uint256)":"68bccaac","getApkHistoryLength(uint8)":"377ed99d","getApkIndicesAtBlockNumber(bytes,uint256)":"d5254a8c","getApkUpdateAtIndex(uint8,uint256)":"605747d5","getOperatorFromPubkeyHash(bytes32)":"47b314e8","getOperatorId(address)":"13542a4e","getRegisteredPubkey(address)":"7ff81a87","initializeQuorum(uint8)":"26d941f2","operatorToPubkey(address)":"00a1f4cb","operatorToPubkeyHash(address)":"de29fac0","pubkeyHashToOperator(bytes32)":"e8bb9ae6","registerBLSPublicKey(address,((uint256,uint256),(uint256,uint256),(uint256[2],uint256[2])),(uint256,uint256))":"bf79ce58","registerOperator(address,bytes)":"3fb27952","registryCoordinator()":"6d14a987"},"id":76}