{"abi":[{"type":"function","name":"DELEGATION_APPROVAL_TYPEHASH","inputs":[],"outputs":[{"name":"","type":"bytes32","internalType":"bytes32"}],"stateMutability":"view"},{"type":"function","name":"DOMAIN_TYPEHASH","inputs":[],"outputs":[{"name":"","type":"bytes32","internalType":"bytes32"}],"stateMutability":"view"},{"type":"function","name":"STAKER_DELEGATION_TYPEHASH","inputs":[],"outputs":[{"name":"","type":"bytes32","internalType":"bytes32"}],"stateMutability":"view"},{"type":"function","name":"addShares","inputs":[{"name":"strategyManager","type":"address","internalType":"contract IStrategyManager"},{"name":"staker","type":"address","internalType":"address"},{"name":"token","type":"address","internalType":"contract IERC20"},{"name":"strategy","type":"address","internalType":"contract IStrategy"},{"name":"shares","type":"uint256","internalType":"uint256"}],"outputs":[],"stateMutability":"nonpayable"},{"type":"function","name":"beaconChainETHStrategy","inputs":[],"outputs":[{"name":"","type":"address","internalType":"contract IStrategy"}],"stateMutability":"pure"},{"type":"function","name":"calculateApproverDigestHash","inputs":[{"name":"","type":"address","internalType":"address"},{"name":"","type":"address","internalType":"address"},{"name":"","type":"uint256","internalType":"uint256"}],"outputs":[{"name":"approverDigestHash","type":"bytes32","internalType":"bytes32"}],"stateMutability":"pure"},{"type":"function","name":"calculateCurrentStakerDelegationDigestHash","inputs":[{"name":"","type":"address","internalType":"address"},{"name":"","type":"address","internalType":"address"},{"name":"","type":"uint256","internalType":"uint256"}],"outputs":[{"name":"","type":"bytes32","internalType":"bytes32"}],"stateMutability":"view"},{"type":"function","name":"calculateDelegationApprovalDigestHash","inputs":[{"name":"","type":"address","internalType":"address"},{"name":"","type":"address","internalType":"address"},{"name":"","type":"address","internalType":"address"},{"name":"","type":"bytes32","internalType":"bytes32"},{"name":"","type":"uint256","internalType":"uint256"}],"outputs":[{"name":"","type":"bytes32","internalType":"bytes32"}],"stateMutability":"view"},{"type":"function","name":"calculateOperatorAVSRegistrationDigestHash","inputs":[{"name":"","type":"address","internalType":"address"},{"name":"","type":"address","internalType":"address"},{"name":"","type":"bytes32","internalType":"bytes32"},{"name":"","type":"uint256","internalType":"uint256"}],"outputs":[{"name":"digestHash","type":"bytes32","internalType":"bytes32"}],"stateMutability":"pure"},{"type":"function","name":"calculateStakerDelegationDigestHash","inputs":[{"name":"","type":"address","internalType":"address"},{"name":"","type":"uint256","internalType":"uint256"},{"name":"","type":"address","internalType":"address"},{"name":"","type":"uint256","internalType":"uint256"}],"outputs":[{"name":"","type":"bytes32","internalType":"bytes32"}],"stateMutability":"view"},{"type":"function","name":"calculateStakerDigestHash","inputs":[{"name":"","type":"address","internalType":"address"},{"name":"","type":"address","internalType":"address"},{"name":"","type":"uint256","internalType":"uint256"}],"outputs":[{"name":"stakerDigestHash","type":"bytes32","internalType":"bytes32"}],"stateMutability":"pure"},{"type":"function","name":"calculateWithdrawalRoot","inputs":[{"name":"withdrawal","type":"tuple","internalType":"struct IDelegationManager.Withdrawal","components":[{"name":"staker","type":"address","internalType":"address"},{"name":"delegatedTo","type":"address","internalType":"address"},{"name":"withdrawer","type":"address","internalType":"address"},{"name":"nonce","type":"uint256","internalType":"uint256"},{"name":"startBlock","type":"uint32","internalType":"uint32"},{"name":"strategies","type":"address[]","internalType":"contract IStrategy[]"},{"name":"shares","type":"uint256[]","internalType":"uint256[]"}]}],"outputs":[{"name":"","type":"bytes32","internalType":"bytes32"}],"stateMutability":"pure"},{"type":"function","name":"completeQueuedWithdrawal","inputs":[{"name":"withdrawal","type":"tuple","internalType":"struct IDelegationManager.Withdrawal","components":[{"name":"staker","type":"address","internalType":"address"},{"name":"delegatedTo","type":"address","internalType":"address"},{"name":"withdrawer","type":"address","internalType":"address"},{"name":"nonce","type":"uint256","internalType":"uint256"},{"name":"startBlock","type":"uint32","internalType":"uint32"},{"name":"strategies","type":"address[]","internalType":"contract IStrategy[]"},{"name":"shares","type":"uint256[]","internalType":"uint256[]"}]},{"name":"tokens","type":"address[]","internalType":"contract IERC20[]"},{"name":"middlewareTimesIndex","type":"uint256","internalType":"uint256"},{"name":"receiveAsTokens","type":"bool","internalType":"bool"}],"outputs":[],"stateMutability":"nonpayable"},{"type":"function","name":"completeQueuedWithdrawals","inputs":[{"name":"withdrawals","type":"tuple[]","internalType":"struct IDelegationManager.Withdrawal[]","components":[{"name":"staker","type":"address","internalType":"address"},{"name":"delegatedTo","type":"address","internalType":"address"},{"name":"withdrawer","type":"address","internalType":"address"},{"name":"nonce","type":"uint256","internalType":"uint256"},{"name":"startBlock","type":"uint32","internalType":"uint32"},{"name":"strategies","type":"address[]","internalType":"contract IStrategy[]"},{"name":"shares","type":"uint256[]","internalType":"uint256[]"}]},{"name":"tokens","type":"address[][]","internalType":"contract IERC20[][]"},{"name":"middlewareTimesIndexes","type":"uint256[]","internalType":"uint256[]"},{"name":"receiveAsTokens","type":"bool[]","internalType":"bool[]"}],"outputs":[],"stateMutability":"nonpayable"},{"type":"function","name":"cumulativeWithdrawalsQueued","inputs":[{"name":"staker","type":"address","internalType":"address"}],"outputs":[{"name":"","type":"uint256","internalType":"uint256"}],"stateMutability":"view"},{"type":"function","name":"decreaseDelegatedShares","inputs":[{"name":"","type":"address","internalType":"address"},{"name":"","type":"address","internalType":"contract IStrategy"},{"name":"","type":"uint256","internalType":"uint256"}],"outputs":[],"stateMutability":"pure"},{"type":"function","name":"delegateTo","inputs":[{"name":"operator","type":"address","internalType":"address"},{"name":"","type":"tuple","internalType":"struct ISignatureUtils.SignatureWithExpiry","components":[{"name":"signature","type":"bytes","internalType":"bytes"},{"name":"expiry","type":"uint256","internalType":"uint256"}]},{"name":"","type":"bytes32","internalType":"bytes32"}],"outputs":[],"stateMutability":"nonpayable"},{"type":"function","name":"delegateToBySignature","inputs":[{"name":"","type":"address","internalType":"address"},{"name":"","type":"address","internalType":"address"},{"name":"","type":"tuple","internalType":"struct ISignatureUtils.SignatureWithExpiry","components":[{"name":"signature","type":"bytes","internalType":"bytes"},{"name":"expiry","type":"uint256","internalType":"uint256"}]},{"name":"","type":"tuple","internalType":"struct ISignatureUtils.SignatureWithExpiry","components":[{"name":"signature","type":"bytes","internalType":"bytes"},{"name":"expiry","type":"uint256","internalType":"uint256"}]},{"name":"","type":"bytes32","internalType":"bytes32"}],"outputs":[],"stateMutability":"pure"},{"type":"function","name":"delegatedTo","inputs":[{"name":"","type":"address","internalType":"address"}],"outputs":[{"name":"","type":"address","internalType":"address"}],"stateMutability":"view"},{"type":"function","name":"delegationApprover","inputs":[{"name":"operator","type":"address","internalType":"address"}],"outputs":[{"name":"","type":"address","internalType":"address"}],"stateMutability":"pure"},{"type":"function","name":"delegationApproverSaltIsSpent","inputs":[{"name":"","type":"address","internalType":"address"},{"name":"","type":"bytes32","internalType":"bytes32"}],"outputs":[{"name":"","type":"bool","internalType":"bool"}],"stateMutability":"pure"},{"type":"function","name":"domainSeparator","inputs":[],"outputs":[{"name":"","type":"bytes32","internalType":"bytes32"}],"stateMutability":"view"},{"type":"function","name":"earningsReceiver","inputs":[{"name":"operator","type":"address","internalType":"address"}],"outputs":[{"name":"","type":"address","internalType":"address"}],"stateMutability":"pure"},{"type":"function","name":"getOperatorShares","inputs":[{"name":"operator","type":"address","internalType":"address"},{"name":"strategies","type":"address[]","internalType":"contract IStrategy[]"}],"outputs":[{"name":"","type":"uint256[]","internalType":"uint256[]"}],"stateMutability":"view"},{"type":"function","name":"getWithdrawalDelay","inputs":[{"name":"","type":"address[]","internalType":"contract IStrategy[]"}],"outputs":[{"name":"","type":"uint256","internalType":"uint256"}],"stateMutability":"view"},{"type":"function","name":"increaseDelegatedShares","inputs":[{"name":"","type":"address","internalType":"address"},{"name":"","type":"address","internalType":"contract IStrategy"},{"name":"","type":"uint256","internalType":"uint256"}],"outputs":[],"stateMutability":"pure"},{"type":"function","name":"isDelegated","inputs":[{"name":"staker","type":"address","internalType":"address"}],"outputs":[{"name":"","type":"bool","internalType":"bool"}],"stateMutability":"view"},{"type":"function","name":"isNotDelegated","inputs":[{"name":"","type":"address","internalType":"address"}],"outputs":[{"name":"","type":"bool","internalType":"bool"}],"stateMutability":"pure"},{"type":"function","name":"isOperator","inputs":[{"name":"","type":"address","internalType":"address"}],"outputs":[{"name":"","type":"bool","internalType":"bool"}],"stateMutability":"view"},{"type":"function","name":"minWithdrawalDelayBlocks","inputs":[],"outputs":[{"name":"","type":"uint256","internalType":"uint256"}],"stateMutability":"view"},{"type":"function","name":"modifyOperatorDetails","inputs":[{"name":"","type":"tuple","internalType":"struct IDelegationManager.OperatorDetails","components":[{"name":"__deprecated_earningsReceiver","type":"address","internalType":"address"},{"name":"delegationApprover","type":"address","internalType":"address"},{"name":"stakerOptOutWindowBlocks","type":"uint32","internalType":"uint32"}]}],"outputs":[],"stateMutability":"pure"},{"type":"function","name":"operatorDetails","inputs":[{"name":"operator","type":"address","internalType":"address"}],"outputs":[{"name":"","type":"tuple","internalType":"struct IDelegationManager.OperatorDetails","components":[{"name":"__deprecated_earningsReceiver","type":"address","internalType":"address"},{"name":"delegationApprover","type":"address","internalType":"address"},{"name":"stakerOptOutWindowBlocks","type":"uint32","internalType":"uint32"}]}],"stateMutability":"pure"},{"type":"function","name":"operatorSaltIsSpent","inputs":[{"name":"avs","type":"address","internalType":"address"},{"name":"salt","type":"bytes32","internalType":"bytes32"}],"outputs":[{"name":"","type":"bool","internalType":"bool"}],"stateMutability":"view"},{"type":"function","name":"operatorShares","inputs":[{"name":"","type":"address","internalType":"address"},{"name":"","type":"address","internalType":"contract IStrategy"}],"outputs":[{"name":"","type":"uint256","internalType":"uint256"}],"stateMutability":"view"},{"type":"function","name":"queueWithdrawals","inputs":[{"name":"queuedWithdrawalParams","type":"tuple[]","internalType":"struct IDelegationManager.QueuedWithdrawalParams[]","components":[{"name":"strategies","type":"address[]","internalType":"contract IStrategy[]"},{"name":"shares","type":"uint256[]","internalType":"uint256[]"},{"name":"withdrawer","type":"address","internalType":"address"}]}],"outputs":[{"name":"","type":"bytes32[]","internalType":"bytes32[]"}],"stateMutability":"nonpayable"},{"type":"function","name":"registerAsOperator","inputs":[{"name":"","type":"tuple","internalType":"struct IDelegationManager.OperatorDetails","components":[{"name":"__deprecated_earningsReceiver","type":"address","internalType":"address"},{"name":"delegationApprover","type":"address","internalType":"address"},{"name":"stakerOptOutWindowBlocks","type":"uint32","internalType":"uint32"}]},{"name":"","type":"string","internalType":"string"}],"outputs":[],"stateMutability":"pure"},{"type":"function","name":"removeShares","inputs":[{"name":"strategyManager","type":"address","internalType":"contract IStrategyManager"},{"name":"staker","type":"address","internalType":"address"},{"name":"strategy","type":"address","internalType":"contract IStrategy"},{"name":"shares","type":"uint256","internalType":"uint256"}],"outputs":[],"stateMutability":"nonpayable"},{"type":"function","name":"setIsOperator","inputs":[{"name":"operator","type":"address","internalType":"address"},{"name":"_isOperatorReturnValue","type":"bool","internalType":"bool"}],"outputs":[],"stateMutability":"nonpayable"},{"type":"function","name":"setOperatorShares","inputs":[{"name":"operator","type":"address","internalType":"address"},{"name":"strategy","type":"address","internalType":"contract IStrategy"},{"name":"shares","type":"uint256","internalType":"uint256"}],"outputs":[],"stateMutability":"nonpayable"},{"type":"function","name":"stakerNonce","inputs":[{"name":"","type":"address","internalType":"address"}],"outputs":[{"name":"","type":"uint256","internalType":"uint256"}],"stateMutability":"pure"},{"type":"function","name":"stakerOptOutWindowBlocks","inputs":[{"name":"","type":"address","internalType":"address"}],"outputs":[{"name":"","type":"uint256","internalType":"uint256"}],"stateMutability":"pure"},{"type":"function","name":"strategyWithdrawalDelayBlocks","inputs":[{"name":"","type":"address","internalType":"contract IStrategy"}],"outputs":[{"name":"","type":"uint256","internalType":"uint256"}],"stateMutability":"view"},{"type":"function","name":"undelegate","inputs":[{"name":"staker","type":"address","internalType":"address"}],"outputs":[{"name":"withdrawalRoot","type":"bytes32[]","internalType":"bytes32[]"}],"stateMutability":"nonpayable"},{"type":"function","name":"updateAVSMetadataURI","inputs":[{"name":"","type":"string","internalType":"string"}],"outputs":[],"stateMutability":"pure"},{"type":"function","name":"updateOperatorMetadataURI","inputs":[{"name":"","type":"string","internalType":"string"}],"outputs":[],"stateMutability":"pure"},{"type":"function","name":"withdrawSharesAsTokens","inputs":[{"name":"strategyManager","type":"address","internalType":"contract IStrategyManager"},{"name":"recipient","type":"address","internalType":"address"},{"name":"strategy","type":"address","internalType":"contract IStrategy"},{"name":"shares","type":"uint256","internalType":"uint256"},{"name":"token","type":"address","internalType":"contract IERC20"}],"outputs":[],"stateMutability":"nonpayable"},{"type":"event","name":"MinWithdrawalDelayBlocksSet","inputs":[{"name":"previousValue","type":"uint256","indexed":false,"internalType":"uint256"},{"name":"newValue","type":"uint256","indexed":false,"internalType":"uint256"}],"anonymous":false},{"type":"event","name":"OperatorDetailsModified","inputs":[{"name":"operator","type":"address","indexed":true,"internalType":"address"},{"name":"newOperatorDetails","type":"tuple","indexed":false,"internalType":"struct IDelegationManager.OperatorDetails","components":[{"name":"__deprecated_earningsReceiver","type":"address","internalType":"address"},{"name":"delegationApprover","type":"address","internalType":"address"},{"name":"stakerOptOutWindowBlocks","type":"uint32","internalType":"uint32"}]}],"anonymous":false},{"type":"event","name":"OperatorMetadataURIUpdated","inputs":[{"name":"operator","type":"address","indexed":true,"internalType":"address"},{"name":"metadataURI","type":"string","indexed":false,"internalType":"string"}],"anonymous":false},{"type":"event","name":"OperatorRegistered","inputs":[{"name":"operator","type":"address","indexed":true,"internalType":"address"},{"name":"operatorDetails","type":"tuple","indexed":false,"internalType":"struct IDelegationManager.OperatorDetails","components":[{"name":"__deprecated_earningsReceiver","type":"address","internalType":"address"},{"name":"delegationApprover","type":"address","internalType":"address"},{"name":"stakerOptOutWindowBlocks","type":"uint32","internalType":"uint32"}]}],"anonymous":false},{"type":"event","name":"OperatorSharesDecreased","inputs":[{"name":"operator","type":"address","indexed":true,"internalType":"address"},{"name":"staker","type":"address","indexed":false,"internalType":"address"},{"name":"strategy","type":"address","indexed":false,"internalType":"contract IStrategy"},{"name":"shares","type":"uint256","indexed":false,"internalType":"uint256"}],"anonymous":false},{"type":"event","name":"OperatorSharesIncreased","inputs":[{"name":"operator","type":"address","indexed":true,"internalType":"address"},{"name":"staker","type":"address","indexed":false,"internalType":"address"},{"name":"strategy","type":"address","indexed":false,"internalType":"contract IStrategy"},{"name":"shares","type":"uint256","indexed":false,"internalType":"uint256"}],"anonymous":false},{"type":"event","name":"StakerDelegated","inputs":[{"name":"staker","type":"address","indexed":true,"internalType":"address"},{"name":"operator","type":"address","indexed":true,"internalType":"address"}],"anonymous":false},{"type":"event","name":"StakerForceUndelegated","inputs":[{"name":"staker","type":"address","indexed":true,"internalType":"address"},{"name":"operator","type":"address","indexed":true,"internalType":"address"}],"anonymous":false},{"type":"event","name":"StakerUndelegated","inputs":[{"name":"staker","type":"address","indexed":true,"internalType":"address"},{"name":"operator","type":"address","indexed":true,"internalType":"address"}],"anonymous":false},{"type":"event","name":"StrategyWithdrawalDelayBlocksSet","inputs":[{"name":"strategy","type":"address","indexed":false,"internalType":"contract IStrategy"},{"name":"previousValue","type":"uint256","indexed":false,"internalType":"uint256"},{"name":"newValue","type":"uint256","indexed":false,"internalType":"uint256"}],"anonymous":false},{"type":"event","name":"WithdrawalCompleted","inputs":[{"name":"withdrawalRoot","type":"bytes32","indexed":false,"internalType":"bytes32"}],"anonymous":false},{"type":"event","name":"WithdrawalQueued","inputs":[{"name":"withdrawalRoot","type":"bytes32","indexed":false,"internalType":"bytes32"},{"name":"withdrawal","type":"tuple","indexed":false,"internalType":"struct IDelegationManager.Withdrawal","components":[{"name":"staker","type":"address","internalType":"address"},{"name":"delegatedTo","type":"address","internalType":"address"},{"name":"withdrawer","type":"address","internalType":"address"},{"name":"nonce","type":"uint256","internalType":"uint256"},{"name":"startBlock","type":"uint32","internalType":"uint32"},{"name":"strategies","type":"address[]","internalType":"contract IStrategy[]"},{"name":"shares","type":"uint256[]","internalType":"uint256[]"}]}],"anonymous":false}],"bytecode":{"object":"0x6080806040523460155761107b908161001b8239f35b600080fdfe608080604052600436101561001357600080fd5b6000803560e01c9182630449ca3914610c3a5750816304a4f9791461021b5781630b9f487a14610c155781630dd8dd0214610bd65781630f589e5914610b9e578163132d496714610b8a578163169283651461041d5781631bbce091146105485781631d3696b71461041d57816320606b701461021b57816328a573ae14610b8a57816329c77d4f1461051e5781633340439614610af2578163374823b5146105145781633cdeb5e01461094f5781633e28391d14610ab0578163433773821461021b578163597b36da146109545781635f966f141461094f57816360d7faed146108f557816365da1264146108b557816367f292c7146107f75781636d70f7ae146107ba57816374d898d714610548578163778e55f3146107665781637f548071146106fc5781638d90cd561461067457816390041347146105685781639104c3191461054d578163965682711461054857816399be81c814610519578163a1060c8814610523578163a17884841461051e578163a98fb35514610519578163bb45fef214610514578163bc56ff6614610455578163c448feb814610439578163c488375a1461041d578163c5e480db1461039d578163c94b51111461036f578163cbb5d4db14610326578163da8be864146102da578163dbe35bd8146102a0578163eea9064b14610237578163f16172b014610220575063f698da251461021b57600080fd5b610ca8565b346102345760603660031901126102345780f35b80fd5b3461023457606036600319011261023457610250610cc4565b6024356001600160401b03811161029c5761026f903690600401610f4d565b5033825260026020526040822080546001600160a01b0319166001600160a01b0390921691909117905580f35b8280fd5b34610234576102ae36610d83565b9160018060a01b031683526001602052604083209060018060a01b031660005260205260406000205580f35b34610234576020366003190112610234576040906001600160a01b036102fe610cc4565b16815260026020522080546001600160a01b03191690556040518061032281610d1a565b0390f35b346102345760403660031901126102345761033f610cc4565b6024359081151580920361029c5760018060a01b0316825281602052604082209060ff8019835416911617905580f35b346102345760803660031901126102345760209061038b610cc4565b50610394610cf0565b50604051908152f35b346102345760203660031901126102345760609063ffffffff6103be610cc4565b9180604080516103cd81610e70565b8281528260208201520152604051926103e584610e70565b60018060a01b031692838152604060208201918583520191825260405193845260018060a01b03905116602084015251166040820152f35b3461023457602036600319011261023457602090610394610cc4565b34610234578060031936011261023457602060405161c4e08152f35b346102345760a0366003190112610234578061046f610cc4565b610477610cda565b61047f610cf0565b6064356001600160a01b0381169390849003610510576001600160a01b0316803b156105105760405163c4623ea160e01b81526001600160a01b03938416600482015291909216602482015260448101929092526084803560648401528391839190829084905af18015610505576104f45750f35b816104fe91610ea1565b6102345780f35b6040513d84823e3d90fd5b8480fd5b610e2a565b610fe9565b610e05565b346102345760803660031901126102345760209061053f610cc4565b50610394610cda565b610dbd565b34610234578060031936011261023457602090604051908152f35b3461023457604036600319011261023457610581610cc4565b6024356001600160401b03811161029c576105a0903690600401610ed9565b8051906105c56105af83610ec2565b926105bd6040519485610ea1565b808452610ec2565b602083019390601f19013685376001600160a01b0316845b825181101561062f578186526001602081905260408088209192916001600160a01b0361060a848861101b565b511690600091858060a01b031682526020522054610628828761101b565b52016105dd565b50505090604051928392602084019060208552518091526040840192915b81811061065b575050500390f35b825184528594506020938401939092019160010161064d565b34610234576080366003190112610234578061068e610cc4565b610696610cda565b61069e610cf0565b6001600160a01b0390921691823b156106f757604051638c80d4e560e01b81526001600160a01b03928316600482015291166024820152606480356044830152909183918391829084905af18015610505576104f45750f35b505050fd5b346102345760a036600319011261023457610715610cc4565b5061071e610cda565b506044356001600160401b0381116107625761073e903690600401610f4d565b506064356001600160401b0381116107625761075e903690600401610f4d565b5080f35b5080fd5b34610234576040366003190112610234576040610781610cc4565b9161078a610cda565b9260018060a01b031681526001602052209060018060a01b03166000526020526020604060002054604051908152f35b346102345760203660031901126102345760209060ff906040906001600160a01b036107e4610cc4565b1681528084522054166040519015158152f35b346102345760a036600319011261023457610810610cc4565b81610819610cda565b610821610cf0565b6084356001600160a01b03811694908590036108b1576001600160a01b0316803b156108b15760405163c608c7f360e01b81526001600160a01b03938416600482015291909216602482015260648035604483015281019390935281908390608490829084905af180156108a4576108965780f35b61089f91610ea1565b818180f35b50604051903d90823e3d90fd5b8380fd5b34610234576020366003190112610234576020906001600160a01b036108d9610cc4565b16815260028252604060018060a01b0391205416604051908152f35b34610234576080366003190112610234576004356001600160401b0381116107625760e0906003199036030112610234576024356001600160401b03811161076257610945903690600401610c73565b505061075e610f3e565b610e43565b3461023457602036600319011261023457600435906001600160401b0382116102345760e06003198336030112610234576040519160e083018381106001600160401b03821117610a9c576040526109ae81600401610d06565b83526109bc60248201610d06565b60208401526109cd60448201610d06565b604084015260648101356060840152608481013563ffffffff8116810361029c57608084015260a48101356001600160401b03811161029c57610a169060043691840101610ed9565b60a084015260c4810135906001600160401b03821161029c5701913660238401121561076257600483013590610a4b82610ec2565b91610a596040519384610ea1565b80835260051b84016024016020830136821161051057602460209601905b828210610a8d5750505060c00152604051908152f35b81358152908601908601610a77565b634e487b7160e01b83526041600452602483fd5b34610234576020366003190112610234576020906001600160a01b03610ad4610cc4565b16815260028252604060018060a01b03912054161515604051908152f35b34610234576080366003190112610234576004356001600160401b03811161076257610b22903690600401610c73565b50506024356001600160401b03811161076257610b43903690600401610c73565b50506044356001600160401b03811161076257610b64903690600401610c73565b50506064356001600160401b03811161076257610b85903690600401610c73565b505080f35b3461023457610b9836610d83565b50505080f35b346102345736600319016080811261076257606013610234576064356001600160401b03811161076257610b85903690600401610d56565b34610234576020366003190112610234576004356001600160401b03811161076257610c06903690600401610c73565b50506040518061032281610d1a565b346102345760a036600319011261023457602090610c31610cc4565b5061038b610cda565b34610762576020366003190112610762576004356001600160401b03811161029c5791610c6d6020933690600401610c73565b50508152f35b9181601f84011215610ca3578235916001600160401b038311610ca3576020808501948460051b010111610ca357565b600080fd5b34610ca3576000366003190112610ca357602060405160008152f35b600435906001600160a01b0382168203610ca357565b602435906001600160a01b0382168203610ca357565b604435906001600160a01b0382168203610ca357565b35906001600160a01b0382168203610ca357565b6040602082019160208152606051809352019060809060005b818110610d405750505090565b8251845260209384019390920191600101610d33565b9181601f84011215610ca3578235916001600160401b038311610ca35760208381860195010111610ca357565b6060906003190112610ca3576004356001600160a01b0381168103610ca357906024356001600160a01b0381168103610ca3579060443590565b34610ca3576000606036600319011261023457600435906001600160a01b03821682036102345750506024356001600160a01b0381168103610ca35750602060405160008152f35b34610ca3576020366003190112610ca357610e1e610cc4565b50602060405160008152f35b34610ca3576040366003190112610ca357610e1e610cc4565b34610ca3576020366003190112610ca3576020610e5e610cc4565b6040516001600160a01b039091168152f35b606081019081106001600160401b03821117610e8b57604052565b634e487b7160e01b600052604160045260246000fd5b90601f801991011681019081106001600160401b03821117610e8b57604052565b6001600160401b038111610e8b5760051b60200190565b9080601f83011215610ca3578135610ef081610ec2565b92610efe6040519485610ea1565b81845260208085019260051b820101928311610ca357602001905b828210610f265750505090565b60208091610f3384610d06565b815201910190610f19565b606435908115158203610ca357565b9190604083820312610ca35760405190604082018281106001600160401b03821117610e8b57604052819380356001600160401b038111610ca35781019082601f83011215610ca3578135926001600160401b038411610e8b5760405190610fbf601f8601601f191660200183610ea1565b84825260208585010111610ca3576000602085819682809701838601378301015284520135910152565b34610ca3576020366003190112610ca3576004356001600160401b038111610ca357611019903690600401610d56565b005b805182101561102f5760209160051b010190565b634e487b7160e01b600052603260045260246000fdfea2646970667358221220d170993bdb3dc4057e83d82352a868710fd71b8495e2eb379b9e5006c2fd667e64736f6c634300081a0033","linkReferences":{}},"methodIdentifiers":{"DELEGATION_APPROVAL_TYPEHASH()":"04a4f979","DOMAIN_TYPEHASH()":"20606b70","STAKER_DELEGATION_TYPEHASH()":"43377382","addShares(address,address,address,address,uint256)":"bc56ff66","beaconChainETHStrategy()":"9104c319","calculateApproverDigestHash(address,address,uint256)":"74d898d7","calculateCurrentStakerDelegationDigestHash(address,address,uint256)":"1bbce091","calculateDelegationApprovalDigestHash(address,address,address,bytes32,uint256)":"0b9f487a","calculateOperatorAVSRegistrationDigestHash(address,address,bytes32,uint256)":"a1060c88","calculateStakerDelegationDigestHash(address,uint256,address,uint256)":"c94b5111","calculateStakerDigestHash(address,address,uint256)":"96568271","calculateWithdrawalRoot((address,address,address,uint256,uint32,address[],uint256[]))":"597b36da","completeQueuedWithdrawal((address,address,address,uint256,uint32,address[],uint256[]),address[],uint256,bool)":"60d7faed","completeQueuedWithdrawals((address,address,address,uint256,uint32,address[],uint256[])[],address[][],uint256[],bool[])":"33404396","cumulativeWithdrawalsQueued(address)":"a1788484","decreaseDelegatedShares(address,address,uint256)":"132d4967","delegateTo(address,(bytes,uint256),bytes32)":"eea9064b","delegateToBySignature(address,address,(bytes,uint256),(bytes,uint256),bytes32)":"7f548071","delegatedTo(address)":"65da1264","delegationApprover(address)":"3cdeb5e0","delegationApproverSaltIsSpent(address,bytes32)":"bb45fef2","domainSeparator()":"f698da25","earningsReceiver(address)":"5f966f14","getOperatorShares(address,address[])":"90041347","getWithdrawalDelay(address[])":"0449ca39","increaseDelegatedShares(address,address,uint256)":"28a573ae","isDelegated(address)":"3e28391d","isNotDelegated(address)":"1d3696b7","isOperator(address)":"6d70f7ae","minWithdrawalDelayBlocks()":"c448feb8","modifyOperatorDetails((address,address,uint32))":"f16172b0","operatorDetails(address)":"c5e480db","operatorSaltIsSpent(address,bytes32)":"374823b5","operatorShares(address,address)":"778e55f3","queueWithdrawals((address[],uint256[],address)[])":"0dd8dd02","registerAsOperator((address,address,uint32),string)":"0f589e59","removeShares(address,address,address,uint256)":"8d90cd56","setIsOperator(address,bool)":"cbb5d4db","setOperatorShares(address,address,uint256)":"dbe35bd8","stakerNonce(address)":"29c77d4f","stakerOptOutWindowBlocks(address)":"16928365","strategyWithdrawalDelayBlocks(address)":"c488375a","undelegate(address)":"da8be864","updateAVSMetadataURI(string)":"a98fb355","updateOperatorMetadataURI(string)":"99be81c8","withdrawSharesAsTokens(address,address,address,uint256,address)":"67f292c7"},"id":105}