{"abi":[{"type":"constructor","inputs":[{"name":"_strategyManager","type":"address","internalType":"contract IStrategyManager"}],"stateMutability":"nonpayable"},{"type":"function","name":"deposit","inputs":[{"name":"token","type":"address","internalType":"contract IERC20"},{"name":"amount","type":"uint256","internalType":"uint256"}],"outputs":[{"name":"newShares","type":"uint256","internalType":"uint256"}],"stateMutability":"nonpayable"},{"type":"function","name":"explanation","inputs":[],"outputs":[{"name":"","type":"string","internalType":"string"}],"stateMutability":"pure"},{"type":"function","name":"getTVLLimits","inputs":[],"outputs":[{"name":"","type":"uint256","internalType":"uint256"},{"name":"","type":"uint256","internalType":"uint256"}],"stateMutability":"view"},{"type":"function","name":"initialize","inputs":[{"name":"_maxPerDeposit","type":"uint256","internalType":"uint256"},{"name":"_maxTotalDeposits","type":"uint256","internalType":"uint256"},{"name":"_underlyingToken","type":"address","internalType":"contract IERC20"},{"name":"_pauserRegistry","type":"address","internalType":"contract IPauserRegistry"}],"outputs":[],"stateMutability":"nonpayable"},{"type":"function","name":"initialize","inputs":[{"name":"_underlyingToken","type":"address","internalType":"contract IERC20"},{"name":"_pauserRegistry","type":"address","internalType":"contract IPauserRegistry"}],"outputs":[],"stateMutability":"nonpayable"},{"type":"function","name":"maxPerDeposit","inputs":[],"outputs":[{"name":"","type":"uint256","internalType":"uint256"}],"stateMutability":"view"},{"type":"function","name":"maxTotalDeposits","inputs":[],"outputs":[{"name":"","type":"uint256","internalType":"uint256"}],"stateMutability":"view"},{"type":"function","name":"pause","inputs":[{"name":"newPausedStatus","type":"uint256","internalType":"uint256"}],"outputs":[],"stateMutability":"nonpayable"},{"type":"function","name":"pauseAll","inputs":[],"outputs":[],"stateMutability":"nonpayable"},{"type":"function","name":"paused","inputs":[{"name":"index","type":"uint8","internalType":"uint8"}],"outputs":[{"name":"","type":"bool","internalType":"bool"}],"stateMutability":"view"},{"type":"function","name":"paused","inputs":[],"outputs":[{"name":"","type":"uint256","internalType":"uint256"}],"stateMutability":"view"},{"type":"function","name":"pauserRegistry","inputs":[],"outputs":[{"name":"","type":"address","internalType":"contract IPauserRegistry"}],"stateMutability":"view"},{"type":"function","name":"setPauserRegistry","inputs":[{"name":"newPauserRegistry","type":"address","internalType":"contract IPauserRegistry"}],"outputs":[],"stateMutability":"nonpayable"},{"type":"function","name":"setTVLLimits","inputs":[{"name":"newMaxPerDeposit","type":"uint256","internalType":"uint256"},{"name":"newMaxTotalDeposits","type":"uint256","internalType":"uint256"}],"outputs":[],"stateMutability":"nonpayable"},{"type":"function","name":"shares","inputs":[{"name":"user","type":"address","internalType":"address"}],"outputs":[{"name":"","type":"uint256","internalType":"uint256"}],"stateMutability":"view"},{"type":"function","name":"sharesToUnderlying","inputs":[{"name":"amountShares","type":"uint256","internalType":"uint256"}],"outputs":[{"name":"","type":"uint256","internalType":"uint256"}],"stateMutability":"view"},{"type":"function","name":"sharesToUnderlyingView","inputs":[{"name":"amountShares","type":"uint256","internalType":"uint256"}],"outputs":[{"name":"","type":"uint256","internalType":"uint256"}],"stateMutability":"view"},{"type":"function","name":"strategyManager","inputs":[],"outputs":[{"name":"","type":"address","internalType":"contract IStrategyManager"}],"stateMutability":"view"},{"type":"function","name":"totalShares","inputs":[],"outputs":[{"name":"","type":"uint256","internalType":"uint256"}],"stateMutability":"view"},{"type":"function","name":"underlyingToShares","inputs":[{"name":"amountUnderlying","type":"uint256","internalType":"uint256"}],"outputs":[{"name":"","type":"uint256","internalType":"uint256"}],"stateMutability":"view"},{"type":"function","name":"underlyingToSharesView","inputs":[{"name":"amountUnderlying","type":"uint256","internalType":"uint256"}],"outputs":[{"name":"","type":"uint256","internalType":"uint256"}],"stateMutability":"view"},{"type":"function","name":"underlyingToken","inputs":[],"outputs":[{"name":"","type":"address","internalType":"contract IERC20"}],"stateMutability":"view"},{"type":"function","name":"unpause","inputs":[{"name":"newPausedStatus","type":"uint256","internalType":"uint256"}],"outputs":[],"stateMutability":"nonpayable"},{"type":"function","name":"userUnderlying","inputs":[{"name":"user","type":"address","internalType":"address"}],"outputs":[{"name":"","type":"uint256","internalType":"uint256"}],"stateMutability":"nonpayable"},{"type":"function","name":"userUnderlyingView","inputs":[{"name":"user","type":"address","internalType":"address"}],"outputs":[{"name":"","type":"uint256","internalType":"uint256"}],"stateMutability":"view"},{"type":"function","name":"withdraw","inputs":[{"name":"recipient","type":"address","internalType":"address"},{"name":"token","type":"address","internalType":"contract IERC20"},{"name":"amountShares","type":"uint256","internalType":"uint256"}],"outputs":[],"stateMutability":"nonpayable"},{"type":"event","name":"ExchangeRateEmitted","inputs":[{"name":"rate","type":"uint256","indexed":false,"internalType":"uint256"}],"anonymous":false},{"type":"event","name":"Initialized","inputs":[{"name":"version","type":"uint8","indexed":false,"internalType":"uint8"}],"anonymous":false},{"type":"event","name":"MaxPerDepositUpdated","inputs":[{"name":"previousValue","type":"uint256","indexed":false,"internalType":"uint256"},{"name":"newValue","type":"uint256","indexed":false,"internalType":"uint256"}],"anonymous":false},{"type":"event","name":"MaxTotalDepositsUpdated","inputs":[{"name":"previousValue","type":"uint256","indexed":false,"internalType":"uint256"},{"name":"newValue","type":"uint256","indexed":false,"internalType":"uint256"}],"anonymous":false},{"type":"event","name":"Paused","inputs":[{"name":"account","type":"address","indexed":true,"internalType":"address"},{"name":"newPausedStatus","type":"uint256","indexed":false,"internalType":"uint256"}],"anonymous":false},{"type":"event","name":"PauserRegistrySet","inputs":[{"name":"pauserRegistry","type":"address","indexed":false,"internalType":"contract IPauserRegistry"},{"name":"newPauserRegistry","type":"address","indexed":false,"internalType":"contract IPauserRegistry"}],"anonymous":false},{"type":"event","name":"StrategyTokenSet","inputs":[{"name":"token","type":"address","indexed":false,"internalType":"contract IERC20"},{"name":"decimals","type":"uint8","indexed":false,"internalType":"uint8"}],"anonymous":false},{"type":"event","name":"Unpaused","inputs":[{"name":"account","type":"address","indexed":true,"internalType":"address"},{"name":"newPausedStatus","type":"uint256","indexed":false,"internalType":"uint256"}],"anonymous":false}],"bytecode":{"object":"0x60a03461012857601f611a7938819003918201601f19168301916001600160401b0383118484101761012d5780849260209460405283398101031261012857516001600160a01b03811681036101285760805260005460ff8160081c166100d35760ff80821610610098575b6040516119359081610144823960805181818161032701528181610bc301528181610ed3015261159a0152f35b60ff90811916176000557f7f26b83ff96e1f2b6a682f133852f6798a09c465da95921460cefb3847402498602060405160ff8152a13861006b565b60405162461bcd60e51b815260206004820152602760248201527f496e697469616c697a61626c653a20636f6e747261637420697320696e697469604482015266616c697a696e6760c81b6064820152608490fd5b600080fd5b634e487b7160e01b600052604160045260246000fdfe6080604052600436101561001257600080fd5b60003560e01c8063019e27291461114e57806310d67a2f146110c157806311c70c9d14611036578063136439dd14610f2b5780632495a59914610f0257806339b70e3814610ebd5780633a98ef3914610e9f57806343fe08b014610e8157806347e7ef2414610b90578063485cc955146108a6578063553ca5f814610739578063595c6a67146107fb5780635ac86ab7146107c85780635c975abb146107aa57806361b01b5d1461078c5780637a8b263714610282578063886f11951461075f5780638c871019146102a85780638f6a624014610739578063ab5921e1146106a1578063ce7c2ac21461067e578063d9caed12146102eb578063df6fadc1146102c6578063e3dae51c146102a8578063f3e73875146102825763fabc1cbc1461013a57600080fd5b3461027d57602036600319011261027d5760005460405163755b36bd60e11b815260048035926020918391829060101c6001600160a01b03165afa80156102715761019891600091610242575b506001600160a01b0316331461138c565b6001541981198116036101d757806001556040519081527f3582d1828e26bf56bd801502bc021ac0bc8afb57c826e4986b45593c8fad389c60203392a2005b60405162461bcd60e51b815260206004820152603860248201527f5061757361626c652e756e70617573653a20696e76616c696420617474656d7060448201527f7420746f2070617573652066756e6374696f6e616c69747900000000000000006064820152608490fd5b610264915060203d60201161026a575b61025c818361134b565b81019061136d565b38610187565b503d610252565b6040513d6000823e3d90fd5b600080fd5b3461027d57602036600319011261027d5760206102a0600435611537565b604051908152f35b3461027d57602036600319011261027d5760206102a06004356115fd565b3461027d57600036600319011261027d57604060645460655482519182526020820152f35b3461027d57606036600319011261027d57610304611273565b61030c611289565b60443590610321600280600154161415611460565b610355337f00000000000000000000000000000000000000000000000000000000000000006001600160a01b0316146114ac565b6032546001600160a01b039182169116810361061357603354808311610592576103e8810180821161057c57610389611812565b916103e8830180931161057c576103b76103af6103c1936103aa8887611504565b611517565b9586926114f7565b92836033556114f7565b906103e8810180911161057c576103d791611850565b60405163a9059cbb60e01b602082019081526001600160a01b03909416602482015260448082019390935291825261041060648361134b565b604092835192610420858561134b565b602084527f5361666545524332303a206c6f772d6c6576656c2063616c6c206661696c65646020850152823b15610538575160009283929083905af1903d1561052c573d67ffffffffffffffff811161051657835161049e93909161048f601f8201601f19166020018461134b565b82523d6000602084013e6118a3565b805190816104a857005b6020806104b99383010191016113eb565b156104c057005b5162461bcd60e51b815260206004820152602a60248201527f5361666545524332303a204552433230206f7065726174696f6e20646964206e6044820152691bdd081cdd58d8d9595960b21b6064820152608490fd5b634e487b7160e01b600052604160045260246000fd5b61049e916060906118a3565b845162461bcd60e51b815260206004820152601d60248201527f416464726573733a2063616c6c20746f206e6f6e2d636f6e74726163740000006044820152606490fd5b634e487b7160e01b600052601160045260246000fd5b60405162461bcd60e51b815260206004820152604d60248201527f5374726174656779426173652e77697468647261773a20616d6f756e7453686160448201527f726573206d757374206265206c657373207468616e206f7220657175616c207460648201526c6f20746f74616c53686172657360981b608482015260a490fd5b60405162461bcd60e51b815260206004820152603b60248201527f5374726174656779426173652e77697468647261773a2043616e206f6e6c792060448201527f77697468647261772074686520737472617465677920746f6b656e00000000006064820152608490fd5b3461027d57602036600319011261027d5760206102a061069c611273565b61156a565b3461027d57600036600319011261027d576107356040516106c360808261134b565b604d81527f4261736520537472617465677920696d706c656d656e746174696f6e20746f2060208201527f696e68657269742066726f6d20666f72206d6f726520636f6d706c657820696d60408201526c706c656d656e746174696f6e7360981b60608201526040519182918261129f565b0390f35b3461027d57602036600319011261027d5760206102a061075a61069c611273565b611537565b3461027d57600036600319011261027d5760005460405160109190911c6001600160a01b03168152602090f35b3461027d57600036600319011261027d576020606554604051908152f35b3461027d57600036600319011261027d576020600154604051908152f35b3461027d57602036600319011261027d5760043560ff811680910361027d5760016020911b806001541614604051908152f35b3461027d57600036600319011261027d5760005460405163237dfb4760e11b8152336004820152906020908290602490829060101c6001600160a01b03165afa80156102715761085391600091610877575b50611403565b60001960015560405160001981526000805160206118e083398151915260203392a2005b610899915060203d60201161089f575b610891818361134b565b8101906113eb565b8261084d565b503d610887565b3461027d57604036600319011261027d576108bf611273565b6108c7611289565b906000549160ff8360081c161592838094610b83575b8015610b6c575b6108ed906112e8565b60ff19811660011760005583610b5a575b506000549160ff8360081c1615610b0157603280546001600160a01b0319166001600160a01b039283169081179091559260101c161580610aef575b15610a7457610968906000600155604051600081526000805160206118e083398151915260203392a2611721565b60325460405163313ce56760e01b81526001600160a01b0390911691602090829060049082905afa90811561027157600091610a11575b507f1c540707b00eb5427b6b774fc799d756516a54aee108b64b327acc55af5575079160ff6040928351928352166020820152a16109d957005b61ff0019600054166000557f7f26b83ff96e1f2b6a682f133852f6798a09c465da95921460cefb3847402498602060405160018152a1005b6020813d602011610a6c575b81610a2a6020938361134b565b81010312610a6857519060ff82168203610a6557507f1c540707b00eb5427b6b774fc799d756516a54aee108b64b327acc55af55750761099f565b80fd5b5080fd5b3d9150610a1d565b60405162461bcd60e51b815260206004820152604760248201527f5061757361626c652e5f696e697469616c697a655061757365723a205f696e6960448201527f7469616c697a6550617573657228292063616e206f6e6c792062652063616c6c6064820152666564206f6e636560c81b608482015260a490fd5b506001600160a01b038116151561093a565b60405162461bcd60e51b815260206004820152602b60248201527f496e697469616c697a61626c653a20636f6e7472616374206973206e6f74206960448201526a6e697469616c697a696e6760a81b6064820152608490fd5b61ffff191661010117600055836108fe565b50303b1580156108e4575060ff81166001146108e4565b50600160ff8216106108dd565b3461027d57604036600319011261027d57610ba9611273565b60243590610bbd6001808054161415611460565b610bf1337f00000000000000000000000000000000000000000000000000000000000000006001600160a01b0316146114ac565b6064548211610e2457610c02611812565b60655410610dca576032546001600160a01b03908116911603610d6657603354906103e8820180831161057c57610c37611812565b916103e8830180931161057c576103aa610c5b92610c5583866114f7565b92611504565b908115610d0a5781830180931161057c57826033556f4b3b4ca85a86c47a098a223fffffffff8311610c9f576103e8830180931161057c576020926102a091611850565b60405162461bcd60e51b815260206004820152603c60248201527f5374726174656779426173652e6465706f7369743a20746f74616c536861726560448201527f73206578636565647320604d41585f544f54414c5f53484152455360000000006064820152608490fd5b60405162461bcd60e51b815260206004820152602e60248201527f5374726174656779426173652e6465706f7369743a206e65775368617265732060448201526d63616e6e6f74206265207a65726f60901b6064820152608490fd5b60405162461bcd60e51b815260206004820152603660248201527f5374726174656779426173652e6465706f7369743a2043616e206f6e6c79206460448201527532b837b9b4ba103ab73232b9363cb4b733aa37b5b2b760511b6064820152608490fd5b60405162461bcd60e51b815260206004820152602c60248201527f53747261746567794261736554564c4c696d6974733a206d6178206465706f7360448201526b1a5d1cc8195e18d95959195960a21b6064820152608490fd5b60405162461bcd60e51b815260206004820152602f60248201527f53747261746567794261736554564c4c696d6974733a206d617820706572206460448201526e195c1bdcda5d08195e18d959591959608a1b6064820152608490fd5b3461027d57600036600319011261027d576020606454604051908152f35b3461027d57600036600319011261027d576020603354604051908152f35b3461027d57600036600319011261027d576040517f00000000000000000000000000000000000000000000000000000000000000006001600160a01b03168152602090f35b3461027d57600036600319011261027d576032546040516001600160a01b039091168152602090f35b3461027d57602036600319011261027d576004356024602060018060a01b0360005460101c166040519283809263237dfb4760e11b82523360048301525afa801561027157610f81916000916110175750611403565b60015481811603610fac57806001556040519081526000805160206118e083398151915260203392a2005b60405162461bcd60e51b815260206004820152603860248201527f5061757361626c652e70617573653a20696e76616c696420617474656d70742060448201527f746f20756e70617573652066756e6374696f6e616c69747900000000000000006064820152608490fd5b611030915060203d60201161089f57610891818361134b565b8361084d565b3461027d57604036600319011261027d5760005460405163755b36bd60e11b8152906020908290600490829060101c6001600160a01b03165afa801561027157611092916000916110a257506001600160a01b0316331461138c565b6110a060243560043561162f565b005b6110bb915060203d60201161026a5761025c818361134b565b82610187565b3461027d57602036600319011261027d5760046110dc611273565b60005460405163755b36bd60e11b815292602091849190829060101c6001600160a01b03165afa918215610271576110a09261112a9160009161112f57506001600160a01b0316331461138c565b611721565b611148915060203d60201161026a5761025c818361134b565b84610187565b3461027d57608036600319011261027d576044356001600160a01b0381169081900361027d576064356001600160a01b038116919082810361027d576000549260ff8460081c161593848095611266575b801561124f575b6111af906112e8565b60ff1981166001176000558461123d575b506111cf60243560043561162f565b60005460ff8160081c1615610b0157603280546001600160a01b0319168517905560101c6001600160a01b0316159081611233575b5015610a7457610968906000600155604051600081526000805160206118e083398151915260203392a2611721565b9050151584611204565b61ffff191661010117600055846111c0565b50303b1580156111a6575060ff81166001146111a6565b50600160ff82161061119f565b600435906001600160a01b038216820361027d57565b602435906001600160a01b038216820361027d57565b91909160208152825180602083015260005b8181106112d2575060409293506000838284010152601f8019910116010190565b80602080928701015160408286010152016112b1565b156112ef57565b60405162461bcd60e51b815260206004820152602e60248201527f496e697469616c697a61626c653a20636f6e747261637420697320616c72656160448201526d191e481a5b9a5d1a585b1a5e995960921b6064820152608490fd5b90601f8019910116810190811067ffffffffffffffff82111761051657604052565b9081602091031261027d57516001600160a01b038116810361027d5790565b1561139357565b60405162461bcd60e51b815260206004820152602a60248201527f6d73672e73656e646572206973206e6f74207065726d697373696f6e6564206160448201526939903ab73830bab9b2b960b11b6064820152608490fd5b9081602091031261027d5751801515810361027d5790565b1561140a57565b60405162461bcd60e51b815260206004820152602860248201527f6d73672e73656e646572206973206e6f74207065726d697373696f6e6564206160448201526739903830bab9b2b960c11b6064820152608490fd5b1561146757565b60405162461bcd60e51b815260206004820152601960248201527f5061757361626c653a20696e64657820697320706175736564000000000000006044820152606490fd5b156114b357565b606460405162461bcd60e51b815260206004820152602060248201527f5374726174656779426173652e6f6e6c7953747261746567794d616e616765726044820152fd5b9190820391821161057c57565b8181029291811591840414171561057c57565b8115611521570490565b634e487b7160e01b600052601260045260246000fd5b6033546103e8810180911161057c5761154e611812565b6103e8810180911161057c57611567926103aa91611504565b90565b604051633d3f06c960e11b81526001600160a01b03918216600482015230602482015290602090829060449082907f0000000000000000000000000000000000000000000000000000000000000000165afa908115610271576000916115ce575090565b90506020813d6020116115f5575b816115e96020938361134b565b8101031261027d575190565b3d91506115dc565b603354906103e8820180921161057c57611615611812565b906103e8820180921161057c57611567926103aa91611504565b7ff97ed4e083acac67830025ecbc756d8fe847cdbdca4cee3fe1e128e98b54ecb560406064548151908152836020820152a17f6ab181e0440bfbf4bacdf2e99674735ce6638005490688c5f994f5399353e45260406065548151908152846020820152a18181116116a257606455606555565b60405162461bcd60e51b815260206004820152604b60248201527f53747261746567794261736554564c4c696d6974732e5f73657454564c4c696d60448201527f6974733a206d61785065724465706f7369742065786365656473206d6178546f60648201526a74616c4465706f7369747360a81b608482015260a490fd5b6001600160a01b038116908115611795577f6e9fcd539896fca60e8b0f01dd580233e48a6b0f7df013b89ba7f565869acdb660406000549381519060018060a01b038660101c1682526020820152a162010000600160b01b031990911660109190911b62010000600160b01b031617600055565b60405162461bcd60e51b815260206004820152604960248201527f5061757361626c652e5f73657450617573657252656769737472793a206e657760448201527f50617573657252656769737472792063616e6e6f7420626520746865207a65726064820152686f206164647265737360b81b608482015260a490fd5b6032546040516370a0823160e01b815230600482015290602090829060249082906001600160a01b03165afa908115610271576000916115ce575090565b9081670de0b6b3a76400000291670de0b6b3a764000083040361057c5761189a6020917fd2494f3479e5da49d386657c292c610b5b01df313d07c62eb0cfa49924a31be893611517565b604051908152a1565b909190156118af575090565b8151156118bf5750805190602001fd5b60405162461bcd60e51b81529081906118db906004830161129f565b0390fdfeab40a374bc51de372200a8bc981af8c9ecdc08dfdaef0bb6e09f88f3c616ef3da26469706673582212203ca8b0aee7e656185c72319dbcbfd3cd65a0ad9b6d61e17781f815e2f1e1a0e364736f6c634300081a0033","linkReferences":{}},"methodIdentifiers":{"deposit(address,uint256)":"47e7ef24","explanation()":"ab5921e1","getTVLLimits()":"df6fadc1","initialize(address,address)":"485cc955","initialize(uint256,uint256,address,address)":"019e2729","maxPerDeposit()":"43fe08b0","maxTotalDeposits()":"61b01b5d","pause(uint256)":"136439dd","pauseAll()":"595c6a67","paused()":"5c975abb","paused(uint8)":"5ac86ab7","pauserRegistry()":"886f1195","setPauserRegistry(address)":"10d67a2f","setTVLLimits(uint256,uint256)":"11c70c9d","shares(address)":"ce7c2ac2","sharesToUnderlying(uint256)":"f3e73875","sharesToUnderlyingView(uint256)":"7a8b2637","strategyManager()":"39b70e38","totalShares()":"3a98ef39","underlyingToShares(uint256)":"8c871019","underlyingToSharesView(uint256)":"e3dae51c","underlyingToken()":"2495a599","unpause(uint256)":"fabc1cbc","userUnderlying(address)":"8f6a6240","userUnderlyingView(address)":"553ca5f8","withdraw(address,address,uint256)":"d9caed12"},"id":70}