{"abi":[{"type":"function","name":"addShares","inputs":[{"name":"staker","type":"address","internalType":"address"},{"name":"token","type":"address","internalType":"contract IERC20"},{"name":"strategy","type":"address","internalType":"contract IStrategy"},{"name":"shares","type":"uint256","internalType":"uint256"}],"outputs":[],"stateMutability":"nonpayable"},{"type":"function","name":"addStrategiesToDepositWhitelist","inputs":[{"name":"strategiesToWhitelist","type":"address[]","internalType":"contract IStrategy[]"},{"name":"thirdPartyTransfersForbiddenValues","type":"bool[]","internalType":"bool[]"}],"outputs":[],"stateMutability":"nonpayable"},{"type":"function","name":"beaconChainETHStrategy","inputs":[],"outputs":[{"name":"","type":"address","internalType":"contract IStrategy"}],"stateMutability":"view"},{"type":"function","name":"cumulativeWithdrawalsQueued","inputs":[{"name":"","type":"address","internalType":"address"}],"outputs":[{"name":"","type":"uint256","internalType":"uint256"}],"stateMutability":"view"},{"type":"function","name":"delegation","inputs":[],"outputs":[{"name":"","type":"address","internalType":"contract IDelegationManager"}],"stateMutability":"view"},{"type":"function","name":"depositBeaconChainETH","inputs":[{"name":"staker","type":"address","internalType":"address"},{"name":"amount","type":"uint256","internalType":"uint256"}],"outputs":[],"stateMutability":"nonpayable"},{"type":"function","name":"depositIntoStrategy","inputs":[{"name":"strategy","type":"address","internalType":"contract IStrategy"},{"name":"token","type":"address","internalType":"contract IERC20"},{"name":"amount","type":"uint256","internalType":"uint256"}],"outputs":[{"name":"","type":"uint256","internalType":"uint256"}],"stateMutability":"nonpayable"},{"type":"function","name":"depositIntoStrategyWithSignature","inputs":[{"name":"strategy","type":"address","internalType":"contract IStrategy"},{"name":"token","type":"address","internalType":"contract IERC20"},{"name":"amount","type":"uint256","internalType":"uint256"},{"name":"staker","type":"address","internalType":"address"},{"name":"expiry","type":"uint256","internalType":"uint256"},{"name":"signature","type":"bytes","internalType":"bytes"}],"outputs":[{"name":"shares","type":"uint256","internalType":"uint256"}],"stateMutability":"nonpayable"},{"type":"function","name":"eigenPodManager","inputs":[],"outputs":[{"name":"","type":"address","internalType":"contract IEigenPodManager"}],"stateMutability":"view"},{"type":"function","name":"getDeposits","inputs":[{"name":"staker","type":"address","internalType":"address"}],"outputs":[{"name":"","type":"address[]","internalType":"contract IStrategy[]"},{"name":"","type":"uint256[]","internalType":"uint256[]"}],"stateMutability":"view"},{"type":"function","name":"owner","inputs":[],"outputs":[{"name":"","type":"address","internalType":"address"}],"stateMutability":"view"},{"type":"function","name":"pause","inputs":[{"name":"newPausedStatus","type":"uint256","internalType":"uint256"}],"outputs":[],"stateMutability":"nonpayable"},{"type":"function","name":"pauseAll","inputs":[],"outputs":[],"stateMutability":"nonpayable"},{"type":"function","name":"paused","inputs":[{"name":"index","type":"uint8","internalType":"uint8"}],"outputs":[{"name":"","type":"bool","internalType":"bool"}],"stateMutability":"view"},{"type":"function","name":"paused","inputs":[],"outputs":[{"name":"","type":"uint256","internalType":"uint256"}],"stateMutability":"view"},{"type":"function","name":"pauserRegistry","inputs":[],"outputs":[{"name":"","type":"address","internalType":"contract IPauserRegistry"}],"stateMutability":"view"},{"type":"function","name":"recordBeaconChainETHBalanceUpdate","inputs":[{"name":"overcommittedPodOwner","type":"address","internalType":"address"},{"name":"beaconChainETHStrategyIndex","type":"uint256","internalType":"uint256"},{"name":"sharesDelta","type":"int256","internalType":"int256"}],"outputs":[],"stateMutability":"nonpayable"},{"type":"function","name":"removeShares","inputs":[{"name":"staker","type":"address","internalType":"address"},{"name":"strategy","type":"address","internalType":"contract IStrategy"},{"name":"shares","type":"uint256","internalType":"uint256"}],"outputs":[],"stateMutability":"nonpayable"},{"type":"function","name":"removeStrategiesFromDepositWhitelist","inputs":[{"name":"","type":"address[]","internalType":"contract IStrategy[]"}],"outputs":[],"stateMutability":"pure"},{"type":"function","name":"renounceOwnership","inputs":[],"outputs":[],"stateMutability":"nonpayable"},{"type":"function","name":"setAddresses","inputs":[{"name":"_delegation","type":"address","internalType":"contract IDelegationManager"},{"name":"_eigenPodManager","type":"address","internalType":"contract IEigenPodManager"},{"name":"_slasher","type":"address","internalType":"contract ISlasher"}],"outputs":[],"stateMutability":"nonpayable"},{"type":"function","name":"setDeposits","inputs":[{"name":"staker","type":"address","internalType":"address"},{"name":"_strategiesToReturn","type":"address[]","internalType":"contract IStrategy[]"},{"name":"_sharesToReturn","type":"uint256[]","internalType":"uint256[]"}],"outputs":[],"stateMutability":"nonpayable"},{"type":"function","name":"setPauserRegistry","inputs":[{"name":"newPauserRegistry","type":"address","internalType":"contract IPauserRegistry"}],"outputs":[],"stateMutability":"nonpayable"},{"type":"function","name":"setStakerStrategyListLengthReturnValue","inputs":[{"name":"valueToSet","type":"uint256","internalType":"uint256"}],"outputs":[],"stateMutability":"nonpayable"},{"type":"function","name":"setStrategyWhitelist","inputs":[{"name":"strategy","type":"address","internalType":"contract IStrategy"},{"name":"value","type":"bool","internalType":"bool"}],"outputs":[],"stateMutability":"nonpayable"},{"type":"function","name":"setThirdPartyTransfersForbidden","inputs":[{"name":"strategy","type":"address","internalType":"contract IStrategy"},{"name":"value","type":"bool","internalType":"bool"}],"outputs":[],"stateMutability":"nonpayable"},{"type":"function","name":"sharesToReturn","inputs":[{"name":"","type":"address","internalType":"address"},{"name":"","type":"uint256","internalType":"uint256"}],"outputs":[{"name":"","type":"uint256","internalType":"uint256"}],"stateMutability":"view"},{"type":"function","name":"slasher","inputs":[],"outputs":[{"name":"","type":"address","internalType":"contract ISlasher"}],"stateMutability":"view"},{"type":"function","name":"stakerStrategyListLength","inputs":[{"name":"","type":"address","internalType":"address"}],"outputs":[{"name":"","type":"uint256","internalType":"uint256"}],"stateMutability":"view"},{"type":"function","name":"stakerStrategyListLengthReturnValue","inputs":[],"outputs":[{"name":"","type":"uint256","internalType":"uint256"}],"stateMutability":"view"},{"type":"function","name":"stakerStrategyShares","inputs":[{"name":"user","type":"address","internalType":"address"},{"name":"strategy","type":"address","internalType":"contract IStrategy"}],"outputs":[{"name":"shares","type":"uint256","internalType":"uint256"}],"stateMutability":"view"},{"type":"function","name":"stakerStrats","inputs":[{"name":"staker","type":"address","internalType":"address"}],"outputs":[{"name":"","type":"address[]","internalType":"contract IStrategy[]"}],"stateMutability":"view"},{"type":"function","name":"strategiesToReturn","inputs":[{"name":"","type":"address","internalType":"address"},{"name":"","type":"uint256","internalType":"uint256"}],"outputs":[{"name":"","type":"address","internalType":"contract IStrategy"}],"stateMutability":"view"},{"type":"function","name":"strategyIsWhitelistedForDeposit","inputs":[{"name":"","type":"address","internalType":"contract IStrategy"}],"outputs":[{"name":"","type":"bool","internalType":"bool"}],"stateMutability":"view"},{"type":"function","name":"strategyWhitelister","inputs":[],"outputs":[{"name":"","type":"address","internalType":"address"}],"stateMutability":"view"},{"type":"function","name":"thirdPartyTransfersForbidden","inputs":[{"name":"","type":"address","internalType":"contract IStrategy"}],"outputs":[{"name":"","type":"bool","internalType":"bool"}],"stateMutability":"view"},{"type":"function","name":"transferOwnership","inputs":[{"name":"newOwner","type":"address","internalType":"address"}],"outputs":[],"stateMutability":"nonpayable"},{"type":"function","name":"unpause","inputs":[{"name":"newPausedStatus","type":"uint256","internalType":"uint256"}],"outputs":[],"stateMutability":"nonpayable"},{"type":"function","name":"withdrawSharesAsTokens","inputs":[{"name":"recipient","type":"address","internalType":"address"},{"name":"strategy","type":"address","internalType":"contract IStrategy"},{"name":"shares","type":"uint256","internalType":"uint256"},{"name":"token","type":"address","internalType":"contract IERC20"}],"outputs":[],"stateMutability":"nonpayable"},{"type":"event","name":"Deposit","inputs":[{"name":"staker","type":"address","indexed":false,"internalType":"address"},{"name":"token","type":"address","indexed":false,"internalType":"contract IERC20"},{"name":"strategy","type":"address","indexed":false,"internalType":"contract IStrategy"},{"name":"shares","type":"uint256","indexed":false,"internalType":"uint256"}],"anonymous":false},{"type":"event","name":"Initialized","inputs":[{"name":"version","type":"uint8","indexed":false,"internalType":"uint8"}],"anonymous":false},{"type":"event","name":"OwnershipTransferred","inputs":[{"name":"previousOwner","type":"address","indexed":true,"internalType":"address"},{"name":"newOwner","type":"address","indexed":true,"internalType":"address"}],"anonymous":false},{"type":"event","name":"Paused","inputs":[{"name":"account","type":"address","indexed":true,"internalType":"address"},{"name":"newPausedStatus","type":"uint256","indexed":false,"internalType":"uint256"}],"anonymous":false},{"type":"event","name":"PauserRegistrySet","inputs":[{"name":"pauserRegistry","type":"address","indexed":false,"internalType":"contract IPauserRegistry"},{"name":"newPauserRegistry","type":"address","indexed":false,"internalType":"contract IPauserRegistry"}],"anonymous":false},{"type":"event","name":"StrategyAddedToDepositWhitelist","inputs":[{"name":"strategy","type":"address","indexed":false,"internalType":"contract IStrategy"}],"anonymous":false},{"type":"event","name":"StrategyRemovedFromDepositWhitelist","inputs":[{"name":"strategy","type":"address","indexed":false,"internalType":"contract IStrategy"}],"anonymous":false},{"type":"event","name":"StrategyWhitelisterChanged","inputs":[{"name":"previousAddress","type":"address","indexed":false,"internalType":"address"},{"name":"newAddress","type":"address","indexed":false,"internalType":"address"}],"anonymous":false},{"type":"event","name":"Unpaused","inputs":[{"name":"account","type":"address","indexed":true,"internalType":"address"},{"name":"newPausedStatus","type":"uint256","indexed":false,"internalType":"uint256"}],"anonymous":false},{"type":"event","name":"UpdatedThirdPartyTransfersForbidden","inputs":[{"name":"strategy","type":"address","indexed":false,"internalType":"contract IStrategy"},{"name":"value","type":"bool","indexed":false,"internalType":"bool"}],"anonymous":false}],"bytecode":{"object":"0x608080604052346015576114b7908161001b8239f35b600080fdfe608080604052600436101561001357600080fd5b60003560e01c90816301f820b2146111bb575080630d3908f41461115457806310d67a2f14611006578063136439dd14610eec57806332e89ace14610e4b578063363bf96414610dbb5780634665bcda14610d925780634e5a426314610d23578063595c6a6714610c695780635ac86ab714610c365780635c975abb14610c1857806363fca88814610bbf578063663c1de414610b80578063715018a614610b235780637a7e0d9214610b0a578063886f119514610ae15780638b8aac3c14610aba5780638c80d4e514610a985780638da5cb5b14610a6f5780639104c31914610a5357806394f649dd146108f6578063967fc0d2146108cd5780639a9519e0146108b45780639b4da03d146108755780639b7e2f771461083d5780639f00fa2414610824578063a1788484146107ea578063a1ca780b146107d1578063b1344271146107a8578063b5d8b5b814610777578063c4623ea11461074c578063c608c7f31461071f578063df5b354714610633578063df5cf7231461060a578063e243dc3c146105a7578063e2a818c514610407578063e7a050aa146103d9578063f2fde38b146103115763fabc1cbc146101cc57600080fd5b3461030c57602036600319011261030c5760975460405163755b36bd60e11b81526004803592602091839182906001600160a01b03165afa801561030057610227916000916102d1575b506001600160a01b031633146112fd565b60985419811981160361026657806098556040519081527f3582d1828e26bf56bd801502bc021ac0bc8afb57c826e4986b45593c8fad389c60203392a2005b60405162461bcd60e51b815260206004820152603860248201527f5061757361626c652e756e70617573653a20696e76616c696420617474656d7060448201527f7420746f2070617573652066756e6374696f6e616c69747900000000000000006064820152608490fd5b6102f3915060203d6020116102f9575b6102eb818361122e565b8101906112de565b38610216565b503d6102e1565b6040513d6000823e3d90fd5b600080fd5b3461030c57602036600319011261030c5761032a6111d6565b610332611429565b6001600160a01b0316801561038557603380546001600160a01b0319811683179091556001600160a01b03167f8be0079c531659141344cd1fd0a4f28419497f9722a3daafe3b4186f6b6457e0600080a3005b60405162461bcd60e51b815260206004820152602660248201527f4f776e61626c653a206e6577206f776e657220697320746865207a65726f206160448201526564647265737360d01b6064820152608490fd5b3461030c57606036600319011261030c576103f26111d6565b506103fb611202565b50602060405160008152f35b3461030c57606036600319011261030c576104206111d6565b60243567ffffffffffffffff811161030c576104409036906004016112ad565b9060443567ffffffffffffffff811161030c576104619036906004016112ad565b929093838203610556576001600160a01b0316600081815260cd60205260409020909267ffffffffffffffff831161052557600160401b8311610525576104ad838354818555846113f5565b90600052602060002060005b83811061053b575050505060005260ce60205260406000209167ffffffffffffffff821161052557600160401b8211610525576104fb828454818655856113f5565b9160005260206000209160005b82811061051157005b600190602083359301928186015501610508565b634e487b7160e01b600052604160045260246000fd5b6001906020610549856113e1565b94019381840155016104b9565b60405162461bcd60e51b8152602060048201526024808201527f53747261746567794d616e616765724d6f636b3a206c656e677468206d69736d6044820152630c2e8c6d60e31b6064820152608490fd5b3461030c57604036600319011261030c576105c06111d6565b6001600160a01b0316600090815260cd602052604090208054602435919082101561030c576020916105f19161127f565b905460405160039290921b1c6001600160a01b03168152f35b3461030c57600036600319011261030c5760c9546040516001600160a01b039091168152602090f35b3461030c57604036600319011261030c5760043567ffffffffffffffff811161030c576106649036906004016112ad565b60243567ffffffffffffffff811161030c576106849036906004016112ad565b60009291925b82811061069357005b6001600160a01b036106ae6106a98386896113d1565b6113e1565b1660005260cf6020526040600020600160ff198254161790556106d28183866113d1565b3590811515820361030c57600191610719906001600160a01b036106fa6106a985898c6113d1565b1660005260d160205260406000209060ff801983541691151516179055565b0161068a565b3461030c57608036600319011261030c576107386111d6565b50610741611202565b5061074a6111ec565b005b3461030c57608036600319011261030c576107656111d6565b5061076e611202565b5061074a611218565b3461030c57602036600319011261030c5760043567ffffffffffffffff811161030c5761074a9036906004016112ad565b3461030c57600036600319011261030c5760cb546040516001600160a01b039091168152602090f35b3461030c57606036600319011261030c5761074a6111d6565b3461030c57602036600319011261030c576001600160a01b0361080b6111d6565b1660005260d06020526020604060002054604051908152f35b3461030c57604036600319011261030c5761074a6111d6565b3461030c5761074a61084e36611250565b9060018060a01b031660005260cf60205260406000209060ff801983541691151516179055565b3461030c57602036600319011261030c576001600160a01b036108966111d6565b1660005260d1602052602060ff604060002054166040519015158152f35b3461030c57602036600319011261030c5760043560d255005b3461030c57600036600319011261030c5760cc546040516001600160a01b039091168152602090f35b3461030c57602036600319011261030c576001600160a01b036109176111d6565b168060005260cd60205260406000209060005260ce6020526040600020604051908160208454918281520190819460005260206000209060005b818110610a34575050508261096791038361122e565b604051928360208354918281520190819360005260206000209060005b818110610a1e575050508461099a91038561122e565b6040519384936040850190604086525180915260608501929060005b8181106109fc5750505060209084830382860152519182815201919060005b8181106109e3575050500390f35b82518452859450602093840193909201916001016109d5565b82516001600160a01b03168552879650602094850194909201916001016109b6565b8254845260209093019260019283019201610984565b82546001600160a01b0316845260209093019260019283019201610951565b3461030c57600036600319011261030c57602060405160008152f35b3461030c57600036600319011261030c576033546040516001600160a01b039091168152602090f35b3461030c57606036600319011261030c57610ab16111d6565b5061074a611202565b3461030c57602036600319011261030c57610ad36111d6565b50602060d254604051908152f35b3461030c57600036600319011261030c576097546040516001600160a01b039091168152602090f35b3461030c57604036600319011261030c576103f26111d6565b3461030c57600036600319011261030c57610b3c611429565b603380546001600160a01b031981169091556000906001600160a01b03167f8be0079c531659141344cd1fd0a4f28419497f9722a3daafe3b4186f6b6457e08280a3005b3461030c57602036600319011261030c576001600160a01b03610ba16111d6565b1660005260cf602052602060ff604060002054166040519015158152f35b3461030c57604036600319011261030c57610bd86111d6565b6001600160a01b0316600090815260ce602052604090208054602435919082101561030c57602091610c099161127f565b90549060031b1c604051908152f35b3461030c57600036600319011261030c576020609854604051908152f35b3461030c57602036600319011261030c5760043560ff811680910361030c5760016020911b806098541614604051908152f35b3461030c57600036600319011261030c5760975460405163237dfb4760e11b815233600482015290602090829060249082906001600160a01b03165afa801561030057610cbe91600091610cf4575b50611374565b60001960985560405160001981527fab40a374bc51de372200a8bc981af8c9ecdc08dfdaef0bb6e09f88f3c616ef3d60203392a2005b610d16915060203d602011610d1c575b610d0e818361122e565b81019061135c565b82610cb8565b503d610d04565b3461030c5761074a610d3436611250565b604080516001600160a01b03909316808452821515602085015291927f77d930df4937793473a95024d87a98fd2ccb9e92d3c2463b3dacd65d3e6a57869190a160005260d160205260406000209060ff801983541691151516179055565b3461030c57600036600319011261030c5760ca546040516001600160a01b039091168152602090f35b3461030c57606036600319011261030c576004356001600160a01b0381169081900361030c576024356001600160a01b038116919082900361030c576044356001600160a01b038116919082900361030c576001600160601b0360a01b60c954161760c9556001600160601b0360a01b60cb54161760cb556001600160601b0360a01b60ca54161760ca55600080f35b3461030c5760c036600319011261030c57610e646111d6565b50610e6d611202565b50610e766111ec565b5060a43567ffffffffffffffff811161030c573660238201121561030c5780600401359067ffffffffffffffff82116105255760405191610ec1601f8201601f19166020018461122e565b808352366024828401011161030c576000928160246020940184830137010152602060405160008152f35b3461030c57602036600319011261030c576004356024602060018060a01b03609754166040519283809263237dfb4760e11b82523360048301525afa801561030057610f3f91600091610fe75750611374565b60985481811603610f7c57806098556040519081527fab40a374bc51de372200a8bc981af8c9ecdc08dfdaef0bb6e09f88f3c616ef3d60203392a2005b60405162461bcd60e51b815260206004820152603860248201527f5061757361626c652e70617573653a20696e76616c696420617474656d70742060448201527f746f20756e70617573652066756e6374696f6e616c69747900000000000000006064820152608490fd5b611000915060203d602011610d1c57610d0e818361122e565b83610cb8565b3461030c57602036600319011261030c576004356001600160a01b0381169081900361030c5760975460405163755b36bd60e11b81526001600160a01b03821690602081600481855afa8015610300576110729160009161113557506001600160a01b031633146112fd565b82156110b85760407f6e9fcd539896fca60e8b0f01dd580233e48a6b0f7df013b89ba7f565869acdb6918151908152846020820152a16001600160a01b03191617609755005b60405162461bcd60e51b815260206004820152604960248201527f5061757361626c652e5f73657450617573657252656769737472793a206e657760448201527f50617573657252656769737472792063616e6e6f7420626520746865207a65726064820152686f206164647265737360b81b608482015260a490fd5b61114e915060203d6020116102f9576102eb818361122e565b85610216565b3461030c57602036600319011261030c5761116d6111d6565b50604051806020810160208252606051809152604082019060809060005b818110611199575050500390f35b82516001600160a01b031684528594506020938401939092019160010161118b565b3461030c57600036600319011261030c5760209060d2548152f35b600435906001600160a01b038216820361030c57565b606435906001600160a01b038216820361030c57565b602435906001600160a01b038216820361030c57565b604435906001600160a01b038216820361030c57565b90601f8019910116810190811067ffffffffffffffff82111761052557604052565b604090600319011261030c576004356001600160a01b038116810361030c5790602435801515810361030c5790565b80548210156112975760005260206000200190600090565b634e487b7160e01b600052603260045260246000fd5b9181601f8401121561030c5782359167ffffffffffffffff831161030c576020808501948460051b01011161030c57565b9081602091031261030c57516001600160a01b038116810361030c5790565b1561130457565b60405162461bcd60e51b815260206004820152602a60248201527f6d73672e73656e646572206973206e6f74207065726d697373696f6e6564206160448201526939903ab73830bab9b2b960b11b6064820152608490fd5b9081602091031261030c5751801515810361030c5790565b1561137b57565b60405162461bcd60e51b815260206004820152602860248201527f6d73672e73656e646572206973206e6f74207065726d697373696f6e6564206160448201526739903830bab9b2b960c11b6064820152608490fd5b91908110156112975760051b0190565b356001600160a01b038116810361030c5790565b91909182821061140457505050565b600052602060002091820191015b81811061141d575050565b60008155600101611412565b6033546001600160a01b0316330361143d57565b606460405162461bcd60e51b815260206004820152602060248201527f4f776e61626c653a2063616c6c6572206973206e6f7420746865206f776e65726044820152fdfea26469706673582212203d8a92df92439b06671860d1bec40bca76616e36a29271f339f6c71302c7d7e664736f6c634300081a0033","linkReferences":{}},"methodIdentifiers":{"addShares(address,address,address,uint256)":"c4623ea1","addStrategiesToDepositWhitelist(address[],bool[])":"df5b3547","beaconChainETHStrategy()":"9104c319","cumulativeWithdrawalsQueued(address)":"a1788484","delegation()":"df5cf723","depositBeaconChainETH(address,uint256)":"9f00fa24","depositIntoStrategy(address,address,uint256)":"e7a050aa","depositIntoStrategyWithSignature(address,address,uint256,address,uint256,bytes)":"32e89ace","eigenPodManager()":"4665bcda","getDeposits(address)":"94f649dd","owner()":"8da5cb5b","pause(uint256)":"136439dd","pauseAll()":"595c6a67","paused()":"5c975abb","paused(uint8)":"5ac86ab7","pauserRegistry()":"886f1195","recordBeaconChainETHBalanceUpdate(address,uint256,int256)":"a1ca780b","removeShares(address,address,uint256)":"8c80d4e5","removeStrategiesFromDepositWhitelist(address[])":"b5d8b5b8","renounceOwnership()":"715018a6","setAddresses(address,address,address)":"363bf964","setDeposits(address,address[],uint256[])":"e2a818c5","setPauserRegistry(address)":"10d67a2f","setStakerStrategyListLengthReturnValue(uint256)":"9a9519e0","setStrategyWhitelist(address,bool)":"9b7e2f77","setThirdPartyTransfersForbidden(address,bool)":"4e5a4263","sharesToReturn(address,uint256)":"63fca888","slasher()":"b1344271","stakerStrategyListLength(address)":"8b8aac3c","stakerStrategyListLengthReturnValue()":"01f820b2","stakerStrategyShares(address,address)":"7a7e0d92","stakerStrats(address)":"0d3908f4","strategiesToReturn(address,uint256)":"e243dc3c","strategyIsWhitelistedForDeposit(address)":"663c1de4","strategyWhitelister()":"967fc0d2","thirdPartyTransfersForbidden(address)":"9b4da03d","transferOwnership(address)":"f2fde38b","unpause(uint256)":"fabc1cbc","withdrawSharesAsTokens(address,address,uint256,address)":"c608c7f3"},"id":75}